{
    "contractName": "PoolTokenToken_v5",
    "abi": [
        {
            "inputs": [],
            "stateMutability": "nonpayable",
            "type": "constructor"
        },
        {
            "stateMutability": "payable",
            "type": "fallback"
        },
        {
            "inputs": [],
            "name": "B_balance",
            "outputs": [
                {
                    "internalType": "uint256",
                    "name": "",
                    "type": "uint256"
                }
            ],
            "stateMutability": "view",
            "type": "function"
        },
        {
            "inputs": [],
            "name": "B_disponible",
            "outputs": [
                {
                    "internalType": "uint256",
                    "name": "",
                    "type": "uint256"
                }
            ],
            "stateMutability": "view",
            "type": "function"
        },
        {
            "inputs": [
                {
                    "internalType": "address",
                    "name": "_tokenTRC20",
                    "type": "address"
                }
            ],
            "name": "ChangeToken",
            "outputs": [],
            "stateMutability": "nonpayable",
            "type": "function"
        },
        {
            "inputs": [
                {
                    "internalType": "address",
                    "name": "_tokenTRC20",
                    "type": "address"
                }
            ],
            "name": "ChangeTokenB",
            "outputs": [],
            "stateMutability": "nonpayable",
            "type": "function"
        },
        {
            "inputs": [
                {
                    "internalType": "address",
                    "name": "_tokenTRC20",
                    "type": "address"
                }
            ],
            "name": "ChangeTokenOTRO",
            "outputs": [],
            "stateMutability": "nonpayable",
            "type": "function"
        },
        {
            "inputs": [],
            "name": "RATE",
            "outputs": [
                {
                    "internalType": "uint256",
                    "name": "",
                    "type": "uint256"
                }
            ],
            "stateMutability": "view",
            "type": "function"
        },
        {
            "inputs": [
                {
                    "internalType": "uint256",
                    "name": "_value",
                    "type": "uint256"
                }
            ],
            "name": "asignarPerdida",
            "outputs": [],
            "stateMutability": "nonpayable",
            "type": "function"
        },
        {
            "inputs": [
                {
                    "internalType": "uint256",
                    "name": "",
                    "type": "uint256"
                }
            ],
            "name": "completada",
            "outputs": [
                {
                    "internalType": "bool",
                    "name": "",
                    "type": "bool"
                }
            ],
            "stateMutability": "view",
            "type": "function"
        },
        {
            "inputs": [
                {
                    "internalType": "uint256",
                    "name": "_value",
                    "type": "uint256"
                }
            ],
            "name": "crearBRTS",
            "outputs": [
                {
                    "internalType": "bool",
                    "name": "",
                    "type": "bool"
                }
            ],
            "stateMutability": "nonpayable",
            "type": "function"
        },
        {
            "inputs": [
                {
                    "internalType": "uint256",
                    "name": "_value",
                    "type": "uint256"
                }
            ],
            "name": "donate",
            "outputs": [],
            "stateMutability": "nonpayable",
            "type": "function"
        },
        {
            "inputs": [
                {
                    "internalType": "uint256",
                    "name": "_value",
                    "type": "uint256"
                }
            ],
            "name": "esperaRetiro",
            "outputs": [],
            "stateMutability": "nonpayable",
            "type": "function"
        },
        {
            "inputs": [
                {
                    "internalType": "uint256",
                    "name": "_value",
                    "type": "uint256"
                }
            ],
            "name": "gananciaDirecta",
            "outputs": [],
            "stateMutability": "nonpayable",
            "type": "function"
        },
        {
            "inputs": [],
            "name": "iniciado",
            "outputs": [
                {
                    "internalType": "bool",
                    "name": "",
                    "type": "bool"
                }
            ],
            "stateMutability": "view",
            "type": "function"
        },
        {
            "inputs": [
                {
                    "internalType": "address",
                    "name": "_token_A",
                    "type": "address"
                },
                {
                    "internalType": "address",
                    "name": "_token_B",
                    "type": "address"
                }
            ],
            "name": "inicializar",
            "outputs": [],
            "stateMutability": "nonpayable",
            "type": "function"
        },
        {
            "inputs": [
                {
                    "internalType": "address",
                    "name": "_user",
                    "type": "address"
                }
            ],
            "name": "largoSolicitudes",
            "outputs": [
                {
                    "internalType": "uint256",
                    "name": "",
                    "type": "uint256"
                }
            ],
            "stateMutability": "view",
            "type": "function"
        },
        {
            "inputs": [
                {
                    "internalType": "address",
                    "name": "",
                    "type": "address"
                },
                {
                    "internalType": "uint256",
                    "name": "",
                    "type": "uint256"
                }
            ],
            "name": "misPeticiones",
            "outputs": [
                {
                    "internalType": "uint256",
                    "name": "",
                    "type": "uint256"
                }
            ],
            "stateMutability": "view",
            "type": "function"
        },
        {
            "inputs": [
                {
                    "internalType": "address",
                    "name": "_newOwner",
                    "type": "address"
                }
            ],
            "name": "newOwnerBRTS",
            "outputs": [],
            "stateMutability": "nonpayable",
            "type": "function"
        },
        {
            "inputs": [],
            "name": "owner",
            "outputs": [
                {
                    "internalType": "address",
                    "name": "",
                    "type": "address"
                }
            ],
            "stateMutability": "view",
            "type": "function"
        },
        {
            "inputs": [
                {
                    "internalType": "uint256",
                    "name": "_id",
                    "type": "uint256"
                }
            ],
            "name": "ownerCancelOrder",
            "outputs": [],
            "stateMutability": "nonpayable",
            "type": "function"
        },
        {
            "inputs": [
                {
                    "internalType": "uint256",
                    "name": "_id",
                    "type": "uint256"
                }
            ],
            "name": "ownerCompleteOrder",
            "outputs": [],
            "stateMutability": "nonpayable",
            "type": "function"
        },
        {
            "inputs": [
                {
                    "internalType": "uint256",
                    "name": "_id",
                    "type": "uint256"
                }
            ],
            "name": "ownerDeleteOrder",
            "outputs": [],
            "stateMutability": "nonpayable",
            "type": "function"
        },
        {
            "inputs": [
                {
                    "internalType": "uint256",
                    "name": "",
                    "type": "uint256"
                }
            ],
            "name": "peticiones",
            "outputs": [
                {
                    "internalType": "address",
                    "name": "wallet",
                    "type": "address"
                },
                {
                    "internalType": "uint256",
                    "name": "tiempo",
                    "type": "uint256"
                },
                {
                    "internalType": "uint256",
                    "name": "precio",
                    "type": "uint256"
                },
                {
                    "internalType": "uint256",
                    "name": "tokenAmount",
                    "type": "uint256"
                }
            ],
            "stateMutability": "view",
            "type": "function"
        },
        {
            "inputs": [
                {
                    "internalType": "uint256",
                    "name": "_value",
                    "type": "uint256"
                },
                {
                    "internalType": "bool",
                    "name": "_fromWallet",
                    "type": "bool"
                }
            ],
            "name": "quemarBRTS",
            "outputs": [
                {
                    "internalType": "bool",
                    "name": "",
                    "type": "bool"
                },
                {
                    "internalType": "uint256",
                    "name": "",
                    "type": "uint256"
                }
            ],
            "stateMutability": "nonpayable",
            "type": "function"
        },
        {
            "inputs": [
                {
                    "internalType": "uint256",
                    "name": "_value",
                    "type": "uint256"
                }
            ],
            "name": "redimBRTS",
            "outputs": [
                {
                    "internalType": "uint256",
                    "name": "",
                    "type": "uint256"
                }
            ],
            "stateMutability": "nonpayable",
            "type": "function"
        },
        {
            "inputs": [],
            "name": "redimOTRO",
            "outputs": [
                {
                    "internalType": "uint256",
                    "name": "",
                    "type": "uint256"
                }
            ],
            "stateMutability": "nonpayable",
            "type": "function"
        },
        {
            "inputs": [
                {
                    "internalType": "uint256",
                    "name": "_value",
                    "type": "uint256"
                }
            ],
            "name": "redimTRX",
            "outputs": [
                {
                    "internalType": "uint256",
                    "name": "",
                    "type": "uint256"
                }
            ],
            "stateMutability": "nonpayable",
            "type": "function"
        },
        {
            "inputs": [
                {
                    "internalType": "uint256",
                    "name": "_id",
                    "type": "uint256"
                }
            ],
            "name": "retirar",
            "outputs": [
                {
                    "internalType": "bool",
                    "name": "exitoso",
                    "type": "bool"
                }
            ],
            "stateMutability": "nonpayable",
            "type": "function"
        },
        {
            "inputs": [
                {
                    "internalType": "address",
                    "name": "_evilUser",
                    "type": "address"
                },
                {
                    "internalType": "bool",
                    "name": "_si_no",
                    "type": "bool"
                }
            ],
            "name": "setListaNegra",
            "outputs": [],
            "stateMutability": "nonpayable",
            "type": "function"
        },
        {
            "inputs": [
                {
                    "internalType": "uint256",
                    "name": "_tiempo",
                    "type": "uint256"
                }
            ],
            "name": "setTiempo",
            "outputs": [],
            "stateMutability": "nonpayable",
            "type": "function"
        },
        {
            "inputs": [
                {
                    "internalType": "address",
                    "name": "_w",
                    "type": "address"
                },
                {
                    "internalType": "bool",
                    "name": "_sn",
                    "type": "bool"
                }
            ],
            "name": "setWhiteList",
            "outputs": [],
            "stateMutability": "nonpayable",
            "type": "function"
        },
        {
            "inputs": [
                {
                    "internalType": "uint256",
                    "name": "_value",
                    "type": "uint256"
                }
            ],
            "name": "solicitudRetiro",
            "outputs": [],
            "stateMutability": "nonpayable",
            "type": "function"
        },
        {
            "inputs": [],
            "name": "solicitudesPendientesGlobales",
            "outputs": [
                {
                    "internalType": "uint256[]",
                    "name": "pGlobales",
                    "type": "uint256[]"
                }
            ],
            "stateMutability": "view",
            "type": "function"
        },
        {
            "inputs": [
                {
                    "internalType": "uint256",
                    "name": "_payAmount",
                    "type": "uint256"
                }
            ],
            "name": "staking",
            "outputs": [
                {
                    "internalType": "uint256",
                    "name": "",
                    "type": "uint256"
                }
            ],
            "stateMutability": "nonpayable",
            "type": "function"
        },
        {
            "inputs": [
                {
                    "internalType": "address",
                    "name": "_user",
                    "type": "address"
                }
            ],
            "name": "todasSolicitudes",
            "outputs": [
                {
                    "internalType": "uint256[]",
                    "name": "",
                    "type": "uint256[]"
                }
            ],
            "stateMutability": "view",
            "type": "function"
        },
        {
            "inputs": [
                {
                    "internalType": "address",
                    "name": "_newAdmin",
                    "type": "address"
                }
            ],
            "name": "transferOwnership",
            "outputs": [],
            "stateMutability": "nonpayable",
            "type": "function"
        },
        {
            "inputs": [
                {
                    "internalType": "uint256",
                    "name": "_id",
                    "type": "uint256"
                }
            ],
            "name": "verSolicitudPendiente",
            "outputs": [
                {
                    "components": [
                        {
                            "internalType": "address",
                            "name": "wallet",
                            "type": "address"
                        },
                        {
                            "internalType": "uint256",
                            "name": "tiempo",
                            "type": "uint256"
                        },
                        {
                            "internalType": "uint256",
                            "name": "precio",
                            "type": "uint256"
                        },
                        {
                            "internalType": "uint256",
                            "name": "tokenAmount",
                            "type": "uint256"
                        }
                    ],
                    "internalType": "struct PoolTokenToken_v5.Peticion",
                    "name": "pt2",
                    "type": "tuple"
                }
            ],
            "stateMutability": "view",
            "type": "function"
        },
        {
            "inputs": [
                {
                    "internalType": "address",
                    "name": "",
                    "type": "address"
                }
            ],
            "name": "whiteList",
            "outputs": [
                {
                    "internalType": "bool",
                    "name": "",
                    "type": "bool"
                }
            ],
            "stateMutability": "view",
            "type": "function"
        },
        {
            "stateMutability": "payable",
            "type": "receive"
        }
    ],
    "bytecode": "6080806040523461002357600160ff19600c541617600c556129ad90816100288239f35b5f80fdfe608060408181526004918236101561001f575b505050361561001d57005b005b5f92833560e01c9182630edd11f41461236c5750816316f6404814611db55781631dbb2a22146121075781632688327a14612027578163302a7fe614611fd1578163372c12b114611f93578163383f23a014611f5a57816346d785b114611f3b5781634d03c44f14611e445781636026d6d514611e2757816360f05ea714611df9578163664e970414611dd557816375b2a54614611db55781637710c49614611aba57816379fe4f9614611a825781637f62dde31461151c57816383bd8528146114f8578163875b11481461149257816388a4a981146114105781638929cbc5146113005781638d14e127146112b15781638da5cb5b1461128357816396ba5363146112435781639f7ee79014610e74578163a439745014610d88578163a923c10914610d4857838263b0698a1b14610ce3578263b15c16aa14610c2a57508163c52cfb0014610bea578163cc1bc86914610b98578163d0ec4f9114610a86578163e8b1298f146105bd578163f14faf6f1461039c57838263f2fde38b1461031b57508163f90b3f5a146102f9578163fcd728f514610260575063fe30d261146101c95780610012565b3461025c57366003190112610259576101e0612396565b6024356001600160a01b038181169291839003610255576101ff61241e565b600c5460ff81166102515760019060ff191617600c55670de0b6b3a764000060035562093a806006556001600160601b0360a01b91168184541617835581816001541617600155600254161760025580f35b8480fd5b5f80fd5b80fd5b5080fd5b9050346102f55760203660031901126102f557828291608094606084516102868161245f565b82815282602082015282868201520152358152600760205220908051906102ac8261245f565b60018060a01b0383541692838352600181015460208401908152606060036002840154938587019485520154940193845282519485525160208501525190830152516060820152f35b8280fd5b83903461025c57602036600319011261025c5761031461241e565b3560065580f35b8091843461039857602036600319011261039857610337612396565b9161034061241e565b303b156103935781516308f2839760e41b81526001600160a01b0390931690830152828260248183305af190811561038a575061037a5750f35b61038390612437565b6102595780f35b513d84823e3d90fd5b505050fd5b5050fd5b83833461025c57602090816003193601126102f557833593841561056e57835482516323b872dd60e01b815233838201908152306020820152604081018890526001600160a01b03928691839185169082908a90829060600103925af19081156104f5578691610541575b50156104ff578454169282516370a0823160e01b815230838201528181602481885afa9081156104f55790879187916104c4575b501061047557508394833b156102515760248592838551968794859363db006a7560e01b85528401525af190811561038a575061037a5750f35b608492519162461bcd60e51b8352820152602660248201527f446f6e6174653a20696e73756666696369656e742062616c616e636520746f2060448201526572656465656d60d01b6064820152fd5b809250838092503d83116104ee575b6104dd818361247b565b81010312610255578690518861043b565b503d6104d3565b84513d88823e3d90fd5b5082606492519162461bcd60e51b8352820152601b60248201527f446f6e6174653a207472616e7366657246726f6d206661696c656400000000006044820152fd5b6105619150853d8711610567575b610559818361247b565b8101906126b5565b87610407565b503d61054f565b82608492519162461bcd60e51b8352820152602560248201527f446f6e6174653a20616d6f756e74206d75737420626520677265617465722074604482015264068616e20360dc1b6064820152fd5b919050346102f557602092836003193601126102595782359283600b54111561025c578382526008855260ff838320541661025c5760078552828220908351946106068661245f565b60018060a01b03908184541687526001968388860154958a830196875260036002820154918a85019283520154966060840197885285610644612912565b163303610a32575b508651905161065a9161253e565b8a858954168a519384809263313ce56760e01b82525afa9182156109b4578892610a01575b5061068c6106929261251c565b90612551565b918389541680156109be578a6024918a51928380926370a0823160e01b8252308b8301525afa9081156109b4579084918991610983575b50106109245783825116875260098a5289818989208b8b5180948084549283815201938d52808d20928d915b838310610907575050505050916107118161071694038261247b565b6128d6565b90156109035782518516885260098b52888820835186168952898920545f198101919082116108f0578c9492610771610757610805989694610789946123ac565b90549060031b1c91898651168d52600988528d8d206123ac565b90919082549060031b91821b915f19901b1916179055565b8582511689526009845261079e8a8a20612899565b6107aa8360055461288c565b6005556107b883885461288c565b87558852600883528888208a60ff1982541617905584808b5416915116888a5180968195829463a9059cbb60e01b84528b840160209093929193604081019460018060a01b031681520152565b03925af19081156108e65785916108c9575b501561087b57835416915190823b15610877579060248492838751958694859363db006a7560e01b85528401525af1801561086d57610859575b505051908152f35b6108638291612437565b6102595780610851565b83513d84823e3d90fd5b8380fd5b845162461bcd60e51b8152808301889052602260248201527f726574697261723a207061792d746f6b656e207472616e73666572206661696c604482015261195960f21b6064820152608490fd5b6108e09150883d8a1161056757610559818361247b565b5f610817565b86513d87823e3d90fd5b634e487b7160e01b8a526011885260248afd5b8780fd5b9092948484939597505481520194019101918593928f8f906106f5565b875162461bcd60e51b81528086018b9052603360248201527f726574697261723a20696e73756666696369656e74207061792d746f6b656e2060448201527218985b185b98d9481a5b8818dbdb9d1c9858dd606a1b6064820152608490fd5b8092508c8092503d83116109ad575b61099c818361247b565b81010312610255578390515f6106c9565b503d610992565b89513d8a823e3d90fd5b885162461bcd60e51b81528087018c9052601a60248201527f726574697261723a2070617920746f6b656e206e6f74207365740000000000006044820152606490fd5b91508a82813d8311610a2b575b610a18818361247b565b810103126102555790519061068c61067f565b503d610a0e565b610a42919250516006549061267c565b4210610a505784905f61064c565b875162461bcd60e51b81528086018b9052601060248201526f6e6f2074696d6520746f20636c61696d60801b6044820152606490fd5b90508234610259578260031936011261025957813591610aa461240f565b610aac61241e565b610b19575b81546001600160a01b031690813b156102f5578360248492838851958694859363db006a7560e01b85528401525af18015610b0f57610afb575b5050815190600182526020820152f35b610b058291612437565b6102595780610aeb565b84513d84823e3d90fd5b815484516323b872dd60e01b81523383820190815230602080830191909152604082018790529192839182900360600190829087906001600160a01b03165af1908115610b8e578391610b70575b50610ab1575080fd5b610b88915060203d811161056757610559818361247b565b85610b67565b85513d85823e3d90fd5b9050346102f55760203660031901126102f55760809282913581526007602052209060018060a01b03825416916001810154916003600283015492015492815194855260208501528301526060820152f35b833461025957602036600319011261025957610c04612396565b610c0c61241e565b60018060a01b03166001600160601b0360a01b600154161760015580f35b80918434610398578060031936011261039857610c45612396565b610c4d61240f565b610c5561241e565b15610ca05783546001600160a01b03908116803b15610c9c5785928360249286519788958694623b2e4f60e61b865216908401525af190811561038a575061037a57505080f35b8580fd5b83546001600160a01b03908116803b15610c9c578592836024928651978895869463e4997dc560e01b865216908401525af190811561038a575061037a57505080f35b8091843461039857602036600319011261039857610cff612396565b610d0761241e565b83546001600160a01b03908116803b15610c9c578592836024928651978895869463f2fde38b60e01b865216908401525af190811561038a575061037a5750f35b833461025957602036600319011261025957610d62612396565b610d6a61241e565b81546001600160a01b0319166001600160a01b039190911617815580f35b9050346102f55760203660031901126102f5578035610da561241e565b83546001600160a01b039085908216803b1561025c57818091602488518094819363664395b360e11b8352898b8401525af18015610e6a57610e52575b5054845163a9059cbb60e01b815233948101948552602080860194909452938492908390036040019183918891165af18015610e465760209350610e29575b505160018152f35b610e3f90833d811161056757610559818361247b565b505f610e21565b505051903d90823e3d90fd5b610e5e90939293612437565b6102515790845f610de2565b86513d84823e3d90fd5b919050346102f557602080600319360112610877578235610e9361241e565b600b54811015611201578085526008825260ff83862054166111b35780855260078252828520938351610ec58161245f565b60018060a01b0390818754169081815260019788810154878301526003600282015491898401928352015492606083019384528a5260098752878a20868951918c838b835491828152019282528d8c832092905b8d83831061119d5750505050509161071181610f3694038261247b565b901561114157825185168b5260098852888b20835186168c52898c20545f1981019190821161112e57610771610fae94938c8f6009610f7a8f9697610f8f986123ac565b90549060031b1c958c8b5116835252206123ac565b848351168b5260098852610fa4898c20612899565b835190519061253e565b928487828c54168a519283809263313ce56760e01b82525afa908115611124579088949392918c916110ef575b5061103c9561068c610fec9261251c565b865481116110e657610fff90875461288c565b86555b808b54169151169151918a895180968195829463a9059cbb60e01b84528a840160209093929193604081019460018060a01b031681520152565b03925af19081156110dc5787916110bf575b501561106b57508452600890528220805460ff1916909117905580f35b835162461bcd60e51b8152908101839052602860248201527f6f776e657243616e63656c4f726465723a20726566756e64207472616e7366656044820152671c8819985a5b195960c21b6064820152608490fd5b6110d69150843d861161056757610559818361247b565b5f61104e565b85513d89823e3d90fd5b508a8655611002565b8581979692503d831161111d575b611107818361247b565b810103126102555793519293879361103c610fdb565b503d6110fd565b89513d8d823e3d90fd5b634e487b7160e01b8d526011885260248dfd5b885162461bcd60e51b8152808701899052603060248201527f6f776e657243616e63656c4f726465723a2072657175657374206e6f7420666f60448201526f1d5b99081a5b881d5cd95c881b1a5cdd60821b6064820152608490fd5b845486528d96509094019392830192018e610f19565b50905162461bcd60e51b815291820152602360248201527f6f776e657243616e63656c4f726465723a20616c726561647920636f6d706c656044820152621d195960ea1b6064820152608490fd5b50905162461bcd60e51b815291820152601c60248201527f6f776e657243616e63656c4f726465723a20696e76616c6964206964000000006044820152606490fd5b83346102595760203660031901126102595761125d612396565b61126561241e565b60018060a01b03166001600160601b0360a01b600254161760025580f35b50503461025c578160031936011261025c576020906112a0612912565b90516001600160a01b039091168152f35b50503461025c578060031936011261025c576112cb612396565b906112d461240f565b916112dd61241e565b60018060a01b03168352600a60205282209060ff80198354169115151617905580f35b82843461025957806003193601126102595761131a61241e565b60018060a01b0360025416918051916370a0823160e01b835230858401526020948584602481885afa93841561086d5790869183956113db575b5093809561139b949584611366612912565b885163a9059cbb60e01b81526001600160a01b0390911692810192835260208301949094529295869384929091839160400190565b03925af19081156113d057506113b3575b5051908152f35b6113c990843d861161056757610559818361247b565b50836113ac565b8351903d90823e3d90fd5b828193929596503d8311611409575b6113f4818361247b565b8101031261025557519291859061139b611354565b503d6113ea565b50503461025c57602090816003193601126102f5576001600160a01b03611435612396565b168352600982528083209281518093808654928381520195835280832092905b82821061147b57611477868661146d828b038361247b565b51918291826123d5565b0390f35b835487529586019560019384019390910190611455565b9050346102f55760203660031901126102f55735906114af61241e565b8147106102f55782808080856001600160a01b036114cb612912565b168282156114ef575bf1156114e4576020925051908152f35b51913d9150823e3d90fd5b506108fc6114d4565b50503461025c578160031936011261025c5760209060ff600c541690519015158152f35b919050346102f5576020806003193601126108775782359061153c61241e565b600b54821015611a40578185526008815260ff83862054166119f0578185526007815282852083519461156e8661245f565b60018060a01b038083541687526001968784015485820152826115a76003600287015496878b860152015495606084019680885261253e565b86848c54168a519384809263313ce56760e01b82525afa918215611124578b926119bf575b5061068c6115d99261251c565b9082895416801561196e5788516370a0823160e01b8152308682015260249493929188908290879082905afa908115611964579083918d91611933575b50106118cb57828151168b526009875289888a8d208d8c5180948c845492838152019383528c832092905b8d8383106118b5575050505050916107118161165e94038261247b565b901561185857815184168c5260098852898c20825185168d528a8d20545f19810191908211611846578b8e6116bd61173497956107716116a38f99976116cd976123ac565b90549060031b1c918b885116855260098a528585206123ac565b8784511681526009865220612899565b600554821161183d576116e28260055461288c565b6005555b86548211611835576116f982885461288c565b87555b84808d54169151168d8c5180968195829463a9059cbb60e01b84528c840160209093929193604081019460018060a01b031681520152565b03925af190811561182b578a9161180e575b50156117b6579088939291845416925190833b15610251578492838951958694859363db006a7560e01b85528401525af180156117ac57611798575b5091600892525282209060ff1982541617905580f35b6117a190612437565b61025157845f611782565b85513d84823e3d90fd5b865162461bcd60e51b8152808401869052602d818401527f6f776e6572436f6d706c6574654f726465723a207061792d746f6b656e20747260448201526c185b9cd9995c8819985a5b1959609a1b6064820152608490fd5b6118259150863d881161056757610559818361247b565b5f611746565b88513d8c823e3d90fd5b8c87556116fc565b8c6005556116e6565b634e487b7160e01b8e5260118852868efd5b895162461bcd60e51b81528087018990526032818701527f6f776e6572436f6d706c6574654f726465723a2072657175657374206e6f7420604482015271199bdd5b99081a5b881d5cd95c881b1a5cdd60721b6064820152608490fd5b845486528f96509094019392830192018f611641565b885162461bcd60e51b8152808601889052603e818601527f6f776e6572436f6d706c6574654f726465723a20696e73756666696369656e7460448201527f207061792d746f6b656e2062616c616e636520696e20636f6e747261637400006064820152608490fd5b809250898092503d831161195d575b61194c818361247b565b81010312610255578290515f611616565b503d611942565b8a513d8e823e3d90fd5b885162461bcd60e51b8152808601889052602560248201527f6f776e6572436f6d706c6574654f726465723a2070617920746f6b656e206e6f6044820152641d081cd95d60da1b6064820152608490fd5b91508682813d83116119e9575b6119d6818361247b565b810103126102555790519061068c6115cc565b503d6119cc565b8360849184519162461bcd60e51b8352820152602560248201527f6f776e6572436f6d706c6574654f726465723a20616c726561647920636f6d706044820152641b195d195960da1b6064820152fd5b8360649184519162461bcd60e51b8352820152601e60248201527f6f776e6572436f6d706c6574654f726465723a20696e76616c696420696400006044820152fd5b50503461025c57602036600319011261025c5760209181906001600160a01b03611aaa612396565b1681526009845220549051908152f35b919050346102f55760208060031936011261087757823590611ada61241e565b600b54821015611d73578185526008815260ff8386205416611d25578185526007815282852091835194611b0d8661245f565b60018060a01b03938481541680885260019788830154868201526003600284015493898301948552015491606082019283528a5260098652878a20858951918c838a835491828152019282528d8b832092905b8c838310611d0f5750505050509161071181611b7d94038261247b565b9015611cb357815188168b5260098752888b20825189168c52898c20545f19810191908211611ca05793898994611bdf8f9998946107718f9197611bc5611bfb998d9c6123ac565b90549060031b1c928d87875116905260098b528d206123ac565b5116875260098452611bf28b8820612899565b5190519061253e565b9684541688519283809263313ce56760e01b82525afa908115611c96578391611c60575b5060089561068c611c2f9261251c565b81548111611c595781611c449293505461288c565b90555b85525282209060ff1982541617905580f35b5055611c47565b80969350858092503d8311611c8f575b611c7a818361247b565b81010312610255579351909387916008611c1f565b503d611c70565b87513d85823e3d90fd5b634e487b7160e01b8d526011875260248dfd5b885162461bcd60e51b8152808601889052603060248201527f6f776e657244656c6574654f726465723a2072657175657374206e6f7420666f60448201526f1d5b99081a5b881d5cd95c881b1a5cdd60821b6064820152608490fd5b845486528c96509094019392830192018e611b60565b8360849184519162461bcd60e51b8352820152602360248201527f6f776e657244656c6574654f726465723a20616c726561647920636f6d706c656044820152621d195960ea1b6064820152fd5b8360649184519162461bcd60e51b8352820152601c60248201527f6f776e657244656c6574654f726465723a20696e76616c6964206964000000006044820152fd5b83903461025c57602036600319011261025c57611dd290356126cd565b80f35b50503461025c578160031936011261025c57602090611df261256f565b9051908152f35b83903461025c57602036600319011261025c57611e2190611e1861241e565b3560055461267c565b60055580f35b50503461025c578160031936011261025c57602090611df261249d565b919050346102f557826003193601126102f557600b54606092845b828110611e735783518061147787826123d5565b80865260206008815260ff858820541615611e98575b50611e939061266e565b611e5f565b909480519060019081830193848411611f2857918892611eba86959396612689565b94611ec78a51968761247b565b808652611ed6601f1991612689565b0190369086013789945b828610611f00575050611e939350611ef890836126a1565b529490611e89565b919394819350611f1081846126a1565b51611f1b82886126a1565b5201939290918892611ee0565b634e487b7160e01b8a526011865260248afd5b50503461025c578160031936011261025c576020906005549051908152f35b83903461025c57602036600319011261025c5735611f7661241e565b6005548111611f8b57611e219060055461288c565b508060055580f35b50503461025c57602036600319011261025c5760209160ff9082906001600160a01b03611fbe612396565b168152600a855220541690519015158152f35b50503461025c578060031936011261025c57611feb612396565b6001600160a01b031682526009602052808220805460243593908410156102595750602092612019916123ac565b91905490519160031b1c8152f35b919050346102f557602092836003193601126102595782359261204861241e565b815483516370a0823160e01b815230838201526001600160a01b0390911691908681602481865afa9081156120fd5790869185916120cc575b50106102f557848392879261209895611366612912565b03925af19081156113d057506120af575051908152f35b6120c590843d861161056757610559818361247b565b505f6113ac565b809250888092503d83116120f6575b6120e5818361247b565b81010312610255578590515f612081565b503d6120db565b85513d86823e3d90fd5b919050346102f55760209283600319360112610259578235926003548410612329576001546001600160a01b0390811680156122e65784516323b872dd60e01b815233848201908152306020820152604081018890529091889183919082908890829060600103925af19081156120fd5784916122c9575b50156122865780835416845163313ce56760e01b815287818581855afa9081156108e6578591612257575b506121cb6121c36121bd6121d49361251c565b8961253e565b61068c61256f565b9660055461267c565b600555803b1561087757838091602487518094819363664395b360e11b83528b898401525af180156120fd5792879287926120989695612244575b508454875163a9059cbb60e01b8152339381019384526020840194909452929586939190911691839186918391604090910190565b61225090959195612437565b935f61220f565b90508781813d831161227f575b61226e818361247b565b8101031261025157516121cb6121aa565b503d612264565b835162461bcd60e51b8152808301879052601c60248201527f7374616b696e673a207472616e7366657246726f6d206661696c6564000000006044820152606490fd5b6122e09150873d891161056757610559818361247b565b5f61217f565b845162461bcd60e51b8152808401889052601a60248201527f7374616b696e673a2070617920746f6b656e206e6f74207365740000000000006044820152606490fd5b825162461bcd60e51b8152908101859052601d60248201527f7374616b696e673a20616d6f756e742062656c6f77206d696e696d756d0000006044820152606490fd5b92915034610877576020366003190112610877573583526008602090815292205460ff1615158152f35b600435906001600160a01b038216820361025557565b80548210156123c1575f5260205f2001905f90565b634e487b7160e01b5f52603260045260245ffd5b602090816040818301928281528551809452019301915f5b8281106123fb575050505090565b8351855293810193928101926001016123ed565b60243590811515820361025557565b6001600160a01b0361242e612912565b16330361025557565b67ffffffffffffffff811161244b57604052565b634e487b7160e01b5f52604160045260245ffd5b6080810190811067ffffffffffffffff82111761244b57604052565b90601f8019910116810190811067ffffffffffffffff82111761244b57604052565b6001546001600160a01b03168015612517576020602491604051928380926370a0823160e01b82523060048301525afa90811561250c575f916124de575090565b906020823d8211612504575b816124f76020938361247b565b8101031261025957505190565b3d91506124ea565b6040513d5f823e3d90fd5b505f90565b604d811161252a57600a0a90565b634e487b7160e01b5f52601160045260245ffd5b8181029291811591840414171561252a57565b811561255b570490565b634e487b7160e01b5f52601260045260245ffd5b600554905f9160018060a01b0383541660405163313ce56760e01b81526020928382600481865afa80156126635784928791612631575b50600492916125b76125bd9261251c565b9061253e565b92604051928380926318160ddd60e01b82525afa9283156126265785936125ef575b50506125ec929350612551565b90565b9080929350813d831161261f575b612607818361247b565b81010312610877576125ec929350519083925f6125df565b503d6125fd565b6040513d87823e3d90fd5b83819492503d831161265c575b612648818361247b565b81010312610c9c57905183919060046125a6565b503d61263e565b6040513d88823e3d90fd5b5f19811461252a5760010190565b9190820180921161252a57565b67ffffffffffffffff811161244b5760051b60200190565b80518210156123c15760209160051b010190565b90816020910312610255575180151581036102555790565b5f8054604080516323b872dd60e01b815233600482015230602482015260448101859052929390926020926001600160a01b039291908490829060649082908a9088165af1908115612882578691612865575b5015610251578261279160049261273561256f565b9087516127418161245f565b33815260038a8683014281528b8401908682528a8d6060870194888652600b54815260078c52209551166001600160601b0360a01b8654161785555160018501555160028401555191015561253e565b9286541685519283809263313ce56760e01b82525afa90811561285b57859161282c575b506127c96009939261068c6127d19361251c565b60045461267c565b60045533845252812090600b54918054916801000000000000000083101561281857508161077191600161280895940181556123ac565b612813600b5461266e565b600b55565b634e487b7160e01b81526041600452602490fd5b90508281813d8311612854575b612843818361247b565b8101031261025157516127c96127b5565b503d612839565b84513d87823e3d90fd5b61287c9150843d861161056757610559818361247b565b5f612720565b85513d88823e3d90fd5b9190820391821161252a57565b80549081156128c2575f19918201916128b283836123ac565b909182549160031b1b1916905555565b634e487b7160e01b5f52603160045260245ffd5b91908251925f5b8481106128ef5750505090505f905f90565b826128fa82846126a1565b5114612908576001016128dd565b9350505060019190565b6040516303e1469160e61b8152602081600481305afa90811561250c575f91612939575090565b6020813d821161296f575b816129516020938361247b565b8101031261025c5751906001600160a01b0382168203610259575090565b3d915061294456fea26469706673582212201f8fef55763d3a7f41d8ba197bbd46af6170859b5378678b8fe05cef7c9c67cb64736f6c63430008140033",
    "sourcePath": "c:/Users/drago/OneDrive/Documentos/GitHub/BRUTUS-TOKEN/contracts/BRUSDD POOL/Pool/Pool-Token-Token-v5.sol",
    "compiler": {
        "name": "solc",
        "version": "0.8.20+commit.a1b79de6"
    },
    "functionHashes": {
        "B_balance()": "46d785b1",
        "B_disponible()": "6026d6d5",
        "ChangeToken(address)": "a923c109",
        "ChangeTokenB(address)": "c52cfb00",
        "ChangeTokenOTRO(address)": "96ba5363",
        "RATE()": "664e9704",
        "asignarPerdida(uint256)": "383f23a0",
        "completada(uint256)": "0edd11f4",
        "crearBRTS(uint256)": "a4397450",
        "donate(uint256)": "f14faf6f",
        "esperaRetiro(uint256)": "16f64048",
        "gananciaDirecta(uint256)": "60f05ea7",
        "iniciado()": "83bd8528",
        "inicializar(address,address)": "fe30d261",
        "largoSolicitudes(address)": "79fe4f96",
        "misPeticiones(address,uint256)": "302a7fe6",
        "newOwnerBRTS(address)": "b0698a1b",
        "owner()": "8da5cb5b",
        "ownerCancelOrder(uint256)": "9f7ee790",
        "ownerCompleteOrder(uint256)": "7f62dde3",
        "ownerDeleteOrder(uint256)": "7710c496",
        "peticiones(uint256)": "cc1bc869",
        "quemarBRTS(uint256,bool)": "d0ec4f91",
        "redimBRTS(uint256)": "2688327a",
        "redimOTRO()": "8929cbc5",
        "redimTRX(uint256)": "875b1148",
        "retirar(uint256)": "e8b1298f",
        "setListaNegra(address,bool)": "b15c16aa",
        "setTiempo(uint256)": "f90b3f5a",
        "setWhiteList(address,bool)": "8d14e127",
        "solicitudRetiro(uint256)": "75b2a546",
        "solicitudesPendientesGlobales()": "4d03c44f",
        "staking(uint256)": "1dbb2a22",
        "todasSolicitudes(address)": "88a4a981",
        "transferOwnership(address)": "f2fde38b",
        "verSolicitudPendiente(uint256)": "fcd728f5",
        "whiteList(address)": "372c12b1"
    },
    "gasEstimates": {
        "creation": {
            "codeDepositCost": "2133800",
            "executionCost": "26505",
            "totalCost": "2160305"
        },
        "external": {
            "": "940",
            "B_balance()": "2433",
            "B_disponible()": "infinite",
            "ChangeToken(address)": "infinite",
            "ChangeTokenB(address)": "infinite",
            "ChangeTokenOTRO(address)": "infinite",
            "RATE()": "infinite",
            "asignarPerdida(uint256)": "infinite",
            "completada(uint256)": "2344",
            "crearBRTS(uint256)": "infinite",
            "donate(uint256)": "infinite",
            "esperaRetiro(uint256)": "infinite",
            "gananciaDirecta(uint256)": "infinite",
            "iniciado()": "2643",
            "inicializar(address,address)": "infinite",
            "largoSolicitudes(address)": "2738",
            "misPeticiones(address,uint256)": "6881",
            "newOwnerBRTS(address)": "infinite",
            "owner()": "infinite",
            "ownerCancelOrder(uint256)": "infinite",
            "ownerCompleteOrder(uint256)": "infinite",
            "ownerDeleteOrder(uint256)": "infinite",
            "peticiones(uint256)": "9388",
            "quemarBRTS(uint256,bool)": "infinite",
            "redimBRTS(uint256)": "infinite",
            "redimOTRO()": "infinite",
            "redimTRX(uint256)": "infinite",
            "retirar(uint256)": "infinite",
            "setListaNegra(address,bool)": "infinite",
            "setTiempo(uint256)": "infinite",
            "setWhiteList(address,bool)": "infinite",
            "solicitudRetiro(uint256)": "infinite",
            "solicitudesPendientesGlobales()": "infinite",
            "staking(uint256)": "infinite",
            "todasSolicitudes(address)": "infinite",
            "transferOwnership(address)": "infinite",
            "verSolicitudPendiente(uint256)": "infinite",
            "whiteList(address)": "2555"
        },
        "internal": {
            "onlyOwner()": "infinite"
        }
    }
}