{
    "contractName": "BlackList",
    "abi": [
        {
            "anonymous": false,
            "inputs": [
                {
                    "indexed": true,
                    "internalType": "address",
                    "name": "_user",
                    "type": "address"
                }
            ],
            "name": "AddedBlackList",
            "type": "event"
        },
        {
            "anonymous": false,
            "inputs": [
                {
                    "indexed": true,
                    "internalType": "address",
                    "name": "_user",
                    "type": "address"
                }
            ],
            "name": "RemovedBlackList",
            "type": "event"
        },
        {
            "inputs": [
                {
                    "internalType": "address",
                    "name": "_evilUser",
                    "type": "address"
                }
            ],
            "name": "addBlackList",
            "outputs": [],
            "stateMutability": "nonpayable",
            "type": "function"
        },
        {
            "inputs": [],
            "name": "adminProxy",
            "outputs": [
                {
                    "internalType": "address",
                    "name": "",
                    "type": "address"
                }
            ],
            "stateMutability": "view",
            "type": "function"
        },
        {
            "inputs": [],
            "name": "contract_fast_pool",
            "outputs": [
                {
                    "internalType": "address",
                    "name": "",
                    "type": "address"
                }
            ],
            "stateMutability": "view",
            "type": "function"
        },
        {
            "inputs": [],
            "name": "contract_pool",
            "outputs": [
                {
                    "internalType": "address",
                    "name": "",
                    "type": "address"
                }
            ],
            "stateMutability": "view",
            "type": "function"
        },
        {
            "inputs": [],
            "name": "decimals",
            "outputs": [
                {
                    "internalType": "uint8",
                    "name": "",
                    "type": "uint8"
                }
            ],
            "stateMutability": "view",
            "type": "function"
        },
        {
            "inputs": [],
            "name": "iniciado",
            "outputs": [
                {
                    "internalType": "bool",
                    "name": "",
                    "type": "bool"
                }
            ],
            "stateMutability": "view",
            "type": "function"
        },
        {
            "inputs": [
                {
                    "internalType": "address",
                    "name": "",
                    "type": "address"
                }
            ],
            "name": "isBlackListed",
            "outputs": [
                {
                    "internalType": "bool",
                    "name": "",
                    "type": "bool"
                }
            ],
            "stateMutability": "view",
            "type": "function"
        },
        {
            "inputs": [],
            "name": "name",
            "outputs": [
                {
                    "internalType": "string",
                    "name": "",
                    "type": "string"
                }
            ],
            "stateMutability": "view",
            "type": "function"
        },
        {
            "inputs": [
                {
                    "internalType": "address",
                    "name": "_clearedUser",
                    "type": "address"
                }
            ],
            "name": "removeBlackList",
            "outputs": [],
            "stateMutability": "nonpayable",
            "type": "function"
        },
        {
            "inputs": [],
            "name": "symbol",
            "outputs": [
                {
                    "internalType": "string",
                    "name": "",
                    "type": "string"
                }
            ],
            "stateMutability": "view",
            "type": "function"
        },
        {
            "inputs": [],
            "name": "token_brst",
            "outputs": [
                {
                    "internalType": "address",
                    "name": "",
                    "type": "address"
                }
            ],
            "stateMutability": "view",
            "type": "function"
        }
    ],
    "bytecode": "60808060405234610036575f80546001600160a01b031916301790556007805461ff0019166101001790556105fd908161003b8239f35b5f80fdfe60806040818152600480361015610014575f80fd5b5f92833560e01c90816306fdde0314610400575080630ecb93c014610396578063313ce567146103745780636764a4d81461034b57806383bd8528146103245780638564af52146102f757806395d89b41146101f55780639efbe462146101c8578063c52f4f3414610141578063e47d6060146101035763e4997dc514610099575f80fd5b346100ff5760203660031901126100ff57356001600160a01b03811691908290036100ff576100c6610560565b81835260016020528220805460ff191690557fd7e9ec6e6ecd65492dce6bf513cd6867560d49544421d0783ddf06e76c24470c8280a280f35b8280fd5b50346100ff5760203660031901126100ff57356001600160a01b038116908190036100ff57818360ff92602095526001855220541690519015158152f35b5090346100ff57826003193601126100ff57825481516303e1469160e61b8152926001600160a01b0392916020918591829086165afa9283156101be576020949361018f575b505191168152f35b6101b0919350843d81116101b7575b6101a881836104c0565b81019061053d565b915f610187565b503d61019e565b81513d86823e3d90fd5b5050346101f157816003193601126101f15760085490516001600160a01b039091168152602090f35b5080fd5b5090346100ff57826003193601126100ff5780519183600b549060019082821c9282811680156102ed575b60209586861082146102da57508488529081156102b8575060011461025f575b61025b8686610251828b03836104c0565b51918291826104f6565b0390f35b929550600b83527f0175b7a638427703f0dbe7bb9bbf987a2551717b34e79f33b5b1008d1fa01db95b8284106102a5575050508261025b9461025192820101945f610240565b8054868501880152928601928101610288565b60ff191687860152505050151560051b83010192506102518261025b5f610240565b634e487b7160e01b845260229052602483fd5b93607f1693610220565b5050346101f157816003193601126101f157600754905160109190911c6001600160a01b03168152602090f35b5050346101f157816003193601126101f15760209060ff60075460081c1690519015158152f35b5050346101f157816003193601126101f15760095490516001600160a01b039091168152602090f35b5050346101f157816003193601126101f15760209060ff600c54169051908152f35b50346100ff5760203660031901126100ff57356001600160a01b03811691908290036100ff576103c4610560565b81835260016020528220600160ff198254161790557f42e160154868087d6bfdc0ca23d96a1c1cfa32f1b72ba9ba27b69b98a0d819dc8280a280f35b92919050346104bc57836003193601126104bc57600a54600181811c91869082811680156104b2575b60209586861082146102da57508488529081156102b857506001146104595761025b8686610251828b03836104c0565b929550600a83527fc65a7bb8d6351c1cf70c95a316cc6a92839c986682d98bc35f958f4883f9d2a85b82841061049f575050508261025b9461025192820101945f610240565b8054868501880152928601928101610482565b93607f1693610429565b8380fd5b90601f8019910116810190811067ffffffffffffffff8211176104e257604052565b634e487b7160e01b5f52604160045260245ffd5b602080825282518183018190529093925f5b82811061052957505060409293505f838284010152601f8019910116010190565b818101860151848201604001528501610508565b9081602091031261055c57516001600160a01b038116810361055c5790565b5f80fd5b5f546040516303e1469160e61b81526001600160a01b03916020908290600490829086165afa9081156105bc575f9161059e575b5016330361055c57565b6105b6915060203d81116101b7576101a881836104c0565b5f610594565b6040513d5f823e3d90fdfea264697066735822122000f39d79c8e13044426064f83f0ab634c6ade8ad2fbfe91798e3fa586d9c4f0b64736f6c63430008140033",
    "sourcePath": "c:/Users/Steven/Documents/GitHub/BRUTUS-TOKEN/contracts/TRC20-3.0_proxy - fBRST/Token-TRC20.sol",
    "compiler": {
        "name": "solc",
        "version": "0.8.20+commit.a1b79de6"
    },
    "functionHashes": {
        "addBlackList(address)": "0ecb93c0",
        "adminProxy()": "c52f4f34",
        "contract_fast_pool()": "6764a4d8",
        "contract_pool()": "9efbe462",
        "decimals()": "313ce567",
        "iniciado()": "83bd8528",
        "isBlackListed(address)": "e47d6060",
        "name()": "06fdde03",
        "removeBlackList(address)": "e4997dc5",
        "symbol()": "95d89b41",
        "token_brst()": "8564af52"
    },
    "gasEstimates": {
        "creation": {
            "codeDepositCost": "306600",
            "executionCost": "48808",
            "totalCost": "355408"
        },
        "external": {
            "addBlackList(address)": "infinite",
            "adminProxy()": "infinite",
            "contract_fast_pool()": "2363",
            "contract_pool()": "2451",
            "decimals()": "2326",
            "iniciado()": "2382",
            "isBlackListed(address)": "2593",
            "name()": "infinite",
            "removeBlackList(address)": "infinite",
            "symbol()": "infinite",
            "token_brst()": "2416"
        }
    }
}