{
    "contractName": "PoolBRSTv4",
    "abi": [
        {
            "inputs": [],
            "stateMutability": "nonpayable",
            "type": "constructor"
        },
        {
            "stateMutability": "payable",
            "type": "fallback"
        },
        {
            "inputs": [
                {
                    "internalType": "address",
                    "name": "_tokenTRC20",
                    "type": "address"
                }
            ],
            "name": "ChangeToken",
            "outputs": [],
            "stateMutability": "nonpayable",
            "type": "function"
        },
        {
            "inputs": [
                {
                    "internalType": "address",
                    "name": "_tokenTRC20",
                    "type": "address"
                }
            ],
            "name": "ChangeTokenOTRO",
            "outputs": [],
            "stateMutability": "nonpayable",
            "type": "function"
        },
        {
            "inputs": [],
            "name": "MIN_DEPOSIT",
            "outputs": [
                {
                    "internalType": "uint256",
                    "name": "",
                    "type": "uint256"
                }
            ],
            "stateMutability": "view",
            "type": "function"
        },
        {
            "inputs": [],
            "name": "RATE",
            "outputs": [
                {
                    "internalType": "uint256",
                    "name": "",
                    "type": "uint256"
                }
            ],
            "stateMutability": "view",
            "type": "function"
        },
        {
            "inputs": [],
            "name": "TIEMPO",
            "outputs": [
                {
                    "internalType": "uint256",
                    "name": "",
                    "type": "uint256"
                }
            ],
            "stateMutability": "view",
            "type": "function"
        },
        {
            "inputs": [],
            "name": "TRON_BALANCE",
            "outputs": [
                {
                    "internalType": "uint256",
                    "name": "",
                    "type": "uint256"
                }
            ],
            "stateMutability": "view",
            "type": "function"
        },
        {
            "inputs": [],
            "name": "TRON_PAY_BALANCE",
            "outputs": [
                {
                    "internalType": "uint256",
                    "name": "",
                    "type": "uint256"
                }
            ],
            "stateMutability": "view",
            "type": "function"
        },
        {
            "inputs": [],
            "name": "TRON_RR",
            "outputs": [
                {
                    "internalType": "uint256",
                    "name": "",
                    "type": "uint256"
                }
            ],
            "stateMutability": "view",
            "type": "function"
        },
        {
            "inputs": [],
            "name": "TRON_SOLICITADO",
            "outputs": [
                {
                    "internalType": "uint256",
                    "name": "",
                    "type": "uint256"
                }
            ],
            "stateMutability": "view",
            "type": "function"
        },
        {
            "inputs": [],
            "name": "Wallet_SR",
            "outputs": [
                {
                    "internalType": "address payable",
                    "name": "",
                    "type": "address"
                }
            ],
            "stateMutability": "view",
            "type": "function"
        },
        {
            "inputs": [
                {
                    "internalType": "address",
                    "name": "_wl_user",
                    "type": "address"
                },
                {
                    "internalType": "uint256",
                    "name": "_value",
                    "type": "uint256"
                }
            ],
            "name": "asignarDisponible",
            "outputs": [],
            "stateMutability": "nonpayable",
            "type": "function"
        },
        {
            "inputs": [
                {
                    "internalType": "uint256",
                    "name": "_value",
                    "type": "uint256"
                }
            ],
            "name": "asignarPerdida",
            "outputs": [],
            "stateMutability": "nonpayable",
            "type": "function"
        },
        {
            "inputs": [
                {
                    "internalType": "uint256",
                    "name": "",
                    "type": "uint256"
                }
            ],
            "name": "completada",
            "outputs": [
                {
                    "internalType": "bool",
                    "name": "",
                    "type": "bool"
                }
            ],
            "stateMutability": "view",
            "type": "function"
        },
        {
            "inputs": [
                {
                    "internalType": "uint256",
                    "name": "_value",
                    "type": "uint256"
                }
            ],
            "name": "crearBRTS",
            "outputs": [
                {
                    "internalType": "bool",
                    "name": "",
                    "type": "bool"
                }
            ],
            "stateMutability": "nonpayable",
            "type": "function"
        },
        {
            "inputs": [],
            "name": "descuentoRapido",
            "outputs": [
                {
                    "internalType": "uint256",
                    "name": "",
                    "type": "uint256"
                }
            ],
            "stateMutability": "view",
            "type": "function"
        },
        {
            "inputs": [
                {
                    "internalType": "address",
                    "name": "",
                    "type": "address"
                }
            ],
            "name": "disponible",
            "outputs": [
                {
                    "internalType": "uint256",
                    "name": "",
                    "type": "uint256"
                }
            ],
            "stateMutability": "view",
            "type": "function"
        },
        {
            "inputs": [
                {
                    "internalType": "uint256",
                    "name": "_value",
                    "type": "uint256"
                }
            ],
            "name": "esperaRetiro",
            "outputs": [
                {
                    "internalType": "uint256",
                    "name": "order",
                    "type": "uint256"
                }
            ],
            "stateMutability": "nonpayable",
            "type": "function"
        },
        {
            "inputs": [
                {
                    "internalType": "uint256",
                    "name": "_value",
                    "type": "uint256"
                }
            ],
            "name": "gananciaDirecta",
            "outputs": [],
            "stateMutability": "nonpayable",
            "type": "function"
        },
        {
            "inputs": [],
            "name": "index",
            "outputs": [
                {
                    "internalType": "uint256",
                    "name": "",
                    "type": "uint256"
                }
            ],
            "stateMutability": "view",
            "type": "function"
        },
        {
            "inputs": [],
            "name": "iniciado",
            "outputs": [
                {
                    "internalType": "bool",
                    "name": "",
                    "type": "bool"
                }
            ],
            "stateMutability": "view",
            "type": "function"
        },
        {
            "inputs": [],
            "name": "inicializar",
            "outputs": [],
            "stateMutability": "nonpayable",
            "type": "function"
        },
        {
            "inputs": [
                {
                    "internalType": "uint256",
                    "name": "_value",
                    "type": "uint256"
                }
            ],
            "name": "instaRetiro",
            "outputs": [
                {
                    "internalType": "bool",
                    "name": "",
                    "type": "bool"
                }
            ],
            "stateMutability": "nonpayable",
            "type": "function"
        },
        {
            "inputs": [
                {
                    "internalType": "address",
                    "name": "_user",
                    "type": "address"
                }
            ],
            "name": "largoSolicitudes",
            "outputs": [
                {
                    "internalType": "uint256",
                    "name": "",
                    "type": "uint256"
                }
            ],
            "stateMutability": "view",
            "type": "function"
        },
        {
            "inputs": [
                {
                    "internalType": "address",
                    "name": "",
                    "type": "address"
                },
                {
                    "internalType": "uint256",
                    "name": "",
                    "type": "uint256"
                }
            ],
            "name": "misSolicitudes",
            "outputs": [
                {
                    "internalType": "uint256",
                    "name": "",
                    "type": "uint256"
                }
            ],
            "stateMutability": "view",
            "type": "function"
        },
        {
            "inputs": [
                {
                    "internalType": "address",
                    "name": "_newOwner",
                    "type": "address"
                }
            ],
            "name": "newOwnerBRTS",
            "outputs": [],
            "stateMutability": "nonpayable",
            "type": "function"
        },
        {
            "inputs": [],
            "name": "owner",
            "outputs": [
                {
                    "internalType": "address",
                    "name": "",
                    "type": "address"
                }
            ],
            "stateMutability": "view",
            "type": "function"
        },
        {
            "inputs": [
                {
                    "internalType": "uint256",
                    "name": "",
                    "type": "uint256"
                }
            ],
            "name": "peticiones",
            "outputs": [
                {
                    "internalType": "address",
                    "name": "wallet",
                    "type": "address"
                },
                {
                    "internalType": "uint256",
                    "name": "tiempo",
                    "type": "uint256"
                },
                {
                    "internalType": "uint256",
                    "name": "precio",
                    "type": "uint256"
                },
                {
                    "internalType": "uint256",
                    "name": "brst",
                    "type": "uint256"
                }
            ],
            "stateMutability": "view",
            "type": "function"
        },
        {
            "inputs": [],
            "name": "precision",
            "outputs": [
                {
                    "internalType": "uint256",
                    "name": "",
                    "type": "uint256"
                }
            ],
            "stateMutability": "view",
            "type": "function"
        },
        {
            "inputs": [
                {
                    "internalType": "uint256",
                    "name": "_value",
                    "type": "uint256"
                }
            ],
            "name": "quemarBRTS",
            "outputs": [
                {
                    "internalType": "bool",
                    "name": "",
                    "type": "bool"
                },
                {
                    "internalType": "uint256",
                    "name": "",
                    "type": "uint256"
                }
            ],
            "stateMutability": "nonpayable",
            "type": "function"
        },
        {
            "inputs": [
                {
                    "internalType": "uint256",
                    "name": "_value",
                    "type": "uint256"
                }
            ],
            "name": "redimBRTS",
            "outputs": [
                {
                    "internalType": "uint256",
                    "name": "",
                    "type": "uint256"
                }
            ],
            "stateMutability": "nonpayable",
            "type": "function"
        },
        {
            "inputs": [],
            "name": "redimOTRO",
            "outputs": [
                {
                    "internalType": "uint256",
                    "name": "",
                    "type": "uint256"
                }
            ],
            "stateMutability": "nonpayable",
            "type": "function"
        },
        {
            "inputs": [
                {
                    "internalType": "uint256",
                    "name": "_value",
                    "type": "uint256"
                }
            ],
            "name": "redimTRX",
            "outputs": [
                {
                    "internalType": "uint256",
                    "name": "",
                    "type": "uint256"
                }
            ],
            "stateMutability": "nonpayable",
            "type": "function"
        },
        {
            "inputs": [
                {
                    "internalType": "uint256",
                    "name": "_id",
                    "type": "uint256"
                }
            ],
            "name": "retirar",
            "outputs": [
                {
                    "internalType": "bool",
                    "name": "exitoso",
                    "type": "bool"
                }
            ],
            "stateMutability": "nonpayable",
            "type": "function"
        },
        {
            "inputs": [
                {
                    "internalType": "address",
                    "name": "_wl_user",
                    "type": "address"
                },
                {
                    "internalType": "uint256",
                    "name": "_value",
                    "type": "uint256"
                }
            ],
            "name": "retirarDisponible",
            "outputs": [],
            "stateMutability": "nonpayable",
            "type": "function"
        },
        {
            "inputs": [
                {
                    "internalType": "address",
                    "name": "_evilUser",
                    "type": "address"
                },
                {
                    "internalType": "bool",
                    "name": "_si_no",
                    "type": "bool"
                }
            ],
            "name": "setListaNegra",
            "outputs": [],
            "stateMutability": "nonpayable",
            "type": "function"
        },
        {
            "inputs": [
                {
                    "internalType": "uint256",
                    "name": "_descuento",
                    "type": "uint256"
                },
                {
                    "internalType": "uint256",
                    "name": "_precision",
                    "type": "uint256"
                }
            ],
            "name": "setSalidaRapida",
            "outputs": [],
            "stateMutability": "nonpayable",
            "type": "function"
        },
        {
            "inputs": [
                {
                    "internalType": "uint256",
                    "name": "_dias",
                    "type": "uint256"
                }
            ],
            "name": "setTiempo",
            "outputs": [],
            "stateMutability": "nonpayable",
            "type": "function"
        },
        {
            "inputs": [
                {
                    "internalType": "address payable",
                    "name": "_w",
                    "type": "address"
                }
            ],
            "name": "setWalletSR",
            "outputs": [],
            "stateMutability": "nonpayable",
            "type": "function"
        },
        {
            "inputs": [
                {
                    "internalType": "address",
                    "name": "_w",
                    "type": "address"
                },
                {
                    "internalType": "bool",
                    "name": "_sn",
                    "type": "bool"
                }
            ],
            "name": "setWhiteList",
            "outputs": [],
            "stateMutability": "nonpayable",
            "type": "function"
        },
        {
            "inputs": [
                {
                    "internalType": "uint256",
                    "name": "_value",
                    "type": "uint256"
                }
            ],
            "name": "solicitudRetiro",
            "outputs": [
                {
                    "internalType": "bool",
                    "name": "",
                    "type": "bool"
                },
                {
                    "internalType": "uint256",
                    "name": "",
                    "type": "uint256"
                }
            ],
            "stateMutability": "nonpayable",
            "type": "function"
        },
        {
            "inputs": [],
            "name": "solicitudesPendientesGlobales",
            "outputs": [
                {
                    "internalType": "uint256[]",
                    "name": "pGlobales",
                    "type": "uint256[]"
                }
            ],
            "stateMutability": "view",
            "type": "function"
        },
        {
            "inputs": [],
            "name": "staking",
            "outputs": [
                {
                    "internalType": "uint256",
                    "name": "",
                    "type": "uint256"
                }
            ],
            "stateMutability": "payable",
            "type": "function"
        },
        {
            "inputs": [
                {
                    "internalType": "address",
                    "name": "_user",
                    "type": "address"
                }
            ],
            "name": "todasSolicitudes",
            "outputs": [
                {
                    "internalType": "uint256[]",
                    "name": "",
                    "type": "uint256[]"
                }
            ],
            "stateMutability": "view",
            "type": "function"
        },
        {
            "inputs": [],
            "name": "totalDisponible",
            "outputs": [
                {
                    "internalType": "uint256",
                    "name": "",
                    "type": "uint256"
                }
            ],
            "stateMutability": "view",
            "type": "function"
        },
        {
            "inputs": [
                {
                    "internalType": "address",
                    "name": "_newAdmin",
                    "type": "address"
                }
            ],
            "name": "transferOwnership",
            "outputs": [],
            "stateMutability": "nonpayable",
            "type": "function"
        },
        {
            "inputs": [
                {
                    "internalType": "uint256",
                    "name": "_id",
                    "type": "uint256"
                }
            ],
            "name": "verSolicitudPendiente",
            "outputs": [
                {
                    "components": [
                        {
                            "internalType": "address",
                            "name": "wallet",
                            "type": "address"
                        },
                        {
                            "internalType": "uint256",
                            "name": "tiempo",
                            "type": "uint256"
                        },
                        {
                            "internalType": "uint256",
                            "name": "precio",
                            "type": "uint256"
                        },
                        {
                            "internalType": "uint256",
                            "name": "brst",
                            "type": "uint256"
                        }
                    ],
                    "internalType": "struct PoolBRSTv4.Peticion",
                    "name": "pt2",
                    "type": "tuple"
                }
            ],
            "stateMutability": "view",
            "type": "function"
        },
        {
            "inputs": [
                {
                    "internalType": "address",
                    "name": "",
                    "type": "address"
                }
            ],
            "name": "whiteList",
            "outputs": [
                {
                    "internalType": "bool",
                    "name": "",
                    "type": "bool"
                }
            ],
            "stateMutability": "view",
            "type": "function"
        },
        {
            "stateMutability": "payable",
            "type": "receive"
        }
    ],
    "bytecode": "60806040526011805460ff1916600117905534801561001c575f80fd5b5061218b8061002a5f395ff3fe608060405260043610610273575f3560e01c80638929cbc51161014d578063d4ff5b33116100ba578063e8b1298f11610076578063e8b1298f146107b7578063ea0a88d4146107d6578063f2fde38b146107f5578063f4903cf714610814578063f90b3f5a14610828578063fcd728f51461084757005b8063d4ff5b3314610730578063d7b6e5b21461074f578063dcbe327e14610764578063dd1335d014610778578063e1e158a51461078d578063e849f448146107a257005b8063a923c10911610109578063a923c10914610636578063b0698a1b14610655578063b15c16aa14610674578063c7c277a914610693578063cc1bc869146106a7578063d3b5dc3b1461071b57005b80638929cbc5146105865780638d14e1271461059a5780638da5cb5b146105b957806390cc4c2e146105cd57806396ba5363146105f8578063a43974501461061757005b806340aabb57116101eb57806368adb6ea116101a757806368adb6ea146104bd57806375b2a546146104dc57806379fe4f96146104fb57806383bd85281461052f578063875b11481461054857806388a4a9811461056757005b806340aabb571461042d578063438490611461044c5780634cf088d9146104615780634d03c44f1461046957806360f05ea71461048a578063664e9704146104a957005b80632986c0e51161023a5780632986c0e5146103495780632a07d8f31461035e5780632a1bb87014610394578063372c12b1146103cb5780633808cd6b146103f9578063383f23a01461040e57005b80630de17b151461027c5780630edd11f41461029b57806316f64048146102de578063219ec6a11461030b5780632688327a1461032a57005b3661027a57005b005b348015610287575f80fd5b5061027a610296366004611e4f565b6108a2565b3480156102a6575f80fd5b506102c96102b5366004611e79565b600b6020525f908152604090205460ff1681565b60405190151581526020015b60405180910390f35b3480156102e9575f80fd5b506102fd6102f8366004611e79565b61091b565b6040519081526020016102d5565b348015610316575f80fd5b5061027a610325366004611e90565b610adf565b348015610335575f80fd5b506102fd610344366004611e79565b610af2565b348015610354575f80fd5b506102fd60105481565b348015610369575f80fd5b5061037d610378366004611e79565b610bfb565b6040805192151583526020830191909152016102d5565b34801561039f575f80fd5b506008546103b3906001600160a01b031681565b6040516001600160a01b0390911681526020016102d5565b3480156103d6575f80fd5b506102c96103e5366004611eb0565b600d6020525f908152604090205460ff1681565b348015610404575f80fd5b506102fd600f5481565b348015610419575f80fd5b5061027a610428366004611e79565b610ce4565b348015610438575f80fd5b506102c9610447366004611e79565b610cff565b348015610457575f80fd5b506102fd60095481565b6102fd610ed9565b348015610474575f80fd5b5061047d61108c565b6040516102d59190611ecb565b348015610495575f80fd5b5061027a6104a4366004611e79565b6110d2565b3480156104b4575f80fd5b506102fd6110e7565b3480156104c8575f80fd5b5061027a6104d7366004611eb0565b6111d9565b3480156104e7575f80fd5b5061037d6104f6366004611e79565b611203565b348015610506575f80fd5b506102fd610515366004611eb0565b6001600160a01b03165f908152600c602052604090205490565b34801561053a575f80fd5b506011546102c99060ff1681565b348015610553575f80fd5b506102fd610562366004611e79565b611231565b348015610572575f80fd5b5061047d610581366004611eb0565b611283565b348015610591575f80fd5b506102fd6112ec565b3480156105a5575f80fd5b5061027a6105b4366004611f1b565b6113ae565b3480156105c4575f80fd5b506103b36113e0565b3480156105d8575f80fd5b506102fd6105e7366004611eb0565b600e6020525f908152604090205481565b348015610603575f80fd5b5061027a610612366004611eb0565b61144b565b348015610622575f80fd5b506102c9610631366004611e79565b611475565b348015610641575f80fd5b5061027a610650366004611eb0565b611550565b348015610660575f80fd5b5061027a61066f366004611eb0565b611579565b34801561067f575f80fd5b5061027a61068e366004611f1b565b6115dd565b34801561069e575f80fd5b506102fd611679565b3480156106b2575f80fd5b506106f16106c1366004611e79565b600a6020525f908152604090208054600182015460028301546003909301546001600160a01b0390921692909184565b604080516001600160a01b03909516855260208501939093529183015260608201526080016102d5565b348015610726575f80fd5b506102fd60065481565b34801561073b575f80fd5b506102fd61074a366004611e4f565b611697565b34801561075a575f80fd5b506102fd60055481565b34801561076f575f80fd5b5061027a6116c2565b348015610783575f80fd5b506102fd60035481565b348015610798575f80fd5b506102fd60025481565b3480156107ad575f80fd5b506102fd60045481565b3480156107c2575f80fd5b506102c96107d1366004611e79565b61173a565b3480156107e1575f80fd5b5061027a6107f0366004611e4f565b611a67565b348015610800575f80fd5b5061027a61080f366004611eb0565b611ad9565b34801561081f575f80fd5b506007546102fd565b348015610833575f80fd5b5061027a610842366004611e79565b611b0f565b348015610852575f80fd5b50610866610861366004611e79565b611b1c565b6040516102d5919081516001600160a01b0316815260208083015190820152604080830151908201526060918201519181019190915260800190565b6108aa611b99565b6001600160a01b0382165f908152600d602052604090205460ff166108cd575f80fd5b6001600160a01b0382165f908152600e60205260409020546108ef9082611bbf565b6001600160a01b0383165f908152600e6020526040902055600f546109149082611bbf565b600f555050565b5f80546040516323b872dd60e01b8152336004820152306024820152604481018490526001600160a01b03909116906323b872dd906064016020604051808303815f875af115801561096f573d5f803e3d5ffd5b505050506040513d601f19601f820116820180604052508101906109939190611f52565b61099b575f80fd5b604080516080810182523381524260208201529081016109b96110e7565b815260209081018490526010545f908152600a82526040808220845181546001600160a01b0319166001600160a01b039182161782558585015160018301558583015160028301556060909501516003909101559054815163313ce56760e01b81529151610a9d94610a949492169263313ce5679260048083019391928290030181865afa158015610a4d573d5f803e3d5ffd5b505050506040513d601f19601f82011682018060405250810190610a719190611f6d565b610a7c90600a612078565b610a8e610a876110e7565b8690611c2b565b90611ca9565b60035490611bbf565b6003555060108054335f908152600c6020908152604082208054600181018255908352908220018290558254919290610ad58361208a565b9190505550919050565b610ae7611b99565b600591909155600655565b5f610afb611b99565b5f546040516370a0823160e01b815230600482015283916001600160a01b0316906370a0823190602401602060405180830381865afa158015610b40573d5f803e3d5ffd5b505050506040513d601f19601f82011682018060405250810190610b649190611f6d565b1015610b6e575f80fd5b5f546001600160a01b031663a9059cbb610b866113e0565b6040516001600160e01b031960e084901b1681526001600160a01b039091166004820152602481018590526044016020604051808303815f875af1158015610bd0573d5f803e3d5ffd5b505050506040513d601f19601f82011682018060405250810190610bf49190611f52565b5090919050565b5f80610c05611b99565b5f546040516323b872dd60e01b8152336004820152306024820152604481018590526001600160a01b03909116906323b872dd906064016020604051808303815f875af1158015610c58573d5f803e3d5ffd5b505050506040513d601f19601f82011682018060405250810190610c7c9190611f52565b610c84575f80fd5b5f5460405163db006a7560e01b8152600481018590526001600160a01b039091169063db006a75906024015f604051808303815f87803b158015610cc6575f80fd5b505af1158015610cd8573d5f803e3d5ffd5b50600196945050505050565b610cec611b99565b600754610cf99082611d0c565b60075550565b5f80610d525f8054906101000a90046001600160a01b03166001600160a01b031663313ce5676040518163ffffffff1660e01b8152600401602060405180830381865afa158015610a4d573d5f803e3d5ffd5b90505f610d5d611679565b335f908152600d602052604090205490915060ff16610d9c57610d956064610a8e600554600654610d8e91906120a2565b8590611c2b565b9150610dad565b50335f908152600e60205260409020545b818110158015610dbf57508160045410155b15610ed0575f546040516323b872dd60e01b8152336004820152306024820152604481018690526001600160a01b03909116906323b872dd906064016020604051808303815f875af1158015610e17573d5f803e3d5ffd5b505050506040513d601f19601f82011682018060405250810190610e3b9190611f52565b610e43575f80fd5b5f5460405163db006a7560e01b8152600481018690526001600160a01b039091169063db006a75906024015f604051808303815f87803b158015610e85575f80fd5b505af1158015610e97573d5f803e3d5ffd5b505060405133925084156108fc02915084905f818181858888f19350505050158015610ec5573d5f803e3d5ffd5b506001949350505050565b505f9392505050565b5f600254341015610ee8575f80fd5b60085460405134916001600160a01b03169082156108fc029083905f818181858888f19350505050158015610f1f573d5f803e3d5ffd5b50610fa9610f2b6110e7565b5f546040805163313ce56760e01b81529051610a8e926001600160a01b03169163313ce5679160048083019260209291908290030181865afa158015610f73573d5f803e3d5ffd5b505050506040513d601f19601f82011682018060405250810190610f979190611f6d565b610fa290600a612078565b8490611c2b565b600754909150610fb99034611bbf565b6007555f5460405163664395b360e11b8152600481018390526001600160a01b039091169063cc872b66906024015f604051808303815f87803b158015610ffe575f80fd5b505af1158015611010573d5f803e3d5ffd5b50505f5460405163a9059cbb60e01b8152336004820152602481018590526001600160a01b03909116925063a9059cbb91506044015b6020604051808303815f875af1158015611062573d5f803e3d5ffd5b505050506040513d601f19601f820116820180604052508101906110869190611f52565b50919050565b60605f5b6010548110156110ce575f818152600b602052604090205460ff166110bc576110b98282611d68565b91505b806110c68161208a565b915050611090565b5090565b6110da611b99565b600754610cf99082611bbf565b5f8054604080516318160ddd60e01b815290516111d4926001600160a01b0316916318160ddd9160048083019260209291908290030181865afa158015611130573d5f803e3d5ffd5b505050506040513d601f19601f820116820180604052508101906111549190611f6d565b5f546040805163313ce56760e01b81529051610a8e926001600160a01b03169163313ce5679160048083019260209291908290030181865afa15801561119c573d5f803e3d5ffd5b505050506040513d601f19601f820116820180604052508101906111c09190611f6d565b6111cb90600a612078565b60075490611c2b565b905090565b6111e1611b99565b600880546001600160a01b0319166001600160a01b0392909216919091179055565b5f8061120e83610cff565b1561121e57506001925f92509050565b5f6112288461091b565b91509150915091565b5f61123a611b99565b81471015611246575f80fd5b61124e6113e0565b6001600160a01b03166108fc8390811502906040515f60405180830381858888f19350505050158015610bf4573d5f803e3d5ffd5b6001600160a01b0381165f908152600c60209081526040918290208054835181840281018401909452808452606093928301828280156112e057602002820191905f5260205f20905b8154815260200190600101908083116112cc575b50505050509050919050565b5f6112f5611b99565b6001546040516370a0823160e01b81523060048201525f916001600160a01b0316906370a0823190602401602060405180830381865afa15801561133b573d5f803e3d5ffd5b505050506040513d601f19601f8201168201806040525081019061135f9190611f6d565b6001549091506001600160a01b031663a9059cbb61137b6113e0565b6040516001600160e01b031960e084901b1681526001600160a01b03909116600482015260248101849052604401611046565b6113b6611b99565b6001600160a01b03919091165f908152600d60205260409020805460ff1916911515919091179055565b5f80309050806001600160a01b031663f851a4406040518163ffffffff1660e01b8152600401602060405180830381865afa158015611421573d5f803e3d5ffd5b505050506040513d601f19601f8201168201806040525081019061144591906120b5565b91505090565b611453611b99565b600180546001600160a01b0319166001600160a01b0392909216919091179055565b5f61147e611b99565b5f5460405163664395b360e11b8152600481018490526001600160a01b039091169063cc872b66906024015f604051808303815f87803b1580156114c0575f80fd5b505af11580156114d2573d5f803e3d5ffd5b50505f5460405163a9059cbb60e01b8152336004820152602481018690526001600160a01b03909116925063a9059cbb91506044016020604051808303815f875af1158015611523573d5f803e3d5ffd5b505050506040513d601f19601f820116820180604052508101906115479190611f52565b50600192915050565b611558611b99565b5f80546001600160a01b0319166001600160a01b0392909216919091179055565b611581611b99565b5f5460405163f2fde38b60e01b81526001600160a01b0383811660048301529091169063f2fde38b906024015f604051808303815f87803b1580156115c4575f80fd5b505af11580156115d6573d5f803e3d5ffd5b5050505050565b6115e5611b99565b8015611648575f54604051623b2e4f60e61b81526001600160a01b03848116600483015290911690630ecb93c0906024015b5f604051808303815f87803b15801561162e575f80fd5b505af1158015611640573d5f803e3d5ffd5b505050505050565b5f5460405163e4997dc560e01b81526001600160a01b0384811660048301529091169063e4997dc590602401611617565b5f600f5447111561169257600f546111d4904790611d0c565b505f90565b600c602052815f5260405f2081815481106116b0575f80fd5b905f5260205f20015f91509150505481565b6116ca611b99565b60115460ff16156116d9575f80fd5b620f4240600255621669806009556011805460ff191660019081179091555f80546001600160a01b031990811673389ccc30de1d311738dffd3f60d4fd6188970f459081179092558254161790556005805560646006556377359400600455565b5f818152600a60209081526040808320546001600160a01b03168352600d90915281205460ff1661179a576010548210158061179157506009545f838152600a602052604090206001015461178e91611bbf565b42105b1561179a575f80fd5b5f80546040805163313ce56760e01b81529051611833926001600160a01b03169163313ce5679160048083019260209291908290030181865afa1580156117e3573d5f803e3d5ffd5b505050506040513d601f19601f820116820180604052508101906118079190611f6d565b61181290600a612078565b5f858152600a602052604090206002810154600390910154610a8e91611c2b565b90508061183e611679565b10611086575f838152600a6020526040812054611863906001600160a01b0316611283565b90505f5b8151811015611a5f5784828281518110611883576118836120d0565b602002602001015103611a4d575f858152600a60209081526040808320546001600160a01b03168352600c909152902080546118c1906001906120a2565b815481106118d1576118d16120d0565b5f918252602080832090910154878352600a82526040808420546001600160a01b03168452600c909252912080548390811061190f5761190f6120d0565b5f918252602080832090910192909255868152600a82526040808220546001600160a01b03168252600c9092522080548061194c5761194c6120e4565b5f828152602080822083015f19908101839055909201909255868252600a905260408082205490516001600160a01b039091169185156108fc02918691818181858888f193505050501580156119a4573d5f803e3d5ffd5b505f8054868252600a60205260409182902060030154915163db006a7560e01b815260048101929092526001600160a01b03169063db006a75906024015f604051808303815f87803b1580156119f8575f80fd5b505af1158015611a0a573d5f803e3d5ffd5b5050600754611a1c9250905084611d0c565b600755600354611a2c9084611d0c565b6003555f858152600b60205260409020805460ff1916600190811790915593505b80611a578161208a565b915050611867565b505050919050565b611a6f611b99565b6001600160a01b0382165f908152600d602052604090205460ff16611a92575f80fd5b6001600160a01b0382165f908152600e6020526040902054611ab49082611d0c565b6001600160a01b0383165f908152600e6020526040902055600f546109149082611d0c565b611ae1611b99565b6040516308f2839760e41b81526001600160a01b038216600482015230908190638f28397090602401611617565b611b17611b99565b600955565b611b4c60405180608001604052805f6001600160a01b031681526020015f81526020015f81526020015f81525090565b505f908152600a6020908152604091829020825160808101845281546001600160a01b03168152600182015492810192909252600281015492820192909252600390910154606082015290565b611ba16113e0565b6001600160a01b0316336001600160a01b031614611bbd575f80fd5b565b5f80611bcb83856120f8565b905083811015611c225760405162461bcd60e51b815260206004820152601b60248201527f536166654d6174683a206164646974696f6e206f766572666c6f77000000000060448201526064015b60405180910390fd5b90505b92915050565b5f825f03611c3a57505f611c25565b5f611c45838561210b565b905082611c528583612122565b14611c225760405162461bcd60e51b815260206004820152602160248201527f536166654d6174683a206d756c7469706c69636174696f6e206f766572666c6f6044820152607760f81b6064820152608401611c19565b5f808211611cf95760405162461bcd60e51b815260206004820152601a60248201527f536166654d6174683a206469766973696f6e206279207a65726f0000000000006044820152606401611c19565b5f611d048385612122565b949350505050565b5f82821115611d5d5760405162461bcd60e51b815260206004820152601e60248201527f536166654d6174683a207375627472616374696f6e206f766572666c6f7700006044820152606401611c19565b5f611d0483856120a2565b60605f83516001611d7991906120f8565b67ffffffffffffffff811115611d9157611d91612141565b604051908082528060200260200182016040528015611dba578160200160208202803683370190505b5090505f5b8451811015611e1157848181518110611dda57611dda6120d0565b6020026020010151828281518110611df457611df46120d0565b602090810291909101015280611e098161208a565b915050611dbf565b508281855181518110611e2657611e266120d0565b60209081029190910101529392505050565b6001600160a01b0381168114611e4c575f80fd5b50565b5f8060408385031215611e60575f80fd5b8235611e6b81611e38565b946020939093013593505050565b5f60208284031215611e89575f80fd5b5035919050565b5f8060408385031215611ea1575f80fd5b50508035926020909101359150565b5f60208284031215611ec0575f80fd5b8135611c2281611e38565b602080825282518282018190525f9190848201906040850190845b81811015611f0257835183529284019291840191600101611ee6565b50909695505050505050565b8015158114611e4c575f80fd5b5f8060408385031215611f2c575f80fd5b8235611f3781611e38565b91506020830135611f4781611f0e565b809150509250929050565b5f60208284031215611f62575f80fd5b8151611c2281611f0e565b5f60208284031215611f7d575f80fd5b5051919050565b634e487b7160e01b5f52601160045260245ffd5b600181815b80851115611fd257815f1904821115611fb857611fb8611f84565b80851615611fc557918102915b93841c9390800290611f9d565b509250929050565b5f82611fe857506001611c25565b81611ff457505f611c25565b816001811461200a576002811461201457612030565b6001915050611c25565b60ff84111561202557612025611f84565b50506001821b611c25565b5060208310610133831016604e8410600b8410161715612053575081810a611c25565b61205d8383611f98565b805f190482111561207057612070611f84565b029392505050565b5f6120838383611fda565b9392505050565b5f6001820161209b5761209b611f84565b5060010190565b81810381811115611c2557611c25611f84565b5f602082840312156120c5575f80fd5b8151611c2281611e38565b634e487b7160e01b5f52603260045260245ffd5b634e487b7160e01b5f52603160045260245ffd5b80820180821115611c2557611c25611f84565b8082028115828204841417611c2557611c25611f84565b5f8261213c57634e487b7160e01b5f52601260045260245ffd5b500490565b634e487b7160e01b5f52604160045260245ffdfea264697066735822122055cbb516463b4849fd9a383123baf3e3b9b8b9ce7282b372bdc6538bdee853a964736f6c63430008140033",
    "sourcePath": "c:/Users/STC/Documents/GitHub/BRUTUS-TOKEN/contracts/BRST POOL/Pool-BRST-v4.sol",
    "compiler": {
        "name": "solc",
        "version": "0.8.20+commit.a1b79de6"
    },
    "functionHashes": {
        "ChangeToken(address)": "a923c109",
        "ChangeTokenOTRO(address)": "96ba5363",
        "MIN_DEPOSIT()": "e1e158a5",
        "RATE()": "664e9704",
        "TIEMPO()": "43849061",
        "TRON_BALANCE()": "f4903cf7",
        "TRON_PAY_BALANCE()": "c7c277a9",
        "TRON_RR()": "e849f448",
        "TRON_SOLICITADO()": "dd1335d0",
        "Wallet_SR()": "2a1bb870",
        "asignarDisponible(address,uint256)": "0de17b15",
        "asignarPerdida(uint256)": "383f23a0",
        "completada(uint256)": "0edd11f4",
        "crearBRTS(uint256)": "a4397450",
        "descuentoRapido()": "d7b6e5b2",
        "disponible(address)": "90cc4c2e",
        "esperaRetiro(uint256)": "16f64048",
        "gananciaDirecta(uint256)": "60f05ea7",
        "index()": "2986c0e5",
        "iniciado()": "83bd8528",
        "inicializar()": "dcbe327e",
        "instaRetiro(uint256)": "40aabb57",
        "largoSolicitudes(address)": "79fe4f96",
        "misSolicitudes(address,uint256)": "d4ff5b33",
        "newOwnerBRTS(address)": "b0698a1b",
        "owner()": "8da5cb5b",
        "peticiones(uint256)": "cc1bc869",
        "precision()": "d3b5dc3b",
        "quemarBRTS(uint256)": "2a07d8f3",
        "redimBRTS(uint256)": "2688327a",
        "redimOTRO()": "8929cbc5",
        "redimTRX(uint256)": "875b1148",
        "retirar(uint256)": "e8b1298f",
        "retirarDisponible(address,uint256)": "ea0a88d4",
        "setListaNegra(address,bool)": "b15c16aa",
        "setSalidaRapida(uint256,uint256)": "219ec6a1",
        "setTiempo(uint256)": "f90b3f5a",
        "setWalletSR(address)": "68adb6ea",
        "setWhiteList(address,bool)": "8d14e127",
        "solicitudRetiro(uint256)": "75b2a546",
        "solicitudesPendientesGlobales()": "4d03c44f",
        "staking()": "4cf088d9",
        "todasSolicitudes(address)": "88a4a981",
        "totalDisponible()": "3808cd6b",
        "transferOwnership(address)": "f2fde38b",
        "verSolicitudPendiente(uint256)": "fcd728f5",
        "whiteList(address)": "372c12b1"
    },
    "gasEstimates": {
        "creation": {
            "codeDepositCost": "1717400",
            "executionCost": "26028",
            "totalCost": "1743428"
        },
        "external": {
            "": "229",
            "ChangeToken(address)": "infinite",
            "ChangeTokenOTRO(address)": "infinite",
            "MIN_DEPOSIT()": "2427",
            "RATE()": "infinite",
            "TIEMPO()": "2362",
            "TRON_BALANCE()": "2401",
            "TRON_PAY_BALANCE()": "4705",
            "TRON_RR()": "2449",
            "TRON_SOLICITADO()": "2405",
            "Wallet_SR()": "2426",
            "asignarDisponible(address,uint256)": "infinite",
            "asignarPerdida(uint256)": "infinite",
            "completada(uint256)": "2505",
            "crearBRTS(uint256)": "infinite",
            "descuentoRapido()": "2361",
            "disponible(address)": "2626",
            "esperaRetiro(uint256)": "infinite",
            "gananciaDirecta(uint256)": "infinite",
            "index()": "2340",
            "iniciado()": "2409",
            "inicializar()": "infinite",
            "instaRetiro(uint256)": "infinite",
            "largoSolicitudes(address)": "2621",
            "misSolicitudes(address,uint256)": "4776",
            "newOwnerBRTS(address)": "infinite",
            "owner()": "infinite",
            "peticiones(uint256)": "9012",
            "precision()": "2449",
            "quemarBRTS(uint256)": "infinite",
            "redimBRTS(uint256)": "infinite",
            "redimOTRO()": "infinite",
            "redimTRX(uint256)": "infinite",
            "retirar(uint256)": "infinite",
            "retirarDisponible(address,uint256)": "infinite",
            "setListaNegra(address,bool)": "infinite",
            "setSalidaRapida(uint256,uint256)": "infinite",
            "setTiempo(uint256)": "infinite",
            "setWalletSR(address)": "infinite",
            "setWhiteList(address,bool)": "infinite",
            "solicitudRetiro(uint256)": "infinite",
            "solicitudesPendientesGlobales()": "infinite",
            "staking()": "infinite",
            "todasSolicitudes(address)": "infinite",
            "totalDisponible()": "2428",
            "transferOwnership(address)": "infinite",
            "verSolicitudPendiente(uint256)": "9309",
            "whiteList(address)": "2627"
        },
        "internal": {
            "onlyOwner()": "infinite"
        }
    }
}