{
    "contractName": "PoolBRSTv4",
    "abi": [
        {
            "inputs": [],
            "stateMutability": "nonpayable",
            "type": "constructor"
        },
        {
            "stateMutability": "payable",
            "type": "fallback"
        },
        {
            "inputs": [
                {
                    "internalType": "address",
                    "name": "_tokenTRC20",
                    "type": "address"
                }
            ],
            "name": "ChangeToken",
            "outputs": [],
            "stateMutability": "nonpayable",
            "type": "function"
        },
        {
            "inputs": [
                {
                    "internalType": "address",
                    "name": "_tokenTRC20",
                    "type": "address"
                }
            ],
            "name": "ChangeTokenOTRO",
            "outputs": [],
            "stateMutability": "nonpayable",
            "type": "function"
        },
        {
            "inputs": [],
            "name": "MIN_DEPOSIT",
            "outputs": [
                {
                    "internalType": "uint256",
                    "name": "",
                    "type": "uint256"
                }
            ],
            "stateMutability": "view",
            "type": "function"
        },
        {
            "inputs": [],
            "name": "RATE",
            "outputs": [
                {
                    "internalType": "uint256",
                    "name": "",
                    "type": "uint256"
                }
            ],
            "stateMutability": "view",
            "type": "function"
        },
        {
            "inputs": [],
            "name": "TIEMPO",
            "outputs": [
                {
                    "internalType": "uint256",
                    "name": "",
                    "type": "uint256"
                }
            ],
            "stateMutability": "view",
            "type": "function"
        },
        {
            "inputs": [],
            "name": "TRON_BALANCE",
            "outputs": [
                {
                    "internalType": "uint256",
                    "name": "",
                    "type": "uint256"
                }
            ],
            "stateMutability": "view",
            "type": "function"
        },
        {
            "inputs": [],
            "name": "TRON_PAY_BALANCE",
            "outputs": [
                {
                    "internalType": "uint256",
                    "name": "",
                    "type": "uint256"
                }
            ],
            "stateMutability": "view",
            "type": "function"
        },
        {
            "inputs": [],
            "name": "TRON_RR",
            "outputs": [
                {
                    "internalType": "uint256",
                    "name": "",
                    "type": "uint256"
                }
            ],
            "stateMutability": "view",
            "type": "function"
        },
        {
            "inputs": [],
            "name": "TRON_SOLICITADO",
            "outputs": [
                {
                    "internalType": "uint256",
                    "name": "",
                    "type": "uint256"
                }
            ],
            "stateMutability": "view",
            "type": "function"
        },
        {
            "inputs": [],
            "name": "Wallet_SR",
            "outputs": [
                {
                    "internalType": "address payable",
                    "name": "",
                    "type": "address"
                }
            ],
            "stateMutability": "view",
            "type": "function"
        },
        {
            "inputs": [
                {
                    "internalType": "address",
                    "name": "_wl_user",
                    "type": "address"
                },
                {
                    "internalType": "uint256",
                    "name": "_value",
                    "type": "uint256"
                }
            ],
            "name": "asignarDisponible",
            "outputs": [],
            "stateMutability": "nonpayable",
            "type": "function"
        },
        {
            "inputs": [
                {
                    "internalType": "uint256",
                    "name": "_value",
                    "type": "uint256"
                }
            ],
            "name": "asignarPerdida",
            "outputs": [],
            "stateMutability": "nonpayable",
            "type": "function"
        },
        {
            "inputs": [
                {
                    "internalType": "uint256",
                    "name": "_value",
                    "type": "uint256"
                }
            ],
            "name": "crearBRTS",
            "outputs": [
                {
                    "internalType": "bool",
                    "name": "",
                    "type": "bool"
                }
            ],
            "stateMutability": "nonpayable",
            "type": "function"
        },
        {
            "inputs": [],
            "name": "descuentoRapido",
            "outputs": [
                {
                    "internalType": "uint256",
                    "name": "",
                    "type": "uint256"
                }
            ],
            "stateMutability": "view",
            "type": "function"
        },
        {
            "inputs": [
                {
                    "internalType": "address",
                    "name": "",
                    "type": "address"
                }
            ],
            "name": "disponible",
            "outputs": [
                {
                    "internalType": "uint256",
                    "name": "",
                    "type": "uint256"
                }
            ],
            "stateMutability": "view",
            "type": "function"
        },
        {
            "inputs": [
                {
                    "internalType": "uint256",
                    "name": "_value",
                    "type": "uint256"
                }
            ],
            "name": "esperaRetiro",
            "outputs": [],
            "stateMutability": "nonpayable",
            "type": "function"
        },
        {
            "inputs": [
                {
                    "internalType": "uint256",
                    "name": "_value",
                    "type": "uint256"
                }
            ],
            "name": "gananciaDirecta",
            "outputs": [],
            "stateMutability": "nonpayable",
            "type": "function"
        },
        {
            "inputs": [],
            "name": "index",
            "outputs": [
                {
                    "internalType": "uint256",
                    "name": "",
                    "type": "uint256"
                }
            ],
            "stateMutability": "view",
            "type": "function"
        },
        {
            "inputs": [],
            "name": "iniciado",
            "outputs": [
                {
                    "internalType": "bool",
                    "name": "",
                    "type": "bool"
                }
            ],
            "stateMutability": "view",
            "type": "function"
        },
        {
            "inputs": [],
            "name": "inicializar",
            "outputs": [],
            "stateMutability": "nonpayable",
            "type": "function"
        },
        {
            "inputs": [
                {
                    "internalType": "uint256",
                    "name": "_value",
                    "type": "uint256"
                }
            ],
            "name": "instaRetiro",
            "outputs": [
                {
                    "internalType": "bool",
                    "name": "",
                    "type": "bool"
                }
            ],
            "stateMutability": "nonpayable",
            "type": "function"
        },
        {
            "inputs": [
                {
                    "internalType": "address",
                    "name": "_user",
                    "type": "address"
                }
            ],
            "name": "largoSolicitudes",
            "outputs": [
                {
                    "internalType": "uint256",
                    "name": "",
                    "type": "uint256"
                }
            ],
            "stateMutability": "view",
            "type": "function"
        },
        {
            "inputs": [
                {
                    "internalType": "address",
                    "name": "",
                    "type": "address"
                },
                {
                    "internalType": "uint256",
                    "name": "",
                    "type": "uint256"
                }
            ],
            "name": "misSolicitudes",
            "outputs": [
                {
                    "internalType": "uint256",
                    "name": "",
                    "type": "uint256"
                }
            ],
            "stateMutability": "view",
            "type": "function"
        },
        {
            "inputs": [
                {
                    "internalType": "address",
                    "name": "_newOwner",
                    "type": "address"
                }
            ],
            "name": "newOwnerBRTS",
            "outputs": [],
            "stateMutability": "nonpayable",
            "type": "function"
        },
        {
            "inputs": [],
            "name": "owner",
            "outputs": [
                {
                    "internalType": "address",
                    "name": "",
                    "type": "address"
                }
            ],
            "stateMutability": "view",
            "type": "function"
        },
        {
            "inputs": [
                {
                    "internalType": "uint256",
                    "name": "",
                    "type": "uint256"
                }
            ],
            "name": "peticiones",
            "outputs": [
                {
                    "internalType": "address",
                    "name": "wallet",
                    "type": "address"
                },
                {
                    "internalType": "uint256",
                    "name": "tiempo",
                    "type": "uint256"
                },
                {
                    "internalType": "uint256",
                    "name": "precio",
                    "type": "uint256"
                },
                {
                    "internalType": "uint256",
                    "name": "brst",
                    "type": "uint256"
                }
            ],
            "stateMutability": "view",
            "type": "function"
        },
        {
            "inputs": [],
            "name": "precision",
            "outputs": [
                {
                    "internalType": "uint256",
                    "name": "",
                    "type": "uint256"
                }
            ],
            "stateMutability": "view",
            "type": "function"
        },
        {
            "inputs": [
                {
                    "internalType": "uint256",
                    "name": "_value",
                    "type": "uint256"
                }
            ],
            "name": "quemarBRTS",
            "outputs": [
                {
                    "internalType": "bool",
                    "name": "",
                    "type": "bool"
                },
                {
                    "internalType": "uint256",
                    "name": "",
                    "type": "uint256"
                }
            ],
            "stateMutability": "nonpayable",
            "type": "function"
        },
        {
            "inputs": [
                {
                    "internalType": "uint256",
                    "name": "_value",
                    "type": "uint256"
                }
            ],
            "name": "redimBRTS",
            "outputs": [
                {
                    "internalType": "uint256",
                    "name": "",
                    "type": "uint256"
                }
            ],
            "stateMutability": "nonpayable",
            "type": "function"
        },
        {
            "inputs": [],
            "name": "redimOTRO",
            "outputs": [
                {
                    "internalType": "uint256",
                    "name": "",
                    "type": "uint256"
                }
            ],
            "stateMutability": "nonpayable",
            "type": "function"
        },
        {
            "inputs": [
                {
                    "internalType": "uint256",
                    "name": "_value",
                    "type": "uint256"
                }
            ],
            "name": "redimTRX",
            "outputs": [
                {
                    "internalType": "uint256",
                    "name": "",
                    "type": "uint256"
                }
            ],
            "stateMutability": "nonpayable",
            "type": "function"
        },
        {
            "inputs": [
                {
                    "internalType": "uint256",
                    "name": "_id",
                    "type": "uint256"
                }
            ],
            "name": "retirar",
            "outputs": [
                {
                    "internalType": "bool",
                    "name": "",
                    "type": "bool"
                }
            ],
            "stateMutability": "nonpayable",
            "type": "function"
        },
        {
            "inputs": [
                {
                    "internalType": "address",
                    "name": "_wl_user",
                    "type": "address"
                },
                {
                    "internalType": "uint256",
                    "name": "_value",
                    "type": "uint256"
                }
            ],
            "name": "retirarDisponible",
            "outputs": [],
            "stateMutability": "nonpayable",
            "type": "function"
        },
        {
            "inputs": [
                {
                    "internalType": "address",
                    "name": "_evilUser",
                    "type": "address"
                },
                {
                    "internalType": "bool",
                    "name": "_si_no",
                    "type": "bool"
                }
            ],
            "name": "setListaNegra",
            "outputs": [],
            "stateMutability": "nonpayable",
            "type": "function"
        },
        {
            "inputs": [
                {
                    "internalType": "uint256",
                    "name": "_descuento",
                    "type": "uint256"
                },
                {
                    "internalType": "uint256",
                    "name": "_precision",
                    "type": "uint256"
                }
            ],
            "name": "setSalidaRapida",
            "outputs": [],
            "stateMutability": "nonpayable",
            "type": "function"
        },
        {
            "inputs": [
                {
                    "internalType": "uint256",
                    "name": "_dias",
                    "type": "uint256"
                }
            ],
            "name": "setTiempo",
            "outputs": [],
            "stateMutability": "nonpayable",
            "type": "function"
        },
        {
            "inputs": [
                {
                    "internalType": "address payable",
                    "name": "_w",
                    "type": "address"
                }
            ],
            "name": "setWalletSR",
            "outputs": [],
            "stateMutability": "nonpayable",
            "type": "function"
        },
        {
            "inputs": [
                {
                    "internalType": "address",
                    "name": "_w",
                    "type": "address"
                },
                {
                    "internalType": "bool",
                    "name": "_sn",
                    "type": "bool"
                }
            ],
            "name": "setWhiteList",
            "outputs": [],
            "stateMutability": "nonpayable",
            "type": "function"
        },
        {
            "inputs": [
                {
                    "internalType": "uint256",
                    "name": "_value",
                    "type": "uint256"
                }
            ],
            "name": "solicitudRetiro",
            "outputs": [
                {
                    "internalType": "bool",
                    "name": "",
                    "type": "bool"
                }
            ],
            "stateMutability": "nonpayable",
            "type": "function"
        },
        {
            "inputs": [],
            "name": "solicitudesPendientesGlobales",
            "outputs": [
                {
                    "internalType": "uint256[]",
                    "name": "pGlobales",
                    "type": "uint256[]"
                }
            ],
            "stateMutability": "view",
            "type": "function"
        },
        {
            "inputs": [],
            "name": "staking",
            "outputs": [
                {
                    "internalType": "uint256",
                    "name": "",
                    "type": "uint256"
                }
            ],
            "stateMutability": "payable",
            "type": "function"
        },
        {
            "inputs": [
                {
                    "internalType": "address",
                    "name": "_user",
                    "type": "address"
                }
            ],
            "name": "todasSolicitudes",
            "outputs": [
                {
                    "internalType": "uint256[]",
                    "name": "",
                    "type": "uint256[]"
                }
            ],
            "stateMutability": "view",
            "type": "function"
        },
        {
            "inputs": [],
            "name": "totalDisponible",
            "outputs": [
                {
                    "internalType": "uint256",
                    "name": "",
                    "type": "uint256"
                }
            ],
            "stateMutability": "view",
            "type": "function"
        },
        {
            "inputs": [
                {
                    "internalType": "address",
                    "name": "_newAdmin",
                    "type": "address"
                }
            ],
            "name": "transferOwnership",
            "outputs": [],
            "stateMutability": "nonpayable",
            "type": "function"
        },
        {
            "inputs": [
                {
                    "internalType": "uint256",
                    "name": "_id",
                    "type": "uint256"
                }
            ],
            "name": "verSolicitudPendiente",
            "outputs": [
                {
                    "components": [
                        {
                            "internalType": "address",
                            "name": "wallet",
                            "type": "address"
                        },
                        {
                            "internalType": "uint256",
                            "name": "tiempo",
                            "type": "uint256"
                        },
                        {
                            "internalType": "uint256",
                            "name": "precio",
                            "type": "uint256"
                        },
                        {
                            "internalType": "uint256",
                            "name": "brst",
                            "type": "uint256"
                        }
                    ],
                    "internalType": "struct PoolBRSTv4.Peticion",
                    "name": "pt2",
                    "type": "tuple"
                }
            ],
            "stateMutability": "view",
            "type": "function"
        },
        {
            "inputs": [
                {
                    "internalType": "address",
                    "name": "",
                    "type": "address"
                }
            ],
            "name": "whiteList",
            "outputs": [
                {
                    "internalType": "bool",
                    "name": "",
                    "type": "bool"
                }
            ],
            "stateMutability": "view",
            "type": "function"
        },
        {
            "stateMutability": "payable",
            "type": "receive"
        }
    ],
    "bytecode": "60806040526010805460ff1916600117905534801561001c575f80fd5b506120898061002a5f395ff3fe608060405260043610610268575f3560e01c80638d14e12711610142578063d4ff5b33116100ba578063e8b1298f11610076578063e8b1298f1461077e578063ea0a88d41461079d578063f2fde38b146107bc578063f4903cf7146107db578063f90b3f5a146107ef578063fcd728f51461080e57005b8063d4ff5b33146106f7578063d7b6e5b214610716578063dcbe327e1461072b578063dd1335d01461073f578063e1e158a514610754578063e849f4481461076957005b8063a923c10911610109578063a923c109146105fd578063b0698a1b1461061c578063b15c16aa1461063b578063c7c277a91461065a578063cc1bc8691461066e578063d3b5dc3b146106e257005b80638d14e127146105615780638da5cb5b1461058057806390cc4c2e1461059457806396ba5363146105bf578063a4397450146105de57005b806343849061116101e057806375b2a5461161019c57806375b2a546146104a357806379fe4f96146104c257806383bd8528146104f6578063875b11481461050f57806388a4a9811461052e5780638929cbc51461054d57005b806343849061146104135780634cf088d9146104285780634d03c44f1461043057806360f05ea714610451578063664e97041461047057806368adb6ea1461048457005b80632a07d8f31161022f5780632a07d8f3146103155780632a1bb8701461034b578063372c12b1146103825780633808cd6b146103c0578063383f23a0146103d557806340aabb57146103f457005b80630de17b151461027157806316f6404814610290578063219ec6a1146102af5780632688327a146102ce5780632986c0e51461030057005b3661026f57005b005b34801561027c575f80fd5b5061026f61028b366004611d4d565b610869565b34801561029b575f80fd5b5061026f6102aa366004611d77565b6108e2565b3480156102ba575f80fd5b5061026f6102c9366004611d8e565b610aa9565b3480156102d9575f80fd5b506102ed6102e8366004611d77565b610abc565b6040519081526020015b60405180910390f35b34801561030b575f80fd5b506102ed600f5481565b348015610320575f80fd5b5061033461032f366004611d77565b610bc5565b6040805192151583526020830191909152016102f7565b348015610356575f80fd5b5060085461036a906001600160a01b031681565b6040516001600160a01b0390911681526020016102f7565b34801561038d575f80fd5b506103b061039c366004611dae565b600c6020525f908152604090205460ff1681565b60405190151581526020016102f7565b3480156103cb575f80fd5b506102ed600e5481565b3480156103e0575f80fd5b5061026f6103ef366004611d77565b610cae565b3480156103ff575f80fd5b506103b061040e366004611d77565b610cc9565b34801561041e575f80fd5b506102ed60095481565b6102ed610edd565b34801561043b575f80fd5b50610444611090565b6040516102f79190611dc9565b34801561045c575f80fd5b5061026f61046b366004611d77565b6110c0565b34801561047b575f80fd5b506102ed6110d5565b34801561048f575f80fd5b5061026f61049e366004611dae565b6111c7565b3480156104ae575f80fd5b506103b06104bd366004611d77565b6111f1565b3480156104cd575f80fd5b506102ed6104dc366004611dae565b6001600160a01b03165f908152600b602052604090205490565b348015610501575f80fd5b506010546103b09060ff1681565b34801561051a575f80fd5b506102ed610529366004611d77565b611217565b348015610539575f80fd5b50610444610548366004611dae565b611269565b348015610558575f80fd5b506102ed6112d2565b34801561056c575f80fd5b5061026f61057b366004611e19565b611394565b34801561058b575f80fd5b5061036a6113c6565b34801561059f575f80fd5b506102ed6105ae366004611dae565b600d6020525f908152604090205481565b3480156105ca575f80fd5b5061026f6105d9366004611dae565b611431565b3480156105e9575f80fd5b506103b06105f8366004611d77565b61145b565b348015610608575f80fd5b5061026f610617366004611dae565b611536565b348015610627575f80fd5b5061026f610636366004611dae565b61155f565b348015610646575f80fd5b5061026f610655366004611e19565b6115c3565b348015610665575f80fd5b506102ed61165f565b348015610679575f80fd5b506106b8610688366004611d77565b600a6020525f908152604090208054600182015460028301546003909301546001600160a01b0390921692909184565b604080516001600160a01b03909516855260208501939093529183015260608201526080016102f7565b3480156106ed575f80fd5b506102ed60065481565b348015610702575f80fd5b506102ed610711366004611d4d565b61167d565b348015610721575f80fd5b506102ed60055481565b348015610736575f80fd5b5061026f6116a8565b34801561074a575f80fd5b506102ed60035481565b34801561075f575f80fd5b506102ed60025481565b348015610774575f80fd5b506102ed60045481565b348015610789575f80fd5b506103b0610798366004611d77565b611720565b3480156107a8575f80fd5b5061026f6107b7366004611d4d565b611965565b3480156107c7575f80fd5b5061026f6107d6366004611dae565b6119d7565b3480156107e6575f80fd5b506007546102ed565b3480156107fa575f80fd5b5061026f610809366004611d77565b611a0d565b348015610819575f80fd5b5061082d610828366004611d77565b611a1a565b6040516102f7919081516001600160a01b0316815260208083015190820152604080830151908201526060918201519181019190915260800190565b610871611a97565b6001600160a01b0382165f908152600c602052604090205460ff16610894575f80fd5b6001600160a01b0382165f908152600d60205260409020546108b69082611abd565b6001600160a01b0383165f908152600d6020526040902055600e546108db9082611abd565b600e555050565b5f546040516323b872dd60e01b8152336004820152306024820152604481018390526001600160a01b03909116906323b872dd906064016020604051808303815f875af1158015610935573d5f803e3d5ffd5b505050506040513d601f19601f820116820180604052508101906109599190611e50565b610961575f80fd5b6040805160808101825233815242602082015290810161097f6110d5565b81526020908101839052600f545f908152600a82526040808220845181546001600160a01b0319166001600160a01b039182161782558585015160018301558583015160028301556060909501516003909101558154815163313ce56760e01b815291519294610a589491169263313ce5679260048082019392918290030181865afa158015610a11573d5f803e3d5ffd5b505050506040513d601f19601f82011682018060405250810190610a359190611e6b565b610a4090600a611f76565b610a52610a4b6110d5565b8590611b29565b90611ba7565b600354909150610a689082611abd565b600355335f908152600b602090815260408220600f8054825460018101845592855292842090910191909155805491610aa083611f88565b91905055505050565b610ab1611a97565b600591909155600655565b5f610ac5611a97565b5f546040516370a0823160e01b815230600482015283916001600160a01b0316906370a0823190602401602060405180830381865afa158015610b0a573d5f803e3d5ffd5b505050506040513d601f19601f82011682018060405250810190610b2e9190611e6b565b1015610b38575f80fd5b5f546001600160a01b031663a9059cbb610b506113c6565b6040516001600160e01b031960e084901b1681526001600160a01b039091166004820152602481018590526044016020604051808303815f875af1158015610b9a573d5f803e3d5ffd5b505050506040513d601f19601f82011682018060405250810190610bbe9190611e50565b5090919050565b5f80610bcf611a97565b5f546040516323b872dd60e01b8152336004820152306024820152604481018590526001600160a01b03909116906323b872dd906064016020604051808303815f875af1158015610c22573d5f803e3d5ffd5b505050506040513d601f19601f82011682018060405250810190610c469190611e50565b610c4e575f80fd5b5f5460405163db006a7560e01b8152600481018590526001600160a01b039091169063db006a75906024015f604051808303815f87803b158015610c90575f80fd5b505af1158015610ca2573d5f803e3d5ffd5b50600196945050505050565b610cb6611a97565b600754610cc39082611c0a565b60075550565b5f80610d5d5f8054906101000a90046001600160a01b03166001600160a01b031663313ce5676040518163ffffffff1660e01b8152600401602060405180830381865afa158015610d1c573d5f803e3d5ffd5b505050506040513d601f19601f82011682018060405250810190610d409190611e6b565b610d4b90600a611f76565b610a52610d566110d5565b8690611b29565b90505f610d6861165f565b335f908152600c602052604090205490915060ff16610da057610d996064610a52600554600654610a4b9190611fa0565b9150610db1565b50335f908152600d60205260409020545b818110158015610dc357508160045410155b15610ed4575f546040516323b872dd60e01b8152336004820152306024820152604481018690526001600160a01b03909116906323b872dd906064016020604051808303815f875af1158015610e1b573d5f803e3d5ffd5b505050506040513d601f19601f82011682018060405250810190610e3f9190611e50565b610e47575f80fd5b5f5460405163db006a7560e01b8152600481018690526001600160a01b039091169063db006a75906024015f604051808303815f87803b158015610e89575f80fd5b505af1158015610e9b573d5f803e3d5ffd5b505060405133925084156108fc02915084905f818181858888f19350505050158015610ec9573d5f803e3d5ffd5b506001949350505050565b505f9392505050565b5f600254341015610eec575f80fd5b60085460405134916001600160a01b03169082156108fc029083905f818181858888f19350505050158015610f23573d5f803e3d5ffd5b50610fad610f2f6110d5565b5f546040805163313ce56760e01b81529051610a52926001600160a01b03169163313ce5679160048083019260209291908290030181865afa158015610f77573d5f803e3d5ffd5b505050506040513d601f19601f82011682018060405250810190610f9b9190611e6b565b610fa690600a611f76565b8490611b29565b600754909150610fbd9034611abd565b6007555f5460405163664395b360e11b8152600481018390526001600160a01b039091169063cc872b66906024015f604051808303815f87803b158015611002575f80fd5b505af1158015611014573d5f803e3d5ffd5b50505f5460405163a9059cbb60e01b8152336004820152602481018590526001600160a01b03909116925063a9059cbb91506044015b6020604051808303815f875af1158015611066573d5f803e3d5ffd5b505050506040513d601f19601f8201168201806040525081019061108a9190611e50565b50919050565b60605f5b600f548110156110bc576110a88282611c66565b9150806110b481611f88565b915050611094565b5090565b6110c8611a97565b600754610cc39082611abd565b5f8054604080516318160ddd60e01b815290516111c2926001600160a01b0316916318160ddd9160048083019260209291908290030181865afa15801561111e573d5f803e3d5ffd5b505050506040513d601f19601f820116820180604052508101906111429190611e6b565b5f546040805163313ce56760e01b81529051610a52926001600160a01b03169163313ce5679160048083019260209291908290030181865afa15801561118a573d5f803e3d5ffd5b505050506040513d601f19601f820116820180604052508101906111ae9190611e6b565b6111b990600a611f76565b60075490611b29565b905090565b6111cf611a97565b600880546001600160a01b0319166001600160a01b0392909216919091179055565b5f6111fb82610cc9565b61120f57611208826108e2565b505f919050565b506001919050565b5f611220611a97565b8147101561122c575f80fd5b6112346113c6565b6001600160a01b03166108fc8390811502906040515f60405180830381858888f19350505050158015610bbe573d5f803e3d5ffd5b6001600160a01b0381165f908152600b60209081526040918290208054835181840281018401909452808452606093928301828280156112c657602002820191905f5260205f20905b8154815260200190600101908083116112b2575b50505050509050919050565b5f6112db611a97565b6001546040516370a0823160e01b81523060048201525f916001600160a01b0316906370a0823190602401602060405180830381865afa158015611321573d5f803e3d5ffd5b505050506040513d601f19601f820116820180604052508101906113459190611e6b565b6001549091506001600160a01b031663a9059cbb6113616113c6565b6040516001600160e01b031960e084901b1681526001600160a01b0390911660048201526024810184905260440161104a565b61139c611a97565b6001600160a01b03919091165f908152600c60205260409020805460ff1916911515919091179055565b5f80309050806001600160a01b031663f851a4406040518163ffffffff1660e01b8152600401602060405180830381865afa158015611407573d5f803e3d5ffd5b505050506040513d601f19601f8201168201806040525081019061142b9190611fb3565b91505090565b611439611a97565b600180546001600160a01b0319166001600160a01b0392909216919091179055565b5f611464611a97565b5f5460405163664395b360e11b8152600481018490526001600160a01b039091169063cc872b66906024015f604051808303815f87803b1580156114a6575f80fd5b505af11580156114b8573d5f803e3d5ffd5b50505f5460405163a9059cbb60e01b8152336004820152602481018690526001600160a01b03909116925063a9059cbb91506044016020604051808303815f875af1158015611509573d5f803e3d5ffd5b505050506040513d601f19601f8201168201806040525081019061152d9190611e50565b50600192915050565b61153e611a97565b5f80546001600160a01b0319166001600160a01b0392909216919091179055565b611567611a97565b5f5460405163f2fde38b60e01b81526001600160a01b0383811660048301529091169063f2fde38b906024015f604051808303815f87803b1580156115aa575f80fd5b505af11580156115bc573d5f803e3d5ffd5b5050505050565b6115cb611a97565b801561162e575f54604051623b2e4f60e61b81526001600160a01b03848116600483015290911690630ecb93c0906024015b5f604051808303815f87803b158015611614575f80fd5b505af1158015611626573d5f803e3d5ffd5b505050505050565b5f5460405163e4997dc560e01b81526001600160a01b0384811660048301529091169063e4997dc5906024016115fd565b5f600e5447111561167857600e546111c2904790611c0a565b505f90565b600b602052815f5260405f208181548110611696575f80fd5b905f5260205f20015f91509150505481565b6116b0611a97565b60105460ff16156116bf575f80fd5b620f4240600255621669806009556010805460ff191660019081179091555f80546001600160a01b031990811673389ccc30de1d311738dffd3f60d4fd6188970f459081179092558254161790556005805560646006556377359400600455565b5f818152600a60209081526040808320546001600160a01b03168352600c90915281205460ff1661178057600f548210158061177757506009545f838152600a602052604090206001015461177491611abd565b42105b15611780575f80fd5b5f828152600a6020526040812060028101546003909101546117a191611b29565b9050806117ac61165f565b1061195d575f838152600a60205260408082205490516001600160a01b039091169183156108fc02918491818181858888f193505050501580156117f2573d5f803e3d5ffd5b505f8054848252600a60205260409182902060030154915163db006a7560e01b815260048101929092526001600160a01b03169063db006a75906024015f604051808303815f87803b158015611846575f80fd5b505af1158015611858573d5f803e3d5ffd5b5050505f848152600a60209081526040808320546001600160a01b03168352600b9091529020805490915061188f90600190611fa0565b8154811061189f5761189f611fce565b5f918252602080832090910154858352600a82526040808420546001600160a01b03168452600b90925291208054859081106118dd576118dd611fce565b5f918252602080832090910192909255848152600a82526040808220546001600160a01b03168252600b9092522080548061191a5761191a611fe2565b600190038181905f5260205f20015f9055905561194281600754611c0a90919063ffffffff16565b60078190556119519082611c0a565b60035550600192915050565b505f92915050565b61196d611a97565b6001600160a01b0382165f908152600c602052604090205460ff16611990575f80fd5b6001600160a01b0382165f908152600d60205260409020546119b29082611c0a565b6001600160a01b0383165f908152600d6020526040902055600e546108db9082611c0a565b6119df611a97565b6040516308f2839760e41b81526001600160a01b038216600482015230908190638f283970906024016115fd565b611a15611a97565b600955565b611a4a60405180608001604052805f6001600160a01b031681526020015f81526020015f81526020015f81525090565b505f908152600a6020908152604091829020825160808101845281546001600160a01b03168152600182015492810192909252600281015492820192909252600390910154606082015290565b611a9f6113c6565b6001600160a01b0316336001600160a01b031614611abb575f80fd5b565b5f80611ac98385611ff6565b905083811015611b205760405162461bcd60e51b815260206004820152601b60248201527f536166654d6174683a206164646974696f6e206f766572666c6f77000000000060448201526064015b60405180910390fd5b90505b92915050565b5f825f03611b3857505f611b23565b5f611b438385612009565b905082611b508583612020565b14611b205760405162461bcd60e51b815260206004820152602160248201527f536166654d6174683a206d756c7469706c69636174696f6e206f766572666c6f6044820152607760f81b6064820152608401611b17565b5f808211611bf75760405162461bcd60e51b815260206004820152601a60248201527f536166654d6174683a206469766973696f6e206279207a65726f0000000000006044820152606401611b17565b5f611c028385612020565b949350505050565b5f82821115611c5b5760405162461bcd60e51b815260206004820152601e60248201527f536166654d6174683a207375627472616374696f6e206f766572666c6f7700006044820152606401611b17565b5f611c028385611fa0565b60605f83516001611c779190611ff6565b67ffffffffffffffff811115611c8f57611c8f61203f565b604051908082528060200260200182016040528015611cb8578160200160208202803683370190505b5090505f5b8451811015611d0f57848181518110611cd857611cd8611fce565b6020026020010151828281518110611cf257611cf2611fce565b602090810291909101015280611d0781611f88565b915050611cbd565b508281855181518110611d2457611d24611fce565b60209081029190910101529392505050565b6001600160a01b0381168114611d4a575f80fd5b50565b5f8060408385031215611d5e575f80fd5b8235611d6981611d36565b946020939093013593505050565b5f60208284031215611d87575f80fd5b5035919050565b5f8060408385031215611d9f575f80fd5b50508035926020909101359150565b5f60208284031215611dbe575f80fd5b8135611b2081611d36565b602080825282518282018190525f9190848201906040850190845b81811015611e0057835183529284019291840191600101611de4565b50909695505050505050565b8015158114611d4a575f80fd5b5f8060408385031215611e2a575f80fd5b8235611e3581611d36565b91506020830135611e4581611e0c565b809150509250929050565b5f60208284031215611e60575f80fd5b8151611b2081611e0c565b5f60208284031215611e7b575f80fd5b5051919050565b634e487b7160e01b5f52601160045260245ffd5b600181815b80851115611ed057815f1904821115611eb657611eb6611e82565b80851615611ec357918102915b93841c9390800290611e9b565b509250929050565b5f82611ee657506001611b23565b81611ef257505f611b23565b8160018114611f085760028114611f1257611f2e565b6001915050611b23565b60ff841115611f2357611f23611e82565b50506001821b611b23565b5060208310610133831016604e8410600b8410161715611f51575081810a611b23565b611f5b8383611e96565b805f1904821115611f6e57611f6e611e82565b029392505050565b5f611f818383611ed8565b9392505050565b5f60018201611f9957611f99611e82565b5060010190565b81810381811115611b2357611b23611e82565b5f60208284031215611fc3575f80fd5b8151611b2081611d36565b634e487b7160e01b5f52603260045260245ffd5b634e487b7160e01b5f52603160045260245ffd5b80820180821115611b2357611b23611e82565b8082028115828204841417611b2357611b23611e82565b5f8261203a57634e487b7160e01b5f52601260045260245ffd5b500490565b634e487b7160e01b5f52604160045260245ffdfea2646970667358221220db6faa6c7d9b2ec173879cc46163459adea381ff3dd1b67f1b8d4d33a2bd933564736f6c63430008140033",
    "sourcePath": "c:/Users/STC/Documents/GitHub/BRUTUS-TOKEN/contracts/BRST POOL/Pool-BRST-v4.sol",
    "compiler": {
        "name": "solc",
        "version": "0.8.20+commit.a1b79de6"
    },
    "functionHashes": {
        "ChangeToken(address)": "a923c109",
        "ChangeTokenOTRO(address)": "96ba5363",
        "MIN_DEPOSIT()": "e1e158a5",
        "RATE()": "664e9704",
        "TIEMPO()": "43849061",
        "TRON_BALANCE()": "f4903cf7",
        "TRON_PAY_BALANCE()": "c7c277a9",
        "TRON_RR()": "e849f448",
        "TRON_SOLICITADO()": "dd1335d0",
        "Wallet_SR()": "2a1bb870",
        "asignarDisponible(address,uint256)": "0de17b15",
        "asignarPerdida(uint256)": "383f23a0",
        "crearBRTS(uint256)": "a4397450",
        "descuentoRapido()": "d7b6e5b2",
        "disponible(address)": "90cc4c2e",
        "esperaRetiro(uint256)": "16f64048",
        "gananciaDirecta(uint256)": "60f05ea7",
        "index()": "2986c0e5",
        "iniciado()": "83bd8528",
        "inicializar()": "dcbe327e",
        "instaRetiro(uint256)": "40aabb57",
        "largoSolicitudes(address)": "79fe4f96",
        "misSolicitudes(address,uint256)": "d4ff5b33",
        "newOwnerBRTS(address)": "b0698a1b",
        "owner()": "8da5cb5b",
        "peticiones(uint256)": "cc1bc869",
        "precision()": "d3b5dc3b",
        "quemarBRTS(uint256)": "2a07d8f3",
        "redimBRTS(uint256)": "2688327a",
        "redimOTRO()": "8929cbc5",
        "redimTRX(uint256)": "875b1148",
        "retirar(uint256)": "e8b1298f",
        "retirarDisponible(address,uint256)": "ea0a88d4",
        "setListaNegra(address,bool)": "b15c16aa",
        "setSalidaRapida(uint256,uint256)": "219ec6a1",
        "setTiempo(uint256)": "f90b3f5a",
        "setWalletSR(address)": "68adb6ea",
        "setWhiteList(address,bool)": "8d14e127",
        "solicitudRetiro(uint256)": "75b2a546",
        "solicitudesPendientesGlobales()": "4d03c44f",
        "staking()": "4cf088d9",
        "todasSolicitudes(address)": "88a4a981",
        "totalDisponible()": "3808cd6b",
        "transferOwnership(address)": "f2fde38b",
        "verSolicitudPendiente(uint256)": "fcd728f5",
        "whiteList(address)": "372c12b1"
    },
    "gasEstimates": {
        "creation": {
            "codeDepositCost": "1665800",
            "executionCost": "25972",
            "totalCost": "1691772"
        },
        "external": {
            "": "229",
            "ChangeToken(address)": "infinite",
            "ChangeTokenOTRO(address)": "infinite",
            "MIN_DEPOSIT()": "2416",
            "RATE()": "infinite",
            "TIEMPO()": "2329",
            "TRON_BALANCE()": "2390",
            "TRON_PAY_BALANCE()": "4694",
            "TRON_RR()": "2438",
            "TRON_SOLICITADO()": "2394",
            "Wallet_SR()": "2404",
            "asignarDisponible(address,uint256)": "infinite",
            "asignarPerdida(uint256)": "infinite",
            "crearBRTS(uint256)": "infinite",
            "descuentoRapido()": "2350",
            "disponible(address)": "2593",
            "esperaRetiro(uint256)": "infinite",
            "gananciaDirecta(uint256)": "infinite",
            "index()": "2418",
            "iniciado()": "2398",
            "inicializar()": "infinite",
            "instaRetiro(uint256)": "infinite",
            "largoSolicitudes(address)": "2588",
            "misSolicitudes(address,uint256)": "4765",
            "newOwnerBRTS(address)": "infinite",
            "owner()": "infinite",
            "peticiones(uint256)": "9012",
            "precision()": "2438",
            "quemarBRTS(uint256)": "infinite",
            "redimBRTS(uint256)": "infinite",
            "redimOTRO()": "infinite",
            "redimTRX(uint256)": "infinite",
            "retirar(uint256)": "infinite",
            "retirarDisponible(address,uint256)": "infinite",
            "setListaNegra(address,bool)": "infinite",
            "setSalidaRapida(uint256,uint256)": "infinite",
            "setTiempo(uint256)": "infinite",
            "setWalletSR(address)": "infinite",
            "setWhiteList(address,bool)": "infinite",
            "solicitudRetiro(uint256)": "infinite",
            "solicitudesPendientesGlobales()": "infinite",
            "staking()": "infinite",
            "todasSolicitudes(address)": "infinite",
            "totalDisponible()": "2395",
            "transferOwnership(address)": "infinite",
            "verSolicitudPendiente(uint256)": "9309",
            "whiteList(address)": "2616"
        },
        "internal": {
            "onlyOwner()": "infinite"
        }
    }
}