{
    "contractName": "PoolBRSTv4",
    "abi": [
        {
            "inputs": [],
            "stateMutability": "nonpayable",
            "type": "constructor"
        },
        {
            "stateMutability": "payable",
            "type": "fallback"
        },
        {
            "inputs": [
                {
                    "internalType": "address",
                    "name": "_tokenTRC20",
                    "type": "address"
                }
            ],
            "name": "ChangeToken",
            "outputs": [],
            "stateMutability": "nonpayable",
            "type": "function"
        },
        {
            "inputs": [
                {
                    "internalType": "address",
                    "name": "_tokenTRC20",
                    "type": "address"
                }
            ],
            "name": "ChangeTokenOTRO",
            "outputs": [],
            "stateMutability": "nonpayable",
            "type": "function"
        },
        {
            "inputs": [],
            "name": "MIN_DEPOSIT",
            "outputs": [
                {
                    "internalType": "uint256",
                    "name": "",
                    "type": "uint256"
                }
            ],
            "stateMutability": "view",
            "type": "function"
        },
        {
            "inputs": [],
            "name": "RATE",
            "outputs": [
                {
                    "internalType": "uint256",
                    "name": "",
                    "type": "uint256"
                }
            ],
            "stateMutability": "view",
            "type": "function"
        },
        {
            "inputs": [],
            "name": "TIEMPO",
            "outputs": [
                {
                    "internalType": "uint256",
                    "name": "",
                    "type": "uint256"
                }
            ],
            "stateMutability": "view",
            "type": "function"
        },
        {
            "inputs": [],
            "name": "TRON_BALANCE",
            "outputs": [
                {
                    "internalType": "uint256",
                    "name": "",
                    "type": "uint256"
                }
            ],
            "stateMutability": "view",
            "type": "function"
        },
        {
            "inputs": [],
            "name": "TRON_PAY_BALANCE",
            "outputs": [
                {
                    "internalType": "uint256",
                    "name": "",
                    "type": "uint256"
                }
            ],
            "stateMutability": "view",
            "type": "function"
        },
        {
            "inputs": [],
            "name": "TRON_PAY_BALANCE_FAST",
            "outputs": [
                {
                    "internalType": "uint256",
                    "name": "",
                    "type": "uint256"
                }
            ],
            "stateMutability": "view",
            "type": "function"
        },
        {
            "inputs": [],
            "name": "TRON_PAY_BALANCE_WHITE",
            "outputs": [
                {
                    "internalType": "uint256",
                    "name": "",
                    "type": "uint256"
                }
            ],
            "stateMutability": "view",
            "type": "function"
        },
        {
            "inputs": [],
            "name": "TRON_RR",
            "outputs": [
                {
                    "internalType": "uint256",
                    "name": "",
                    "type": "uint256"
                }
            ],
            "stateMutability": "view",
            "type": "function"
        },
        {
            "inputs": [],
            "name": "TRON_SOLICITADO",
            "outputs": [
                {
                    "internalType": "uint256",
                    "name": "",
                    "type": "uint256"
                }
            ],
            "stateMutability": "view",
            "type": "function"
        },
        {
            "inputs": [],
            "name": "Wallet_SR",
            "outputs": [
                {
                    "internalType": "address payable",
                    "name": "",
                    "type": "address"
                }
            ],
            "stateMutability": "view",
            "type": "function"
        },
        {
            "inputs": [
                {
                    "internalType": "uint256",
                    "name": "_value",
                    "type": "uint256"
                }
            ],
            "name": "asignarDisponible",
            "outputs": [],
            "stateMutability": "nonpayable",
            "type": "function"
        },
        {
            "inputs": [
                {
                    "internalType": "uint256",
                    "name": "_value",
                    "type": "uint256"
                }
            ],
            "name": "asignarPerdida",
            "outputs": [],
            "stateMutability": "nonpayable",
            "type": "function"
        },
        {
            "inputs": [
                {
                    "internalType": "uint256",
                    "name": "",
                    "type": "uint256"
                }
            ],
            "name": "completada",
            "outputs": [
                {
                    "internalType": "bool",
                    "name": "",
                    "type": "bool"
                }
            ],
            "stateMutability": "view",
            "type": "function"
        },
        {
            "inputs": [
                {
                    "internalType": "uint256",
                    "name": "_value",
                    "type": "uint256"
                }
            ],
            "name": "crearBRTS",
            "outputs": [
                {
                    "internalType": "bool",
                    "name": "",
                    "type": "bool"
                }
            ],
            "stateMutability": "nonpayable",
            "type": "function"
        },
        {
            "inputs": [],
            "name": "descuentoRapido",
            "outputs": [
                {
                    "internalType": "uint256",
                    "name": "",
                    "type": "uint256"
                }
            ],
            "stateMutability": "view",
            "type": "function"
        },
        {
            "inputs": [],
            "name": "donate",
            "outputs": [],
            "stateMutability": "payable",
            "type": "function"
        },
        {
            "inputs": [
                {
                    "internalType": "uint256",
                    "name": "_value",
                    "type": "uint256"
                }
            ],
            "name": "donate",
            "outputs": [],
            "stateMutability": "nonpayable",
            "type": "function"
        },
        {
            "inputs": [
                {
                    "internalType": "uint256",
                    "name": "_value",
                    "type": "uint256"
                }
            ],
            "name": "esperaRetiro",
            "outputs": [
                {
                    "internalType": "uint256",
                    "name": "order",
                    "type": "uint256"
                }
            ],
            "stateMutability": "nonpayable",
            "type": "function"
        },
        {
            "inputs": [
                {
                    "internalType": "uint256",
                    "name": "_value",
                    "type": "uint256"
                }
            ],
            "name": "gananciaDirecta",
            "outputs": [],
            "stateMutability": "nonpayable",
            "type": "function"
        },
        {
            "inputs": [],
            "name": "index",
            "outputs": [
                {
                    "internalType": "uint256",
                    "name": "",
                    "type": "uint256"
                }
            ],
            "stateMutability": "view",
            "type": "function"
        },
        {
            "inputs": [],
            "name": "iniciado",
            "outputs": [
                {
                    "internalType": "bool",
                    "name": "",
                    "type": "bool"
                }
            ],
            "stateMutability": "view",
            "type": "function"
        },
        {
            "inputs": [],
            "name": "inicializar",
            "outputs": [],
            "stateMutability": "nonpayable",
            "type": "function"
        },
        {
            "inputs": [
                {
                    "internalType": "uint256",
                    "name": "_value",
                    "type": "uint256"
                }
            ],
            "name": "instaRetiro",
            "outputs": [
                {
                    "internalType": "bool",
                    "name": "",
                    "type": "bool"
                }
            ],
            "stateMutability": "nonpayable",
            "type": "function"
        },
        {
            "inputs": [
                {
                    "internalType": "address",
                    "name": "_user",
                    "type": "address"
                }
            ],
            "name": "largoSolicitudes",
            "outputs": [
                {
                    "internalType": "uint256",
                    "name": "",
                    "type": "uint256"
                }
            ],
            "stateMutability": "view",
            "type": "function"
        },
        {
            "inputs": [
                {
                    "internalType": "address",
                    "name": "",
                    "type": "address"
                },
                {
                    "internalType": "uint256",
                    "name": "",
                    "type": "uint256"
                }
            ],
            "name": "misSolicitudes",
            "outputs": [
                {
                    "internalType": "uint256",
                    "name": "",
                    "type": "uint256"
                }
            ],
            "stateMutability": "view",
            "type": "function"
        },
        {
            "inputs": [
                {
                    "internalType": "address",
                    "name": "_newOwner",
                    "type": "address"
                }
            ],
            "name": "newOwnerBRTS",
            "outputs": [],
            "stateMutability": "nonpayable",
            "type": "function"
        },
        {
            "inputs": [],
            "name": "owner",
            "outputs": [
                {
                    "internalType": "address",
                    "name": "",
                    "type": "address"
                }
            ],
            "stateMutability": "view",
            "type": "function"
        },
        {
            "inputs": [
                {
                    "internalType": "uint256",
                    "name": "",
                    "type": "uint256"
                }
            ],
            "name": "peticiones",
            "outputs": [
                {
                    "internalType": "address",
                    "name": "wallet",
                    "type": "address"
                },
                {
                    "internalType": "uint256",
                    "name": "tiempo",
                    "type": "uint256"
                },
                {
                    "internalType": "uint256",
                    "name": "precio",
                    "type": "uint256"
                },
                {
                    "internalType": "uint256",
                    "name": "brst",
                    "type": "uint256"
                }
            ],
            "stateMutability": "view",
            "type": "function"
        },
        {
            "inputs": [],
            "name": "precision",
            "outputs": [
                {
                    "internalType": "uint256",
                    "name": "",
                    "type": "uint256"
                }
            ],
            "stateMutability": "view",
            "type": "function"
        },
        {
            "inputs": [
                {
                    "internalType": "uint256",
                    "name": "_value",
                    "type": "uint256"
                }
            ],
            "name": "quemarBRTS",
            "outputs": [
                {
                    "internalType": "bool",
                    "name": "",
                    "type": "bool"
                },
                {
                    "internalType": "uint256",
                    "name": "",
                    "type": "uint256"
                }
            ],
            "stateMutability": "nonpayable",
            "type": "function"
        },
        {
            "inputs": [
                {
                    "internalType": "uint256",
                    "name": "_value",
                    "type": "uint256"
                }
            ],
            "name": "redimBRTS",
            "outputs": [
                {
                    "internalType": "uint256",
                    "name": "",
                    "type": "uint256"
                }
            ],
            "stateMutability": "nonpayable",
            "type": "function"
        },
        {
            "inputs": [],
            "name": "redimOTRO",
            "outputs": [
                {
                    "internalType": "uint256",
                    "name": "",
                    "type": "uint256"
                }
            ],
            "stateMutability": "nonpayable",
            "type": "function"
        },
        {
            "inputs": [
                {
                    "internalType": "uint256",
                    "name": "_value",
                    "type": "uint256"
                }
            ],
            "name": "redimTRX",
            "outputs": [
                {
                    "internalType": "uint256",
                    "name": "",
                    "type": "uint256"
                }
            ],
            "stateMutability": "nonpayable",
            "type": "function"
        },
        {
            "inputs": [
                {
                    "internalType": "uint256",
                    "name": "_id",
                    "type": "uint256"
                }
            ],
            "name": "retirar",
            "outputs": [
                {
                    "internalType": "bool",
                    "name": "exitoso",
                    "type": "bool"
                }
            ],
            "stateMutability": "nonpayable",
            "type": "function"
        },
        {
            "inputs": [
                {
                    "internalType": "uint256",
                    "name": "_value",
                    "type": "uint256"
                }
            ],
            "name": "retirarDisponible",
            "outputs": [],
            "stateMutability": "nonpayable",
            "type": "function"
        },
        {
            "inputs": [
                {
                    "internalType": "address",
                    "name": "_user",
                    "type": "address"
                }
            ],
            "name": "retirarFrom",
            "outputs": [
                {
                    "internalType": "bool",
                    "name": "exitoso",
                    "type": "bool"
                }
            ],
            "stateMutability": "nonpayable",
            "type": "function"
        },
        {
            "inputs": [
                {
                    "internalType": "address",
                    "name": "_evilUser",
                    "type": "address"
                },
                {
                    "internalType": "bool",
                    "name": "_si_no",
                    "type": "bool"
                }
            ],
            "name": "setListaNegra",
            "outputs": [],
            "stateMutability": "nonpayable",
            "type": "function"
        },
        {
            "inputs": [
                {
                    "internalType": "uint256",
                    "name": "_descuento",
                    "type": "uint256"
                },
                {
                    "internalType": "uint256",
                    "name": "_precision",
                    "type": "uint256"
                }
            ],
            "name": "setSalidaRapida",
            "outputs": [],
            "stateMutability": "nonpayable",
            "type": "function"
        },
        {
            "inputs": [
                {
                    "internalType": "uint256",
                    "name": "_dias",
                    "type": "uint256"
                }
            ],
            "name": "setTiempo",
            "outputs": [],
            "stateMutability": "nonpayable",
            "type": "function"
        },
        {
            "inputs": [
                {
                    "internalType": "address payable",
                    "name": "_w",
                    "type": "address"
                }
            ],
            "name": "setWalletSR",
            "outputs": [],
            "stateMutability": "nonpayable",
            "type": "function"
        },
        {
            "inputs": [
                {
                    "internalType": "address",
                    "name": "_w",
                    "type": "address"
                },
                {
                    "internalType": "bool",
                    "name": "_sn",
                    "type": "bool"
                }
            ],
            "name": "setWhiteList",
            "outputs": [],
            "stateMutability": "nonpayable",
            "type": "function"
        },
        {
            "inputs": [
                {
                    "internalType": "uint256",
                    "name": "_value",
                    "type": "uint256"
                }
            ],
            "name": "solicitudRetiro",
            "outputs": [
                {
                    "internalType": "bool",
                    "name": "",
                    "type": "bool"
                },
                {
                    "internalType": "uint256",
                    "name": "",
                    "type": "uint256"
                }
            ],
            "stateMutability": "nonpayable",
            "type": "function"
        },
        {
            "inputs": [],
            "name": "solicitudesPendientesGlobales",
            "outputs": [
                {
                    "internalType": "uint256[]",
                    "name": "pGlobales",
                    "type": "uint256[]"
                }
            ],
            "stateMutability": "view",
            "type": "function"
        },
        {
            "inputs": [],
            "name": "staking",
            "outputs": [
                {
                    "internalType": "uint256",
                    "name": "",
                    "type": "uint256"
                }
            ],
            "stateMutability": "payable",
            "type": "function"
        },
        {
            "inputs": [
                {
                    "internalType": "address",
                    "name": "_user",
                    "type": "address"
                }
            ],
            "name": "todasSolicitudes",
            "outputs": [
                {
                    "internalType": "uint256[]",
                    "name": "",
                    "type": "uint256[]"
                }
            ],
            "stateMutability": "view",
            "type": "function"
        },
        {
            "inputs": [],
            "name": "totalDisponible",
            "outputs": [
                {
                    "internalType": "uint256",
                    "name": "",
                    "type": "uint256"
                }
            ],
            "stateMutability": "view",
            "type": "function"
        },
        {
            "inputs": [
                {
                    "internalType": "address",
                    "name": "_newAdmin",
                    "type": "address"
                }
            ],
            "name": "transferOwnership",
            "outputs": [],
            "stateMutability": "nonpayable",
            "type": "function"
        },
        {
            "inputs": [
                {
                    "internalType": "uint256",
                    "name": "_id",
                    "type": "uint256"
                }
            ],
            "name": "verSolicitudPendiente",
            "outputs": [
                {
                    "components": [
                        {
                            "internalType": "address",
                            "name": "wallet",
                            "type": "address"
                        },
                        {
                            "internalType": "uint256",
                            "name": "tiempo",
                            "type": "uint256"
                        },
                        {
                            "internalType": "uint256",
                            "name": "precio",
                            "type": "uint256"
                        },
                        {
                            "internalType": "uint256",
                            "name": "brst",
                            "type": "uint256"
                        }
                    ],
                    "internalType": "struct PoolBRSTv4.Peticion",
                    "name": "pt2",
                    "type": "tuple"
                }
            ],
            "stateMutability": "view",
            "type": "function"
        },
        {
            "inputs": [
                {
                    "internalType": "address",
                    "name": "",
                    "type": "address"
                }
            ],
            "name": "whiteList",
            "outputs": [
                {
                    "internalType": "bool",
                    "name": "",
                    "type": "bool"
                }
            ],
            "stateMutability": "view",
            "type": "function"
        },
        {
            "stateMutability": "payable",
            "type": "receive"
        }
    ],
    "bytecode": "60806040526010805460ff1916600117905534801561001c575f80fd5b506127d78061002a5f395ff3fe6080604052600436106102c6575f3560e01c80638929cbc51161017d578063d7b6e5b2116100d2578063ed88c68e1161008e578063f4903cf71161006b578063f4903cf71461088b578063f5418f631461089f578063f90b3f5a146108be578063fcd728f5146108dd57005b8063ed88c68e14610845578063f14faf6f1461084d578063f2fde38b1461086c57005b8063d7b6e5b2146107be578063dcbe327e146107d3578063dd1335d0146107e7578063e1e158a5146107fc578063e849f44814610811578063e8b1298f1461082657005b8063b0698a1b11610139578063c7c277a911610116578063c7c277a914610702578063cc1bc86914610716578063d3b5dc3b1461078a578063d4ff5b331461079f57005b8063b0698a1b146106a5578063b15c16aa146106c4578063be5b60ef146106e357005b80638929cbc5146106015780638d14e127146106155780638da5cb5b1461063457806396ba536314610648578063a439745014610667578063a923c1091461068657005b806340aabb571161023357806368adb6ea116101ef57806379fe4f96116101cc57806379fe4f961461057657806383bd8528146105aa578063875b1148146105c357806388a4a981146105e257005b806368adb6ea1461051957806375b2a54614610538578063783dec151461055757005b806340aabb571461048957806343849061146104a85780634cf088d9146104bd5780634d03c44f146104c557806360f05ea7146104e6578063664e97041461050557005b80632a07d8f3116102825780632a07d8f3146103a65780632a1bb870146103dc57806336c40fc414610413578063372c12b1146104275780633808cd6b14610455578063383f23a01461046a57005b80630edd11f4146102cf57806316f6404814610312578063202bec1e1461033f578063219ec6a1146103535780632688327a146103725780632986c0e51461039157005b366102cd57005b005b3480156102da575f80fd5b506102fd6102e9366004612468565b600b6020525f908152604090205460ff1681565b60405190151581526020015b60405180910390f35b34801561031d575f80fd5b5061033161032c366004612468565b610938565b604051908152602001610309565b34801561034a575f80fd5b50610331610af8565b34801561035e575f80fd5b506102cd61036d36600461247f565b610b39565b34801561037d575f80fd5b5061033161038c366004612468565b610b4c565b34801561039c575f80fd5b50610331600f5481565b3480156103b1575f80fd5b506103c56103c0366004612468565b610c55565b604080519215158352602083019190915201610309565b3480156103e7575f80fd5b506008546103fb906001600160a01b031681565b6040516001600160a01b039091168152602001610309565b34801561041e575f80fd5b50610331610d3a565b348015610432575f80fd5b506102fd6104413660046124b6565b600d6020525f908152604090205460ff1681565b348015610460575f80fd5b50610331600e5481565b348015610475575f80fd5b506102cd610484366004612468565b610d51565b348015610494575f80fd5b506102fd6104a3366004612468565b610d6c565b3480156104b3575f80fd5b5061033160095481565b610331610f17565b3480156104d0575f80fd5b506104d96110c3565b60405161030991906124d1565b3480156104f1575f80fd5b506102cd610500366004612468565b611109565b348015610510575f80fd5b5061033161111e565b348015610524575f80fd5b506102cd6105333660046124b6565b61120b565b348015610543575f80fd5b506103c5610552366004612468565b611235565b348015610562575f80fd5b506102fd6105713660046124b6565b611263565b348015610581575f80fd5b506103316105903660046124b6565b6001600160a01b03165f908152600c602052604090205490565b3480156105b5575f80fd5b506010546102fd9060ff1681565b3480156105ce575f80fd5b506103316105dd366004612468565b61167c565b3480156105ed575f80fd5b506104d96105fc3660046124b6565b6116ce565b34801561060c575f80fd5b50610331611737565b348015610620575f80fd5b506102cd61062f366004612521565b6117f9565b34801561063f575f80fd5b506103fb61182b565b348015610653575f80fd5b506102cd6106623660046124b6565b611896565b348015610672575f80fd5b506102fd610681366004612468565b6118c0565b348015610691575f80fd5b506102cd6106a03660046124b6565b61199b565b3480156106b0575f80fd5b506102cd6106bf3660046124b6565b6119c4565b3480156106cf575f80fd5b506102cd6106de366004612521565b611a29565b3480156106ee575f80fd5b506102cd6106fd366004612468565b611ac5565b34801561070d575f80fd5b50610331611ae0565b348015610721575f80fd5b50610760610730366004612468565b600a6020525f908152604090208054600182015460028301546003909301546001600160a01b0390921692909184565b604080516001600160a01b0390951685526020850193909352918301526060820152608001610309565b348015610795575f80fd5b5061033160065481565b3480156107aa575f80fd5b506103316107b9366004612558565b611b20565b3480156107c9575f80fd5b5061033160055481565b3480156107de575f80fd5b506102cd611b4b565b3480156107f2575f80fd5b5061033160035481565b348015610807575f80fd5b5061033160025481565b34801561081c575f80fd5b5061033160045481565b348015610831575f80fd5b506102fd610840366004612468565b611bc3565b6102cd611f94565b348015610858575f80fd5b506102cd610867366004612468565b611fa6565b348015610877575f80fd5b506102cd6108863660046124b6565b612051565b348015610896575f80fd5b50600754610331565b3480156108aa575f80fd5b506102cd6108b9366004612468565b612087565b3480156108c9575f80fd5b506102cd6108d8366004612468565b61209c565b3480156108e8575f80fd5b506108fc6108f7366004612468565b6120a9565b604051610309919081516001600160a01b0316815260208083015190820152604080830151908201526060918201519181019190915260800190565b5f80546040516323b872dd60e01b81526001600160a01b03909116906323b872dd9061096c90339030908790600401612582565b6020604051808303815f875af1158015610988573d5f803e3d5ffd5b505050506040513d601f19601f820116820180604052508101906109ac91906125a6565b6109b4575f80fd5b604080516080810182523381524260208201529081016109d261111e565b81526020908101849052600f545f908152600a82526040808220845181546001600160a01b0319166001600160a01b039182161782558585015160018301558583015160028301556060909501516003909101559054815163313ce56760e01b81529151610ab694610aad9492169263313ce5679260048083019391928290030181865afa158015610a66573d5f803e3d5ffd5b505050506040513d601f19601f82011682018060405250810190610a8a91906125c1565b610a9590600a6126c4565b610aa7610aa061111e565b8690612126565b906121b2565b60035490612215565b60035550600f8054335f908152600c6020908152604082208054600181018255908352908220018290558254919290610aee836126d6565b9190505550919050565b5f600e54471115610b3457600454600e54610b14904790612273565b1115610b21575060045490565b600e54610b2f904790612273565b905090565b505f90565b610b416122cf565b600591909155600655565b5f610b556122cf565b5f546040516370a0823160e01b815230600482015283916001600160a01b0316906370a0823190602401602060405180830381865afa158015610b9a573d5f803e3d5ffd5b505050506040513d601f19601f82011682018060405250810190610bbe91906125c1565b1015610bc8575f80fd5b5f546001600160a01b031663a9059cbb610be061182b565b6040516001600160e01b031960e084901b1681526001600160a01b039091166004820152602481018590526044016020604051808303815f875af1158015610c2a573d5f803e3d5ffd5b505050506040513d601f19601f82011682018060405250810190610c4e91906125a6565b5090919050565b5f80610c5f6122cf565b5f546040516323b872dd60e01b81526001600160a01b03909116906323b872dd90610c9290339030908890600401612582565b6020604051808303815f875af1158015610cae573d5f803e3d5ffd5b505050506040513d601f19601f82011682018060405250810190610cd291906125a6565b610cda575f80fd5b5f5460405163db006a7560e01b8152600481018590526001600160a01b039091169063db006a75906024015f604051808303815f87803b158015610d1c575f80fd5b505af1158015610d2e573d5f803e3d5ffd5b50600196945050505050565b5f600e54471115610d4c5750600e5490565b504790565b610d596122cf565b600754610d669082612273565b60075550565b5f80610dbf5f8054906101000a90046001600160a01b03166001600160a01b031663313ce5676040518163ffffffff1660e01b8152600401602060405180830381865afa158015610a66573d5f803e3d5ffd5b335f908152600d602052604090205490915060ff16610dfa57610df76064610aa7600554600654610df091906126ee565b8490612126565b90505b80610e03610af8565b10610f0f575f546040516323b872dd60e01b81526001600160a01b03909116906323b872dd90610e3b90339030908890600401612582565b6020604051808303815f875af1158015610e57573d5f803e3d5ffd5b505050506040513d601f19601f82011682018060405250810190610e7b91906125a6565b610e83575f80fd5b5f5460405163db006a7560e01b8152600481018590526001600160a01b039091169063db006a75906024015f604051808303815f87803b158015610ec5575f80fd5b505af1158015610ed7573d5f803e3d5ffd5b505060405133925083156108fc02915083905f818181858888f19350505050158015610f05573d5f803e3d5ffd5b5060019392505050565b505f92915050565b5f600254341015610f26575f80fd5b60085460405134916001600160a01b03169082156108fc029083905f818181858888f19350505050158015610f5d573d5f803e3d5ffd5b50610fe0610f6961111e565b5f546040805163313ce56760e01b81529051610aa7926001600160a01b03169163313ce5679160048083019260209291908290030181865afa158015610fb1573d5f803e3d5ffd5b505050506040513d601f19601f82011682018060405250810190610fd591906125c1565b610df090600a6126c4565b600754909150610ff09034612215565b6007555f5460405163664395b360e11b8152600481018390526001600160a01b039091169063cc872b66906024015f604051808303815f87803b158015611035575f80fd5b505af1158015611047573d5f803e3d5ffd5b50505f5460405163a9059cbb60e01b8152336004820152602481018590526001600160a01b03909116925063a9059cbb91506044015b6020604051808303815f875af1158015611099573d5f803e3d5ffd5b505050506040513d601f19601f820116820180604052508101906110bd91906125a6565b50919050565b60605f5b600f54811015611105575f818152600b602052604090205460ff166110f3576110f082826122f5565b91505b806110fd816126d6565b9150506110c7565b5090565b6111116122cf565b600754610d669082612215565b5f8054604080516318160ddd60e01b81529051610b2f926001600160a01b0316916318160ddd9160048083019260209291908290030181865afa158015611167573d5f803e3d5ffd5b505050506040513d601f19601f8201168201806040525081019061118b91906125c1565b5f546040805163313ce56760e01b81529051610aa7926001600160a01b03169163313ce5679160048083019260209291908290030181865afa1580156111d3573d5f803e3d5ffd5b505050506040513d601f19601f820116820180604052508101906111f791906125c1565b61120290600a6126c4565b60075490612126565b6112136122cf565b600880546001600160a01b0319166001600160a01b0392909216919091179055565b5f8061124083610d6c565b1561125057506001925f92509050565b5f61125a84610938565b91509150915091565b5f805f61126f846116ce565b90506060805f805b84518110156114be5761128861182b565b6001600160a01b0316336001600160a01b031614806112be57506001600160a01b0388165f908152600d602052604090205460ff165b8061130a575042611307600954600a5f8986815181106112e0576112e0612701565b602002602001015181526020019081526020015f206001015461221590919063ffffffff16565b10155b1561147d576114066113ff5f8054906101000a90046001600160a01b03166001600160a01b031663313ce5676040518163ffffffff1660e01b8152600401602060405180830381865afa158015611363573d5f803e3d5ffd5b505050506040513d601f19601f8201168201806040525081019061138791906125c1565b61139290600a6126c4565b610aa7600a5f8a87815181106113aa576113aa612701565b602002602001015181526020019081526020015f2060020154600a5f8b88815181106113d8576113d8612701565b602002602001015181526020019081526020015f206003015461212690919063ffffffff16565b8790612215565b9550611448600a5f87848151811061142057611420612701565b602002602001015181526020019081526020015f20600301548361221590919063ffffffff16565b915061147685828151811061145f5761145f612701565b6020026020010151856122f590919063ffffffff16565b93506114ac565b6114a985828151811061149257611492612701565b6020026020010151846122f590919063ffffffff16565b92505b806114b6816126d6565b915050611277565b505f851180156114cd57505f81115b6114d5575f80fd5b6001600160a01b0387165f908152600d602052604081205460ff1615611504576114fd610d3a565b905061152e565b61150c61182b565b6001600160a01b03163303611523576114fd610af8565b61152b611ae0565b90505b858110611671576001600160a01b0388165f908152600c60209081526040909120845161155d92860190612414565b505f5b84518110156115be576001600b5f87848151811061158057611580612701565b602002602001015181526020019081526020015f205f6101000a81548160ff02191690831515021790555080806115b6906126d6565b915050611560565b506040516001600160a01b0389169087156108fc029088905f818181858888f193505050501580156115f2573d5f803e3d5ffd5b505f5460405163db006a7560e01b8152600481018490526001600160a01b039091169063db006a75906024015f604051808303815f87803b158015611635575f80fd5b505af1158015611647573d5f803e3d5ffd5b50506007546116599250905087612273565b6007556003546116699087612273565b600355600196505b505050505050919050565b5f6116856122cf565b81471015611691575f80fd5b61169961182b565b6001600160a01b03166108fc8390811502906040515f60405180830381858888f19350505050158015610c4e573d5f803e3d5ffd5b6001600160a01b0381165f908152600c602090815260409182902080548351818402810184019094528084526060939283018282801561172b57602002820191905f5260205f20905b815481526020019060010190808311611717575b50505050509050919050565b5f6117406122cf565b6001546040516370a0823160e01b81523060048201525f916001600160a01b0316906370a0823190602401602060405180830381865afa158015611786573d5f803e3d5ffd5b505050506040513d601f19601f820116820180604052508101906117aa91906125c1565b6001549091506001600160a01b031663a9059cbb6117c661182b565b6040516001600160e01b031960e084901b1681526001600160a01b0390911660048201526024810184905260440161107d565b6118016122cf565b6001600160a01b03919091165f908152600d60205260409020805460ff1916911515919091179055565b5f80309050806001600160a01b031663f851a4406040518163ffffffff1660e01b8152600401602060405180830381865afa15801561186c573d5f803e3d5ffd5b505050506040513d601f19601f820116820180604052508101906118909190612715565b91505090565b61189e6122cf565b600180546001600160a01b0319166001600160a01b0392909216919091179055565b5f6118c96122cf565b5f5460405163664395b360e11b8152600481018490526001600160a01b039091169063cc872b66906024015f604051808303815f87803b15801561190b575f80fd5b505af115801561191d573d5f803e3d5ffd5b50505f5460405163a9059cbb60e01b8152336004820152602481018690526001600160a01b03909116925063a9059cbb91506044016020604051808303815f875af115801561196e573d5f803e3d5ffd5b505050506040513d601f19601f8201168201806040525081019061199291906125a6565b50600192915050565b6119a36122cf565b5f80546001600160a01b0319166001600160a01b0392909216919091179055565b6119cc6122cf565b5f5460405163f2fde38b60e01b81526001600160a01b0383811660048301529091169063f2fde38b906024015b5f604051808303815f87803b158015611a10575f80fd5b505af1158015611a22573d5f803e3d5ffd5b5050505050565b611a316122cf565b8015611a94575f54604051623b2e4f60e61b81526001600160a01b03848116600483015290911690630ecb93c0906024015b5f604051808303815f87803b158015611a7a575f80fd5b505af1158015611a8c573d5f803e3d5ffd5b505050505050565b5f5460405163e4997dc560e01b81526001600160a01b0384811660048301529091169063e4997dc590602401611a63565b611acd6122cf565b600e54611ada9082612215565b600e5550565b5f611af8600e5460045461221590919063ffffffff16565b471115610b3457610b2f611b19600e5460045461221590919063ffffffff16565b4790612273565b600c602052815f5260405f208181548110611b39575f80fd5b905f5260205f20015f91509150505481565b611b536122cf565b60105460ff1615611b62575f80fd5b620f4240600255621669806009556010805460ff191660019081179091555f80546001600160a01b031990811673389ccc30de1d311738dffd3f60d4fd6188970f459081179092558254161790556005805560646006556377359400600455565b5f81600f5411611bd1575f80fd5b611bd961182b565b6001600160a01b0316336001600160a01b031614611c44575f828152600a60209081526040808320546001600160a01b03168352600d90915290205460ff16611c44576009545f838152600a6020526040902060010154611c3991612215565b421015611c44575f80fd5b5f80546040805163313ce56760e01b81529051611cdd926001600160a01b03169163313ce5679160048083019260209291908290030181865afa158015611c8d573d5f803e3d5ffd5b505050506040513d601f19601f82011682018060405250810190611cb191906125c1565b611cbc90600a6126c4565b5f858152600a602052604090206002810154600390910154610aa791612126565b5f848152600a60209081526040808320546001600160a01b03168352600d9091528120549192509060ff1615611d1c57611d15610d3a565b9050611d46565b611d2461182b565b6001600160a01b03163303611d3b57611d15610af8565b611d43611ae0565b90505b818110611f8d575f848152600a60209081526040808320546001600160a01b03168352600c82528083208054825181850281018501909352808352611dca938993929190830182828015611db757602002820191905f5260205f20905b815481526020019060010190808311611da3575b50505050506123c590919063ffffffff16565b5f878152600a60209081526040808320546001600160a01b03168352600c909152902080549193509150611e00906001906126ee565b81548110611e1057611e10612701565b5f918252602080832090910154878352600a82526040808420546001600160a01b03168452600c9092529120805483908110611e4e57611e4e612701565b5f918252602080832090910192909255868152600a82526040808220546001600160a01b03168252600c90925220805480611e8b57611e8b612730565b5f828152602080822083015f19908101839055909201909255868252600a905260408082205490516001600160a01b039091169185156108fc02918691818181858888f19350505050158015611ee3573d5f803e3d5ffd5b505f8054868252600a60205260409182902060030154915163db006a7560e01b815260048101929092526001600160a01b03169063db006a75906024015f604051808303815f87803b158015611f37575f80fd5b505af1158015611f49573d5f803e3d5ffd5b5050600754611f5b9250905084612273565b600755600354611f6b9084612273565b600355505f848152600b60205260409020805460ff1916600190811790915592505b5050919050565b600754611fa19034612215565b600755565b5f546040516323b872dd60e01b81526001600160a01b03909116906323b872dd90611fd990339030908690600401612582565b6020604051808303815f875af1158015611ff5573d5f803e3d5ffd5b505050506040513d601f19601f8201168201806040525081019061201991906125a6565b612021575f80fd5b5f5460405163db006a7560e01b8152600481018390526001600160a01b039091169063db006a75906024016119f9565b6120596122cf565b6040516308f2839760e41b81526001600160a01b038216600482015230908190638f28397090602401611a63565b61208f6122cf565b600e54611ada9082612273565b6120a46122cf565b600955565b6120d960405180608001604052805f6001600160a01b031681526020015f81526020015f81526020015f81525090565b505f908152600a6020908152604091829020825160808101845281546001600160a01b03168152600182015492810192909252600281015492820192909252600390910154606082015290565b5f825f0361213557505f6121ac565b5f6121408385612744565b90508261214d858361275b565b146121a95760405162461bcd60e51b815260206004820152602160248201527f536166654d6174683a206d756c7469706c69636174696f6e206f766572666c6f6044820152607760f81b60648201526084015b60405180910390fd5b90505b92915050565b5f8082116122025760405162461bcd60e51b815260206004820152601a60248201527f536166654d6174683a206469766973696f6e206279207a65726f00000000000060448201526064016121a0565b5f61220d838561275b565b949350505050565b5f80612221838561277a565b9050838110156121a95760405162461bcd60e51b815260206004820152601b60248201527f536166654d6174683a206164646974696f6e206f766572666c6f77000000000060448201526064016121a0565b5f828211156122c45760405162461bcd60e51b815260206004820152601e60248201527f536166654d6174683a207375627472616374696f6e206f766572666c6f77000060448201526064016121a0565b5f61220d83856126ee565b6122d761182b565b6001600160a01b0316336001600160a01b0316146122f3575f80fd5b565b60605f83516001612306919061277a565b67ffffffffffffffff81111561231e5761231e61278d565b604051908082528060200260200182016040528015612347578160200160208202803683370190505b5090505f5b845181101561239e5784818151811061236757612367612701565b602002602001015182828151811061238157612381612701565b602090810291909101015280612396816126d6565b91505061234c565b5082818551815181106123b3576123b3612701565b60209081029190910101529392505050565b5f805f5b845181101561240c57838582815181106123e5576123e5612701565b6020026020010151036123fa57600192508091505b80612404816126d6565b9150506123c9565b509250929050565b828054828255905f5260205f2090810192821561244d579160200282015b8281111561244d578251825591602001919060010190612432565b506111059291505b80821115611105575f8155600101612455565b5f60208284031215612478575f80fd5b5035919050565b5f8060408385031215612490575f80fd5b50508035926020909101359150565b6001600160a01b03811681146124b3575f80fd5b50565b5f602082840312156124c6575f80fd5b81356121a98161249f565b602080825282518282018190525f9190848201906040850190845b81811015612508578351835292840192918401916001016124ec565b50909695505050505050565b80151581146124b3575f80fd5b5f8060408385031215612532575f80fd5b823561253d8161249f565b9150602083013561254d81612514565b809150509250929050565b5f8060408385031215612569575f80fd5b82356125748161249f565b946020939093013593505050565b6001600160a01b039384168152919092166020820152604081019190915260600190565b5f602082840312156125b6575f80fd5b81516121a981612514565b5f602082840312156125d1575f80fd5b5051919050565b634e487b7160e01b5f52601160045260245ffd5b600181815b8085111561240c57815f190482111561260c5761260c6125d8565b8085161561261957918102915b93841c93908002906125f1565b5f82612634575060016121ac565b8161264057505f6121ac565b816001811461265657600281146126605761267c565b60019150506121ac565b60ff841115612671576126716125d8565b50506001821b6121ac565b5060208310610133831016604e8410600b841016171561269f575081810a6121ac565b6126a983836125ec565b805f19048211156126bc576126bc6125d8565b029392505050565b5f6126cf8383612626565b9392505050565b5f600182016126e7576126e76125d8565b5060010190565b818103818111156121ac576121ac6125d8565b634e487b7160e01b5f52603260045260245ffd5b5f60208284031215612725575f80fd5b81516121a98161249f565b634e487b7160e01b5f52603160045260245ffd5b80820281158282048414176121ac576121ac6125d8565b5f8261277557634e487b7160e01b5f52601260045260245ffd5b500490565b808201808211156121ac576121ac6125d8565b634e487b7160e01b5f52604160045260245ffdfea2646970667358221220809e0d9f4f08946ece9d4b54f22971c13adba93299b531db7f55e78031e6b3ee64736f6c63430008140033",
    "sourcePath": "c:/Users/STC/Documents/GitHub/BRUTUS-TOKEN/contracts/BRST POOL/Pool-BRST-v4.sol",
    "compiler": {
        "name": "solc",
        "version": "0.8.20+commit.a1b79de6"
    },
    "functionHashes": {
        "ChangeToken(address)": "a923c109",
        "ChangeTokenOTRO(address)": "96ba5363",
        "MIN_DEPOSIT()": "e1e158a5",
        "RATE()": "664e9704",
        "TIEMPO()": "43849061",
        "TRON_BALANCE()": "f4903cf7",
        "TRON_PAY_BALANCE()": "c7c277a9",
        "TRON_PAY_BALANCE_FAST()": "202bec1e",
        "TRON_PAY_BALANCE_WHITE()": "36c40fc4",
        "TRON_RR()": "e849f448",
        "TRON_SOLICITADO()": "dd1335d0",
        "Wallet_SR()": "2a1bb870",
        "asignarDisponible(uint256)": "be5b60ef",
        "asignarPerdida(uint256)": "383f23a0",
        "completada(uint256)": "0edd11f4",
        "crearBRTS(uint256)": "a4397450",
        "descuentoRapido()": "d7b6e5b2",
        "donate()": "ed88c68e",
        "donate(uint256)": "f14faf6f",
        "esperaRetiro(uint256)": "16f64048",
        "gananciaDirecta(uint256)": "60f05ea7",
        "index()": "2986c0e5",
        "iniciado()": "83bd8528",
        "inicializar()": "dcbe327e",
        "instaRetiro(uint256)": "40aabb57",
        "largoSolicitudes(address)": "79fe4f96",
        "misSolicitudes(address,uint256)": "d4ff5b33",
        "newOwnerBRTS(address)": "b0698a1b",
        "owner()": "8da5cb5b",
        "peticiones(uint256)": "cc1bc869",
        "precision()": "d3b5dc3b",
        "quemarBRTS(uint256)": "2a07d8f3",
        "redimBRTS(uint256)": "2688327a",
        "redimOTRO()": "8929cbc5",
        "redimTRX(uint256)": "875b1148",
        "retirar(uint256)": "e8b1298f",
        "retirarDisponible(uint256)": "f5418f63",
        "retirarFrom(address)": "783dec15",
        "setListaNegra(address,bool)": "b15c16aa",
        "setSalidaRapida(uint256,uint256)": "219ec6a1",
        "setTiempo(uint256)": "f90b3f5a",
        "setWalletSR(address)": "68adb6ea",
        "setWhiteList(address,bool)": "8d14e127",
        "solicitudRetiro(uint256)": "75b2a546",
        "solicitudesPendientesGlobales()": "4d03c44f",
        "staking()": "4cf088d9",
        "todasSolicitudes(address)": "88a4a981",
        "totalDisponible()": "3808cd6b",
        "transferOwnership(address)": "f2fde38b",
        "verSolicitudPendiente(uint256)": "fcd728f5",
        "whiteList(address)": "372c12b1"
    },
    "gasEstimates": {
        "creation": {
            "codeDepositCost": "2039800",
            "executionCost": "26385",
            "totalCost": "2066185"
        },
        "external": {
            "": "251",
            "ChangeToken(address)": "infinite",
            "ChangeTokenOTRO(address)": "infinite",
            "MIN_DEPOSIT()": "2405",
            "RATE()": "infinite",
            "TIEMPO()": "2362",
            "TRON_BALANCE()": "2357",
            "TRON_PAY_BALANCE()": "infinite",
            "TRON_PAY_BALANCE_FAST()": "infinite",
            "TRON_PAY_BALANCE_WHITE()": "4527",
            "TRON_RR()": "2427",
            "TRON_SOLICITADO()": "2383",
            "Wallet_SR()": "2404",
            "asignarDisponible(uint256)": "infinite",
            "asignarPerdida(uint256)": "infinite",
            "completada(uint256)": "2483",
            "crearBRTS(uint256)": "infinite",
            "descuentoRapido()": "2339",
            "donate()": "infinite",
            "donate(uint256)": "infinite",
            "esperaRetiro(uint256)": "infinite",
            "gananciaDirecta(uint256)": "infinite",
            "index()": "2451",
            "iniciado()": "2387",
            "inicializar()": "infinite",
            "instaRetiro(uint256)": "infinite",
            "largoSolicitudes(address)": "2599",
            "misSolicitudes(address,uint256)": "4864",
            "newOwnerBRTS(address)": "infinite",
            "owner()": "infinite",
            "peticiones(uint256)": "8968",
            "precision()": "2405",
            "quemarBRTS(uint256)": "infinite",
            "redimBRTS(uint256)": "infinite",
            "redimOTRO()": "infinite",
            "redimTRX(uint256)": "infinite",
            "retirar(uint256)": "infinite",
            "retirarDisponible(uint256)": "infinite",
            "retirarFrom(address)": "infinite",
            "setListaNegra(address,bool)": "infinite",
            "setSalidaRapida(uint256,uint256)": "infinite",
            "setTiempo(uint256)": "infinite",
            "setWalletSR(address)": "infinite",
            "setWhiteList(address,bool)": "infinite",
            "solicitudRetiro(uint256)": "infinite",
            "solicitudesPendientesGlobales()": "infinite",
            "staking()": "infinite",
            "todasSolicitudes(address)": "infinite",
            "totalDisponible()": "2428",
            "transferOwnership(address)": "infinite",
            "verSolicitudPendiente(uint256)": "9287",
            "whiteList(address)": "2627"
        },
        "internal": {
            "onlyOwner()": "infinite"
        }
    }
}