{
    "contractName": "PoolBRSTv4",
    "abi": [
        {
            "inputs": [],
            "stateMutability": "nonpayable",
            "type": "constructor"
        },
        {
            "stateMutability": "payable",
            "type": "fallback"
        },
        {
            "inputs": [
                {
                    "internalType": "address",
                    "name": "_tokenTRC20",
                    "type": "address"
                }
            ],
            "name": "ChangeToken",
            "outputs": [],
            "stateMutability": "nonpayable",
            "type": "function"
        },
        {
            "inputs": [
                {
                    "internalType": "address",
                    "name": "_tokenTRC20",
                    "type": "address"
                }
            ],
            "name": "ChangeTokenOTRO",
            "outputs": [],
            "stateMutability": "nonpayable",
            "type": "function"
        },
        {
            "inputs": [],
            "name": "MIN_DEPOSIT",
            "outputs": [
                {
                    "internalType": "uint256",
                    "name": "",
                    "type": "uint256"
                }
            ],
            "stateMutability": "view",
            "type": "function"
        },
        {
            "inputs": [],
            "name": "RATE",
            "outputs": [
                {
                    "internalType": "uint256",
                    "name": "",
                    "type": "uint256"
                }
            ],
            "stateMutability": "view",
            "type": "function"
        },
        {
            "inputs": [],
            "name": "TIEMPO",
            "outputs": [
                {
                    "internalType": "uint256",
                    "name": "",
                    "type": "uint256"
                }
            ],
            "stateMutability": "view",
            "type": "function"
        },
        {
            "inputs": [],
            "name": "TRON_BALANCE",
            "outputs": [
                {
                    "internalType": "uint256",
                    "name": "",
                    "type": "uint256"
                }
            ],
            "stateMutability": "view",
            "type": "function"
        },
        {
            "inputs": [],
            "name": "TRON_PAY_BALANCE",
            "outputs": [
                {
                    "internalType": "uint256",
                    "name": "",
                    "type": "uint256"
                }
            ],
            "stateMutability": "view",
            "type": "function"
        },
        {
            "inputs": [],
            "name": "TRON_RR",
            "outputs": [
                {
                    "internalType": "uint256",
                    "name": "",
                    "type": "uint256"
                }
            ],
            "stateMutability": "view",
            "type": "function"
        },
        {
            "inputs": [],
            "name": "TRON_SOLICITADO",
            "outputs": [
                {
                    "internalType": "uint256",
                    "name": "",
                    "type": "uint256"
                }
            ],
            "stateMutability": "view",
            "type": "function"
        },
        {
            "inputs": [],
            "name": "Wallet_SR",
            "outputs": [
                {
                    "internalType": "address payable",
                    "name": "",
                    "type": "address"
                }
            ],
            "stateMutability": "view",
            "type": "function"
        },
        {
            "inputs": [
                {
                    "internalType": "address",
                    "name": "_wl_user",
                    "type": "address"
                },
                {
                    "internalType": "uint256",
                    "name": "_value",
                    "type": "uint256"
                }
            ],
            "name": "asignarDisponible",
            "outputs": [],
            "stateMutability": "nonpayable",
            "type": "function"
        },
        {
            "inputs": [
                {
                    "internalType": "uint256",
                    "name": "_value",
                    "type": "uint256"
                }
            ],
            "name": "asignarPerdida",
            "outputs": [],
            "stateMutability": "nonpayable",
            "type": "function"
        },
        {
            "inputs": [
                {
                    "internalType": "uint256",
                    "name": "",
                    "type": "uint256"
                }
            ],
            "name": "completada",
            "outputs": [
                {
                    "internalType": "bool",
                    "name": "",
                    "type": "bool"
                }
            ],
            "stateMutability": "view",
            "type": "function"
        },
        {
            "inputs": [
                {
                    "internalType": "uint256",
                    "name": "_value",
                    "type": "uint256"
                }
            ],
            "name": "crearBRTS",
            "outputs": [
                {
                    "internalType": "bool",
                    "name": "",
                    "type": "bool"
                }
            ],
            "stateMutability": "nonpayable",
            "type": "function"
        },
        {
            "inputs": [],
            "name": "descuentoRapido",
            "outputs": [
                {
                    "internalType": "uint256",
                    "name": "",
                    "type": "uint256"
                }
            ],
            "stateMutability": "view",
            "type": "function"
        },
        {
            "inputs": [
                {
                    "internalType": "address",
                    "name": "",
                    "type": "address"
                }
            ],
            "name": "disponible",
            "outputs": [
                {
                    "internalType": "uint256",
                    "name": "",
                    "type": "uint256"
                }
            ],
            "stateMutability": "view",
            "type": "function"
        },
        {
            "inputs": [
                {
                    "internalType": "uint256",
                    "name": "_value",
                    "type": "uint256"
                }
            ],
            "name": "esperaRetiro",
            "outputs": [
                {
                    "internalType": "uint256",
                    "name": "order",
                    "type": "uint256"
                }
            ],
            "stateMutability": "nonpayable",
            "type": "function"
        },
        {
            "inputs": [
                {
                    "internalType": "uint256",
                    "name": "_value",
                    "type": "uint256"
                }
            ],
            "name": "gananciaDirecta",
            "outputs": [],
            "stateMutability": "nonpayable",
            "type": "function"
        },
        {
            "inputs": [],
            "name": "index",
            "outputs": [
                {
                    "internalType": "uint256",
                    "name": "",
                    "type": "uint256"
                }
            ],
            "stateMutability": "view",
            "type": "function"
        },
        {
            "inputs": [],
            "name": "iniciado",
            "outputs": [
                {
                    "internalType": "bool",
                    "name": "",
                    "type": "bool"
                }
            ],
            "stateMutability": "view",
            "type": "function"
        },
        {
            "inputs": [],
            "name": "inicializar",
            "outputs": [],
            "stateMutability": "nonpayable",
            "type": "function"
        },
        {
            "inputs": [
                {
                    "internalType": "uint256",
                    "name": "_value",
                    "type": "uint256"
                }
            ],
            "name": "instaRetiro",
            "outputs": [
                {
                    "internalType": "bool",
                    "name": "",
                    "type": "bool"
                }
            ],
            "stateMutability": "nonpayable",
            "type": "function"
        },
        {
            "inputs": [
                {
                    "internalType": "address",
                    "name": "_user",
                    "type": "address"
                }
            ],
            "name": "largoSolicitudes",
            "outputs": [
                {
                    "internalType": "uint256",
                    "name": "",
                    "type": "uint256"
                }
            ],
            "stateMutability": "view",
            "type": "function"
        },
        {
            "inputs": [
                {
                    "internalType": "address",
                    "name": "",
                    "type": "address"
                },
                {
                    "internalType": "uint256",
                    "name": "",
                    "type": "uint256"
                }
            ],
            "name": "misSolicitudes",
            "outputs": [
                {
                    "internalType": "uint256",
                    "name": "",
                    "type": "uint256"
                }
            ],
            "stateMutability": "view",
            "type": "function"
        },
        {
            "inputs": [
                {
                    "internalType": "address",
                    "name": "_newOwner",
                    "type": "address"
                }
            ],
            "name": "newOwnerBRTS",
            "outputs": [],
            "stateMutability": "nonpayable",
            "type": "function"
        },
        {
            "inputs": [],
            "name": "owner",
            "outputs": [
                {
                    "internalType": "address",
                    "name": "",
                    "type": "address"
                }
            ],
            "stateMutability": "view",
            "type": "function"
        },
        {
            "inputs": [
                {
                    "internalType": "uint256",
                    "name": "",
                    "type": "uint256"
                }
            ],
            "name": "peticiones",
            "outputs": [
                {
                    "internalType": "address",
                    "name": "wallet",
                    "type": "address"
                },
                {
                    "internalType": "uint256",
                    "name": "tiempo",
                    "type": "uint256"
                },
                {
                    "internalType": "uint256",
                    "name": "precio",
                    "type": "uint256"
                },
                {
                    "internalType": "uint256",
                    "name": "brst",
                    "type": "uint256"
                }
            ],
            "stateMutability": "view",
            "type": "function"
        },
        {
            "inputs": [],
            "name": "precision",
            "outputs": [
                {
                    "internalType": "uint256",
                    "name": "",
                    "type": "uint256"
                }
            ],
            "stateMutability": "view",
            "type": "function"
        },
        {
            "inputs": [
                {
                    "internalType": "uint256",
                    "name": "_value",
                    "type": "uint256"
                }
            ],
            "name": "quemarBRTS",
            "outputs": [
                {
                    "internalType": "bool",
                    "name": "",
                    "type": "bool"
                },
                {
                    "internalType": "uint256",
                    "name": "",
                    "type": "uint256"
                }
            ],
            "stateMutability": "nonpayable",
            "type": "function"
        },
        {
            "inputs": [
                {
                    "internalType": "uint256",
                    "name": "_value",
                    "type": "uint256"
                }
            ],
            "name": "redimBRTS",
            "outputs": [
                {
                    "internalType": "uint256",
                    "name": "",
                    "type": "uint256"
                }
            ],
            "stateMutability": "nonpayable",
            "type": "function"
        },
        {
            "inputs": [],
            "name": "redimOTRO",
            "outputs": [
                {
                    "internalType": "uint256",
                    "name": "",
                    "type": "uint256"
                }
            ],
            "stateMutability": "nonpayable",
            "type": "function"
        },
        {
            "inputs": [
                {
                    "internalType": "uint256",
                    "name": "_value",
                    "type": "uint256"
                }
            ],
            "name": "redimTRX",
            "outputs": [
                {
                    "internalType": "uint256",
                    "name": "",
                    "type": "uint256"
                }
            ],
            "stateMutability": "nonpayable",
            "type": "function"
        },
        {
            "inputs": [
                {
                    "internalType": "uint256",
                    "name": "_id",
                    "type": "uint256"
                }
            ],
            "name": "retirar",
            "outputs": [
                {
                    "internalType": "bool",
                    "name": "exitoso",
                    "type": "bool"
                }
            ],
            "stateMutability": "nonpayable",
            "type": "function"
        },
        {
            "inputs": [
                {
                    "internalType": "address",
                    "name": "_wl_user",
                    "type": "address"
                },
                {
                    "internalType": "uint256",
                    "name": "_value",
                    "type": "uint256"
                }
            ],
            "name": "retirarDisponible",
            "outputs": [],
            "stateMutability": "nonpayable",
            "type": "function"
        },
        {
            "inputs": [
                {
                    "internalType": "address",
                    "name": "_user",
                    "type": "address"
                }
            ],
            "name": "retirarFrom",
            "outputs": [
                {
                    "internalType": "bool",
                    "name": "exitoso",
                    "type": "bool"
                }
            ],
            "stateMutability": "nonpayable",
            "type": "function"
        },
        {
            "inputs": [
                {
                    "internalType": "address",
                    "name": "_evilUser",
                    "type": "address"
                },
                {
                    "internalType": "bool",
                    "name": "_si_no",
                    "type": "bool"
                }
            ],
            "name": "setListaNegra",
            "outputs": [],
            "stateMutability": "nonpayable",
            "type": "function"
        },
        {
            "inputs": [
                {
                    "internalType": "uint256",
                    "name": "_descuento",
                    "type": "uint256"
                },
                {
                    "internalType": "uint256",
                    "name": "_precision",
                    "type": "uint256"
                }
            ],
            "name": "setSalidaRapida",
            "outputs": [],
            "stateMutability": "nonpayable",
            "type": "function"
        },
        {
            "inputs": [
                {
                    "internalType": "uint256",
                    "name": "_dias",
                    "type": "uint256"
                }
            ],
            "name": "setTiempo",
            "outputs": [],
            "stateMutability": "nonpayable",
            "type": "function"
        },
        {
            "inputs": [
                {
                    "internalType": "address payable",
                    "name": "_w",
                    "type": "address"
                }
            ],
            "name": "setWalletSR",
            "outputs": [],
            "stateMutability": "nonpayable",
            "type": "function"
        },
        {
            "inputs": [
                {
                    "internalType": "address",
                    "name": "_w",
                    "type": "address"
                },
                {
                    "internalType": "bool",
                    "name": "_sn",
                    "type": "bool"
                }
            ],
            "name": "setWhiteList",
            "outputs": [],
            "stateMutability": "nonpayable",
            "type": "function"
        },
        {
            "inputs": [
                {
                    "internalType": "uint256",
                    "name": "_value",
                    "type": "uint256"
                }
            ],
            "name": "solicitudRetiro",
            "outputs": [
                {
                    "internalType": "bool",
                    "name": "",
                    "type": "bool"
                },
                {
                    "internalType": "uint256",
                    "name": "",
                    "type": "uint256"
                }
            ],
            "stateMutability": "nonpayable",
            "type": "function"
        },
        {
            "inputs": [],
            "name": "solicitudesPendientesGlobales",
            "outputs": [
                {
                    "internalType": "uint256[]",
                    "name": "pGlobales",
                    "type": "uint256[]"
                }
            ],
            "stateMutability": "view",
            "type": "function"
        },
        {
            "inputs": [],
            "name": "staking",
            "outputs": [
                {
                    "internalType": "uint256",
                    "name": "",
                    "type": "uint256"
                }
            ],
            "stateMutability": "payable",
            "type": "function"
        },
        {
            "inputs": [
                {
                    "internalType": "address",
                    "name": "_user",
                    "type": "address"
                }
            ],
            "name": "todasSolicitudes",
            "outputs": [
                {
                    "internalType": "uint256[]",
                    "name": "",
                    "type": "uint256[]"
                }
            ],
            "stateMutability": "view",
            "type": "function"
        },
        {
            "inputs": [],
            "name": "totalDisponible",
            "outputs": [
                {
                    "internalType": "uint256",
                    "name": "",
                    "type": "uint256"
                }
            ],
            "stateMutability": "view",
            "type": "function"
        },
        {
            "inputs": [
                {
                    "internalType": "address",
                    "name": "_newAdmin",
                    "type": "address"
                }
            ],
            "name": "transferOwnership",
            "outputs": [],
            "stateMutability": "nonpayable",
            "type": "function"
        },
        {
            "inputs": [
                {
                    "internalType": "uint256",
                    "name": "_id",
                    "type": "uint256"
                }
            ],
            "name": "verSolicitudPendiente",
            "outputs": [
                {
                    "components": [
                        {
                            "internalType": "address",
                            "name": "wallet",
                            "type": "address"
                        },
                        {
                            "internalType": "uint256",
                            "name": "tiempo",
                            "type": "uint256"
                        },
                        {
                            "internalType": "uint256",
                            "name": "precio",
                            "type": "uint256"
                        },
                        {
                            "internalType": "uint256",
                            "name": "brst",
                            "type": "uint256"
                        }
                    ],
                    "internalType": "struct PoolBRSTv4.Peticion",
                    "name": "pt2",
                    "type": "tuple"
                }
            ],
            "stateMutability": "view",
            "type": "function"
        },
        {
            "inputs": [
                {
                    "internalType": "address",
                    "name": "",
                    "type": "address"
                }
            ],
            "name": "whiteList",
            "outputs": [
                {
                    "internalType": "bool",
                    "name": "",
                    "type": "bool"
                }
            ],
            "stateMutability": "view",
            "type": "function"
        },
        {
            "stateMutability": "payable",
            "type": "receive"
        }
    ],
    "bytecode": "60806040526011805460ff1916600117905534801561001c575f80fd5b506126558061002a5f395ff3fe60806040526004361061027e575f3560e01c80638929cbc51161014d578063d4ff5b33116100ba578063e8b1298f11610076578063e8b1298f146107e1578063ea0a88d414610800578063f2fde38b1461081f578063f4903cf71461083e578063f90b3f5a14610852578063fcd728f51461087157005b8063d4ff5b331461075a578063d7b6e5b214610779578063dcbe327e1461078e578063dd1335d0146107a2578063e1e158a5146107b7578063e849f448146107cc57005b8063a923c10911610109578063a923c10914610660578063b0698a1b1461067f578063b15c16aa1461069e578063c7c277a9146106bd578063cc1bc869146106d1578063d3b5dc3b1461074557005b80638929cbc5146105b05780638d14e127146105c45780638da5cb5b146105e357806390cc4c2e146105f757806396ba536314610622578063a43974501461064157005b806343849061116101eb57806375b2a546116101a757806375b2a546146104e7578063783dec151461050657806379fe4f961461052557806383bd852814610559578063875b11481461057257806388a4a9811461059157005b806343849061146104575780634cf088d91461046c5780634d03c44f1461047457806360f05ea714610495578063664e9704146104b457806368adb6ea146104c857005b80632a07d8f31161023a5780632a07d8f3146103695780632a1bb8701461039f578063372c12b1146103d65780633808cd6b14610404578063383f23a01461041957806340aabb571461043857005b80630de17b15146102875780630edd11f4146102a657806316f64048146102e9578063219ec6a1146103165780632688327a146103355780632986c0e51461035457005b3661028557005b005b348015610292575f80fd5b506102856102a1366004612321565b6108cc565b3480156102b1575f80fd5b506102d46102c036600461234b565b600b6020525f908152604090205460ff1681565b60405190151581526020015b60405180910390f35b3480156102f4575f80fd5b5061030861030336600461234b565b610945565b6040519081526020016102e0565b348015610321575f80fd5b50610285610330366004612362565b610b09565b348015610340575f80fd5b5061030861034f36600461234b565b610b1c565b34801561035f575f80fd5b5061030860105481565b348015610374575f80fd5b5061038861038336600461234b565b610c25565b6040805192151583526020830191909152016102e0565b3480156103aa575f80fd5b506008546103be906001600160a01b031681565b6040516001600160a01b0390911681526020016102e0565b3480156103e1575f80fd5b506102d46103f0366004612382565b600d6020525f908152604090205460ff1681565b34801561040f575f80fd5b50610308600f5481565b348015610424575f80fd5b5061028561043336600461234b565b610d0e565b348015610443575f80fd5b506102d461045236600461234b565b610d29565b348015610462575f80fd5b5061030860095481565b610308610f03565b34801561047f575f80fd5b506104886110b6565b6040516102e0919061239d565b3480156104a0575f80fd5b506102856104af36600461234b565b6110fc565b3480156104bf575f80fd5b50610308611111565b3480156104d3575f80fd5b506102856104e2366004612382565b611203565b3480156104f2575f80fd5b5061038861050136600461234b565b61122d565b348015610511575f80fd5b506102d4610520366004612382565b61125b565b348015610530575f80fd5b5061030861053f366004612382565b6001600160a01b03165f908152600c602052604090205490565b348015610564575f80fd5b506011546102d49060ff1681565b34801561057d575f80fd5b5061030861058c36600461234b565b611621565b34801561059c575f80fd5b506104886105ab366004612382565b611673565b3480156105bb575f80fd5b506103086116dc565b3480156105cf575f80fd5b506102856105de3660046123ed565b61179e565b3480156105ee575f80fd5b506103be6117d0565b348015610602575f80fd5b50610308610611366004612382565b600e6020525f908152604090205481565b34801561062d575f80fd5b5061028561063c366004612382565b61183b565b34801561064c575f80fd5b506102d461065b36600461234b565b611865565b34801561066b575f80fd5b5061028561067a366004612382565b611940565b34801561068a575f80fd5b50610285610699366004612382565b611969565b3480156106a9575f80fd5b506102856106b83660046123ed565b6119cd565b3480156106c8575f80fd5b50610308611a69565b3480156106dc575f80fd5b5061071b6106eb36600461234b565b600a6020525f908152604090208054600182015460028301546003909301546001600160a01b0390921692909184565b604080516001600160a01b03909516855260208501939093529183015260608201526080016102e0565b348015610750575f80fd5b5061030860065481565b348015610765575f80fd5b50610308610774366004612321565b611a87565b348015610784575f80fd5b5061030860055481565b348015610799575f80fd5b50610285611ab2565b3480156107ad575f80fd5b5061030860035481565b3480156107c2575f80fd5b5061030860025481565b3480156107d7575f80fd5b5061030860045481565b3480156107ec575f80fd5b506102d46107fb36600461234b565b611b2a565b34801561080b575f80fd5b5061028561081a366004612321565b611e96565b34801561082a575f80fd5b50610285610839366004612382565b611f08565b348015610849575f80fd5b50600754610308565b34801561085d575f80fd5b5061028561086c36600461234b565b611f3e565b34801561087c575f80fd5b5061089061088b36600461234b565b611f4b565b6040516102e0919081516001600160a01b0316815260208083015190820152604080830151908201526060918201519181019190915260800190565b6108d4611fc8565b6001600160a01b0382165f908152600d602052604090205460ff166108f7575f80fd5b6001600160a01b0382165f908152600e60205260409020546109199082611fee565b6001600160a01b0383165f908152600e6020526040902055600f5461093e9082611fee565b600f555050565b5f80546040516323b872dd60e01b8152336004820152306024820152604481018490526001600160a01b03909116906323b872dd906064016020604051808303815f875af1158015610999573d5f803e3d5ffd5b505050506040513d601f19601f820116820180604052508101906109bd9190612424565b6109c5575f80fd5b604080516080810182523381524260208201529081016109e3611111565b815260209081018490526010545f908152600a82526040808220845181546001600160a01b0319166001600160a01b039182161782558585015160018301558583015160028301556060909501516003909101559054815163313ce56760e01b81529151610ac794610abe9492169263313ce5679260048083019391928290030181865afa158015610a77573d5f803e3d5ffd5b505050506040513d601f19601f82011682018060405250810190610a9b919061243f565b610aa690600a612542565b610ab8610ab1611111565b869061205a565b906120d8565b60035490611fee565b6003555060108054335f908152600c6020908152604082208054600181018255908352908220018290558254919290610aff83612554565b9190505550919050565b610b11611fc8565b600591909155600655565b5f610b25611fc8565b5f546040516370a0823160e01b815230600482015283916001600160a01b0316906370a0823190602401602060405180830381865afa158015610b6a573d5f803e3d5ffd5b505050506040513d601f19601f82011682018060405250810190610b8e919061243f565b1015610b98575f80fd5b5f546001600160a01b031663a9059cbb610bb06117d0565b6040516001600160e01b031960e084901b1681526001600160a01b039091166004820152602481018590526044016020604051808303815f875af1158015610bfa573d5f803e3d5ffd5b505050506040513d601f19601f82011682018060405250810190610c1e9190612424565b5090919050565b5f80610c2f611fc8565b5f546040516323b872dd60e01b8152336004820152306024820152604481018590526001600160a01b03909116906323b872dd906064016020604051808303815f875af1158015610c82573d5f803e3d5ffd5b505050506040513d601f19601f82011682018060405250810190610ca69190612424565b610cae575f80fd5b5f5460405163db006a7560e01b8152600481018590526001600160a01b039091169063db006a75906024015f604051808303815f87803b158015610cf0575f80fd5b505af1158015610d02573d5f803e3d5ffd5b50600196945050505050565b610d16611fc8565b600754610d23908261213b565b60075550565b5f80610d7c5f8054906101000a90046001600160a01b03166001600160a01b031663313ce5676040518163ffffffff1660e01b8152600401602060405180830381865afa158015610a77573d5f803e3d5ffd5b90505f610d87611a69565b335f908152600d602052604090205490915060ff16610dc657610dbf6064610ab8600554600654610db8919061256c565b859061205a565b9150610dd7565b50335f908152600e60205260409020545b818110158015610de957508160045410155b15610efa575f546040516323b872dd60e01b8152336004820152306024820152604481018690526001600160a01b03909116906323b872dd906064016020604051808303815f875af1158015610e41573d5f803e3d5ffd5b505050506040513d601f19601f82011682018060405250810190610e659190612424565b610e6d575f80fd5b5f5460405163db006a7560e01b8152600481018690526001600160a01b039091169063db006a75906024015f604051808303815f87803b158015610eaf575f80fd5b505af1158015610ec1573d5f803e3d5ffd5b505060405133925084156108fc02915084905f818181858888f19350505050158015610eef573d5f803e3d5ffd5b506001949350505050565b505f9392505050565b5f600254341015610f12575f80fd5b60085460405134916001600160a01b03169082156108fc029083905f818181858888f19350505050158015610f49573d5f803e3d5ffd5b50610fd3610f55611111565b5f546040805163313ce56760e01b81529051610ab8926001600160a01b03169163313ce5679160048083019260209291908290030181865afa158015610f9d573d5f803e3d5ffd5b505050506040513d601f19601f82011682018060405250810190610fc1919061243f565b610fcc90600a612542565b849061205a565b600754909150610fe39034611fee565b6007555f5460405163664395b360e11b8152600481018390526001600160a01b039091169063cc872b66906024015f604051808303815f87803b158015611028575f80fd5b505af115801561103a573d5f803e3d5ffd5b50505f5460405163a9059cbb60e01b8152336004820152602481018590526001600160a01b03909116925063a9059cbb91506044015b6020604051808303815f875af115801561108c573d5f803e3d5ffd5b505050506040513d601f19601f820116820180604052508101906110b09190612424565b50919050565b60605f5b6010548110156110f8575f818152600b602052604090205460ff166110e6576110e38282612197565b91505b806110f081612554565b9150506110ba565b5090565b611104611fc8565b600754610d239082611fee565b5f8054604080516318160ddd60e01b815290516111fe926001600160a01b0316916318160ddd9160048083019260209291908290030181865afa15801561115a573d5f803e3d5ffd5b505050506040513d601f19601f8201168201806040525081019061117e919061243f565b5f546040805163313ce56760e01b81529051610ab8926001600160a01b03169163313ce5679160048083019260209291908290030181865afa1580156111c6573d5f803e3d5ffd5b505050506040513d601f19601f820116820180604052508101906111ea919061243f565b6111f590600a612542565b6007549061205a565b905090565b61120b611fc8565b600880546001600160a01b0319166001600160a01b0392909216919091179055565b5f8061123883610d29565b1561124857506001925f92509050565b5f61125284610945565b91509150915091565b5f805f61126784611673565b90506060805f805b84518110156114b6576112806117d0565b6001600160a01b0316336001600160a01b031614806112b657506001600160a01b0388165f908152600d602052604090205460ff165b806113025750426112ff600954600a5f8986815181106112d8576112d861257f565b602002602001015181526020019081526020015f2060010154611fee90919063ffffffff16565b10155b15611475576113fe6113f75f8054906101000a90046001600160a01b03166001600160a01b031663313ce5676040518163ffffffff1660e01b8152600401602060405180830381865afa15801561135b573d5f803e3d5ffd5b505050506040513d601f19601f8201168201806040525081019061137f919061243f565b61138a90600a612542565b610ab8600a5f8a87815181106113a2576113a261257f565b602002602001015181526020019081526020015f2060020154600a5f8b88815181106113d0576113d061257f565b602002602001015181526020019081526020015f206003015461205a90919063ffffffff16565b8790611fee565b9550611440600a5f8784815181106114185761141861257f565b602002602001015181526020019081526020015f206003015483611fee90919063ffffffff16565b915061146e8582815181106114575761145761257f565b60200260200101518561219790919063ffffffff16565b93506114a4565b6114a185828151811061148a5761148a61257f565b60200260200101518461219790919063ffffffff16565b92505b806114ae81612554565b91505061126f565b505f851180156114c557505f81115b6114cd575f80fd5b846114d6611a69565b10611617576001600160a01b0387165f908152600c602090815260409091208351611503928501906122b6565b505f5b8351811015611564576001600b5f8684815181106115265761152661257f565b602002602001015181526020019081526020015f205f6101000a81548160ff021916908315150217905550808061155c90612554565b915050611506565b506040516001600160a01b0388169086156108fc029087905f818181858888f19350505050158015611598573d5f803e3d5ffd5b505f5460405163db006a7560e01b8152600481018390526001600160a01b039091169063db006a75906024015f604051808303815f87803b1580156115db575f80fd5b505af11580156115ed573d5f803e3d5ffd5b50506007546115ff925090508661213b565b60075560035461160f908661213b565b600355600195505b5050505050919050565b5f61162a611fc8565b81471015611636575f80fd5b61163e6117d0565b6001600160a01b03166108fc8390811502906040515f60405180830381858888f19350505050158015610c1e573d5f803e3d5ffd5b6001600160a01b0381165f908152600c60209081526040918290208054835181840281018401909452808452606093928301828280156116d057602002820191905f5260205f20905b8154815260200190600101908083116116bc575b50505050509050919050565b5f6116e5611fc8565b6001546040516370a0823160e01b81523060048201525f916001600160a01b0316906370a0823190602401602060405180830381865afa15801561172b573d5f803e3d5ffd5b505050506040513d601f19601f8201168201806040525081019061174f919061243f565b6001549091506001600160a01b031663a9059cbb61176b6117d0565b6040516001600160e01b031960e084901b1681526001600160a01b03909116600482015260248101849052604401611070565b6117a6611fc8565b6001600160a01b03919091165f908152600d60205260409020805460ff1916911515919091179055565b5f80309050806001600160a01b031663f851a4406040518163ffffffff1660e01b8152600401602060405180830381865afa158015611811573d5f803e3d5ffd5b505050506040513d601f19601f820116820180604052508101906118359190612593565b91505090565b611843611fc8565b600180546001600160a01b0319166001600160a01b0392909216919091179055565b5f61186e611fc8565b5f5460405163664395b360e11b8152600481018490526001600160a01b039091169063cc872b66906024015f604051808303815f87803b1580156118b0575f80fd5b505af11580156118c2573d5f803e3d5ffd5b50505f5460405163a9059cbb60e01b8152336004820152602481018690526001600160a01b03909116925063a9059cbb91506044016020604051808303815f875af1158015611913573d5f803e3d5ffd5b505050506040513d601f19601f820116820180604052508101906119379190612424565b50600192915050565b611948611fc8565b5f80546001600160a01b0319166001600160a01b0392909216919091179055565b611971611fc8565b5f5460405163f2fde38b60e01b81526001600160a01b0383811660048301529091169063f2fde38b906024015f604051808303815f87803b1580156119b4575f80fd5b505af11580156119c6573d5f803e3d5ffd5b5050505050565b6119d5611fc8565b8015611a38575f54604051623b2e4f60e61b81526001600160a01b03848116600483015290911690630ecb93c0906024015b5f604051808303815f87803b158015611a1e575f80fd5b505af1158015611a30573d5f803e3d5ffd5b505050505050565b5f5460405163e4997dc560e01b81526001600160a01b0384811660048301529091169063e4997dc590602401611a07565b5f600f54471115611a8257600f546111fe90479061213b565b505f90565b600c602052815f5260405f208181548110611aa0575f80fd5b905f5260205f20015f91509150505481565b611aba611fc8565b60115460ff1615611ac9575f80fd5b620f4240600255621669806009556011805460ff191660019081179091555f80546001600160a01b031990811673389ccc30de1d311738dffd3f60d4fd6188970f459081179092558254161790556005805560646006556377359400600455565b5f8160105411611b38575f80fd5b611b406117d0565b6001600160a01b0316336001600160a01b031614611bab575f828152600a60209081526040808320546001600160a01b03168352600d90915290205460ff16611bab576009545f838152600a6020526040902060010154611ba091611fee565b421015611bab575f80fd5b5f80546040805163313ce56760e01b81529051611c44926001600160a01b03169163313ce5679160048083019260209291908290030181865afa158015611bf4573d5f803e3d5ffd5b505050506040513d601f19601f82011682018060405250810190611c18919061243f565b611c2390600a612542565b5f858152600a602052604090206002810154600390910154610ab89161205a565b905080611c4f611a69565b106110b0575f838152600a60209081526040808320546001600160a01b03168352600c82528083208054825181850281018501909352808352611cd1938893929190830182828015611cbe57602002820191905f5260205f20905b815481526020019060010190808311611caa575b505050505061226790919063ffffffff16565b5f868152600a60209081526040808320546001600160a01b03168352600c909152902080549193509150611d079060019061256c565b81548110611d1757611d1761257f565b5f918252602080832090910154868352600a82526040808420546001600160a01b03168452600c9092529120805483908110611d5557611d5561257f565b5f918252602080832090910192909255858152600a82526040808220546001600160a01b03168252600c90925220805480611d9257611d926125ae565b5f828152602080822083015f19908101839055909201909255858252600a905260408082205490516001600160a01b039091169184156108fc02918591818181858888f19350505050158015611dea573d5f803e3d5ffd5b505f8054858252600a60205260409182902060030154915163db006a7560e01b815260048101929092526001600160a01b03169063db006a75906024015f604051808303815f87803b158015611e3e575f80fd5b505af1158015611e50573d5f803e3d5ffd5b5050600754611e62925090508361213b565b600755600354611e72908361213b565b6003555050505f908152600b60205260409020805460ff1916600190811790915590565b611e9e611fc8565b6001600160a01b0382165f908152600d602052604090205460ff16611ec1575f80fd5b6001600160a01b0382165f908152600e6020526040902054611ee3908261213b565b6001600160a01b0383165f908152600e6020526040902055600f5461093e908261213b565b611f10611fc8565b6040516308f2839760e41b81526001600160a01b038216600482015230908190638f28397090602401611a07565b611f46611fc8565b600955565b611f7b60405180608001604052805f6001600160a01b031681526020015f81526020015f81526020015f81525090565b505f908152600a6020908152604091829020825160808101845281546001600160a01b03168152600182015492810192909252600281015492820192909252600390910154606082015290565b611fd06117d0565b6001600160a01b0316336001600160a01b031614611fec575f80fd5b565b5f80611ffa83856125c2565b9050838110156120515760405162461bcd60e51b815260206004820152601b60248201527f536166654d6174683a206164646974696f6e206f766572666c6f77000000000060448201526064015b60405180910390fd5b90505b92915050565b5f825f0361206957505f612054565b5f61207483856125d5565b90508261208185836125ec565b146120515760405162461bcd60e51b815260206004820152602160248201527f536166654d6174683a206d756c7469706c69636174696f6e206f766572666c6f6044820152607760f81b6064820152608401612048565b5f8082116121285760405162461bcd60e51b815260206004820152601a60248201527f536166654d6174683a206469766973696f6e206279207a65726f0000000000006044820152606401612048565b5f61213383856125ec565b949350505050565b5f8282111561218c5760405162461bcd60e51b815260206004820152601e60248201527f536166654d6174683a207375627472616374696f6e206f766572666c6f7700006044820152606401612048565b5f612133838561256c565b60605f835160016121a891906125c2565b67ffffffffffffffff8111156121c0576121c061260b565b6040519080825280602002602001820160405280156121e9578160200160208202803683370190505b5090505f5b8451811015612240578481815181106122095761220961257f565b60200260200101518282815181106122235761222361257f565b60209081029190910101528061223881612554565b9150506121ee565b5082818551815181106122555761225561257f565b60209081029190910101529392505050565b5f805f5b84518110156122ae57838582815181106122875761228761257f565b60200260200101510361229c57600192508091505b806122a681612554565b91505061226b565b509250929050565b828054828255905f5260205f209081019282156122ef579160200282015b828111156122ef5782518255916020019190600101906122d4565b506110f89291505b808211156110f8575f81556001016122f7565b6001600160a01b038116811461231e575f80fd5b50565b5f8060408385031215612332575f80fd5b823561233d8161230a565b946020939093013593505050565b5f6020828403121561235b575f80fd5b5035919050565b5f8060408385031215612373575f80fd5b50508035926020909101359150565b5f60208284031215612392575f80fd5b81356120518161230a565b602080825282518282018190525f9190848201906040850190845b818110156123d4578351835292840192918401916001016123b8565b50909695505050505050565b801515811461231e575f80fd5b5f80604083850312156123fe575f80fd5b82356124098161230a565b91506020830135612419816123e0565b809150509250929050565b5f60208284031215612434575f80fd5b8151612051816123e0565b5f6020828403121561244f575f80fd5b5051919050565b634e487b7160e01b5f52601160045260245ffd5b600181815b808511156122ae57815f190482111561248a5761248a612456565b8085161561249757918102915b93841c939080029061246f565b5f826124b257506001612054565b816124be57505f612054565b81600181146124d457600281146124de576124fa565b6001915050612054565b60ff8411156124ef576124ef612456565b50506001821b612054565b5060208310610133831016604e8410600b841016171561251d575081810a612054565b612527838361246a565b805f190482111561253a5761253a612456565b029392505050565b5f61254d83836124a4565b9392505050565b5f6001820161256557612565612456565b5060010190565b8181038181111561205457612054612456565b634e487b7160e01b5f52603260045260245ffd5b5f602082840312156125a3575f80fd5b81516120518161230a565b634e487b7160e01b5f52603160045260245ffd5b8082018082111561205457612054612456565b808202811582820484141761205457612054612456565b5f8261260657634e487b7160e01b5f52601260045260245ffd5b500490565b634e487b7160e01b5f52604160045260245ffdfea2646970667358221220eeced6e0aa65b55c9014dc9f3fe0fbb6f0fbf0752664eea3a0b2aeec507b17d564736f6c63430008140033",
    "sourcePath": "c:/Users/STC/Documents/GitHub/BRUTUS-TOKEN/contracts/BRST POOL/Pool-BRST-v4.sol",
    "compiler": {
        "name": "solc",
        "version": "0.8.20+commit.a1b79de6"
    },
    "functionHashes": {
        "ChangeToken(address)": "a923c109",
        "ChangeTokenOTRO(address)": "96ba5363",
        "MIN_DEPOSIT()": "e1e158a5",
        "RATE()": "664e9704",
        "TIEMPO()": "43849061",
        "TRON_BALANCE()": "f4903cf7",
        "TRON_PAY_BALANCE()": "c7c277a9",
        "TRON_RR()": "e849f448",
        "TRON_SOLICITADO()": "dd1335d0",
        "Wallet_SR()": "2a1bb870",
        "asignarDisponible(address,uint256)": "0de17b15",
        "asignarPerdida(uint256)": "383f23a0",
        "completada(uint256)": "0edd11f4",
        "crearBRTS(uint256)": "a4397450",
        "descuentoRapido()": "d7b6e5b2",
        "disponible(address)": "90cc4c2e",
        "esperaRetiro(uint256)": "16f64048",
        "gananciaDirecta(uint256)": "60f05ea7",
        "index()": "2986c0e5",
        "iniciado()": "83bd8528",
        "inicializar()": "dcbe327e",
        "instaRetiro(uint256)": "40aabb57",
        "largoSolicitudes(address)": "79fe4f96",
        "misSolicitudes(address,uint256)": "d4ff5b33",
        "newOwnerBRTS(address)": "b0698a1b",
        "owner()": "8da5cb5b",
        "peticiones(uint256)": "cc1bc869",
        "precision()": "d3b5dc3b",
        "quemarBRTS(uint256)": "2a07d8f3",
        "redimBRTS(uint256)": "2688327a",
        "redimOTRO()": "8929cbc5",
        "redimTRX(uint256)": "875b1148",
        "retirar(uint256)": "e8b1298f",
        "retirarDisponible(address,uint256)": "ea0a88d4",
        "retirarFrom(address)": "783dec15",
        "setListaNegra(address,bool)": "b15c16aa",
        "setSalidaRapida(uint256,uint256)": "219ec6a1",
        "setTiempo(uint256)": "f90b3f5a",
        "setWalletSR(address)": "68adb6ea",
        "setWhiteList(address,bool)": "8d14e127",
        "solicitudRetiro(uint256)": "75b2a546",
        "solicitudesPendientesGlobales()": "4d03c44f",
        "staking()": "4cf088d9",
        "todasSolicitudes(address)": "88a4a981",
        "totalDisponible()": "3808cd6b",
        "transferOwnership(address)": "f2fde38b",
        "verSolicitudPendiente(uint256)": "fcd728f5",
        "whiteList(address)": "372c12b1"
    },
    "gasEstimates": {
        "creation": {
            "codeDepositCost": "1962600",
            "executionCost": "26299",
            "totalCost": "1988899"
        },
        "external": {
            "": "251",
            "ChangeToken(address)": "infinite",
            "ChangeTokenOTRO(address)": "infinite",
            "MIN_DEPOSIT()": "2427",
            "RATE()": "infinite",
            "TIEMPO()": "2340",
            "TRON_BALANCE()": "2401",
            "TRON_PAY_BALANCE()": "4705",
            "TRON_RR()": "2449",
            "TRON_SOLICITADO()": "2405",
            "Wallet_SR()": "2404",
            "asignarDisponible(address,uint256)": "infinite",
            "asignarPerdida(uint256)": "infinite",
            "completada(uint256)": "2505",
            "crearBRTS(uint256)": "infinite",
            "descuentoRapido()": "2361",
            "disponible(address)": "2626",
            "esperaRetiro(uint256)": "infinite",
            "gananciaDirecta(uint256)": "infinite",
            "index()": "2451",
            "iniciado()": "2409",
            "inicializar()": "infinite",
            "instaRetiro(uint256)": "infinite",
            "largoSolicitudes(address)": "2621",
            "misSolicitudes(address,uint256)": "4776",
            "newOwnerBRTS(address)": "infinite",
            "owner()": "infinite",
            "peticiones(uint256)": "9012",
            "precision()": "2449",
            "quemarBRTS(uint256)": "infinite",
            "redimBRTS(uint256)": "infinite",
            "redimOTRO()": "infinite",
            "redimTRX(uint256)": "infinite",
            "retirar(uint256)": "infinite",
            "retirarDisponible(address,uint256)": "infinite",
            "retirarFrom(address)": "infinite",
            "setListaNegra(address,bool)": "infinite",
            "setSalidaRapida(uint256,uint256)": "infinite",
            "setTiempo(uint256)": "infinite",
            "setWalletSR(address)": "infinite",
            "setWhiteList(address,bool)": "infinite",
            "solicitudRetiro(uint256)": "infinite",
            "solicitudesPendientesGlobales()": "infinite",
            "staking()": "infinite",
            "todasSolicitudes(address)": "infinite",
            "totalDisponible()": "2406",
            "transferOwnership(address)": "infinite",
            "verSolicitudPendiente(uint256)": "9309",
            "whiteList(address)": "2605"
        },
        "internal": {
            "onlyOwner()": "infinite"
        }
    }
}