{
    "contractName": "PoolBRSTv4",
    "abi": [
        {
            "inputs": [],
            "stateMutability": "nonpayable",
            "type": "constructor"
        },
        {
            "stateMutability": "payable",
            "type": "fallback"
        },
        {
            "inputs": [
                {
                    "internalType": "address",
                    "name": "_tokenTRC20",
                    "type": "address"
                }
            ],
            "name": "ChangeToken",
            "outputs": [],
            "stateMutability": "nonpayable",
            "type": "function"
        },
        {
            "inputs": [
                {
                    "internalType": "address",
                    "name": "_tokenTRC20",
                    "type": "address"
                }
            ],
            "name": "ChangeTokenOTRO",
            "outputs": [],
            "stateMutability": "nonpayable",
            "type": "function"
        },
        {
            "inputs": [],
            "name": "MIN_DEPOSIT",
            "outputs": [
                {
                    "internalType": "uint256",
                    "name": "",
                    "type": "uint256"
                }
            ],
            "stateMutability": "view",
            "type": "function"
        },
        {
            "inputs": [],
            "name": "RATE",
            "outputs": [
                {
                    "internalType": "uint256",
                    "name": "",
                    "type": "uint256"
                }
            ],
            "stateMutability": "view",
            "type": "function"
        },
        {
            "inputs": [],
            "name": "TIEMPO",
            "outputs": [
                {
                    "internalType": "uint256",
                    "name": "",
                    "type": "uint256"
                }
            ],
            "stateMutability": "view",
            "type": "function"
        },
        {
            "inputs": [],
            "name": "TRON_BALANCE",
            "outputs": [
                {
                    "internalType": "uint256",
                    "name": "",
                    "type": "uint256"
                }
            ],
            "stateMutability": "view",
            "type": "function"
        },
        {
            "inputs": [],
            "name": "TRON_PAY_BALANCE",
            "outputs": [
                {
                    "internalType": "uint256",
                    "name": "",
                    "type": "uint256"
                }
            ],
            "stateMutability": "view",
            "type": "function"
        },
        {
            "inputs": [],
            "name": "TRON_PAY_BALANCE_FAST",
            "outputs": [
                {
                    "internalType": "uint256",
                    "name": "",
                    "type": "uint256"
                }
            ],
            "stateMutability": "view",
            "type": "function"
        },
        {
            "inputs": [],
            "name": "TRON_PAY_BALANCE_WHITE",
            "outputs": [
                {
                    "internalType": "uint256",
                    "name": "",
                    "type": "uint256"
                }
            ],
            "stateMutability": "view",
            "type": "function"
        },
        {
            "inputs": [],
            "name": "TRON_RR",
            "outputs": [
                {
                    "internalType": "uint256",
                    "name": "",
                    "type": "uint256"
                }
            ],
            "stateMutability": "view",
            "type": "function"
        },
        {
            "inputs": [],
            "name": "TRON_SOLICITADO",
            "outputs": [
                {
                    "internalType": "uint256",
                    "name": "",
                    "type": "uint256"
                }
            ],
            "stateMutability": "view",
            "type": "function"
        },
        {
            "inputs": [],
            "name": "Wallet_SR",
            "outputs": [
                {
                    "internalType": "address payable",
                    "name": "",
                    "type": "address"
                }
            ],
            "stateMutability": "view",
            "type": "function"
        },
        {
            "inputs": [
                {
                    "internalType": "uint256",
                    "name": "_value",
                    "type": "uint256"
                }
            ],
            "name": "asignarPerdida",
            "outputs": [],
            "stateMutability": "nonpayable",
            "type": "function"
        },
        {
            "inputs": [
                {
                    "internalType": "uint256",
                    "name": "",
                    "type": "uint256"
                }
            ],
            "name": "completada",
            "outputs": [
                {
                    "internalType": "bool",
                    "name": "",
                    "type": "bool"
                }
            ],
            "stateMutability": "view",
            "type": "function"
        },
        {
            "inputs": [
                {
                    "internalType": "uint256",
                    "name": "_value",
                    "type": "uint256"
                }
            ],
            "name": "crearBRTS",
            "outputs": [
                {
                    "internalType": "bool",
                    "name": "",
                    "type": "bool"
                }
            ],
            "stateMutability": "nonpayable",
            "type": "function"
        },
        {
            "inputs": [],
            "name": "descuentoRapido",
            "outputs": [
                {
                    "internalType": "uint256",
                    "name": "",
                    "type": "uint256"
                }
            ],
            "stateMutability": "view",
            "type": "function"
        },
        {
            "inputs": [],
            "name": "donate",
            "outputs": [],
            "stateMutability": "payable",
            "type": "function"
        },
        {
            "inputs": [
                {
                    "internalType": "uint256",
                    "name": "_value",
                    "type": "uint256"
                }
            ],
            "name": "donate",
            "outputs": [],
            "stateMutability": "nonpayable",
            "type": "function"
        },
        {
            "inputs": [
                {
                    "internalType": "uint256",
                    "name": "_value",
                    "type": "uint256"
                }
            ],
            "name": "esperaRetiro",
            "outputs": [
                {
                    "internalType": "uint256",
                    "name": "order",
                    "type": "uint256"
                }
            ],
            "stateMutability": "nonpayable",
            "type": "function"
        },
        {
            "inputs": [
                {
                    "internalType": "uint256",
                    "name": "_value",
                    "type": "uint256"
                }
            ],
            "name": "gananciaDirecta",
            "outputs": [],
            "stateMutability": "nonpayable",
            "type": "function"
        },
        {
            "inputs": [],
            "name": "index",
            "outputs": [
                {
                    "internalType": "uint256",
                    "name": "",
                    "type": "uint256"
                }
            ],
            "stateMutability": "view",
            "type": "function"
        },
        {
            "inputs": [],
            "name": "iniciado",
            "outputs": [
                {
                    "internalType": "bool",
                    "name": "",
                    "type": "bool"
                }
            ],
            "stateMutability": "view",
            "type": "function"
        },
        {
            "inputs": [],
            "name": "inicializar",
            "outputs": [],
            "stateMutability": "nonpayable",
            "type": "function"
        },
        {
            "inputs": [
                {
                    "internalType": "uint256",
                    "name": "_value",
                    "type": "uint256"
                }
            ],
            "name": "instaRetiro",
            "outputs": [
                {
                    "internalType": "bool",
                    "name": "",
                    "type": "bool"
                }
            ],
            "stateMutability": "nonpayable",
            "type": "function"
        },
        {
            "inputs": [
                {
                    "internalType": "address",
                    "name": "_user",
                    "type": "address"
                }
            ],
            "name": "largoSolicitudes",
            "outputs": [
                {
                    "internalType": "uint256",
                    "name": "",
                    "type": "uint256"
                }
            ],
            "stateMutability": "view",
            "type": "function"
        },
        {
            "inputs": [
                {
                    "internalType": "address",
                    "name": "",
                    "type": "address"
                },
                {
                    "internalType": "uint256",
                    "name": "",
                    "type": "uint256"
                }
            ],
            "name": "misSolicitudes",
            "outputs": [
                {
                    "internalType": "uint256",
                    "name": "",
                    "type": "uint256"
                }
            ],
            "stateMutability": "view",
            "type": "function"
        },
        {
            "inputs": [
                {
                    "internalType": "address",
                    "name": "_newOwner",
                    "type": "address"
                }
            ],
            "name": "newOwnerBRTS",
            "outputs": [],
            "stateMutability": "nonpayable",
            "type": "function"
        },
        {
            "inputs": [],
            "name": "owner",
            "outputs": [
                {
                    "internalType": "address",
                    "name": "",
                    "type": "address"
                }
            ],
            "stateMutability": "view",
            "type": "function"
        },
        {
            "inputs": [
                {
                    "internalType": "uint256",
                    "name": "",
                    "type": "uint256"
                }
            ],
            "name": "peticiones",
            "outputs": [
                {
                    "internalType": "address",
                    "name": "wallet",
                    "type": "address"
                },
                {
                    "internalType": "uint256",
                    "name": "tiempo",
                    "type": "uint256"
                },
                {
                    "internalType": "uint256",
                    "name": "precio",
                    "type": "uint256"
                },
                {
                    "internalType": "uint256",
                    "name": "brst",
                    "type": "uint256"
                }
            ],
            "stateMutability": "view",
            "type": "function"
        },
        {
            "inputs": [],
            "name": "precision",
            "outputs": [
                {
                    "internalType": "uint256",
                    "name": "",
                    "type": "uint256"
                }
            ],
            "stateMutability": "view",
            "type": "function"
        },
        {
            "inputs": [
                {
                    "internalType": "uint256",
                    "name": "_value",
                    "type": "uint256"
                },
                {
                    "internalType": "bool",
                    "name": "_fromOwner",
                    "type": "bool"
                }
            ],
            "name": "quemarBRTS",
            "outputs": [
                {
                    "internalType": "bool",
                    "name": "",
                    "type": "bool"
                },
                {
                    "internalType": "uint256",
                    "name": "",
                    "type": "uint256"
                }
            ],
            "stateMutability": "nonpayable",
            "type": "function"
        },
        {
            "inputs": [
                {
                    "internalType": "uint256",
                    "name": "_value",
                    "type": "uint256"
                }
            ],
            "name": "redimBRTS",
            "outputs": [
                {
                    "internalType": "uint256",
                    "name": "",
                    "type": "uint256"
                }
            ],
            "stateMutability": "nonpayable",
            "type": "function"
        },
        {
            "inputs": [],
            "name": "redimOTRO",
            "outputs": [
                {
                    "internalType": "uint256",
                    "name": "",
                    "type": "uint256"
                }
            ],
            "stateMutability": "nonpayable",
            "type": "function"
        },
        {
            "inputs": [
                {
                    "internalType": "uint256",
                    "name": "_value",
                    "type": "uint256"
                }
            ],
            "name": "redimTRX",
            "outputs": [
                {
                    "internalType": "uint256",
                    "name": "",
                    "type": "uint256"
                }
            ],
            "stateMutability": "nonpayable",
            "type": "function"
        },
        {
            "inputs": [
                {
                    "internalType": "uint256",
                    "name": "_value",
                    "type": "uint256"
                }
            ],
            "name": "restarDisponible",
            "outputs": [],
            "stateMutability": "nonpayable",
            "type": "function"
        },
        {
            "inputs": [
                {
                    "internalType": "uint256",
                    "name": "_id",
                    "type": "uint256"
                }
            ],
            "name": "retirar",
            "outputs": [
                {
                    "internalType": "bool",
                    "name": "exitoso",
                    "type": "bool"
                }
            ],
            "stateMutability": "nonpayable",
            "type": "function"
        },
        {
            "inputs": [
                {
                    "internalType": "address",
                    "name": "_user",
                    "type": "address"
                }
            ],
            "name": "retirarFrom",
            "outputs": [
                {
                    "internalType": "bool",
                    "name": "exitoso",
                    "type": "bool"
                }
            ],
            "stateMutability": "nonpayable",
            "type": "function"
        },
        {
            "inputs": [
                {
                    "internalType": "uint256",
                    "name": "_value",
                    "type": "uint256"
                }
            ],
            "name": "setDisponible",
            "outputs": [],
            "stateMutability": "nonpayable",
            "type": "function"
        },
        {
            "inputs": [
                {
                    "internalType": "address",
                    "name": "_evilUser",
                    "type": "address"
                },
                {
                    "internalType": "bool",
                    "name": "_si_no",
                    "type": "bool"
                }
            ],
            "name": "setListaNegra",
            "outputs": [],
            "stateMutability": "nonpayable",
            "type": "function"
        },
        {
            "inputs": [
                {
                    "internalType": "uint256",
                    "name": "_descuento",
                    "type": "uint256"
                },
                {
                    "internalType": "uint256",
                    "name": "_precision",
                    "type": "uint256"
                }
            ],
            "name": "setSalidaRapida",
            "outputs": [],
            "stateMutability": "nonpayable",
            "type": "function"
        },
        {
            "inputs": [
                {
                    "internalType": "uint256",
                    "name": "_tron_retiro",
                    "type": "uint256"
                }
            ],
            "name": "setTRON_RR",
            "outputs": [],
            "stateMutability": "nonpayable",
            "type": "function"
        },
        {
            "inputs": [
                {
                    "internalType": "uint256",
                    "name": "_dias",
                    "type": "uint256"
                }
            ],
            "name": "setTiempo",
            "outputs": [],
            "stateMutability": "nonpayable",
            "type": "function"
        },
        {
            "inputs": [
                {
                    "internalType": "address payable",
                    "name": "_w",
                    "type": "address"
                }
            ],
            "name": "setWalletSR",
            "outputs": [],
            "stateMutability": "nonpayable",
            "type": "function"
        },
        {
            "inputs": [
                {
                    "internalType": "address",
                    "name": "_w",
                    "type": "address"
                },
                {
                    "internalType": "bool",
                    "name": "_sn",
                    "type": "bool"
                }
            ],
            "name": "setWhiteList",
            "outputs": [],
            "stateMutability": "nonpayable",
            "type": "function"
        },
        {
            "inputs": [
                {
                    "internalType": "uint256",
                    "name": "_value",
                    "type": "uint256"
                }
            ],
            "name": "solicitudRetiro",
            "outputs": [
                {
                    "internalType": "bool",
                    "name": "",
                    "type": "bool"
                },
                {
                    "internalType": "uint256",
                    "name": "",
                    "type": "uint256"
                }
            ],
            "stateMutability": "nonpayable",
            "type": "function"
        },
        {
            "inputs": [],
            "name": "solicitudesPendientesGlobales",
            "outputs": [
                {
                    "internalType": "uint256[]",
                    "name": "pGlobales",
                    "type": "uint256[]"
                }
            ],
            "stateMutability": "view",
            "type": "function"
        },
        {
            "inputs": [],
            "name": "staking",
            "outputs": [
                {
                    "internalType": "uint256",
                    "name": "",
                    "type": "uint256"
                }
            ],
            "stateMutability": "payable",
            "type": "function"
        },
        {
            "inputs": [
                {
                    "internalType": "uint256",
                    "name": "_value",
                    "type": "uint256"
                }
            ],
            "name": "sumarDisponible",
            "outputs": [],
            "stateMutability": "nonpayable",
            "type": "function"
        },
        {
            "inputs": [
                {
                    "internalType": "address",
                    "name": "_user",
                    "type": "address"
                }
            ],
            "name": "todasSolicitudes",
            "outputs": [
                {
                    "internalType": "uint256[]",
                    "name": "",
                    "type": "uint256[]"
                }
            ],
            "stateMutability": "view",
            "type": "function"
        },
        {
            "inputs": [],
            "name": "totalDisponible",
            "outputs": [
                {
                    "internalType": "uint256",
                    "name": "",
                    "type": "uint256"
                }
            ],
            "stateMutability": "view",
            "type": "function"
        },
        {
            "inputs": [
                {
                    "internalType": "address",
                    "name": "_newAdmin",
                    "type": "address"
                }
            ],
            "name": "transferOwnership",
            "outputs": [],
            "stateMutability": "nonpayable",
            "type": "function"
        },
        {
            "inputs": [
                {
                    "internalType": "uint256",
                    "name": "_id",
                    "type": "uint256"
                }
            ],
            "name": "verSolicitudPendiente",
            "outputs": [
                {
                    "components": [
                        {
                            "internalType": "address",
                            "name": "wallet",
                            "type": "address"
                        },
                        {
                            "internalType": "uint256",
                            "name": "tiempo",
                            "type": "uint256"
                        },
                        {
                            "internalType": "uint256",
                            "name": "precio",
                            "type": "uint256"
                        },
                        {
                            "internalType": "uint256",
                            "name": "brst",
                            "type": "uint256"
                        }
                    ],
                    "internalType": "struct PoolBRSTv4.Peticion",
                    "name": "pt2",
                    "type": "tuple"
                }
            ],
            "stateMutability": "view",
            "type": "function"
        },
        {
            "inputs": [
                {
                    "internalType": "address",
                    "name": "",
                    "type": "address"
                }
            ],
            "name": "whiteList",
            "outputs": [
                {
                    "internalType": "bool",
                    "name": "",
                    "type": "bool"
                }
            ],
            "stateMutability": "view",
            "type": "function"
        },
        {
            "stateMutability": "payable",
            "type": "receive"
        }
    ],
    "bytecode": "60806040526010805460ff1916600117905534801561001c575f80fd5b506129198061002a5f395ff3fe6080604052600436106102f6575f3560e01c80638d14e12711610195578063d3b5dc3b116100ea578063e8b1298f1161008e578063f2fde38b1161006b578063f2fde38b146108f9578063f4903cf714610918578063f90b3f5a1461092c578063fcd728f51461094b57005b8063e8b1298f146108b3578063ed88c68e146108d2578063f14faf6f146108da57005b8063dcbe327e116100c7578063dcbe327e14610860578063dd1335d014610874578063e1e158a514610889578063e849f4481461089e57005b8063d3b5dc3b14610817578063d4ff5b331461082c578063d7b6e5b21461084b57005b8063b0698a1b11610151578063c7c277a91161012e578063c7c277a914610751578063cc1bc86914610765578063cffb7855146107d9578063d0ec4f91146107f857005b8063b0698a1b146106f4578063b15c16aa14610713578063c754f31f1461073257005b80638d14e127146106455780638da5cb5b1461066457806396ba53631461067857806397fba47414610697578063a4397450146106b6578063a923c109146106d557005b8063438490611161024b57806375b2a5461161020757806383bd8528116101e457806383bd8528146105da578063875b1148146105f357806388a4a981146106125780638929cbc51461063157005b806375b2a54614610551578063783dec151461058757806379fe4f96146105a657005b806343849061146104c15780634cf088d9146104d65780634d03c44f146104de57806360f05ea7146104ff578063664e97041461051e57806368adb6ea1461053257005b80632a1bb870116102b25780633808cd6b1161028f5780633808cd6b1461044f578063383f23a0146104645780633addc7cc1461048357806340aabb57146104a257005b80632a1bb870146103d657806336c40fc41461040d578063372c12b11461042157005b80630edd11f4146102ff57806316f6404814610342578063202bec1e1461036f578063219ec6a1146103835780632688327a146103a25780632986c0e5146103c157005b366102fd57005b005b34801561030a575f80fd5b5061032d61031936600461258a565b600b6020525f908152604090205460ff1681565b60405190151581526020015b60405180910390f35b34801561034d575f80fd5b5061036161035c36600461258a565b6109a6565b604051908152602001610339565b34801561037a575f80fd5b50610361610b62565b34801561038e575f80fd5b506102fd61039d3660046125a1565b610ba3565b3480156103ad575f80fd5b506103616103bc36600461258a565b610bb6565b3480156103cc575f80fd5b50610361600f5481565b3480156103e1575f80fd5b506008546103f5906001600160a01b031681565b6040516001600160a01b039091168152602001610339565b348015610418575f80fd5b50610361610cbf565b34801561042c575f80fd5b5061032d61043b3660046125d5565b600d6020525f908152604090205460ff1681565b34801561045a575f80fd5b50610361600e5481565b34801561046f575f80fd5b506102fd61047e36600461258a565b610cd6565b34801561048e575f80fd5b506102fd61049d36600461258a565b610cf1565b3480156104ad575f80fd5b5061032d6104bc36600461258a565b610d05565b3480156104cc575f80fd5b5061036160095481565b610361610ee6565b3480156104e9575f80fd5b506104f2611099565b60405161033991906125f0565b34801561050a575f80fd5b506102fd61051936600461258a565b6110df565b348015610529575f80fd5b506103616110f4565b34801561053d575f80fd5b506102fd61054c3660046125d5565b6111e1565b34801561055c575f80fd5b5061057061056b36600461258a565b61120b565b604080519215158352602083019190915201610339565b348015610592575f80fd5b5061032d6105a13660046125d5565b611239565b3480156105b1575f80fd5b506103616105c03660046125d5565b6001600160a01b03165f908152600c602052604090205490565b3480156105e5575f80fd5b5060105461032d9060ff1681565b3480156105fe575f80fd5b5061036161060d36600461258a565b61167e565b34801561061d575f80fd5b506104f261062c3660046125d5565b6116d0565b34801561063c575f80fd5b50610361611739565b348015610650575f80fd5b506102fd61065f366004612640565b6117fb565b34801561066f575f80fd5b506103f561182d565b348015610683575f80fd5b506102fd6106923660046125d5565b611898565b3480156106a2575f80fd5b506102fd6106b136600461258a565b6118c2565b3480156106c1575f80fd5b5061032d6106d036600461258a565b6118cf565b3480156106e0575f80fd5b506102fd6106ef3660046125d5565b6119aa565b3480156106ff575f80fd5b506102fd61070e3660046125d5565b6119d3565b34801561071e575f80fd5b506102fd61072d366004612640565b611a38565b34801561073d575f80fd5b506102fd61074c36600461258a565b600455565b34801561075c575f80fd5b50610361611ad4565b348015610770575f80fd5b506107af61077f36600461258a565b600a6020525f908152604090208054600182015460028301546003909301546001600160a01b0390921692909184565b604080516001600160a01b0390951685526020850193909352918301526060820152608001610339565b3480156107e4575f80fd5b506102fd6107f336600461258a565b611b14565b348015610803575f80fd5b50610570610812366004612677565b611b2f565b348015610822575f80fd5b5061036160065481565b348015610837575f80fd5b5061036161084636600461269a565b611c1b565b348015610856575f80fd5b5061036160055481565b34801561086b575f80fd5b506102fd611c46565b34801561087f575f80fd5b5061036160035481565b348015610894575f80fd5b5061036160025481565b3480156108a9575f80fd5b5061036160045481565b3480156108be575f80fd5b5061032d6108cd36600461258a565b611cbe565b6102fd6120be565b3480156108e5575f80fd5b506102fd6108f436600461258a565b6120d0565b348015610904575f80fd5b506102fd6109133660046125d5565b61217b565b348015610923575f80fd5b50600754610361565b348015610937575f80fd5b506102fd61094636600461258a565b6121b1565b348015610956575f80fd5b5061096a61096536600461258a565b6121be565b604051610339919081516001600160a01b0316815260208083015190820152604080830151908201526060918201519181019190915260800190565b5f80546040516323b872dd60e01b81526001600160a01b03909116906323b872dd906109da903390309087906004016126c4565b6020604051808303815f875af11580156109f6573d5f803e3d5ffd5b505050506040513d601f19601f82011682018060405250810190610a1a91906126e8565b610a22575f80fd5b50600f5460408051608081018252338152426020820152908101610a446110f4565b815260209081018490525f838152600a82526040808220845181546001600160a01b0319166001600160a01b039182161782558585015160018301558583015160028301556060909501516003909101559054815163313ce56760e01b81529151610b2594610b1c9492169263313ce5679260048083019391928290030181865afa158015610ad5573d5f803e3d5ffd5b505050506040513d601f19601f82011682018060405250810190610af99190612703565b610b0490600a612806565b610b16610b0f6110f4565b869061223b565b906122c7565b6003549061232a565b600355335f908152600c602090815260408220805460018101825590835290822001829055600f805491610b5883612818565b9190505550919050565b5f600e54471115610b9e57600454600e54610b7e904790612388565b1115610b8b575060045490565b600e54610b99904790612388565b905090565b505f90565b610bab6123e4565b600591909155600655565b5f610bbf6123e4565b5f546040516370a0823160e01b815230600482015283916001600160a01b0316906370a0823190602401602060405180830381865afa158015610c04573d5f803e3d5ffd5b505050506040513d601f19601f82011682018060405250810190610c289190612703565b1015610c32575f80fd5b5f546001600160a01b031663a9059cbb610c4a61182d565b6040516001600160e01b031960e084901b1681526001600160a01b039091166004820152602481018590526044016020604051808303815f875af1158015610c94573d5f803e3d5ffd5b505050506040513d601f19601f82011682018060405250810190610cb891906126e8565b5090919050565b5f600e54471115610cd15750600e5490565b504790565b610cde6123e4565b600754610ceb9082612388565b60075550565b610cf96123e4565b610d028161240a565b50565b5f80610d585f8054906101000a90046001600160a01b03166001600160a01b031663313ce5676040518163ffffffff1660e01b8152600401602060405180830381865afa158015610ad5573d5f803e3d5ffd5b335f908152600d60205260408120549192509060ff1615610d8b57610d7b610cbf565b9050610d868261240a565b610db7565b610daa6064610b16600554600654610da39190612830565b859061223b565b9150610db4610b62565b90505b818110610ed6575f546040516323b872dd60e01b81526001600160a01b03909116906323b872dd90610df1903390309089906004016126c4565b6020604051808303815f875af1158015610e0d573d5f803e3d5ffd5b505050506040513d601f19601f82011682018060405250810190610e3191906126e8565b610e39575f80fd5b5f5460405163db006a7560e01b8152600481018690526001600160a01b039091169063db006a75906024015f604051808303815f87803b158015610e7b575f80fd5b505af1158015610e8d573d5f803e3d5ffd5b505060405133925084156108fc02915084905f818181858888f19350505050158015610ebb573d5f803e3d5ffd5b50600754610ec99083612388565b6007555060019392505050565b505f9392505050565b5050919050565b5f600254341015610ef5575f80fd5b60085460405134916001600160a01b03169082156108fc029083905f818181858888f19350505050158015610f2c573d5f803e3d5ffd5b50610fb6610f386110f4565b5f546040805163313ce56760e01b81529051610b16926001600160a01b03169163313ce5679160048083019260209291908290030181865afa158015610f80573d5f803e3d5ffd5b505050506040513d601f19601f82011682018060405250810190610fa49190612703565b610faf90600a612806565b849061223b565b600754909150610fc6903461232a565b6007555f5460405163664395b360e11b8152600481018390526001600160a01b039091169063cc872b66906024015f604051808303815f87803b15801561100b575f80fd5b505af115801561101d573d5f803e3d5ffd5b50505f5460405163a9059cbb60e01b8152336004820152602481018590526001600160a01b03909116925063a9059cbb91506044015b6020604051808303815f875af115801561106f573d5f803e3d5ffd5b505050506040513d601f19601f8201168201806040525081019061109391906126e8565b50919050565b60605f5b600f548110156110db575f818152600b602052604090205460ff166110c9576110c68282612417565b91505b806110d381612818565b91505061109d565b5090565b6110e76123e4565b600754610ceb908261232a565b5f8054604080516318160ddd60e01b81529051610b99926001600160a01b0316916318160ddd9160048083019260209291908290030181865afa15801561113d573d5f803e3d5ffd5b505050506040513d601f19601f820116820180604052508101906111619190612703565b5f546040805163313ce56760e01b81529051610b16926001600160a01b03169163313ce5679160048083019260209291908290030181865afa1580156111a9573d5f803e3d5ffd5b505050506040513d601f19601f820116820180604052508101906111cd9190612703565b6111d890600a612806565b6007549061223b565b6111e96123e4565b600880546001600160a01b0319166001600160a01b0392909216919091179055565b5f8061121683610d05565b1561122657506001925f92509050565b5f611230846109a6565b91509150915091565b5f805f611245846116d0565b90506060805f805b84518110156114945761125e61182d565b6001600160a01b0316336001600160a01b0316148061129457506001600160a01b0388165f908152600d602052604090205460ff165b806112e05750426112dd600954600a5f8986815181106112b6576112b6612843565b602002602001015181526020019081526020015f206001015461232a90919063ffffffff16565b10155b15611453576113dc6113d55f8054906101000a90046001600160a01b03166001600160a01b031663313ce5676040518163ffffffff1660e01b8152600401602060405180830381865afa158015611339573d5f803e3d5ffd5b505050506040513d601f19601f8201168201806040525081019061135d9190612703565b61136890600a612806565b610b16600a5f8a878151811061138057611380612843565b602002602001015181526020019081526020015f2060020154600a5f8b88815181106113ae576113ae612843565b602002602001015181526020019081526020015f206003015461223b90919063ffffffff16565b879061232a565b955061141e600a5f8784815181106113f6576113f6612843565b602002602001015181526020019081526020015f20600301548361232a90919063ffffffff16565b915061144c85828151811061143557611435612843565b60200260200101518561241790919063ffffffff16565b9350611482565b61147f85828151811061146857611468612843565b60200260200101518461241790919063ffffffff16565b92505b8061148c81612818565b91505061124d565b505f851180156114a357505f81115b6114ab575f80fd5b6001600160a01b0387165f908152600d602052604081205460ff16156114da576114d3610cbf565b9050611504565b6114e261182d565b6001600160a01b031633036114f9576114d3610b62565b611501611ad4565b90505b85811015611510575f80fd5b6001600160a01b0388165f908152600c60209081526040909120845161153892860190612536565b505f5b8451811015611599576001600b5f87848151811061155b5761155b612843565b602002602001015181526020019081526020015f205f6101000a81548160ff021916908315150217905550808061159190612818565b91505061153b565b506001600160a01b0388165f908152600d602052604090205460ff16156115c3576115c38661240a565b6040516001600160a01b0389169087156108fc029088905f818181858888f193505050501580156115f6573d5f803e3d5ffd5b505f5460405163db006a7560e01b8152600481018490526001600160a01b039091169063db006a75906024015f604051808303815f87803b158015611639575f80fd5b505af115801561164b573d5f803e3d5ffd5b505060075461165d9250905087612388565b60075560035461166d9087612388565b600355506001979650505050505050565b5f6116876123e4565b81471015611693575f80fd5b61169b61182d565b6001600160a01b03166108fc8390811502906040515f60405180830381858888f19350505050158015610cb8573d5f803e3d5ffd5b6001600160a01b0381165f908152600c602090815260409182902080548351818402810184019094528084526060939283018282801561172d57602002820191905f5260205f20905b815481526020019060010190808311611719575b50505050509050919050565b5f6117426123e4565b6001546040516370a0823160e01b81523060048201525f916001600160a01b0316906370a0823190602401602060405180830381865afa158015611788573d5f803e3d5ffd5b505050506040513d601f19601f820116820180604052508101906117ac9190612703565b6001549091506001600160a01b031663a9059cbb6117c861182d565b6040516001600160e01b031960e084901b1681526001600160a01b03909116600482015260248101849052604401611053565b6118036123e4565b6001600160a01b03919091165f908152600d60205260409020805460ff1916911515919091179055565b5f80309050806001600160a01b031663f851a4406040518163ffffffff1660e01b8152600401602060405180830381865afa15801561186e573d5f803e3d5ffd5b505050506040513d601f19601f820116820180604052508101906118929190612857565b91505090565b6118a06123e4565b600180546001600160a01b0319166001600160a01b0392909216919091179055565b6118ca6123e4565b600e55565b5f6118d86123e4565b5f5460405163664395b360e11b8152600481018490526001600160a01b039091169063cc872b66906024015f604051808303815f87803b15801561191a575f80fd5b505af115801561192c573d5f803e3d5ffd5b50505f5460405163a9059cbb60e01b8152336004820152602481018690526001600160a01b03909116925063a9059cbb91506044016020604051808303815f875af115801561197d573d5f803e3d5ffd5b505050506040513d601f19601f820116820180604052508101906119a191906126e8565b50600192915050565b6119b26123e4565b5f80546001600160a01b0319166001600160a01b0392909216919091179055565b6119db6123e4565b5f5460405163f2fde38b60e01b81526001600160a01b0383811660048301529091169063f2fde38b906024015b5f604051808303815f87803b158015611a1f575f80fd5b505af1158015611a31573d5f803e3d5ffd5b5050505050565b611a406123e4565b8015611aa3575f54604051623b2e4f60e61b81526001600160a01b03848116600483015290911690630ecb93c0906024015b5f604051808303815f87803b158015611a89575f80fd5b505af1158015611a9b573d5f803e3d5ffd5b505050505050565b5f5460405163e4997dc560e01b81526001600160a01b0384811660048301529091169063e4997dc590602401611a72565b5f611aec600e5460045461232a90919063ffffffff16565b471115610b9e57610b99611b0d600e5460045461232a90919063ffffffff16565b4790612388565b611b1c6123e4565b600e54611b29908261232a565b600e5550565b5f80611b396123e4565b8215611bba575f546040516323b872dd60e01b81526001600160a01b03909116906323b872dd90611b72903390309089906004016126c4565b6020604051808303815f875af1158015611b8e573d5f803e3d5ffd5b505050506040513d601f19601f82011682018060405250810190611bb291906126e8565b611bba575f80fd5b5f5460405163db006a7560e01b8152600481018690526001600160a01b039091169063db006a75906024015f604051808303815f87803b158015611bfc575f80fd5b505af1158015611c0e573d5f803e3d5ffd5b5060019795505050505050565b600c602052815f5260405f208181548110611c34575f80fd5b905f5260205f20015f91509150505481565b611c4e6123e4565b60105460ff1615611c5d575f80fd5b6010805460ff19166001908117909155620f4240600255621669806009555f80546001600160a01b031990811673389ccc30de1d311738dffd3f60d4fd6188970f459081179092558254161790556005805560646006556377359400600455565b5f81600f5411611ccc575f80fd5b611cd461182d565b6001600160a01b0316336001600160a01b031614611d3f575f828152600a60209081526040808320546001600160a01b03168352600d90915290205460ff16611d3f576009545f838152600a6020526040902060010154611d349161232a565b421015611d3f575f80fd5b5f80546040805163313ce56760e01b81529051611dd8926001600160a01b03169163313ce5679160048083019260209291908290030181865afa158015611d88573d5f803e3d5ffd5b505050506040513d601f19601f82011682018060405250810190611dac9190612703565b611db790600a612806565b5f858152600a602052604090206002810154600390910154610b169161223b565b5f848152600a60209081526040808320546001600160a01b03168352600d9091528120549192509060ff1615611e1757611e10610cbf565b9050611e41565b611e1f61182d565b6001600160a01b03163303611e3657611e10610b62565b611e3e611ad4565b90505b818110610edf575f848152600a60209081526040808320546001600160a01b03168352600c82528083208054825181850281018501909352808352611ec5938993929190830182828015611eb257602002820191905f5260205f20905b815481526020019060010190808311611e9e575b50505050506124e790919063ffffffff16565b5f878152600a60209081526040808320546001600160a01b03168352600c909152902080549193509150611efb90600190612830565b81548110611f0b57611f0b612843565b5f918252602080832090910154878352600a82526040808420546001600160a01b03168452600c9092529120805483908110611f4957611f49612843565b5f918252602080832090910192909255868152600a82526040808220546001600160a01b03168252600c90925220805480611f8657611f86612872565b5f828152602080822083015f19908101839055909201909255868252600a81526040808320546001600160a01b03168352600d90915290205460ff1615611fd057611fd08361240a565b5f858152600a60205260408082205490516001600160a01b039091169185156108fc02918691818181858888f19350505050158015612011573d5f803e3d5ffd5b505f8054868252600a60205260409182902060030154915163db006a7560e01b815260048101929092526001600160a01b03169063db006a75906024015f604051808303815f87803b158015612065575f80fd5b505af1158015612077573d5f803e3d5ffd5b50506007546120899250905084612388565b6007556003546120999084612388565b6003555050505f91825250600b60205260409020805460ff1916600190811790915590565b6007546120cb903461232a565b600755565b5f546040516323b872dd60e01b81526001600160a01b03909116906323b872dd90612103903390309086906004016126c4565b6020604051808303815f875af115801561211f573d5f803e3d5ffd5b505050506040513d601f19601f8201168201806040525081019061214391906126e8565b61214b575f80fd5b5f5460405163db006a7560e01b8152600481018390526001600160a01b039091169063db006a7590602401611a08565b6121836123e4565b6040516308f2839760e41b81526001600160a01b038216600482015230908190638f28397090602401611a72565b6121b96123e4565b600955565b6121ee60405180608001604052805f6001600160a01b031681526020015f81526020015f81526020015f81525090565b505f908152600a6020908152604091829020825160808101845281546001600160a01b03168152600182015492810192909252600281015492820192909252600390910154606082015290565b5f825f0361224a57505f6122c1565b5f6122558385612886565b905082612262858361289d565b146122be5760405162461bcd60e51b815260206004820152602160248201527f536166654d6174683a206d756c7469706c69636174696f6e206f766572666c6f6044820152607760f81b60648201526084015b60405180910390fd5b90505b92915050565b5f8082116123175760405162461bcd60e51b815260206004820152601a60248201527f536166654d6174683a206469766973696f6e206279207a65726f00000000000060448201526064016122b5565b5f612322838561289d565b949350505050565b5f8061233683856128bc565b9050838110156122be5760405162461bcd60e51b815260206004820152601b60248201527f536166654d6174683a206164646974696f6e206f766572666c6f77000000000060448201526064016122b5565b5f828211156123d95760405162461bcd60e51b815260206004820152601e60248201527f536166654d6174683a207375627472616374696f6e206f766572666c6f77000060448201526064016122b5565b5f6123228385612830565b6123ec61182d565b6001600160a01b0316336001600160a01b031614612408575f80fd5b565b600e54611b299082612388565b60605f8351600161242891906128bc565b67ffffffffffffffff811115612440576124406128cf565b604051908082528060200260200182016040528015612469578160200160208202803683370190505b5090505f5b84518110156124c05784818151811061248957612489612843565b60200260200101518282815181106124a3576124a3612843565b6020908102919091010152806124b881612818565b91505061246e565b5082818551815181106124d5576124d5612843565b60209081029190910101529392505050565b5f805f5b845181101561252e578385828151811061250757612507612843565b60200260200101510361251c57600192508091505b8061252681612818565b9150506124eb565b509250929050565b828054828255905f5260205f2090810192821561256f579160200282015b8281111561256f578251825591602001919060010190612554565b506110db9291505b808211156110db575f8155600101612577565b5f6020828403121561259a575f80fd5b5035919050565b5f80604083850312156125b2575f80fd5b50508035926020909101359150565b6001600160a01b0381168114610d02575f80fd5b5f602082840312156125e5575f80fd5b81356122be816125c1565b602080825282518282018190525f9190848201906040850190845b818110156126275783518352928401929184019160010161260b565b50909695505050505050565b8015158114610d02575f80fd5b5f8060408385031215612651575f80fd5b823561265c816125c1565b9150602083013561266c81612633565b809150509250929050565b5f8060408385031215612688575f80fd5b82359150602083013561266c81612633565b5f80604083850312156126ab575f80fd5b82356126b6816125c1565b946020939093013593505050565b6001600160a01b039384168152919092166020820152604081019190915260600190565b5f602082840312156126f8575f80fd5b81516122be81612633565b5f60208284031215612713575f80fd5b5051919050565b634e487b7160e01b5f52601160045260245ffd5b600181815b8085111561252e57815f190482111561274e5761274e61271a565b8085161561275b57918102915b93841c9390800290612733565b5f82612776575060016122c1565b8161278257505f6122c1565b816001811461279857600281146127a2576127be565b60019150506122c1565b60ff8411156127b3576127b361271a565b50506001821b6122c1565b5060208310610133831016604e8410600b84101617156127e1575081810a6122c1565b6127eb838361272e565b805f19048211156127fe576127fe61271a565b029392505050565b5f6128118383612768565b9392505050565b5f600182016128295761282961271a565b5060010190565b818103818111156122c1576122c161271a565b634e487b7160e01b5f52603260045260245ffd5b5f60208284031215612867575f80fd5b81516122be816125c1565b634e487b7160e01b5f52603160045260245ffd5b80820281158282048414176122c1576122c161271a565b5f826128b757634e487b7160e01b5f52601260045260245ffd5b500490565b808201808211156122c1576122c161271a565b634e487b7160e01b5f52604160045260245ffdfea2646970667358221220710d49f7f439f1e8fef1955d7591faed0b2b1aee123cfdbb4ae56200c9de292764736f6c63430008140033",
    "sourcePath": "c:/Users/STC/Documents/GitHub/BRUTUS-TOKEN/contracts/BRST POOL/Pool-BRST-v4.sol",
    "compiler": {
        "name": "solc",
        "version": "0.8.20+commit.a1b79de6"
    },
    "functionHashes": {
        "ChangeToken(address)": "a923c109",
        "ChangeTokenOTRO(address)": "96ba5363",
        "MIN_DEPOSIT()": "e1e158a5",
        "RATE()": "664e9704",
        "TIEMPO()": "43849061",
        "TRON_BALANCE()": "f4903cf7",
        "TRON_PAY_BALANCE()": "c7c277a9",
        "TRON_PAY_BALANCE_FAST()": "202bec1e",
        "TRON_PAY_BALANCE_WHITE()": "36c40fc4",
        "TRON_RR()": "e849f448",
        "TRON_SOLICITADO()": "dd1335d0",
        "Wallet_SR()": "2a1bb870",
        "asignarPerdida(uint256)": "383f23a0",
        "completada(uint256)": "0edd11f4",
        "crearBRTS(uint256)": "a4397450",
        "descuentoRapido()": "d7b6e5b2",
        "donate()": "ed88c68e",
        "donate(uint256)": "f14faf6f",
        "esperaRetiro(uint256)": "16f64048",
        "gananciaDirecta(uint256)": "60f05ea7",
        "index()": "2986c0e5",
        "iniciado()": "83bd8528",
        "inicializar()": "dcbe327e",
        "instaRetiro(uint256)": "40aabb57",
        "largoSolicitudes(address)": "79fe4f96",
        "misSolicitudes(address,uint256)": "d4ff5b33",
        "newOwnerBRTS(address)": "b0698a1b",
        "owner()": "8da5cb5b",
        "peticiones(uint256)": "cc1bc869",
        "precision()": "d3b5dc3b",
        "quemarBRTS(uint256,bool)": "d0ec4f91",
        "redimBRTS(uint256)": "2688327a",
        "redimOTRO()": "8929cbc5",
        "redimTRX(uint256)": "875b1148",
        "restarDisponible(uint256)": "3addc7cc",
        "retirar(uint256)": "e8b1298f",
        "retirarFrom(address)": "783dec15",
        "setDisponible(uint256)": "97fba474",
        "setListaNegra(address,bool)": "b15c16aa",
        "setSalidaRapida(uint256,uint256)": "219ec6a1",
        "setTRON_RR(uint256)": "c754f31f",
        "setTiempo(uint256)": "f90b3f5a",
        "setWalletSR(address)": "68adb6ea",
        "setWhiteList(address,bool)": "8d14e127",
        "solicitudRetiro(uint256)": "75b2a546",
        "solicitudesPendientesGlobales()": "4d03c44f",
        "staking()": "4cf088d9",
        "sumarDisponible(uint256)": "cffb7855",
        "todasSolicitudes(address)": "88a4a981",
        "totalDisponible()": "3808cd6b",
        "transferOwnership(address)": "f2fde38b",
        "verSolicitudPendiente(uint256)": "fcd728f5",
        "whiteList(address)": "372c12b1"
    },
    "gasEstimates": {
        "creation": {
            "codeDepositCost": "2104200",
            "executionCost": "26458",
            "totalCost": "2130658"
        },
        "external": {
            "": "251",
            "ChangeToken(address)": "infinite",
            "ChangeTokenOTRO(address)": "infinite",
            "MIN_DEPOSIT()": "2405",
            "RATE()": "infinite",
            "TIEMPO()": "2340",
            "TRON_BALANCE()": "2379",
            "TRON_PAY_BALANCE()": "infinite",
            "TRON_PAY_BALANCE_FAST()": "infinite",
            "TRON_PAY_BALANCE_WHITE()": "4528",
            "TRON_RR()": "2427",
            "TRON_SOLICITADO()": "2383",
            "Wallet_SR()": "2405",
            "asignarPerdida(uint256)": "infinite",
            "completada(uint256)": "2483",
            "crearBRTS(uint256)": "infinite",
            "descuentoRapido()": "2406",
            "donate()": "infinite",
            "donate(uint256)": "infinite",
            "esperaRetiro(uint256)": "infinite",
            "gananciaDirecta(uint256)": "infinite",
            "index()": "2451",
            "iniciado()": "2365",
            "inicializar()": "infinite",
            "instaRetiro(uint256)": "infinite",
            "largoSolicitudes(address)": "2644",
            "misSolicitudes(address,uint256)": "4821",
            "newOwnerBRTS(address)": "infinite",
            "owner()": "infinite",
            "peticiones(uint256)": "8968",
            "precision()": "2362",
            "quemarBRTS(uint256,bool)": "infinite",
            "redimBRTS(uint256)": "infinite",
            "redimOTRO()": "infinite",
            "redimTRX(uint256)": "infinite",
            "restarDisponible(uint256)": "infinite",
            "retirar(uint256)": "infinite",
            "retirarFrom(address)": "infinite",
            "setDisponible(uint256)": "infinite",
            "setListaNegra(address,bool)": "infinite",
            "setSalidaRapida(uint256,uint256)": "infinite",
            "setTRON_RR(uint256)": "22422",
            "setTiempo(uint256)": "infinite",
            "setWalletSR(address)": "infinite",
            "setWhiteList(address,bool)": "infinite",
            "solicitudRetiro(uint256)": "infinite",
            "solicitudesPendientesGlobales()": "infinite",
            "staking()": "infinite",
            "sumarDisponible(uint256)": "infinite",
            "todasSolicitudes(address)": "infinite",
            "totalDisponible()": "2362",
            "transferOwnership(address)": "infinite",
            "verSolicitudPendiente(uint256)": "9287",
            "whiteList(address)": "2628"
        },
        "internal": {
            "onlyOwner()": "infinite",
            "retirarDisponible(uint256)": "infinite"
        }
    }
}