{
    "contractName": "PoolBRSTv4",
    "abi": [
        {
            "inputs": [],
            "stateMutability": "nonpayable",
            "type": "constructor"
        },
        {
            "stateMutability": "payable",
            "type": "fallback"
        },
        {
            "inputs": [
                {
                    "internalType": "address",
                    "name": "_tokenTRC20",
                    "type": "address"
                }
            ],
            "name": "ChangeToken",
            "outputs": [],
            "stateMutability": "nonpayable",
            "type": "function"
        },
        {
            "inputs": [
                {
                    "internalType": "address",
                    "name": "_tokenTRC20",
                    "type": "address"
                }
            ],
            "name": "ChangeTokenOTRO",
            "outputs": [],
            "stateMutability": "nonpayable",
            "type": "function"
        },
        {
            "inputs": [],
            "name": "MIN_DEPOSIT",
            "outputs": [
                {
                    "internalType": "uint256",
                    "name": "",
                    "type": "uint256"
                }
            ],
            "stateMutability": "view",
            "type": "function"
        },
        {
            "inputs": [],
            "name": "RATE",
            "outputs": [
                {
                    "internalType": "uint256",
                    "name": "",
                    "type": "uint256"
                }
            ],
            "stateMutability": "view",
            "type": "function"
        },
        {
            "inputs": [],
            "name": "TIEMPO",
            "outputs": [
                {
                    "internalType": "uint256",
                    "name": "",
                    "type": "uint256"
                }
            ],
            "stateMutability": "view",
            "type": "function"
        },
        {
            "inputs": [],
            "name": "TRON_BALANCE",
            "outputs": [
                {
                    "internalType": "uint256",
                    "name": "",
                    "type": "uint256"
                }
            ],
            "stateMutability": "view",
            "type": "function"
        },
        {
            "inputs": [],
            "name": "TRON_PAY_BALANCE",
            "outputs": [
                {
                    "internalType": "uint256",
                    "name": "",
                    "type": "uint256"
                }
            ],
            "stateMutability": "view",
            "type": "function"
        },
        {
            "inputs": [],
            "name": "TRON_RR",
            "outputs": [
                {
                    "internalType": "uint256",
                    "name": "",
                    "type": "uint256"
                }
            ],
            "stateMutability": "view",
            "type": "function"
        },
        {
            "inputs": [],
            "name": "TRON_SOLICITADO",
            "outputs": [
                {
                    "internalType": "uint256",
                    "name": "",
                    "type": "uint256"
                }
            ],
            "stateMutability": "view",
            "type": "function"
        },
        {
            "inputs": [],
            "name": "Wallet_SR",
            "outputs": [
                {
                    "internalType": "address payable",
                    "name": "",
                    "type": "address"
                }
            ],
            "stateMutability": "view",
            "type": "function"
        },
        {
            "inputs": [
                {
                    "internalType": "address",
                    "name": "_wl_user",
                    "type": "address"
                },
                {
                    "internalType": "uint256",
                    "name": "_value",
                    "type": "uint256"
                }
            ],
            "name": "asignarDisponible",
            "outputs": [],
            "stateMutability": "nonpayable",
            "type": "function"
        },
        {
            "inputs": [
                {
                    "internalType": "uint256",
                    "name": "_value",
                    "type": "uint256"
                }
            ],
            "name": "asignarPerdida",
            "outputs": [],
            "stateMutability": "nonpayable",
            "type": "function"
        },
        {
            "inputs": [
                {
                    "internalType": "uint256",
                    "name": "",
                    "type": "uint256"
                }
            ],
            "name": "completada",
            "outputs": [
                {
                    "internalType": "bool",
                    "name": "",
                    "type": "bool"
                }
            ],
            "stateMutability": "view",
            "type": "function"
        },
        {
            "inputs": [
                {
                    "internalType": "uint256",
                    "name": "_value",
                    "type": "uint256"
                }
            ],
            "name": "crearBRTS",
            "outputs": [
                {
                    "internalType": "bool",
                    "name": "",
                    "type": "bool"
                }
            ],
            "stateMutability": "nonpayable",
            "type": "function"
        },
        {
            "inputs": [],
            "name": "descuentoRapido",
            "outputs": [
                {
                    "internalType": "uint256",
                    "name": "",
                    "type": "uint256"
                }
            ],
            "stateMutability": "view",
            "type": "function"
        },
        {
            "inputs": [
                {
                    "internalType": "address",
                    "name": "",
                    "type": "address"
                }
            ],
            "name": "disponible",
            "outputs": [
                {
                    "internalType": "uint256",
                    "name": "",
                    "type": "uint256"
                }
            ],
            "stateMutability": "view",
            "type": "function"
        },
        {
            "inputs": [
                {
                    "internalType": "uint256",
                    "name": "_value",
                    "type": "uint256"
                }
            ],
            "name": "esperaRetiro",
            "outputs": [],
            "stateMutability": "nonpayable",
            "type": "function"
        },
        {
            "inputs": [
                {
                    "internalType": "uint256",
                    "name": "_value",
                    "type": "uint256"
                }
            ],
            "name": "gananciaDirecta",
            "outputs": [],
            "stateMutability": "nonpayable",
            "type": "function"
        },
        {
            "inputs": [],
            "name": "index",
            "outputs": [
                {
                    "internalType": "uint256",
                    "name": "",
                    "type": "uint256"
                }
            ],
            "stateMutability": "view",
            "type": "function"
        },
        {
            "inputs": [],
            "name": "iniciado",
            "outputs": [
                {
                    "internalType": "bool",
                    "name": "",
                    "type": "bool"
                }
            ],
            "stateMutability": "view",
            "type": "function"
        },
        {
            "inputs": [],
            "name": "inicializar",
            "outputs": [],
            "stateMutability": "nonpayable",
            "type": "function"
        },
        {
            "inputs": [
                {
                    "internalType": "uint256",
                    "name": "_value",
                    "type": "uint256"
                }
            ],
            "name": "instaRetiro",
            "outputs": [
                {
                    "internalType": "bool",
                    "name": "",
                    "type": "bool"
                }
            ],
            "stateMutability": "nonpayable",
            "type": "function"
        },
        {
            "inputs": [
                {
                    "internalType": "address",
                    "name": "_user",
                    "type": "address"
                }
            ],
            "name": "largoSolicitudes",
            "outputs": [
                {
                    "internalType": "uint256",
                    "name": "",
                    "type": "uint256"
                }
            ],
            "stateMutability": "view",
            "type": "function"
        },
        {
            "inputs": [
                {
                    "internalType": "address",
                    "name": "",
                    "type": "address"
                },
                {
                    "internalType": "uint256",
                    "name": "",
                    "type": "uint256"
                }
            ],
            "name": "misSolicitudes",
            "outputs": [
                {
                    "internalType": "uint256",
                    "name": "",
                    "type": "uint256"
                }
            ],
            "stateMutability": "view",
            "type": "function"
        },
        {
            "inputs": [
                {
                    "internalType": "address",
                    "name": "_newOwner",
                    "type": "address"
                }
            ],
            "name": "newOwnerBRTS",
            "outputs": [],
            "stateMutability": "nonpayable",
            "type": "function"
        },
        {
            "inputs": [],
            "name": "owner",
            "outputs": [
                {
                    "internalType": "address",
                    "name": "",
                    "type": "address"
                }
            ],
            "stateMutability": "view",
            "type": "function"
        },
        {
            "inputs": [
                {
                    "internalType": "uint256",
                    "name": "",
                    "type": "uint256"
                }
            ],
            "name": "peticiones",
            "outputs": [
                {
                    "internalType": "address",
                    "name": "wallet",
                    "type": "address"
                },
                {
                    "internalType": "uint256",
                    "name": "tiempo",
                    "type": "uint256"
                },
                {
                    "internalType": "uint256",
                    "name": "precio",
                    "type": "uint256"
                },
                {
                    "internalType": "uint256",
                    "name": "brst",
                    "type": "uint256"
                }
            ],
            "stateMutability": "view",
            "type": "function"
        },
        {
            "inputs": [],
            "name": "precision",
            "outputs": [
                {
                    "internalType": "uint256",
                    "name": "",
                    "type": "uint256"
                }
            ],
            "stateMutability": "view",
            "type": "function"
        },
        {
            "inputs": [
                {
                    "internalType": "uint256",
                    "name": "_value",
                    "type": "uint256"
                }
            ],
            "name": "quemarBRTS",
            "outputs": [
                {
                    "internalType": "bool",
                    "name": "",
                    "type": "bool"
                },
                {
                    "internalType": "uint256",
                    "name": "",
                    "type": "uint256"
                }
            ],
            "stateMutability": "nonpayable",
            "type": "function"
        },
        {
            "inputs": [
                {
                    "internalType": "uint256",
                    "name": "_value",
                    "type": "uint256"
                }
            ],
            "name": "redimBRTS",
            "outputs": [
                {
                    "internalType": "uint256",
                    "name": "",
                    "type": "uint256"
                }
            ],
            "stateMutability": "nonpayable",
            "type": "function"
        },
        {
            "inputs": [],
            "name": "redimOTRO",
            "outputs": [
                {
                    "internalType": "uint256",
                    "name": "",
                    "type": "uint256"
                }
            ],
            "stateMutability": "nonpayable",
            "type": "function"
        },
        {
            "inputs": [
                {
                    "internalType": "uint256",
                    "name": "_value",
                    "type": "uint256"
                }
            ],
            "name": "redimTRX",
            "outputs": [
                {
                    "internalType": "uint256",
                    "name": "",
                    "type": "uint256"
                }
            ],
            "stateMutability": "nonpayable",
            "type": "function"
        },
        {
            "inputs": [
                {
                    "internalType": "uint256",
                    "name": "_id",
                    "type": "uint256"
                }
            ],
            "name": "retirar",
            "outputs": [
                {
                    "internalType": "bool",
                    "name": "exitoso",
                    "type": "bool"
                }
            ],
            "stateMutability": "nonpayable",
            "type": "function"
        },
        {
            "inputs": [
                {
                    "internalType": "address",
                    "name": "_wl_user",
                    "type": "address"
                },
                {
                    "internalType": "uint256",
                    "name": "_value",
                    "type": "uint256"
                }
            ],
            "name": "retirarDisponible",
            "outputs": [],
            "stateMutability": "nonpayable",
            "type": "function"
        },
        {
            "inputs": [
                {
                    "internalType": "address",
                    "name": "_evilUser",
                    "type": "address"
                },
                {
                    "internalType": "bool",
                    "name": "_si_no",
                    "type": "bool"
                }
            ],
            "name": "setListaNegra",
            "outputs": [],
            "stateMutability": "nonpayable",
            "type": "function"
        },
        {
            "inputs": [
                {
                    "internalType": "uint256",
                    "name": "_descuento",
                    "type": "uint256"
                },
                {
                    "internalType": "uint256",
                    "name": "_precision",
                    "type": "uint256"
                }
            ],
            "name": "setSalidaRapida",
            "outputs": [],
            "stateMutability": "nonpayable",
            "type": "function"
        },
        {
            "inputs": [
                {
                    "internalType": "uint256",
                    "name": "_dias",
                    "type": "uint256"
                }
            ],
            "name": "setTiempo",
            "outputs": [],
            "stateMutability": "nonpayable",
            "type": "function"
        },
        {
            "inputs": [
                {
                    "internalType": "address payable",
                    "name": "_w",
                    "type": "address"
                }
            ],
            "name": "setWalletSR",
            "outputs": [],
            "stateMutability": "nonpayable",
            "type": "function"
        },
        {
            "inputs": [
                {
                    "internalType": "address",
                    "name": "_w",
                    "type": "address"
                },
                {
                    "internalType": "bool",
                    "name": "_sn",
                    "type": "bool"
                }
            ],
            "name": "setWhiteList",
            "outputs": [],
            "stateMutability": "nonpayable",
            "type": "function"
        },
        {
            "inputs": [
                {
                    "internalType": "uint256",
                    "name": "_value",
                    "type": "uint256"
                }
            ],
            "name": "solicitudRetiro",
            "outputs": [
                {
                    "internalType": "bool",
                    "name": "",
                    "type": "bool"
                }
            ],
            "stateMutability": "nonpayable",
            "type": "function"
        },
        {
            "inputs": [],
            "name": "solicitudesPendientesGlobales",
            "outputs": [
                {
                    "internalType": "uint256[]",
                    "name": "pGlobales",
                    "type": "uint256[]"
                }
            ],
            "stateMutability": "view",
            "type": "function"
        },
        {
            "inputs": [],
            "name": "staking",
            "outputs": [
                {
                    "internalType": "uint256",
                    "name": "",
                    "type": "uint256"
                }
            ],
            "stateMutability": "payable",
            "type": "function"
        },
        {
            "inputs": [
                {
                    "internalType": "address",
                    "name": "_user",
                    "type": "address"
                }
            ],
            "name": "todasSolicitudes",
            "outputs": [
                {
                    "internalType": "uint256[]",
                    "name": "",
                    "type": "uint256[]"
                }
            ],
            "stateMutability": "view",
            "type": "function"
        },
        {
            "inputs": [],
            "name": "totalDisponible",
            "outputs": [
                {
                    "internalType": "uint256",
                    "name": "",
                    "type": "uint256"
                }
            ],
            "stateMutability": "view",
            "type": "function"
        },
        {
            "inputs": [
                {
                    "internalType": "address",
                    "name": "_newAdmin",
                    "type": "address"
                }
            ],
            "name": "transferOwnership",
            "outputs": [],
            "stateMutability": "nonpayable",
            "type": "function"
        },
        {
            "inputs": [
                {
                    "internalType": "uint256",
                    "name": "_id",
                    "type": "uint256"
                }
            ],
            "name": "verSolicitudPendiente",
            "outputs": [
                {
                    "components": [
                        {
                            "internalType": "address",
                            "name": "wallet",
                            "type": "address"
                        },
                        {
                            "internalType": "uint256",
                            "name": "tiempo",
                            "type": "uint256"
                        },
                        {
                            "internalType": "uint256",
                            "name": "precio",
                            "type": "uint256"
                        },
                        {
                            "internalType": "uint256",
                            "name": "brst",
                            "type": "uint256"
                        }
                    ],
                    "internalType": "struct PoolBRSTv4.Peticion",
                    "name": "pt2",
                    "type": "tuple"
                }
            ],
            "stateMutability": "view",
            "type": "function"
        },
        {
            "inputs": [
                {
                    "internalType": "address",
                    "name": "",
                    "type": "address"
                }
            ],
            "name": "whiteList",
            "outputs": [
                {
                    "internalType": "bool",
                    "name": "",
                    "type": "bool"
                }
            ],
            "stateMutability": "view",
            "type": "function"
        },
        {
            "stateMutability": "payable",
            "type": "receive"
        }
    ],
    "bytecode": "60806040526011805460ff1916600117905534801561001c575f80fd5b506121bf8061002a5f395ff3fe608060405260043610610273575f3560e01c80638929cbc51161014d578063d4ff5b33116100ba578063e8b1298f11610076578063e8b1298f146107b7578063ea0a88d4146107d6578063f2fde38b146107f5578063f4903cf714610814578063f90b3f5a14610828578063fcd728f51461084757005b8063d4ff5b3314610730578063d7b6e5b21461074f578063dcbe327e14610764578063dd1335d014610778578063e1e158a51461078d578063e849f448146107a257005b8063a923c10911610109578063a923c10914610636578063b0698a1b14610655578063b15c16aa14610674578063c7c277a914610693578063cc1bc869146106a7578063d3b5dc3b1461071b57005b80638929cbc5146105865780638d14e1271461059a5780638da5cb5b146105b957806390cc4c2e146105cd57806396ba5363146105f8578063a43974501461061757005b806340aabb57116101eb57806368adb6ea116101a757806368adb6ea146104bd57806375b2a546146104dc57806379fe4f96146104fb57806383bd85281461052f578063875b11481461054857806388a4a9811461056757005b806340aabb571461042d578063438490611461044c5780634cf088d9146104615780634d03c44f1461046957806360f05ea71461048a578063664e9704146104a957005b80632986c0e51161023a5780632986c0e5146103495780632a07d8f31461035e5780632a1bb87014610394578063372c12b1146103cb5780633808cd6b146103f9578063383f23a01461040e57005b80630de17b151461027c5780630edd11f41461029b57806316f64048146102de578063219ec6a1146102fd5780632688327a1461031c57005b3661027a57005b005b348015610287575f80fd5b5061027a610296366004611e83565b6108a2565b3480156102a6575f80fd5b506102c96102b5366004611ead565b600b6020525f908152604090205460ff1681565b60405190151581526020015b60405180910390f35b3480156102e9575f80fd5b5061027a6102f8366004611ead565b61091b565b348015610308575f80fd5b5061027a610317366004611ec4565b610ae2565b348015610327575f80fd5b5061033b610336366004611ead565b610af5565b6040519081526020016102d5565b348015610354575f80fd5b5061033b60105481565b348015610369575f80fd5b5061037d610378366004611ead565b610bfe565b6040805192151583526020830191909152016102d5565b34801561039f575f80fd5b506008546103b3906001600160a01b031681565b6040516001600160a01b0390911681526020016102d5565b3480156103d6575f80fd5b506102c96103e5366004611ee4565b600d6020525f908152604090205460ff1681565b348015610404575f80fd5b5061033b600f5481565b348015610419575f80fd5b5061027a610428366004611ead565b610ce7565b348015610438575f80fd5b506102c9610447366004611ead565b610d02565b348015610457575f80fd5b5061033b60095481565b61033b610f16565b348015610474575f80fd5b5061047d6110c9565b6040516102d59190611eff565b348015610495575f80fd5b5061027a6104a4366004611ead565b61110f565b3480156104b4575f80fd5b5061033b611124565b3480156104c8575f80fd5b5061027a6104d7366004611ee4565b611216565b3480156104e7575f80fd5b506102c96104f6366004611ead565b611240565b348015610506575f80fd5b5061033b610515366004611ee4565b6001600160a01b03165f908152600c602052604090205490565b34801561053a575f80fd5b506011546102c99060ff1681565b348015610553575f80fd5b5061033b610562366004611ead565b611266565b348015610572575f80fd5b5061047d610581366004611ee4565b6112b8565b348015610591575f80fd5b5061033b611321565b3480156105a5575f80fd5b5061027a6105b4366004611f4f565b6113e3565b3480156105c4575f80fd5b506103b3611415565b3480156105d8575f80fd5b5061033b6105e7366004611ee4565b600e6020525f908152604090205481565b348015610603575f80fd5b5061027a610612366004611ee4565b611480565b348015610622575f80fd5b506102c9610631366004611ead565b6114aa565b348015610641575f80fd5b5061027a610650366004611ee4565b611585565b348015610660575f80fd5b5061027a61066f366004611ee4565b6115ae565b34801561067f575f80fd5b5061027a61068e366004611f4f565b611612565b34801561069e575f80fd5b5061033b6116ae565b3480156106b2575f80fd5b506106f16106c1366004611ead565b600a6020525f908152604090208054600182015460028301546003909301546001600160a01b0390921692909184565b604080516001600160a01b03909516855260208501939093529183015260608201526080016102d5565b348015610726575f80fd5b5061033b60065481565b34801561073b575f80fd5b5061033b61074a366004611e83565b6116cc565b34801561075a575f80fd5b5061033b60055481565b34801561076f575f80fd5b5061027a6116f7565b348015610783575f80fd5b5061033b60035481565b348015610798575f80fd5b5061033b60025481565b3480156107ad575f80fd5b5061033b60045481565b3480156107c2575f80fd5b506102c96107d1366004611ead565b61176f565b3480156107e1575f80fd5b5061027a6107f0366004611e83565b611a9b565b348015610800575f80fd5b5061027a61080f366004611ee4565b611b0d565b34801561081f575f80fd5b5060075461033b565b348015610833575f80fd5b5061027a610842366004611ead565b611b43565b348015610852575f80fd5b50610866610861366004611ead565b611b50565b6040516102d5919081516001600160a01b0316815260208083015190820152604080830151908201526060918201519181019190915260800190565b6108aa611bcd565b6001600160a01b0382165f908152600d602052604090205460ff166108cd575f80fd5b6001600160a01b0382165f908152600e60205260409020546108ef9082611bf3565b6001600160a01b0383165f908152600e6020526040902055600f546109149082611bf3565b600f555050565b5f546040516323b872dd60e01b8152336004820152306024820152604481018390526001600160a01b03909116906323b872dd906064016020604051808303815f875af115801561096e573d5f803e3d5ffd5b505050506040513d601f19601f820116820180604052508101906109929190611f86565b61099a575f80fd5b604080516080810182523381524260208201529081016109b8611124565b815260209081018390526010545f908152600a82526040808220845181546001600160a01b0319166001600160a01b039182161782558585015160018301558583015160028301556060909501516003909101558154815163313ce56760e01b815291519294610a919491169263313ce5679260048082019392918290030181865afa158015610a4a573d5f803e3d5ffd5b505050506040513d601f19601f82011682018060405250810190610a6e9190611fa1565b610a7990600a6120ac565b610a8b610a84611124565b8590611c5f565b90611cdd565b600354909150610aa19082611bf3565b600355335f908152600c60209081526040822060108054825460018101845592855292842090910191909155805491610ad9836120be565b91905055505050565b610aea611bcd565b600591909155600655565b5f610afe611bcd565b5f546040516370a0823160e01b815230600482015283916001600160a01b0316906370a0823190602401602060405180830381865afa158015610b43573d5f803e3d5ffd5b505050506040513d601f19601f82011682018060405250810190610b679190611fa1565b1015610b71575f80fd5b5f546001600160a01b031663a9059cbb610b89611415565b6040516001600160e01b031960e084901b1681526001600160a01b039091166004820152602481018590526044016020604051808303815f875af1158015610bd3573d5f803e3d5ffd5b505050506040513d601f19601f82011682018060405250810190610bf79190611f86565b5090919050565b5f80610c08611bcd565b5f546040516323b872dd60e01b8152336004820152306024820152604481018590526001600160a01b03909116906323b872dd906064016020604051808303815f875af1158015610c5b573d5f803e3d5ffd5b505050506040513d601f19601f82011682018060405250810190610c7f9190611f86565b610c87575f80fd5b5f5460405163db006a7560e01b8152600481018590526001600160a01b039091169063db006a75906024015f604051808303815f87803b158015610cc9575f80fd5b505af1158015610cdb573d5f803e3d5ffd5b50600196945050505050565b610cef611bcd565b600754610cfc9082611d40565b60075550565b5f80610d965f8054906101000a90046001600160a01b03166001600160a01b031663313ce5676040518163ffffffff1660e01b8152600401602060405180830381865afa158015610d55573d5f803e3d5ffd5b505050506040513d601f19601f82011682018060405250810190610d799190611fa1565b610d8490600a6120ac565b610a8b610d8f611124565b8690611c5f565b90505f610da16116ae565b335f908152600d602052604090205490915060ff16610dd957610dd26064610a8b600554600654610a8491906120d6565b9150610dea565b50335f908152600e60205260409020545b818110158015610dfc57508160045410155b15610f0d575f546040516323b872dd60e01b8152336004820152306024820152604481018690526001600160a01b03909116906323b872dd906064016020604051808303815f875af1158015610e54573d5f803e3d5ffd5b505050506040513d601f19601f82011682018060405250810190610e789190611f86565b610e80575f80fd5b5f5460405163db006a7560e01b8152600481018690526001600160a01b039091169063db006a75906024015f604051808303815f87803b158015610ec2575f80fd5b505af1158015610ed4573d5f803e3d5ffd5b505060405133925084156108fc02915084905f818181858888f19350505050158015610f02573d5f803e3d5ffd5b506001949350505050565b505f9392505050565b5f600254341015610f25575f80fd5b60085460405134916001600160a01b03169082156108fc029083905f818181858888f19350505050158015610f5c573d5f803e3d5ffd5b50610fe6610f68611124565b5f546040805163313ce56760e01b81529051610a8b926001600160a01b03169163313ce5679160048083019260209291908290030181865afa158015610fb0573d5f803e3d5ffd5b505050506040513d601f19601f82011682018060405250810190610fd49190611fa1565b610fdf90600a6120ac565b8490611c5f565b600754909150610ff69034611bf3565b6007555f5460405163664395b360e11b8152600481018390526001600160a01b039091169063cc872b66906024015f604051808303815f87803b15801561103b575f80fd5b505af115801561104d573d5f803e3d5ffd5b50505f5460405163a9059cbb60e01b8152336004820152602481018590526001600160a01b03909116925063a9059cbb91506044015b6020604051808303815f875af115801561109f573d5f803e3d5ffd5b505050506040513d601f19601f820116820180604052508101906110c39190611f86565b50919050565b60605f5b60105481101561110b575f818152600b602052604090205460ff166110f9576110f68282611d9c565b91505b80611103816120be565b9150506110cd565b5090565b611117611bcd565b600754610cfc9082611bf3565b5f8054604080516318160ddd60e01b81529051611211926001600160a01b0316916318160ddd9160048083019260209291908290030181865afa15801561116d573d5f803e3d5ffd5b505050506040513d601f19601f820116820180604052508101906111919190611fa1565b5f546040805163313ce56760e01b81529051610a8b926001600160a01b03169163313ce5679160048083019260209291908290030181865afa1580156111d9573d5f803e3d5ffd5b505050506040513d601f19601f820116820180604052508101906111fd9190611fa1565b61120890600a6120ac565b60075490611c5f565b905090565b61121e611bcd565b600880546001600160a01b0319166001600160a01b0392909216919091179055565b5f61124a82610d02565b61125e576112578261091b565b505f919050565b506001919050565b5f61126f611bcd565b8147101561127b575f80fd5b611283611415565b6001600160a01b03166108fc8390811502906040515f60405180830381858888f19350505050158015610bf7573d5f803e3d5ffd5b6001600160a01b0381165f908152600c602090815260409182902080548351818402810184019094528084526060939283018282801561131557602002820191905f5260205f20905b815481526020019060010190808311611301575b50505050509050919050565b5f61132a611bcd565b6001546040516370a0823160e01b81523060048201525f916001600160a01b0316906370a0823190602401602060405180830381865afa158015611370573d5f803e3d5ffd5b505050506040513d601f19601f820116820180604052508101906113949190611fa1565b6001549091506001600160a01b031663a9059cbb6113b0611415565b6040516001600160e01b031960e084901b1681526001600160a01b03909116600482015260248101849052604401611083565b6113eb611bcd565b6001600160a01b03919091165f908152600d60205260409020805460ff1916911515919091179055565b5f80309050806001600160a01b031663f851a4406040518163ffffffff1660e01b8152600401602060405180830381865afa158015611456573d5f803e3d5ffd5b505050506040513d601f19601f8201168201806040525081019061147a91906120e9565b91505090565b611488611bcd565b600180546001600160a01b0319166001600160a01b0392909216919091179055565b5f6114b3611bcd565b5f5460405163664395b360e11b8152600481018490526001600160a01b039091169063cc872b66906024015f604051808303815f87803b1580156114f5575f80fd5b505af1158015611507573d5f803e3d5ffd5b50505f5460405163a9059cbb60e01b8152336004820152602481018690526001600160a01b03909116925063a9059cbb91506044016020604051808303815f875af1158015611558573d5f803e3d5ffd5b505050506040513d601f19601f8201168201806040525081019061157c9190611f86565b50600192915050565b61158d611bcd565b5f80546001600160a01b0319166001600160a01b0392909216919091179055565b6115b6611bcd565b5f5460405163f2fde38b60e01b81526001600160a01b0383811660048301529091169063f2fde38b906024015f604051808303815f87803b1580156115f9575f80fd5b505af115801561160b573d5f803e3d5ffd5b5050505050565b61161a611bcd565b801561167d575f54604051623b2e4f60e61b81526001600160a01b03848116600483015290911690630ecb93c0906024015b5f604051808303815f87803b158015611663575f80fd5b505af1158015611675573d5f803e3d5ffd5b505050505050565b5f5460405163e4997dc560e01b81526001600160a01b0384811660048301529091169063e4997dc59060240161164c565b5f600f544711156116c757600f54611211904790611d40565b505f90565b600c602052815f5260405f2081815481106116e5575f80fd5b905f5260205f20015f91509150505481565b6116ff611bcd565b60115460ff161561170e575f80fd5b620f4240600255621669806009556011805460ff191660019081179091555f80546001600160a01b031990811673389ccc30de1d311738dffd3f60d4fd6188970f459081179092558254161790556005805560646006556377359400600455565b5f818152600a60209081526040808320546001600160a01b03168352600d90915281205460ff166117cf57601054821015806117c657506009545f838152600a60205260409020600101546117c391611bf3565b42105b156117cf575f80fd5b5f80546040805163313ce56760e01b81529051611868926001600160a01b03169163313ce5679160048083019260209291908290030181865afa158015611818573d5f803e3d5ffd5b505050506040513d601f19601f8201168201806040525081019061183c9190611fa1565b61184790600a6120ac565b5f858152600a602052604090206002810154600390910154610a8b91611c5f565b9050806118736116ae565b106110c3575f838152600a6020526040812054611898906001600160a01b03166112b8565b90505f5b8151811015611a9357848282815181106118b8576118b8612104565b602002602001015103611a81575f858152600a60209081526040808320546001600160a01b03168352600c909152902080546118f6906001906120d6565b8154811061190657611906612104565b5f918252602080832090910154878352600a82526040808420546001600160a01b03168452600c909252912080548390811061194457611944612104565b5f918252602080832090910192909255868152600a82526040808220546001600160a01b03168252600c9092522080548061198157611981612118565b5f828152602080822083015f19908101839055909201909255868252600a905260408082205490516001600160a01b039091169185156108fc02918691818181858888f193505050501580156119d9573d5f803e3d5ffd5b505f8054868252600a60205260409182902060030154915163db006a7560e01b815260048101929092526001600160a01b03169063db006a75906024015f604051808303815f87803b158015611a2d575f80fd5b505af1158015611a3f573d5f803e3d5ffd5b5050600754611a519250905084611d40565b6007819055611a609084611d40565b6003555f858152600b60205260409020805460ff1916600190811790915593505b80611a8b816120be565b91505061189c565b505050919050565b611aa3611bcd565b6001600160a01b0382165f908152600d602052604090205460ff16611ac6575f80fd5b6001600160a01b0382165f908152600e6020526040902054611ae89082611d40565b6001600160a01b0383165f908152600e6020526040902055600f546109149082611d40565b611b15611bcd565b6040516308f2839760e41b81526001600160a01b038216600482015230908190638f2839709060240161164c565b611b4b611bcd565b600955565b611b8060405180608001604052805f6001600160a01b031681526020015f81526020015f81526020015f81525090565b505f908152600a6020908152604091829020825160808101845281546001600160a01b03168152600182015492810192909252600281015492820192909252600390910154606082015290565b611bd5611415565b6001600160a01b0316336001600160a01b031614611bf1575f80fd5b565b5f80611bff838561212c565b905083811015611c565760405162461bcd60e51b815260206004820152601b60248201527f536166654d6174683a206164646974696f6e206f766572666c6f77000000000060448201526064015b60405180910390fd5b90505b92915050565b5f825f03611c6e57505f611c59565b5f611c79838561213f565b905082611c868583612156565b14611c565760405162461bcd60e51b815260206004820152602160248201527f536166654d6174683a206d756c7469706c69636174696f6e206f766572666c6f6044820152607760f81b6064820152608401611c4d565b5f808211611d2d5760405162461bcd60e51b815260206004820152601a60248201527f536166654d6174683a206469766973696f6e206279207a65726f0000000000006044820152606401611c4d565b5f611d388385612156565b949350505050565b5f82821115611d915760405162461bcd60e51b815260206004820152601e60248201527f536166654d6174683a207375627472616374696f6e206f766572666c6f7700006044820152606401611c4d565b5f611d3883856120d6565b60605f83516001611dad919061212c565b67ffffffffffffffff811115611dc557611dc5612175565b604051908082528060200260200182016040528015611dee578160200160208202803683370190505b5090505f5b8451811015611e4557848181518110611e0e57611e0e612104565b6020026020010151828281518110611e2857611e28612104565b602090810291909101015280611e3d816120be565b915050611df3565b508281855181518110611e5a57611e5a612104565b60209081029190910101529392505050565b6001600160a01b0381168114611e80575f80fd5b50565b5f8060408385031215611e94575f80fd5b8235611e9f81611e6c565b946020939093013593505050565b5f60208284031215611ebd575f80fd5b5035919050565b5f8060408385031215611ed5575f80fd5b50508035926020909101359150565b5f60208284031215611ef4575f80fd5b8135611c5681611e6c565b602080825282518282018190525f9190848201906040850190845b81811015611f3657835183529284019291840191600101611f1a565b50909695505050505050565b8015158114611e80575f80fd5b5f8060408385031215611f60575f80fd5b8235611f6b81611e6c565b91506020830135611f7b81611f42565b809150509250929050565b5f60208284031215611f96575f80fd5b8151611c5681611f42565b5f60208284031215611fb1575f80fd5b5051919050565b634e487b7160e01b5f52601160045260245ffd5b600181815b8085111561200657815f1904821115611fec57611fec611fb8565b80851615611ff957918102915b93841c9390800290611fd1565b509250929050565b5f8261201c57506001611c59565b8161202857505f611c59565b816001811461203e576002811461204857612064565b6001915050611c59565b60ff84111561205957612059611fb8565b50506001821b611c59565b5060208310610133831016604e8410600b8410161715612087575081810a611c59565b6120918383611fcc565b805f19048211156120a4576120a4611fb8565b029392505050565b5f6120b7838361200e565b9392505050565b5f600182016120cf576120cf611fb8565b5060010190565b81810381811115611c5957611c59611fb8565b5f602082840312156120f9575f80fd5b8151611c5681611e6c565b634e487b7160e01b5f52603260045260245ffd5b634e487b7160e01b5f52603160045260245ffd5b80820180821115611c5957611c59611fb8565b8082028115828204841417611c5957611c59611fb8565b5f8261217057634e487b7160e01b5f52601260045260245ffd5b500490565b634e487b7160e01b5f52604160045260245ffdfea264697066735822122035c1862a8f6c882557bbcb325d04da82af05e2f424ab34c2b9815d6e28dd6a7f64736f6c63430008140033",
    "sourcePath": "c:/Users/STC/Documents/GitHub/BRUTUS-TOKEN/contracts/BRST POOL/Pool-BRST-v4.sol",
    "compiler": {
        "name": "solc",
        "version": "0.8.20+commit.a1b79de6"
    },
    "functionHashes": {
        "ChangeToken(address)": "a923c109",
        "ChangeTokenOTRO(address)": "96ba5363",
        "MIN_DEPOSIT()": "e1e158a5",
        "RATE()": "664e9704",
        "TIEMPO()": "43849061",
        "TRON_BALANCE()": "f4903cf7",
        "TRON_PAY_BALANCE()": "c7c277a9",
        "TRON_RR()": "e849f448",
        "TRON_SOLICITADO()": "dd1335d0",
        "Wallet_SR()": "2a1bb870",
        "asignarDisponible(address,uint256)": "0de17b15",
        "asignarPerdida(uint256)": "383f23a0",
        "completada(uint256)": "0edd11f4",
        "crearBRTS(uint256)": "a4397450",
        "descuentoRapido()": "d7b6e5b2",
        "disponible(address)": "90cc4c2e",
        "esperaRetiro(uint256)": "16f64048",
        "gananciaDirecta(uint256)": "60f05ea7",
        "index()": "2986c0e5",
        "iniciado()": "83bd8528",
        "inicializar()": "dcbe327e",
        "instaRetiro(uint256)": "40aabb57",
        "largoSolicitudes(address)": "79fe4f96",
        "misSolicitudes(address,uint256)": "d4ff5b33",
        "newOwnerBRTS(address)": "b0698a1b",
        "owner()": "8da5cb5b",
        "peticiones(uint256)": "cc1bc869",
        "precision()": "d3b5dc3b",
        "quemarBRTS(uint256)": "2a07d8f3",
        "redimBRTS(uint256)": "2688327a",
        "redimOTRO()": "8929cbc5",
        "redimTRX(uint256)": "875b1148",
        "retirar(uint256)": "e8b1298f",
        "retirarDisponible(address,uint256)": "ea0a88d4",
        "setListaNegra(address,bool)": "b15c16aa",
        "setSalidaRapida(uint256,uint256)": "219ec6a1",
        "setTiempo(uint256)": "f90b3f5a",
        "setWalletSR(address)": "68adb6ea",
        "setWhiteList(address,bool)": "8d14e127",
        "solicitudRetiro(uint256)": "75b2a546",
        "solicitudesPendientesGlobales()": "4d03c44f",
        "staking()": "4cf088d9",
        "todasSolicitudes(address)": "88a4a981",
        "totalDisponible()": "3808cd6b",
        "transferOwnership(address)": "f2fde38b",
        "verSolicitudPendiente(uint256)": "fcd728f5",
        "whiteList(address)": "372c12b1"
    },
    "gasEstimates": {
        "creation": {
            "codeDepositCost": "1727800",
            "executionCost": "26035",
            "totalCost": "1753835"
        },
        "external": {
            "": "229",
            "ChangeToken(address)": "infinite",
            "ChangeTokenOTRO(address)": "infinite",
            "MIN_DEPOSIT()": "2427",
            "RATE()": "infinite",
            "TIEMPO()": "2362",
            "TRON_BALANCE()": "2401",
            "TRON_PAY_BALANCE()": "4705",
            "TRON_RR()": "2449",
            "TRON_SOLICITADO()": "2405",
            "Wallet_SR()": "2426",
            "asignarDisponible(address,uint256)": "infinite",
            "asignarPerdida(uint256)": "infinite",
            "completada(uint256)": "2505",
            "crearBRTS(uint256)": "infinite",
            "descuentoRapido()": "2361",
            "disponible(address)": "2626",
            "esperaRetiro(uint256)": "infinite",
            "gananciaDirecta(uint256)": "infinite",
            "index()": "2340",
            "iniciado()": "2409",
            "inicializar()": "infinite",
            "instaRetiro(uint256)": "infinite",
            "largoSolicitudes(address)": "2621",
            "misSolicitudes(address,uint256)": "4776",
            "newOwnerBRTS(address)": "infinite",
            "owner()": "infinite",
            "peticiones(uint256)": "9012",
            "precision()": "2449",
            "quemarBRTS(uint256)": "infinite",
            "redimBRTS(uint256)": "infinite",
            "redimOTRO()": "infinite",
            "redimTRX(uint256)": "infinite",
            "retirar(uint256)": "infinite",
            "retirarDisponible(address,uint256)": "infinite",
            "setListaNegra(address,bool)": "infinite",
            "setSalidaRapida(uint256,uint256)": "infinite",
            "setTiempo(uint256)": "infinite",
            "setWalletSR(address)": "infinite",
            "setWhiteList(address,bool)": "infinite",
            "solicitudRetiro(uint256)": "infinite",
            "solicitudesPendientesGlobales()": "infinite",
            "staking()": "infinite",
            "todasSolicitudes(address)": "infinite",
            "totalDisponible()": "2428",
            "transferOwnership(address)": "infinite",
            "verSolicitudPendiente(uint256)": "9309",
            "whiteList(address)": "2627"
        },
        "internal": {
            "onlyOwner()": "infinite"
        }
    }
}