{
    "contractName": "PoolBRSTv4",
    "abi": [
        {
            "inputs": [],
            "stateMutability": "nonpayable",
            "type": "constructor"
        },
        {
            "stateMutability": "payable",
            "type": "fallback"
        },
        {
            "inputs": [
                {
                    "internalType": "address",
                    "name": "_tokenTRC20",
                    "type": "address"
                }
            ],
            "name": "ChangeToken",
            "outputs": [],
            "stateMutability": "nonpayable",
            "type": "function"
        },
        {
            "inputs": [
                {
                    "internalType": "address",
                    "name": "_tokenTRC20",
                    "type": "address"
                }
            ],
            "name": "ChangeTokenOTRO",
            "outputs": [],
            "stateMutability": "nonpayable",
            "type": "function"
        },
        {
            "inputs": [],
            "name": "MIN_DEPOSIT",
            "outputs": [
                {
                    "internalType": "uint256",
                    "name": "",
                    "type": "uint256"
                }
            ],
            "stateMutability": "view",
            "type": "function"
        },
        {
            "inputs": [],
            "name": "RATE",
            "outputs": [
                {
                    "internalType": "uint256",
                    "name": "",
                    "type": "uint256"
                }
            ],
            "stateMutability": "view",
            "type": "function"
        },
        {
            "inputs": [],
            "name": "TIEMPO",
            "outputs": [
                {
                    "internalType": "uint256",
                    "name": "",
                    "type": "uint256"
                }
            ],
            "stateMutability": "view",
            "type": "function"
        },
        {
            "inputs": [],
            "name": "TRON_BALANCE",
            "outputs": [
                {
                    "internalType": "uint256",
                    "name": "",
                    "type": "uint256"
                }
            ],
            "stateMutability": "view",
            "type": "function"
        },
        {
            "inputs": [],
            "name": "TRON_PAY_BALANCE",
            "outputs": [
                {
                    "internalType": "uint256",
                    "name": "",
                    "type": "uint256"
                }
            ],
            "stateMutability": "view",
            "type": "function"
        },
        {
            "inputs": [],
            "name": "TRON_PAY_BALANCE_FAST",
            "outputs": [
                {
                    "internalType": "uint256",
                    "name": "",
                    "type": "uint256"
                }
            ],
            "stateMutability": "view",
            "type": "function"
        },
        {
            "inputs": [],
            "name": "TRON_PAY_BALANCE_WHITE",
            "outputs": [
                {
                    "internalType": "uint256",
                    "name": "",
                    "type": "uint256"
                }
            ],
            "stateMutability": "view",
            "type": "function"
        },
        {
            "inputs": [],
            "name": "TRON_RR",
            "outputs": [
                {
                    "internalType": "uint256",
                    "name": "",
                    "type": "uint256"
                }
            ],
            "stateMutability": "view",
            "type": "function"
        },
        {
            "inputs": [],
            "name": "TRON_SOLICITADO",
            "outputs": [
                {
                    "internalType": "uint256",
                    "name": "",
                    "type": "uint256"
                }
            ],
            "stateMutability": "view",
            "type": "function"
        },
        {
            "inputs": [],
            "name": "Wallet_SR",
            "outputs": [
                {
                    "internalType": "address payable",
                    "name": "",
                    "type": "address"
                }
            ],
            "stateMutability": "view",
            "type": "function"
        },
        {
            "inputs": [
                {
                    "internalType": "uint256",
                    "name": "_value",
                    "type": "uint256"
                }
            ],
            "name": "asignarDisponible",
            "outputs": [],
            "stateMutability": "nonpayable",
            "type": "function"
        },
        {
            "inputs": [
                {
                    "internalType": "uint256",
                    "name": "_value",
                    "type": "uint256"
                }
            ],
            "name": "asignarPerdida",
            "outputs": [],
            "stateMutability": "nonpayable",
            "type": "function"
        },
        {
            "inputs": [
                {
                    "internalType": "uint256",
                    "name": "",
                    "type": "uint256"
                }
            ],
            "name": "completada",
            "outputs": [
                {
                    "internalType": "bool",
                    "name": "",
                    "type": "bool"
                }
            ],
            "stateMutability": "view",
            "type": "function"
        },
        {
            "inputs": [
                {
                    "internalType": "uint256",
                    "name": "_value",
                    "type": "uint256"
                }
            ],
            "name": "crearBRTS",
            "outputs": [
                {
                    "internalType": "bool",
                    "name": "",
                    "type": "bool"
                }
            ],
            "stateMutability": "nonpayable",
            "type": "function"
        },
        {
            "inputs": [],
            "name": "descuentoRapido",
            "outputs": [
                {
                    "internalType": "uint256",
                    "name": "",
                    "type": "uint256"
                }
            ],
            "stateMutability": "view",
            "type": "function"
        },
        {
            "inputs": [],
            "name": "donate",
            "outputs": [],
            "stateMutability": "payable",
            "type": "function"
        },
        {
            "inputs": [
                {
                    "internalType": "uint256",
                    "name": "_value",
                    "type": "uint256"
                }
            ],
            "name": "donate",
            "outputs": [],
            "stateMutability": "nonpayable",
            "type": "function"
        },
        {
            "inputs": [
                {
                    "internalType": "uint256",
                    "name": "_value",
                    "type": "uint256"
                }
            ],
            "name": "esperaRetiro",
            "outputs": [
                {
                    "internalType": "uint256",
                    "name": "order",
                    "type": "uint256"
                }
            ],
            "stateMutability": "nonpayable",
            "type": "function"
        },
        {
            "inputs": [
                {
                    "internalType": "uint256",
                    "name": "_value",
                    "type": "uint256"
                }
            ],
            "name": "gananciaDirecta",
            "outputs": [],
            "stateMutability": "nonpayable",
            "type": "function"
        },
        {
            "inputs": [],
            "name": "index",
            "outputs": [
                {
                    "internalType": "uint256",
                    "name": "",
                    "type": "uint256"
                }
            ],
            "stateMutability": "view",
            "type": "function"
        },
        {
            "inputs": [],
            "name": "iniciado",
            "outputs": [
                {
                    "internalType": "bool",
                    "name": "",
                    "type": "bool"
                }
            ],
            "stateMutability": "view",
            "type": "function"
        },
        {
            "inputs": [],
            "name": "inicializar",
            "outputs": [],
            "stateMutability": "nonpayable",
            "type": "function"
        },
        {
            "inputs": [
                {
                    "internalType": "uint256",
                    "name": "_value",
                    "type": "uint256"
                }
            ],
            "name": "instaRetiro",
            "outputs": [
                {
                    "internalType": "bool",
                    "name": "",
                    "type": "bool"
                }
            ],
            "stateMutability": "nonpayable",
            "type": "function"
        },
        {
            "inputs": [
                {
                    "internalType": "address",
                    "name": "_user",
                    "type": "address"
                }
            ],
            "name": "largoSolicitudes",
            "outputs": [
                {
                    "internalType": "uint256",
                    "name": "",
                    "type": "uint256"
                }
            ],
            "stateMutability": "view",
            "type": "function"
        },
        {
            "inputs": [
                {
                    "internalType": "address",
                    "name": "",
                    "type": "address"
                },
                {
                    "internalType": "uint256",
                    "name": "",
                    "type": "uint256"
                }
            ],
            "name": "misSolicitudes",
            "outputs": [
                {
                    "internalType": "uint256",
                    "name": "",
                    "type": "uint256"
                }
            ],
            "stateMutability": "view",
            "type": "function"
        },
        {
            "inputs": [
                {
                    "internalType": "address",
                    "name": "_newOwner",
                    "type": "address"
                }
            ],
            "name": "newOwnerBRTS",
            "outputs": [],
            "stateMutability": "nonpayable",
            "type": "function"
        },
        {
            "inputs": [],
            "name": "owner",
            "outputs": [
                {
                    "internalType": "address",
                    "name": "",
                    "type": "address"
                }
            ],
            "stateMutability": "view",
            "type": "function"
        },
        {
            "inputs": [
                {
                    "internalType": "uint256",
                    "name": "",
                    "type": "uint256"
                }
            ],
            "name": "peticiones",
            "outputs": [
                {
                    "internalType": "address",
                    "name": "wallet",
                    "type": "address"
                },
                {
                    "internalType": "uint256",
                    "name": "tiempo",
                    "type": "uint256"
                },
                {
                    "internalType": "uint256",
                    "name": "precio",
                    "type": "uint256"
                },
                {
                    "internalType": "uint256",
                    "name": "brst",
                    "type": "uint256"
                }
            ],
            "stateMutability": "view",
            "type": "function"
        },
        {
            "inputs": [],
            "name": "precision",
            "outputs": [
                {
                    "internalType": "uint256",
                    "name": "",
                    "type": "uint256"
                }
            ],
            "stateMutability": "view",
            "type": "function"
        },
        {
            "inputs": [
                {
                    "internalType": "uint256",
                    "name": "_value",
                    "type": "uint256"
                },
                {
                    "internalType": "bool",
                    "name": "_fromOwner",
                    "type": "bool"
                }
            ],
            "name": "quemarBRTS",
            "outputs": [
                {
                    "internalType": "bool",
                    "name": "",
                    "type": "bool"
                },
                {
                    "internalType": "uint256",
                    "name": "",
                    "type": "uint256"
                }
            ],
            "stateMutability": "nonpayable",
            "type": "function"
        },
        {
            "inputs": [
                {
                    "internalType": "uint256",
                    "name": "_value",
                    "type": "uint256"
                }
            ],
            "name": "redimBRTS",
            "outputs": [
                {
                    "internalType": "uint256",
                    "name": "",
                    "type": "uint256"
                }
            ],
            "stateMutability": "nonpayable",
            "type": "function"
        },
        {
            "inputs": [],
            "name": "redimOTRO",
            "outputs": [
                {
                    "internalType": "uint256",
                    "name": "",
                    "type": "uint256"
                }
            ],
            "stateMutability": "nonpayable",
            "type": "function"
        },
        {
            "inputs": [
                {
                    "internalType": "uint256",
                    "name": "_value",
                    "type": "uint256"
                }
            ],
            "name": "redimTRX",
            "outputs": [
                {
                    "internalType": "uint256",
                    "name": "",
                    "type": "uint256"
                }
            ],
            "stateMutability": "nonpayable",
            "type": "function"
        },
        {
            "inputs": [
                {
                    "internalType": "uint256",
                    "name": "_id",
                    "type": "uint256"
                }
            ],
            "name": "retirar",
            "outputs": [
                {
                    "internalType": "bool",
                    "name": "exitoso",
                    "type": "bool"
                }
            ],
            "stateMutability": "nonpayable",
            "type": "function"
        },
        {
            "inputs": [
                {
                    "internalType": "uint256",
                    "name": "_value",
                    "type": "uint256"
                }
            ],
            "name": "retirarDisponible",
            "outputs": [],
            "stateMutability": "nonpayable",
            "type": "function"
        },
        {
            "inputs": [
                {
                    "internalType": "address",
                    "name": "_user",
                    "type": "address"
                }
            ],
            "name": "retirarFrom",
            "outputs": [
                {
                    "internalType": "bool",
                    "name": "exitoso",
                    "type": "bool"
                }
            ],
            "stateMutability": "nonpayable",
            "type": "function"
        },
        {
            "inputs": [
                {
                    "internalType": "uint256",
                    "name": "_value",
                    "type": "uint256"
                }
            ],
            "name": "setDisponible",
            "outputs": [],
            "stateMutability": "nonpayable",
            "type": "function"
        },
        {
            "inputs": [
                {
                    "internalType": "address",
                    "name": "_evilUser",
                    "type": "address"
                },
                {
                    "internalType": "bool",
                    "name": "_si_no",
                    "type": "bool"
                }
            ],
            "name": "setListaNegra",
            "outputs": [],
            "stateMutability": "nonpayable",
            "type": "function"
        },
        {
            "inputs": [
                {
                    "internalType": "uint256",
                    "name": "_descuento",
                    "type": "uint256"
                },
                {
                    "internalType": "uint256",
                    "name": "_precision",
                    "type": "uint256"
                }
            ],
            "name": "setSalidaRapida",
            "outputs": [],
            "stateMutability": "nonpayable",
            "type": "function"
        },
        {
            "inputs": [
                {
                    "internalType": "uint256",
                    "name": "_tron_retiro",
                    "type": "uint256"
                }
            ],
            "name": "setTRON_RR",
            "outputs": [],
            "stateMutability": "nonpayable",
            "type": "function"
        },
        {
            "inputs": [
                {
                    "internalType": "uint256",
                    "name": "_dias",
                    "type": "uint256"
                }
            ],
            "name": "setTiempo",
            "outputs": [],
            "stateMutability": "nonpayable",
            "type": "function"
        },
        {
            "inputs": [
                {
                    "internalType": "address payable",
                    "name": "_w",
                    "type": "address"
                }
            ],
            "name": "setWalletSR",
            "outputs": [],
            "stateMutability": "nonpayable",
            "type": "function"
        },
        {
            "inputs": [
                {
                    "internalType": "address",
                    "name": "_w",
                    "type": "address"
                },
                {
                    "internalType": "bool",
                    "name": "_sn",
                    "type": "bool"
                }
            ],
            "name": "setWhiteList",
            "outputs": [],
            "stateMutability": "nonpayable",
            "type": "function"
        },
        {
            "inputs": [
                {
                    "internalType": "uint256",
                    "name": "_value",
                    "type": "uint256"
                }
            ],
            "name": "solicitudRetiro",
            "outputs": [
                {
                    "internalType": "bool",
                    "name": "",
                    "type": "bool"
                },
                {
                    "internalType": "uint256",
                    "name": "",
                    "type": "uint256"
                }
            ],
            "stateMutability": "nonpayable",
            "type": "function"
        },
        {
            "inputs": [],
            "name": "solicitudesPendientesGlobales",
            "outputs": [
                {
                    "internalType": "uint256[]",
                    "name": "pGlobales",
                    "type": "uint256[]"
                }
            ],
            "stateMutability": "view",
            "type": "function"
        },
        {
            "inputs": [],
            "name": "staking",
            "outputs": [
                {
                    "internalType": "uint256",
                    "name": "",
                    "type": "uint256"
                }
            ],
            "stateMutability": "payable",
            "type": "function"
        },
        {
            "inputs": [
                {
                    "internalType": "address",
                    "name": "_user",
                    "type": "address"
                }
            ],
            "name": "todasSolicitudes",
            "outputs": [
                {
                    "internalType": "uint256[]",
                    "name": "",
                    "type": "uint256[]"
                }
            ],
            "stateMutability": "view",
            "type": "function"
        },
        {
            "inputs": [],
            "name": "totalDisponible",
            "outputs": [
                {
                    "internalType": "uint256",
                    "name": "",
                    "type": "uint256"
                }
            ],
            "stateMutability": "view",
            "type": "function"
        },
        {
            "inputs": [
                {
                    "internalType": "address",
                    "name": "_newAdmin",
                    "type": "address"
                }
            ],
            "name": "transferOwnership",
            "outputs": [],
            "stateMutability": "nonpayable",
            "type": "function"
        },
        {
            "inputs": [
                {
                    "internalType": "uint256",
                    "name": "_id",
                    "type": "uint256"
                }
            ],
            "name": "verSolicitudPendiente",
            "outputs": [
                {
                    "components": [
                        {
                            "internalType": "address",
                            "name": "wallet",
                            "type": "address"
                        },
                        {
                            "internalType": "uint256",
                            "name": "tiempo",
                            "type": "uint256"
                        },
                        {
                            "internalType": "uint256",
                            "name": "precio",
                            "type": "uint256"
                        },
                        {
                            "internalType": "uint256",
                            "name": "brst",
                            "type": "uint256"
                        }
                    ],
                    "internalType": "struct PoolBRSTv4.Peticion",
                    "name": "pt2",
                    "type": "tuple"
                }
            ],
            "stateMutability": "view",
            "type": "function"
        },
        {
            "inputs": [
                {
                    "internalType": "address",
                    "name": "",
                    "type": "address"
                }
            ],
            "name": "whiteList",
            "outputs": [
                {
                    "internalType": "bool",
                    "name": "",
                    "type": "bool"
                }
            ],
            "stateMutability": "view",
            "type": "function"
        },
        {
            "stateMutability": "payable",
            "type": "receive"
        }
    ],
    "bytecode": "60806040526010805460ff1916600117905534801561001c575f80fd5b506128f58061002a5f395ff3fe6080604052600436106102f6575f3560e01c80638da5cb5b11610195578063d4ff5b33116100ea578063ed88c68e1161008e578063f4903cf71161006b578063f4903cf7146108f9578063f5418f631461090d578063f90b3f5a1461092c578063fcd728f51461094b57005b8063ed88c68e146108b3578063f14faf6f146108bb578063f2fde38b146108da57005b8063dd1335d0116100c7578063dd1335d014610855578063e1e158a51461086a578063e849f4481461087f578063e8b1298f1461089457005b8063d4ff5b331461080d578063d7b6e5b21461082c578063dcbe327e1461084157005b8063b15c16aa11610151578063c7c277a91161012e578063c7c277a914610751578063cc1bc86914610765578063d0ec4f91146107d9578063d3b5dc3b146107f857005b8063b15c16aa146106f4578063be5b60ef14610713578063c754f31f1461073257005b80638da5cb5b1461064557806396ba53631461065957806397fba47414610678578063a439745014610697578063a923c109146106b6578063b0698a1b146106d557005b80634cf088d91161024b578063783dec1511610207578063875b1148116101e4578063875b1148146105d457806388a4a981146105f35780638929cbc5146106125780638d14e1271461062657005b8063783dec151461056857806379fe4f961461058757806383bd8528146105bb57005b80634cf088d9146104b75780634d03c44f146104bf57806360f05ea7146104e0578063664e9704146104ff57806368adb6ea1461051357806375b2a5461461053257005b80632a1bb870116102b25780633808cd6b1161028f5780633808cd6b1461044f578063383f23a01461046457806340aabb571461048357806343849061146104a257005b80632a1bb870146103d657806336c40fc41461040d578063372c12b11461042157005b80630edd11f4146102ff57806316f6404814610342578063202bec1e1461036f578063219ec6a1146103835780632688327a146103a25780632986c0e5146103c157005b366102fd57005b005b34801561030a575f80fd5b5061032d610319366004612563565b600b6020525f908152604090205460ff1681565b60405190151581526020015b60405180910390f35b34801561034d575f80fd5b5061036161035c366004612563565b6109a6565b604051908152602001610339565b34801561037a575f80fd5b50610361610b66565b34801561038e575f80fd5b506102fd61039d36600461257a565b610ba7565b3480156103ad575f80fd5b506103616103bc366004612563565b610bba565b3480156103cc575f80fd5b50610361600f5481565b3480156103e1575f80fd5b506008546103f5906001600160a01b031681565b6040516001600160a01b039091168152602001610339565b348015610418575f80fd5b50610361610cc3565b34801561042c575f80fd5b5061032d61043b3660046125b1565b600d6020525f908152604090205460ff1681565b34801561045a575f80fd5b50610361600e5481565b34801561046f575f80fd5b506102fd61047e366004612563565b610cda565b34801561048e575f80fd5b5061032d61049d366004612563565b610cf5565b3480156104ad575f80fd5b5061036160095481565b610361610ebd565b3480156104ca575f80fd5b506104d3611069565b60405161033991906125cc565b3480156104eb575f80fd5b506102fd6104fa366004612563565b6110af565b34801561050a575f80fd5b506103616110c4565b34801561051e575f80fd5b506102fd61052d3660046125b1565b6111b1565b34801561053d575f80fd5b5061055161054c366004612563565b6111db565b604080519215158352602083019190915201610339565b348015610573575f80fd5b5061032d6105823660046125b1565b611209565b348015610592575f80fd5b506103616105a13660046125b1565b6001600160a01b03165f908152600c602052604090205490565b3480156105c6575f80fd5b5060105461032d9060ff1681565b3480156105df575f80fd5b506103616105ee366004612563565b61164b565b3480156105fe575f80fd5b506104d361060d3660046125b1565b61169d565b34801561061d575f80fd5b50610361611706565b348015610631575f80fd5b506102fd61064036600461261c565b6117c8565b348015610650575f80fd5b506103f56117fa565b348015610664575f80fd5b506102fd6106733660046125b1565b611865565b348015610683575f80fd5b506102fd610692366004612563565b61188f565b3480156106a2575f80fd5b5061032d6106b1366004612563565b61189c565b3480156106c1575f80fd5b506102fd6106d03660046125b1565b611977565b3480156106e0575f80fd5b506102fd6106ef3660046125b1565b6119a0565b3480156106ff575f80fd5b506102fd61070e36600461261c565b611a05565b34801561071e575f80fd5b506102fd61072d366004612563565b611aa1565b34801561073d575f80fd5b506102fd61074c366004612563565b600455565b34801561075c575f80fd5b50610361611abc565b348015610770575f80fd5b506107af61077f366004612563565b600a6020525f908152604090208054600182015460028301546003909301546001600160a01b0390921692909184565b604080516001600160a01b0390951685526020850193909352918301526060820152608001610339565b3480156107e4575f80fd5b506105516107f3366004612653565b611afc565b348015610803575f80fd5b5061036160065481565b348015610818575f80fd5b50610361610827366004612676565b611be8565b348015610837575f80fd5b5061036160055481565b34801561084c575f80fd5b506102fd611c13565b348015610860575f80fd5b5061036160035481565b348015610875575f80fd5b5061036160025481565b34801561088a575f80fd5b5061036160045481565b34801561089f575f80fd5b5061032d6108ae366004612563565b611c8b565b6102fd61208f565b3480156108c6575f80fd5b506102fd6108d5366004612563565b6120a1565b3480156108e5575f80fd5b506102fd6108f43660046125b1565b61214c565b348015610904575f80fd5b50600754610361565b348015610918575f80fd5b506102fd610927366004612563565b612182565b348015610937575f80fd5b506102fd610946366004612563565b612197565b348015610956575f80fd5b5061096a610965366004612563565b6121a4565b604051610339919081516001600160a01b0316815260208083015190820152604080830151908201526060918201519181019190915260800190565b5f80546040516323b872dd60e01b81526001600160a01b03909116906323b872dd906109da903390309087906004016126a0565b6020604051808303815f875af11580156109f6573d5f803e3d5ffd5b505050506040513d601f19601f82011682018060405250810190610a1a91906126c4565b610a22575f80fd5b60408051608081018252338152426020820152908101610a406110c4565b81526020908101849052600f545f908152600a82526040808220845181546001600160a01b0319166001600160a01b039182161782558585015160018301558583015160028301556060909501516003909101559054815163313ce56760e01b81529151610b2494610b1b9492169263313ce5679260048083019391928290030181865afa158015610ad4573d5f803e3d5ffd5b505050506040513d601f19601f82011682018060405250810190610af891906126df565b610b0390600a6127e2565b610b15610b0e6110c4565b8690612221565b906122ad565b60035490612310565b60035550600f8054335f908152600c6020908152604082208054600181018255908352908220018290558254919290610b5c836127f4565b9190505550919050565b5f600e54471115610ba257600454600e54610b8290479061236e565b1115610b8f575060045490565b600e54610b9d90479061236e565b905090565b505f90565b610baf6123ca565b600591909155600655565b5f610bc36123ca565b5f546040516370a0823160e01b815230600482015283916001600160a01b0316906370a0823190602401602060405180830381865afa158015610c08573d5f803e3d5ffd5b505050506040513d601f19601f82011682018060405250810190610c2c91906126df565b1015610c36575f80fd5b5f546001600160a01b031663a9059cbb610c4e6117fa565b6040516001600160e01b031960e084901b1681526001600160a01b039091166004820152602481018590526044016020604051808303815f875af1158015610c98573d5f803e3d5ffd5b505050506040513d601f19601f82011682018060405250810190610cbc91906126c4565b5090919050565b5f600e54471115610cd55750600e5490565b504790565b610ce26123ca565b600754610cef908261236e565b60075550565b5f80610d485f8054906101000a90046001600160a01b03166001600160a01b031663313ce5676040518163ffffffff1660e01b8152600401602060405180830381865afa158015610ad4573d5f803e3d5ffd5b335f908152600d602052604090205490915060ff16610d8757610d806064610b15600554600654610d79919061280c565b8490612221565b9050610d90565b610d9081612182565b80610d99610b66565b10610eb5575f546040516323b872dd60e01b81526001600160a01b03909116906323b872dd90610dd1903390309088906004016126a0565b6020604051808303815f875af1158015610ded573d5f803e3d5ffd5b505050506040513d601f19601f82011682018060405250810190610e1191906126c4565b610e19575f80fd5b5f5460405163db006a7560e01b8152600481018590526001600160a01b039091169063db006a75906024015f604051808303815f87803b158015610e5b575f80fd5b505af1158015610e6d573d5f803e3d5ffd5b505060405133925083156108fc02915083905f818181858888f19350505050158015610e9b573d5f803e3d5ffd5b50600754610ea9908261236e565b60075550600192915050565b505f92915050565b5f600254341015610ecc575f80fd5b60085460405134916001600160a01b03169082156108fc029083905f818181858888f19350505050158015610f03573d5f803e3d5ffd5b50610f86610f0f6110c4565b5f546040805163313ce56760e01b81529051610b15926001600160a01b03169163313ce5679160048083019260209291908290030181865afa158015610f57573d5f803e3d5ffd5b505050506040513d601f19601f82011682018060405250810190610f7b91906126df565b610d7990600a6127e2565b600754909150610f969034612310565b6007555f5460405163664395b360e11b8152600481018390526001600160a01b039091169063cc872b66906024015f604051808303815f87803b158015610fdb575f80fd5b505af1158015610fed573d5f803e3d5ffd5b50505f5460405163a9059cbb60e01b8152336004820152602481018590526001600160a01b03909116925063a9059cbb91506044015b6020604051808303815f875af115801561103f573d5f803e3d5ffd5b505050506040513d601f19601f8201168201806040525081019061106391906126c4565b50919050565b60605f5b600f548110156110ab575f818152600b602052604090205460ff166110995761109682826123f0565b91505b806110a3816127f4565b91505061106d565b5090565b6110b76123ca565b600754610cef9082612310565b5f8054604080516318160ddd60e01b81529051610b9d926001600160a01b0316916318160ddd9160048083019260209291908290030181865afa15801561110d573d5f803e3d5ffd5b505050506040513d601f19601f8201168201806040525081019061113191906126df565b5f546040805163313ce56760e01b81529051610b15926001600160a01b03169163313ce5679160048083019260209291908290030181865afa158015611179573d5f803e3d5ffd5b505050506040513d601f19601f8201168201806040525081019061119d91906126df565b6111a890600a6127e2565b60075490612221565b6111b96123ca565b600880546001600160a01b0319166001600160a01b0392909216919091179055565b5f806111e683610cf5565b156111f657506001925f92509050565b5f611200846109a6565b91509150915091565b5f805f6112158461169d565b90506060805f805b84518110156114645761122e6117fa565b6001600160a01b0316336001600160a01b0316148061126457506001600160a01b0388165f908152600d602052604090205460ff165b806112b05750426112ad600954600a5f8986815181106112865761128661281f565b602002602001015181526020019081526020015f206001015461231090919063ffffffff16565b10155b15611423576113ac6113a55f8054906101000a90046001600160a01b03166001600160a01b031663313ce5676040518163ffffffff1660e01b8152600401602060405180830381865afa158015611309573d5f803e3d5ffd5b505050506040513d601f19601f8201168201806040525081019061132d91906126df565b61133890600a6127e2565b610b15600a5f8a87815181106113505761135061281f565b602002602001015181526020019081526020015f2060020154600a5f8b888151811061137e5761137e61281f565b602002602001015181526020019081526020015f206003015461222190919063ffffffff16565b8790612310565b95506113ee600a5f8784815181106113c6576113c661281f565b602002602001015181526020019081526020015f20600301548361231090919063ffffffff16565b915061141c8582815181106114055761140561281f565b6020026020010151856123f090919063ffffffff16565b9350611452565b61144f8582815181106114385761143861281f565b6020026020010151846123f090919063ffffffff16565b92505b8061145c816127f4565b91505061121d565b505f8511801561147357505f81115b61147b575f80fd5b6001600160a01b0387165f908152600d602052604081205460ff16156114aa576114a3610cc3565b90506114d4565b6114b26117fa565b6001600160a01b031633036114c9576114a3610b66565b6114d1611abc565b90505b858110611640576001600160a01b0388165f908152600c6020908152604090912084516115039286019061250f565b505f5b8451811015611564576001600b5f8784815181106115265761152661281f565b602002602001015181526020019081526020015f205f6101000a81548160ff021916908315150217905550808061155c906127f4565b915050611506565b506001600160a01b0388165f908152600d602052604090205460ff161561158e5761158e86612182565b6040516001600160a01b0389169087156108fc029088905f818181858888f193505050501580156115c1573d5f803e3d5ffd5b505f5460405163db006a7560e01b8152600481018490526001600160a01b039091169063db006a75906024015f604051808303815f87803b158015611604575f80fd5b505af1158015611616573d5f803e3d5ffd5b5050600754611628925090508761236e565b600755600354611638908761236e565b600355600196505b505050505050919050565b5f6116546123ca565b81471015611660575f80fd5b6116686117fa565b6001600160a01b03166108fc8390811502906040515f60405180830381858888f19350505050158015610cbc573d5f803e3d5ffd5b6001600160a01b0381165f908152600c60209081526040918290208054835181840281018401909452808452606093928301828280156116fa57602002820191905f5260205f20905b8154815260200190600101908083116116e6575b50505050509050919050565b5f61170f6123ca565b6001546040516370a0823160e01b81523060048201525f916001600160a01b0316906370a0823190602401602060405180830381865afa158015611755573d5f803e3d5ffd5b505050506040513d601f19601f8201168201806040525081019061177991906126df565b6001549091506001600160a01b031663a9059cbb6117956117fa565b6040516001600160e01b031960e084901b1681526001600160a01b03909116600482015260248101849052604401611023565b6117d06123ca565b6001600160a01b03919091165f908152600d60205260409020805460ff1916911515919091179055565b5f80309050806001600160a01b031663f851a4406040518163ffffffff1660e01b8152600401602060405180830381865afa15801561183b573d5f803e3d5ffd5b505050506040513d601f19601f8201168201806040525081019061185f9190612833565b91505090565b61186d6123ca565b600180546001600160a01b0319166001600160a01b0392909216919091179055565b6118976123ca565b600e55565b5f6118a56123ca565b5f5460405163664395b360e11b8152600481018490526001600160a01b039091169063cc872b66906024015f604051808303815f87803b1580156118e7575f80fd5b505af11580156118f9573d5f803e3d5ffd5b50505f5460405163a9059cbb60e01b8152336004820152602481018690526001600160a01b03909116925063a9059cbb91506044016020604051808303815f875af115801561194a573d5f803e3d5ffd5b505050506040513d601f19601f8201168201806040525081019061196e91906126c4565b50600192915050565b61197f6123ca565b5f80546001600160a01b0319166001600160a01b0392909216919091179055565b6119a86123ca565b5f5460405163f2fde38b60e01b81526001600160a01b0383811660048301529091169063f2fde38b906024015b5f604051808303815f87803b1580156119ec575f80fd5b505af11580156119fe573d5f803e3d5ffd5b5050505050565b611a0d6123ca565b8015611a70575f54604051623b2e4f60e61b81526001600160a01b03848116600483015290911690630ecb93c0906024015b5f604051808303815f87803b158015611a56575f80fd5b505af1158015611a68573d5f803e3d5ffd5b505050505050565b5f5460405163e4997dc560e01b81526001600160a01b0384811660048301529091169063e4997dc590602401611a3f565b611aa96123ca565b600e54611ab69082612310565b600e5550565b5f611ad4600e5460045461231090919063ffffffff16565b471115610ba257610b9d611af5600e5460045461231090919063ffffffff16565b479061236e565b5f80611b066123ca565b8215611b87575f546040516323b872dd60e01b81526001600160a01b03909116906323b872dd90611b3f903390309089906004016126a0565b6020604051808303815f875af1158015611b5b573d5f803e3d5ffd5b505050506040513d601f19601f82011682018060405250810190611b7f91906126c4565b611b87575f80fd5b5f5460405163db006a7560e01b8152600481018690526001600160a01b039091169063db006a75906024015f604051808303815f87803b158015611bc9575f80fd5b505af1158015611bdb573d5f803e3d5ffd5b5060019795505050505050565b600c602052815f5260405f208181548110611c01575f80fd5b905f5260205f20015f91509150505481565b611c1b6123ca565b60105460ff1615611c2a575f80fd5b620f4240600255621669806009556010805460ff191660019081179091555f80546001600160a01b031990811673389ccc30de1d311738dffd3f60d4fd6188970f459081179092558254161790556005805560646006556377359400600455565b5f81600f5411611c99575f80fd5b611ca16117fa565b6001600160a01b0316336001600160a01b031614611d0c575f828152600a60209081526040808320546001600160a01b03168352600d90915290205460ff16611d0c576009545f838152600a6020526040902060010154611d0191612310565b421015611d0c575f80fd5b5f80546040805163313ce56760e01b81529051611da5926001600160a01b03169163313ce5679160048083019260209291908290030181865afa158015611d55573d5f803e3d5ffd5b505050506040513d601f19601f82011682018060405250810190611d7991906126df565b611d8490600a6127e2565b5f858152600a602052604090206002810154600390910154610b1591612221565b5f848152600a60209081526040808320546001600160a01b03168352600d9091528120549192509060ff1615611de457611ddd610cc3565b9050611e0e565b611dec6117fa565b6001600160a01b03163303611e0357611ddd610b66565b611e0b611abc565b90505b818110612088575f848152600a60209081526040808320546001600160a01b03168352600c82528083208054825181850281018501909352808352611e92938993929190830182828015611e7f57602002820191905f5260205f20905b815481526020019060010190808311611e6b575b50505050506124c090919063ffffffff16565b5f878152600a60209081526040808320546001600160a01b03168352600c909152902080549193509150611ec89060019061280c565b81548110611ed857611ed861281f565b5f918252602080832090910154878352600a82526040808420546001600160a01b03168452600c9092529120805483908110611f1657611f1661281f565b5f918252602080832090910192909255868152600a82526040808220546001600160a01b03168252600c90925220805480611f5357611f5361284e565b5f828152602080822083015f19908101839055909201909255868252600a81526040808320546001600160a01b03168352600d90915290205460ff1615611f9d57611f9d83612182565b5f858152600a60205260408082205490516001600160a01b039091169185156108fc02918691818181858888f19350505050158015611fde573d5f803e3d5ffd5b505f8054868252600a60205260409182902060030154915163db006a7560e01b815260048101929092526001600160a01b03169063db006a75906024015f604051808303815f87803b158015612032575f80fd5b505af1158015612044573d5f803e3d5ffd5b5050600754612056925090508461236e565b600755600354612066908461236e565b600355505f848152600b60205260409020805460ff1916600190811790915592505b5050919050565b60075461209c9034612310565b600755565b5f546040516323b872dd60e01b81526001600160a01b03909116906323b872dd906120d4903390309086906004016126a0565b6020604051808303815f875af11580156120f0573d5f803e3d5ffd5b505050506040513d601f19601f8201168201806040525081019061211491906126c4565b61211c575f80fd5b5f5460405163db006a7560e01b8152600481018390526001600160a01b039091169063db006a75906024016119d5565b6121546123ca565b6040516308f2839760e41b81526001600160a01b038216600482015230908190638f28397090602401611a3f565b61218a6123ca565b600e54611ab6908261236e565b61219f6123ca565b600955565b6121d460405180608001604052805f6001600160a01b031681526020015f81526020015f81526020015f81525090565b505f908152600a6020908152604091829020825160808101845281546001600160a01b03168152600182015492810192909252600281015492820192909252600390910154606082015290565b5f825f0361223057505f6122a7565b5f61223b8385612862565b9050826122488583612879565b146122a45760405162461bcd60e51b815260206004820152602160248201527f536166654d6174683a206d756c7469706c69636174696f6e206f766572666c6f6044820152607760f81b60648201526084015b60405180910390fd5b90505b92915050565b5f8082116122fd5760405162461bcd60e51b815260206004820152601a60248201527f536166654d6174683a206469766973696f6e206279207a65726f000000000000604482015260640161229b565b5f6123088385612879565b949350505050565b5f8061231c8385612898565b9050838110156122a45760405162461bcd60e51b815260206004820152601b60248201527f536166654d6174683a206164646974696f6e206f766572666c6f770000000000604482015260640161229b565b5f828211156123bf5760405162461bcd60e51b815260206004820152601e60248201527f536166654d6174683a207375627472616374696f6e206f766572666c6f770000604482015260640161229b565b5f612308838561280c565b6123d26117fa565b6001600160a01b0316336001600160a01b0316146123ee575f80fd5b565b60605f835160016124019190612898565b67ffffffffffffffff811115612419576124196128ab565b604051908082528060200260200182016040528015612442578160200160208202803683370190505b5090505f5b8451811015612499578481815181106124625761246261281f565b602002602001015182828151811061247c5761247c61281f565b602090810291909101015280612491816127f4565b915050612447565b5082818551815181106124ae576124ae61281f565b60209081029190910101529392505050565b5f805f5b845181101561250757838582815181106124e0576124e061281f565b6020026020010151036124f557600192508091505b806124ff816127f4565b9150506124c4565b509250929050565b828054828255905f5260205f20908101928215612548579160200282015b8281111561254857825182559160200191906001019061252d565b506110ab9291505b808211156110ab575f8155600101612550565b5f60208284031215612573575f80fd5b5035919050565b5f806040838503121561258b575f80fd5b50508035926020909101359150565b6001600160a01b03811681146125ae575f80fd5b50565b5f602082840312156125c1575f80fd5b81356122a48161259a565b602080825282518282018190525f9190848201906040850190845b81811015612603578351835292840192918401916001016125e7565b50909695505050505050565b80151581146125ae575f80fd5b5f806040838503121561262d575f80fd5b82356126388161259a565b915060208301356126488161260f565b809150509250929050565b5f8060408385031215612664575f80fd5b8235915060208301356126488161260f565b5f8060408385031215612687575f80fd5b82356126928161259a565b946020939093013593505050565b6001600160a01b039384168152919092166020820152604081019190915260600190565b5f602082840312156126d4575f80fd5b81516122a48161260f565b5f602082840312156126ef575f80fd5b5051919050565b634e487b7160e01b5f52601160045260245ffd5b600181815b8085111561250757815f190482111561272a5761272a6126f6565b8085161561273757918102915b93841c939080029061270f565b5f82612752575060016122a7565b8161275e57505f6122a7565b8160018114612774576002811461277e5761279a565b60019150506122a7565b60ff84111561278f5761278f6126f6565b50506001821b6122a7565b5060208310610133831016604e8410600b84101617156127bd575081810a6122a7565b6127c7838361270a565b805f19048211156127da576127da6126f6565b029392505050565b5f6127ed8383612744565b9392505050565b5f60018201612805576128056126f6565b5060010190565b818103818111156122a7576122a76126f6565b634e487b7160e01b5f52603260045260245ffd5b5f60208284031215612843575f80fd5b81516122a48161259a565b634e487b7160e01b5f52603160045260245ffd5b80820281158282048414176122a7576122a76126f6565b5f8261289357634e487b7160e01b5f52601260045260245ffd5b500490565b808201808211156122a7576122a76126f6565b634e487b7160e01b5f52604160045260245ffdfea26469706673582212205a1ee053a8eb70e65b198d46388249919e2944afdbf83ff8ef1adc601564248964736f6c63430008140033",
    "sourcePath": "c:/Users/STC/Documents/GitHub/BRUTUS-TOKEN/contracts/BRST POOL/Pool-BRST-v4.sol",
    "compiler": {
        "name": "solc",
        "version": "0.8.20+commit.a1b79de6"
    },
    "functionHashes": {
        "ChangeToken(address)": "a923c109",
        "ChangeTokenOTRO(address)": "96ba5363",
        "MIN_DEPOSIT()": "e1e158a5",
        "RATE()": "664e9704",
        "TIEMPO()": "43849061",
        "TRON_BALANCE()": "f4903cf7",
        "TRON_PAY_BALANCE()": "c7c277a9",
        "TRON_PAY_BALANCE_FAST()": "202bec1e",
        "TRON_PAY_BALANCE_WHITE()": "36c40fc4",
        "TRON_RR()": "e849f448",
        "TRON_SOLICITADO()": "dd1335d0",
        "Wallet_SR()": "2a1bb870",
        "asignarDisponible(uint256)": "be5b60ef",
        "asignarPerdida(uint256)": "383f23a0",
        "completada(uint256)": "0edd11f4",
        "crearBRTS(uint256)": "a4397450",
        "descuentoRapido()": "d7b6e5b2",
        "donate()": "ed88c68e",
        "donate(uint256)": "f14faf6f",
        "esperaRetiro(uint256)": "16f64048",
        "gananciaDirecta(uint256)": "60f05ea7",
        "index()": "2986c0e5",
        "iniciado()": "83bd8528",
        "inicializar()": "dcbe327e",
        "instaRetiro(uint256)": "40aabb57",
        "largoSolicitudes(address)": "79fe4f96",
        "misSolicitudes(address,uint256)": "d4ff5b33",
        "newOwnerBRTS(address)": "b0698a1b",
        "owner()": "8da5cb5b",
        "peticiones(uint256)": "cc1bc869",
        "precision()": "d3b5dc3b",
        "quemarBRTS(uint256,bool)": "d0ec4f91",
        "redimBRTS(uint256)": "2688327a",
        "redimOTRO()": "8929cbc5",
        "redimTRX(uint256)": "875b1148",
        "retirar(uint256)": "e8b1298f",
        "retirarDisponible(uint256)": "f5418f63",
        "retirarFrom(address)": "783dec15",
        "setDisponible(uint256)": "97fba474",
        "setListaNegra(address,bool)": "b15c16aa",
        "setSalidaRapida(uint256,uint256)": "219ec6a1",
        "setTRON_RR(uint256)": "c754f31f",
        "setTiempo(uint256)": "f90b3f5a",
        "setWalletSR(address)": "68adb6ea",
        "setWhiteList(address,bool)": "8d14e127",
        "solicitudRetiro(uint256)": "75b2a546",
        "solicitudesPendientesGlobales()": "4d03c44f",
        "staking()": "4cf088d9",
        "todasSolicitudes(address)": "88a4a981",
        "totalDisponible()": "3808cd6b",
        "transferOwnership(address)": "f2fde38b",
        "verSolicitudPendiente(uint256)": "fcd728f5",
        "whiteList(address)": "372c12b1"
    },
    "gasEstimates": {
        "creation": {
            "codeDepositCost": "2097000",
            "executionCost": "26451",
            "totalCost": "2123451"
        },
        "external": {
            "": "251",
            "ChangeToken(address)": "infinite",
            "ChangeTokenOTRO(address)": "infinite",
            "MIN_DEPOSIT()": "2383",
            "RATE()": "infinite",
            "TIEMPO()": "2428",
            "TRON_BALANCE()": "2357",
            "TRON_PAY_BALANCE()": "infinite",
            "TRON_PAY_BALANCE_FAST()": "infinite",
            "TRON_PAY_BALANCE_WHITE()": "4528",
            "TRON_RR()": "2405",
            "TRON_SOLICITADO()": "2361",
            "Wallet_SR()": "2405",
            "asignarDisponible(uint256)": "infinite",
            "asignarPerdida(uint256)": "infinite",
            "completada(uint256)": "2483",
            "crearBRTS(uint256)": "infinite",
            "descuentoRapido()": "2384",
            "donate()": "infinite",
            "donate(uint256)": "infinite",
            "esperaRetiro(uint256)": "infinite",
            "gananciaDirecta(uint256)": "infinite",
            "index()": "2451",
            "iniciado()": "2410",
            "inicializar()": "infinite",
            "instaRetiro(uint256)": "infinite",
            "largoSolicitudes(address)": "2622",
            "misSolicitudes(address,uint256)": "4799",
            "newOwnerBRTS(address)": "infinite",
            "owner()": "infinite",
            "peticiones(uint256)": "8968",
            "precision()": "2427",
            "quemarBRTS(uint256,bool)": "infinite",
            "redimBRTS(uint256)": "infinite",
            "redimOTRO()": "infinite",
            "redimTRX(uint256)": "infinite",
            "retirar(uint256)": "infinite",
            "retirarDisponible(uint256)": "infinite",
            "retirarFrom(address)": "infinite",
            "setDisponible(uint256)": "infinite",
            "setListaNegra(address,bool)": "infinite",
            "setSalidaRapida(uint256,uint256)": "infinite",
            "setTRON_RR(uint256)": "22422",
            "setTiempo(uint256)": "infinite",
            "setWalletSR(address)": "infinite",
            "setWhiteList(address,bool)": "infinite",
            "solicitudRetiro(uint256)": "infinite",
            "solicitudesPendientesGlobales()": "infinite",
            "staking()": "infinite",
            "todasSolicitudes(address)": "infinite",
            "totalDisponible()": "2362",
            "transferOwnership(address)": "infinite",
            "verSolicitudPendiente(uint256)": "9287",
            "whiteList(address)": "2628"
        },
        "internal": {
            "onlyOwner()": "infinite"
        }
    }
}