{
    "contractName": "StorageV1",
    "abi": [
        {
            "inputs": [],
            "name": "Token_1",
            "outputs": [
                {
                    "internalType": "address",
                    "name": "",
                    "type": "address"
                }
            ],
            "stateMutability": "view",
            "type": "function"
        },
        {
            "inputs": [],
            "name": "Token_2",
            "outputs": [
                {
                    "internalType": "address",
                    "name": "",
                    "type": "address"
                }
            ],
            "stateMutability": "view",
            "type": "function"
        }
    ],
    "bytecode": "6080806040523461002257600160ff19600654161760065560b790816100278239f35b5f80fdfe60808060405260043610156011575f80fd5b5f90813560e01c908163014a897d14605a5750633ad0486b146031575f80fd5b34605757806003193601126057576003546040516001600160a01b039091168152602090f35b80fd5b905034607d5781600319360112607d576004546001600160a01b03168152602090f35b5080fdfea2646970667358221220df858f9e4af63ba86b464e8e47eecdac3fd32696c24c49762bb79ef037d348ee64736f6c63430008140033",
    "sourcePath": "c:/Users/Steven/Documents/GitHub/BRUTUS-TOKEN/contracts/BRUT POOOL/Fast-Swap.pool_proxy/simpleSwapV4.0.sol",
    "compiler": {
        "name": "solc",
        "version": "0.8.20+commit.a1b79de6"
    },
    "functionHashes": {
        "Token_1()": "3ad0486b",
        "Token_2()": "014a897d"
    },
    "gasEstimates": {
        "creation": {
            "codeDepositCost": "36600",
            "executionCost": "24314",
            "totalCost": "60914"
        },
        "external": {
            "Token_1()": "2306",
            "Token_2()": "2278"
        }
    }
}