{
    "contractName": "TokenSaleImplementation",
    "abi": [
        {
            "stateMutability": "payable",
            "type": "fallback"
        },
        {
            "inputs": [
                {
                    "internalType": "uint256",
                    "name": "amount",
                    "type": "uint256"
                }
            ],
            "name": "burnTokens",
            "outputs": [],
            "stateMutability": "nonpayable",
            "type": "function"
        },
        {
            "inputs": [
                {
                    "internalType": "uint256",
                    "name": "packageId",
                    "type": "uint256"
                }
            ],
            "name": "buy",
            "outputs": [],
            "stateMutability": "nonpayable",
            "type": "function"
        },
        {
            "inputs": [
                {
                    "internalType": "address",
                    "name": "newOwner",
                    "type": "address"
                }
            ],
            "name": "changeOwner",
            "outputs": [],
            "stateMutability": "nonpayable",
            "type": "function"
        },
        {
            "inputs": [
                {
                    "internalType": "address",
                    "name": "newPaymentwallet",
                    "type": "address"
                }
            ],
            "name": "changePaymentWallet",
            "outputs": [],
            "stateMutability": "nonpayable",
            "type": "function"
        },
        {
            "inputs": [
                {
                    "internalType": "address",
                    "name": "newToken",
                    "type": "address"
                }
            ],
            "name": "changeSaleToken",
            "outputs": [],
            "stateMutability": "nonpayable",
            "type": "function"
        },
        {
            "inputs": [
                {
                    "internalType": "address",
                    "name": "newOwner",
                    "type": "address"
                }
            ],
            "name": "changeSaleTokenOwner",
            "outputs": [],
            "stateMutability": "nonpayable",
            "type": "function"
        },
        {
            "inputs": [
                {
                    "internalType": "uint256",
                    "name": "id",
                    "type": "uint256"
                }
            ],
            "name": "deletePackage",
            "outputs": [],
            "stateMutability": "nonpayable",
            "type": "function"
        },
        {
            "inputs": [
                {
                    "internalType": "address",
                    "name": "_usddToken",
                    "type": "address"
                },
                {
                    "internalType": "address",
                    "name": "_saleToken",
                    "type": "address"
                }
            ],
            "name": "initialize",
            "outputs": [],
            "stateMutability": "nonpayable",
            "type": "function"
        },
        {
            "inputs": [
                {
                    "internalType": "uint256",
                    "name": "amount",
                    "type": "uint256"
                }
            ],
            "name": "issueTokens",
            "outputs": [],
            "stateMutability": "nonpayable",
            "type": "function"
        },
        {
            "inputs": [],
            "name": "owner",
            "outputs": [
                {
                    "internalType": "address",
                    "name": "",
                    "type": "address"
                }
            ],
            "stateMutability": "view",
            "type": "function"
        },
        {
            "inputs": [
                {
                    "internalType": "uint256",
                    "name": "",
                    "type": "uint256"
                }
            ],
            "name": "packages",
            "outputs": [
                {
                    "internalType": "uint256",
                    "name": "amount",
                    "type": "uint256"
                },
                {
                    "internalType": "uint256",
                    "name": "price",
                    "type": "uint256"
                }
            ],
            "stateMutability": "view",
            "type": "function"
        },
        {
            "inputs": [],
            "name": "paymentToken",
            "outputs": [
                {
                    "internalType": "contract TRC20_Interface",
                    "name": "",
                    "type": "address"
                }
            ],
            "stateMutability": "view",
            "type": "function"
        },
        {
            "inputs": [],
            "name": "paymentWallet",
            "outputs": [
                {
                    "internalType": "address",
                    "name": "",
                    "type": "address"
                }
            ],
            "stateMutability": "view",
            "type": "function"
        },
        {
            "inputs": [],
            "name": "reciveSaleTokenOwnership",
            "outputs": [],
            "stateMutability": "nonpayable",
            "type": "function"
        },
        {
            "inputs": [],
            "name": "saleToken",
            "outputs": [
                {
                    "internalType": "contract TRC20_Interface",
                    "name": "",
                    "type": "address"
                }
            ],
            "stateMutability": "view",
            "type": "function"
        },
        {
            "inputs": [
                {
                    "internalType": "uint256",
                    "name": "id",
                    "type": "uint256"
                },
                {
                    "internalType": "uint256",
                    "name": "amount",
                    "type": "uint256"
                },
                {
                    "internalType": "uint256",
                    "name": "price",
                    "type": "uint256"
                }
            ],
            "name": "setPackage",
            "outputs": [],
            "stateMutability": "nonpayable",
            "type": "function"
        },
        {
            "inputs": [
                {
                    "internalType": "address",
                    "name": "to",
                    "type": "address"
                },
                {
                    "internalType": "uint256",
                    "name": "amount",
                    "type": "uint256"
                },
                {
                    "internalType": "address",
                    "name": "use_token",
                    "type": "address"
                }
            ],
            "name": "withdrawSupport",
            "outputs": [],
            "stateMutability": "nonpayable",
            "type": "function"
        },
        {
            "stateMutability": "payable",
            "type": "receive"
        }
    ],
    "bytecode": "6080806040523461001657610a50908161001b8239f35b5f80fdfe608060408181526004918236101561001f575b505050361561001d57005b005b5f92833560e01c9182633013ce291461092157508163485cc95514610884578163598eb5bb1461078a578382636d1b229d1461071a575081637a09e028146106d057816382447134146106265783826385a9576c146105b5575081638da5cb5b1461058d5783826395d65f9e14610530578263a5820daa146104ac57508163a6f9dae114610464578163c216212a14610433578163cad00556146103e657838263d71c1008146103a757508163d96a094a1461014457508063e32204dd1461011c5763e985e367146100f15780610012565b3461011857816003193601126101185760035490516001600160a01b039091168152602090f35b5080fd5b503461011857816003193601126101185760015490516001600160a01b039091168152602090f35b919050346102f757602090816003193601126103a35782358452828252808420815190610170826109c4565b60018154918284520154908483019182521561036a57600254600154915184516323b872dd60e01b815233888201526001600160a01b0393841660248201526044810191909152908590829060649082908b9087165af1908115610360578791610343575b50156103095790818692600354168251813b15610305578491602483928851948593849263664395b360e11b84528d8401525af180156102fb578693929185916102dc575b50506003549151855163a9059cbb60e01b815233898201908152602081019290925294859391849003604001928492165af19081156102d25785916102a5575b5015610264578380f35b5162461bcd60e51b815291820152601860248201527f456e747265676120646520746f6b656e2066616c6c6964610000000000000000604482015260649150fd5b6102c59150833d85116102cb575b6102bd81836109e0565b810190610a02565b5f61025a565b503d6102b3565b82513d87823e3d90fd5b6102e9919293945061099c565b6102f757908491835f61021a565b8280fd5b85513d86823e3d90fd5b8480fd5b50505162461bcd60e51b81529182015260146024820152735061676f20706171756574652066616c6c69646f60601b604482015260649150fd5b61035a9150853d87116102cb576102bd81836109e0565b5f6101d5565b84513d89823e3d90fd5b50505162461bcd60e51b81529182015260136024820152725061717565746520696e6578697374656e746560681b604482015260649150fd5b8380fd5b809184346103e25760203660031901126103e2576001916103d1838060a01b038554163314610960565b803584526020528220828155015580f35b5050fd5b833461043057602036600319011261043057610400610946565b81546001600160a01b0391906104199083163314610960565b166001600160601b0360a01b600154161760015580f35b80fd5b9050346102f75760203660031901126102f75791828293358252602052206001815491015482519182526020820152f35b83346104305760203660031901126104305761047e610946565b81546001600160a01b0391906104979083163314610960565b166001600160601b0360a01b5f5416175f5580f35b809184346103e25760203660031901126103e25782546001600160a01b03906104d89082163314610960565b6003541691823b1561052b578392602484928451958693849263664395b360e11b84528035908401525af190811561052257506105125750f35b61051b9061099c565b6104305780f35b513d84823e3d90fd5b505050fd5b809184346103e257826003193601126103e25782546001600160a01b039061055b9082163314610960565b6003541691823b1561052b57815163738765ef60e01b81529284918491829084905af190811561052257506105125750f35b505034610118578160031936011261011857905490516001600160a01b039091168152602090f35b809184346103e25760203660031901126103e2576105d1610946565b83546001600160a01b03906105e99082163314610960565b8060035416803b15610622578592836024928651978895869463f2fde38b60e01b865216908401525af190811561052257506105125750f35b8580fd5b9050346102f75760603660031901126102f757602435916044359161065560018060a01b038654163314610960565b831515806106c7575b15610691579060019291815194610674866109c4565b855260208501928352803586526020528420925183555191015580f35b6020606492519162461bcd60e51b8352820152601160248201527056616c6f72657320696e76616c69646f7360781b6044820152fd5b5082151561065e565b8334610430576020366003190112610430576106ea610946565b81546001600160a01b0391906107039083163314610960565b166001600160601b0360a01b600354161760035580f35b929150346103e25760203660031901126103e25782546001600160a01b03906107469082163314610960565b60035416803b1561052b57602484928451958693849263db006a7560e01b84528035908401525af1908115610522575061077e575080f35b6107879061099c565b80f35b919050346102f75760603660031901126102f757826107a7610946565b6001600160a01b03604435818116908190036103a3576020926107d1610806938654163314610960565b855163a9059cbb60e01b81526001600160a01b0390911687820190815260243560208201529094859384928391604090910190565b03925af190811561087a57849161085c575b5015610822578280f35b906020606492519162461bcd60e51b8352820152601460248201527352657469726f20746f6b656e2066616c6c69646f60601b6044820152fd5b610874915060203d81116102cb576102bd81836109e0565b5f610818565b82513d86823e3d90fd5b919050346102f757806003193601126102f75761089f610946565b6024356001600160a01b0381811694909291859003610622578554938385166108ec5750506001600160601b0360a01b928333911617855516816002541617600255600354161760035580f35b906020606492519162461bcd60e51b8352820152600f60248201526e596120696e696369616c697a61646f60881b6044820152fd5b8490346101185781600319360112610118576002546001600160a01b03168152602090f35b600435906001600160a01b038216820361095c57565b5f80fd5b1561096757565b60405162461bcd60e51b815260206004820152600d60248201526c4e6f206175746f72697a61646f60981b6044820152606490fd5b67ffffffffffffffff81116109b057604052565b634e487b7160e01b5f52604160045260245ffd5b6040810190811067ffffffffffffffff8211176109b057604052565b90601f8019910116810190811067ffffffffffffffff8211176109b057604052565b9081602091031261095c5751801515810361095c579056fea2646970667358221220da69b06f0953127241f50c98c35841f9d220bb9a61e9c8f52db56593921071d864736f6c63430008140033",
    "sourcePath": "c:/Users/Steven/Documents/GitHub/BRUTUS-TOKEN/contracts/Token Sale/TokenSale-v1.sol",
    "compiler": {
        "name": "solc",
        "version": "0.8.20+commit.a1b79de6"
    },
    "functionHashes": {
        "burnTokens(uint256)": "6d1b229d",
        "buy(uint256)": "d96a094a",
        "changeOwner(address)": "a6f9dae1",
        "changePaymentWallet(address)": "cad00556",
        "changeSaleToken(address)": "7a09e028",
        "changeSaleTokenOwner(address)": "85a9576c",
        "deletePackage(uint256)": "d71c1008",
        "initialize(address,address)": "485cc955",
        "issueTokens(uint256)": "a5820daa",
        "owner()": "8da5cb5b",
        "packages(uint256)": "c216212a",
        "paymentToken()": "3013ce29",
        "paymentWallet()": "e32204dd",
        "reciveSaleTokenOwnership()": "95d65f9e",
        "saleToken()": "e985e367",
        "setPackage(uint256,uint256,uint256)": "82447134",
        "withdrawSupport(address,uint256,address)": "598eb5bb"
    },
    "gasEstimates": {
        "creation": {
            "codeDepositCost": "528000",
            "executionCost": "569",
            "totalCost": "528569"
        },
        "external": {
            "": "510",
            "burnTokens(uint256)": "infinite",
            "buy(uint256)": "infinite",
            "changeOwner(address)": "26871",
            "changePaymentWallet(address)": "26917",
            "changeSaleToken(address)": "26731",
            "changeSaleTokenOwner(address)": "infinite",
            "deletePackage(uint256)": "12705",
            "initialize(address,address)": "73018",
            "issueTokens(uint256)": "infinite",
            "owner()": "2464",
            "packages(uint256)": "4724",
            "paymentToken()": "2288",
            "paymentWallet()": "2650",
            "reciveSaleTokenOwnership()": "infinite",
            "saleToken()": "2667",
            "setPackage(uint256,uint256,uint256)": "46928",
            "withdrawSupport(address,uint256,address)": "infinite"
        }
    }
}