{
    "contractName": "TRC20Detailed",
    "abi": [
        {
            "inputs": [
                {
                    "internalType": "string",
                    "name": "_name",
                    "type": "string"
                },
                {
                    "internalType": "string",
                    "name": "_symbol",
                    "type": "string"
                },
                {
                    "internalType": "uint8",
                    "name": "_decimals",
                    "type": "uint8"
                },
                {
                    "internalType": "uint256",
                    "name": "initialSupply",
                    "type": "uint256"
                }
            ],
            "stateMutability": "nonpayable",
            "type": "constructor"
        },
        {
            "anonymous": false,
            "inputs": [
                {
                    "indexed": true,
                    "internalType": "address",
                    "name": "_user",
                    "type": "address"
                }
            ],
            "name": "AddedBlackList",
            "type": "event"
        },
        {
            "anonymous": false,
            "inputs": [
                {
                    "indexed": true,
                    "internalType": "address",
                    "name": "owner",
                    "type": "address"
                },
                {
                    "indexed": true,
                    "internalType": "address",
                    "name": "spender",
                    "type": "address"
                },
                {
                    "indexed": false,
                    "internalType": "uint256",
                    "name": "value",
                    "type": "uint256"
                }
            ],
            "name": "Approval",
            "type": "event"
        },
        {
            "anonymous": false,
            "inputs": [
                {
                    "indexed": true,
                    "internalType": "address",
                    "name": "_blackListedUser",
                    "type": "address"
                },
                {
                    "indexed": false,
                    "internalType": "uint256",
                    "name": "_balance",
                    "type": "uint256"
                }
            ],
            "name": "DestroyedBlackFunds",
            "type": "event"
        },
        {
            "anonymous": false,
            "inputs": [
                {
                    "indexed": false,
                    "internalType": "uint256",
                    "name": "value",
                    "type": "uint256"
                }
            ],
            "name": "Issue",
            "type": "event"
        },
        {
            "anonymous": false,
            "inputs": [
                {
                    "indexed": true,
                    "internalType": "address",
                    "name": "previousOwner",
                    "type": "address"
                },
                {
                    "indexed": true,
                    "internalType": "address",
                    "name": "newOwner",
                    "type": "address"
                }
            ],
            "name": "OwnershipTransferred",
            "type": "event"
        },
        {
            "anonymous": false,
            "inputs": [
                {
                    "indexed": false,
                    "internalType": "uint256",
                    "name": "value",
                    "type": "uint256"
                }
            ],
            "name": "Redeem",
            "type": "event"
        },
        {
            "anonymous": false,
            "inputs": [
                {
                    "indexed": true,
                    "internalType": "address",
                    "name": "_user",
                    "type": "address"
                }
            ],
            "name": "RemovedBlackList",
            "type": "event"
        },
        {
            "anonymous": false,
            "inputs": [
                {
                    "indexed": true,
                    "internalType": "address",
                    "name": "from",
                    "type": "address"
                },
                {
                    "indexed": true,
                    "internalType": "address",
                    "name": "to",
                    "type": "address"
                },
                {
                    "indexed": false,
                    "internalType": "uint256",
                    "name": "value",
                    "type": "uint256"
                }
            ],
            "name": "Transfer",
            "type": "event"
        },
        {
            "inputs": [
                {
                    "internalType": "address",
                    "name": "_evilUser",
                    "type": "address"
                }
            ],
            "name": "addBlackList",
            "outputs": [],
            "stateMutability": "nonpayable",
            "type": "function"
        },
        {
            "inputs": [
                {
                    "internalType": "address",
                    "name": "owner",
                    "type": "address"
                },
                {
                    "internalType": "address",
                    "name": "spender",
                    "type": "address"
                }
            ],
            "name": "allowance",
            "outputs": [
                {
                    "internalType": "uint256",
                    "name": "",
                    "type": "uint256"
                }
            ],
            "stateMutability": "view",
            "type": "function"
        },
        {
            "inputs": [
                {
                    "internalType": "address",
                    "name": "spender",
                    "type": "address"
                },
                {
                    "internalType": "uint256",
                    "name": "value",
                    "type": "uint256"
                }
            ],
            "name": "approve",
            "outputs": [
                {
                    "internalType": "bool",
                    "name": "",
                    "type": "bool"
                }
            ],
            "stateMutability": "nonpayable",
            "type": "function"
        },
        {
            "inputs": [
                {
                    "internalType": "address",
                    "name": "account",
                    "type": "address"
                }
            ],
            "name": "balanceOf",
            "outputs": [
                {
                    "internalType": "uint256",
                    "name": "",
                    "type": "uint256"
                }
            ],
            "stateMutability": "view",
            "type": "function"
        },
        {
            "inputs": [],
            "name": "decimals",
            "outputs": [
                {
                    "internalType": "uint8",
                    "name": "",
                    "type": "uint8"
                }
            ],
            "stateMutability": "view",
            "type": "function"
        },
        {
            "inputs": [
                {
                    "internalType": "address",
                    "name": "spender",
                    "type": "address"
                },
                {
                    "internalType": "uint256",
                    "name": "subtractedValue",
                    "type": "uint256"
                }
            ],
            "name": "decreaseAllowance",
            "outputs": [
                {
                    "internalType": "bool",
                    "name": "",
                    "type": "bool"
                }
            ],
            "stateMutability": "nonpayable",
            "type": "function"
        },
        {
            "inputs": [
                {
                    "internalType": "address",
                    "name": "_blackListedUser",
                    "type": "address"
                }
            ],
            "name": "destroyBlackFunds",
            "outputs": [],
            "stateMutability": "nonpayable",
            "type": "function"
        },
        {
            "inputs": [
                {
                    "internalType": "address",
                    "name": "spender",
                    "type": "address"
                },
                {
                    "internalType": "uint256",
                    "name": "addedValue",
                    "type": "uint256"
                }
            ],
            "name": "increaseAllowance",
            "outputs": [
                {
                    "internalType": "bool",
                    "name": "",
                    "type": "bool"
                }
            ],
            "stateMutability": "nonpayable",
            "type": "function"
        },
        {
            "inputs": [
                {
                    "internalType": "address",
                    "name": "",
                    "type": "address"
                }
            ],
            "name": "isBlackListed",
            "outputs": [
                {
                    "internalType": "bool",
                    "name": "",
                    "type": "bool"
                }
            ],
            "stateMutability": "view",
            "type": "function"
        },
        {
            "inputs": [
                {
                    "internalType": "uint256",
                    "name": "amount",
                    "type": "uint256"
                }
            ],
            "name": "issue",
            "outputs": [],
            "stateMutability": "nonpayable",
            "type": "function"
        },
        {
            "inputs": [],
            "name": "name",
            "outputs": [
                {
                    "internalType": "string",
                    "name": "",
                    "type": "string"
                }
            ],
            "stateMutability": "view",
            "type": "function"
        },
        {
            "inputs": [],
            "name": "owner",
            "outputs": [
                {
                    "internalType": "address",
                    "name": "",
                    "type": "address"
                }
            ],
            "stateMutability": "view",
            "type": "function"
        },
        {
            "inputs": [
                {
                    "internalType": "uint256",
                    "name": "amount",
                    "type": "uint256"
                }
            ],
            "name": "redeem",
            "outputs": [],
            "stateMutability": "nonpayable",
            "type": "function"
        },
        {
            "inputs": [
                {
                    "internalType": "address",
                    "name": "_clearedUser",
                    "type": "address"
                }
            ],
            "name": "removeBlackList",
            "outputs": [],
            "stateMutability": "nonpayable",
            "type": "function"
        },
        {
            "inputs": [],
            "name": "symbol",
            "outputs": [
                {
                    "internalType": "string",
                    "name": "",
                    "type": "string"
                }
            ],
            "stateMutability": "view",
            "type": "function"
        },
        {
            "inputs": [],
            "name": "totalSupply",
            "outputs": [
                {
                    "internalType": "uint256",
                    "name": "",
                    "type": "uint256"
                }
            ],
            "stateMutability": "view",
            "type": "function"
        },
        {
            "inputs": [
                {
                    "internalType": "address",
                    "name": "recipient",
                    "type": "address"
                },
                {
                    "internalType": "uint256",
                    "name": "amount",
                    "type": "uint256"
                }
            ],
            "name": "transfer",
            "outputs": [
                {
                    "internalType": "bool",
                    "name": "",
                    "type": "bool"
                }
            ],
            "stateMutability": "nonpayable",
            "type": "function"
        },
        {
            "inputs": [
                {
                    "internalType": "address",
                    "name": "sender",
                    "type": "address"
                },
                {
                    "internalType": "address",
                    "name": "recipient",
                    "type": "address"
                },
                {
                    "internalType": "uint256",
                    "name": "amount",
                    "type": "uint256"
                }
            ],
            "name": "transferFrom",
            "outputs": [
                {
                    "internalType": "bool",
                    "name": "",
                    "type": "bool"
                }
            ],
            "stateMutability": "nonpayable",
            "type": "function"
        },
        {
            "inputs": [
                {
                    "internalType": "address",
                    "name": "newOwner",
                    "type": "address"
                }
            ],
            "name": "transferOwnership",
            "outputs": [],
            "stateMutability": "nonpayable",
            "type": "function"
        }
    ],
    "bytecode": "60806040523480156200001157600080fd5b506040516200153c3803806200153c8339810160408190526200003491620002e2565b600080546001600160a01b031916331790556005620000548582620003fc565b506006620000638482620003fc565b506007805460ff191660ff84169081179091556200009c9033906200008a90600a620005db565b620000969084620005f0565b620000a6565b5050505062000620565b6001600160a01b038216620001025760405162461bcd60e51b815260206004820152601f60248201527f45524332303a206d696e7420746f20746865207a65726f20616464726573730060448201526064015b60405180910390fd5b6200011e81600454620001b160201b620007721790919060201c565b6004556001600160a01b0382166000908152600260209081526040909120546200015391839062000772620001b1821b17901c565b6001600160a01b0383166000818152600260205260408082209390935591519091907fddf252ad1be2c89b69c2b068fc378daa952ba7f163c4a11628f55a4df523b3ef90620001a59085815260200190565b60405180910390a35050565b600080620001c083856200060a565b905083811015620002145760405162461bcd60e51b815260206004820152601b60248201527f536166654d6174683a206164646974696f6e206f766572666c6f7700000000006044820152606401620000f9565b90505b92915050565b634e487b7160e01b600052604160045260246000fd5b600082601f8301126200024557600080fd5b81516001600160401b03808211156200026257620002626200021d565b604051601f8301601f19908116603f011681019082821181831017156200028d576200028d6200021d565b81604052838152602092508683858801011115620002aa57600080fd5b600091505b83821015620002ce5785820183015181830184015290820190620002af565b600093810190920192909252949350505050565b60008060008060808587031215620002f957600080fd5b84516001600160401b03808211156200031157600080fd5b6200031f8883890162000233565b955060208701519150808211156200033657600080fd5b50620003458782880162000233565b935050604085015160ff811681146200035d57600080fd5b6060959095015193969295505050565b600181811c908216806200038257607f821691505b602082108103620003a357634e487b7160e01b600052602260045260246000fd5b50919050565b601f821115620003f757600081815260208120601f850160051c81016020861015620003d25750805b601f850160051c820191505b81811015620003f357828155600101620003de565b5050505b505050565b81516001600160401b038111156200041857620004186200021d565b62000430816200042984546200036d565b84620003a9565b602080601f8311600181146200046857600084156200044f5750858301515b600019600386901b1c1916600185901b178555620003f3565b600085815260208120601f198616915b82811015620004995788860151825594840194600190910190840162000478565b5085821015620004b85787850151600019600388901b60f8161c191681555b5050505050600190811b01905550565b634e487b7160e01b600052601160045260246000fd5b600181815b808511156200051f578160001904821115620005035762000503620004c8565b808516156200051157918102915b93841c9390800290620004e3565b509250929050565b600082620005385750600162000217565b81620005475750600062000217565b81600181146200056057600281146200056b576200058b565b600191505062000217565b60ff8411156200057f576200057f620004c8565b50506001821b62000217565b5060208310610133831016604e8410600b8410161715620005b0575081810a62000217565b620005bc8383620004de565b8060001904821115620005d357620005d3620004c8565b029392505050565b6000620005e9838362000527565b9392505050565b8082028115828204841417620002175762000217620004c8565b80820180821115620002175762000217620004c8565b610f0c80620006306000396000f3fe608060405234801561001057600080fd5b50600436106101215760003560e01c806395d89b41116100ad578063dd62ed3e11610071578063dd62ed3e1461027b578063e47d6060146102b4578063e4997dc5146102d7578063f2fde38b146102ea578063f3bdc228146102fd57600080fd5b806395d89b4114610227578063a457c2d71461022f578063a9059cbb14610242578063cc872b6614610255578063db006a751461026857600080fd5b806323b872dd116100f457806323b872dd1461018e578063313ce567146101a157806339509351146101c057806370a08231146101d35780638da5cb5b146101fc57600080fd5b806306fdde0314610126578063095ea7b3146101445780630ecb93c01461016757806318160ddd1461017c575b600080fd5b61012e610310565b60405161013b9190610d29565b60405180910390f35b610157610152366004610d93565b61039e565b604051901515815260200161013b565b61017a610175366004610dbd565b6103b5565b005b6004545b60405190815260200161013b565b61015761019c366004610dd8565b61041b565b6007546101ae9060ff1681565b60405160ff909116815260200161013b565b6101576101ce366004610d93565b610478565b6101806101e1366004610dbd565b6001600160a01b031660009081526002602052604090205490565b60005461020f906001600160a01b031681565b6040516001600160a01b03909116815260200161013b565b61012e6104bb565b61015761023d366004610d93565b6104c8565b610157610250366004610d93565b61050b565b61017a610263366004610e14565b610524565b61017a610276366004610e14565b610589565b610180610289366004610e2d565b6001600160a01b03918216600090815260036020908152604080832093909416825291909152205490565b6101576102c2366004610dbd565b60016020526000908152604090205460ff1681565b61017a6102e5366004610dbd565b6105e7565b61017a6102f8366004610dbd565b610647565b61017a61030b366004610dbd565b6106cc565b6005805461031d90610e60565b80601f016020809104026020016040519081016040528092919081815260200182805461034990610e60565b80156103965780601f1061036b57610100808354040283529160200191610396565b820191906000526020600020905b81548152906001019060200180831161037957829003601f168201915b505050505081565b60006103ab3384846107dd565b5060015b92915050565b6000546001600160a01b031633146103cc57600080fd5b6001600160a01b0381166000818152600160208190526040808320805460ff1916909217909155517f42e160154868087d6bfdc0ca23d96a1c1cfa32f1b72ba9ba27b69b98a0d819dc9190a250565b600080821161042957600080fd5b610434848484610902565b6001600160a01b03841660009081526003602090815260408083203380855292529091205461046e9186916104699086610ab9565b6107dd565b5060019392505050565b600080821161048657600080fd5b3360008181526003602090815260408083206001600160a01b03881684529091529020546103ab919085906104699086610772565b6006805461031d90610e60565b60008082116104d657600080fd5b3360008181526003602090815260408083206001600160a01b03881684529091529020546103ab919085906104699086610ab9565b600080821161051957600080fd5b6103ab338484610902565b6000546001600160a01b0316331461053b57600080fd5b6000811161054857600080fd5b6105523382610b1f565b6040518181527fcb8241adb0c3fdb35b70c24ce35c5eb0c17af7431c99f827d44a445ca624176a906020015b60405180910390a150565b6000546001600160a01b031633146105a057600080fd5b600081116105ad57600080fd5b6105b73382610c05565b6040518181527f702d5967f45f6513a38ffc42d6ba9bf230bd40e8f53b16363c7eb4fd2deb9a449060200161057e565b6000546001600160a01b031633146105fe57600080fd5b6001600160a01b038116600081815260016020526040808220805460ff19169055517fd7e9ec6e6ecd65492dce6bf513cd6867560d49544421d0783ddf06e76c24470c9190a250565b6000546001600160a01b0316331461065e57600080fd5b6001600160a01b03811661067157600080fd5b600080546040516001600160a01b03808516939216917f8be0079c531659141344cd1fd0a4f28419497f9722a3daafe3b4186f6b6457e091a3600080546001600160a01b0319166001600160a01b0392909216919091179055565b6000546001600160a01b031633146106e357600080fd5b6001600160a01b03811660009081526001602052604090205460ff1661070857600080fd5b6001600160a01b03811660009081526002602052604090205461072b8282610ce6565b816001600160a01b03167f61e6e66b0d6339b2980aecc6ccc0039736791f0ccde9ed512e789a7fbdd698c68260405161076691815260200190565b60405180910390a25050565b60008061077f8385610eb0565b9050838110156107d65760405162461bcd60e51b815260206004820152601b60248201527f536166654d6174683a206164646974696f6e206f766572666c6f77000000000060448201526064015b60405180910390fd5b9392505050565b6001600160a01b03831661083f5760405162461bcd60e51b8152602060048201526024808201527f45524332303a20617070726f76652066726f6d20746865207a65726f206164646044820152637265737360e01b60648201526084016107cd565b6001600160a01b0382166108a05760405162461bcd60e51b815260206004820152602260248201527f45524332303a20617070726f766520746f20746865207a65726f206164647265604482015261737360f01b60648201526084016107cd565b6001600160a01b0383811660008181526003602090815260408083209487168084529482529182902085905590518481527f8c5be1e5ebec7d5bd14f71427d1e84f3dd0314c0f7b2291e5b200ac8c7c3b92591015b60405180910390a3505050565b6001600160a01b03831660009081526001602052604090205460ff1615801561094457506001600160a01b03821660009081526001602052604090205460ff16155b61094d57600080fd5b6001600160a01b0383166109b15760405162461bcd60e51b815260206004820152602560248201527f45524332303a207472616e736665722066726f6d20746865207a65726f206164604482015264647265737360d81b60648201526084016107cd565b6001600160a01b038216610a135760405162461bcd60e51b815260206004820152602360248201527f45524332303a207472616e7366657220746f20746865207a65726f206164647260448201526265737360e81b60648201526084016107cd565b6001600160a01b038316600090815260026020526040902054610a369082610ab9565b6001600160a01b038085166000908152600260205260408082209390935590841681522054610a659082610772565b6001600160a01b0380841660008181526002602052604090819020939093559151908516907fddf252ad1be2c89b69c2b068fc378daa952ba7f163c4a11628f55a4df523b3ef906108f59085815260200190565b600082821115610b0b5760405162461bcd60e51b815260206004820152601e60248201527f536166654d6174683a207375627472616374696f6e206f766572666c6f77000060448201526064016107cd565b6000610b178385610ec3565b949350505050565b6001600160a01b038216610b755760405162461bcd60e51b815260206004820152601f60248201527f45524332303a206d696e7420746f20746865207a65726f20616464726573730060448201526064016107cd565b600454610b829082610772565b6004556001600160a01b038216600090815260026020526040902054610ba89082610772565b6001600160a01b0383166000818152600260205260408082209390935591519091907fddf252ad1be2c89b69c2b068fc378daa952ba7f163c4a11628f55a4df523b3ef90610bf99085815260200190565b60405180910390a35050565b6001600160a01b038216610c655760405162461bcd60e51b815260206004820152602160248201527f45524332303a206275726e2066726f6d20746865207a65726f206164647265736044820152607360f81b60648201526084016107cd565b600454610c729082610ab9565b6004556001600160a01b038216600090815260026020526040902054610c989082610ab9565b6001600160a01b0383166000818152600260205260408082209390935591517fddf252ad1be2c89b69c2b068fc378daa952ba7f163c4a11628f55a4df523b3ef90610bf99085815260200190565b610cf08282610c05565b6001600160a01b038216600090815260036020908152604080832033808552925290912054610d259184916104699085610ab9565b5050565b600060208083528351808285015260005b81811015610d5657858101830151858201604001528201610d3a565b506000604082860101526040601f19601f8301168501019250505092915050565b80356001600160a01b0381168114610d8e57600080fd5b919050565b60008060408385031215610da657600080fd5b610daf83610d77565b946020939093013593505050565b600060208284031215610dcf57600080fd5b6107d682610d77565b600080600060608486031215610ded57600080fd5b610df684610d77565b9250610e0460208501610d77565b9150604084013590509250925092565b600060208284031215610e2657600080fd5b5035919050565b60008060408385031215610e4057600080fd5b610e4983610d77565b9150610e5760208401610d77565b90509250929050565b600181811c90821680610e7457607f821691505b602082108103610e9457634e487b7160e01b600052602260045260246000fd5b50919050565b634e487b7160e01b600052601160045260246000fd5b808201808211156103af576103af610e9a565b818103818111156103af576103af610e9a56fea2646970667358221220429637be1c902683f3b6d90f991e650968de41d7c744dcae769a1f5322bee4e864736f6c63430008110033",
    "sourcePath": "c:/Users/STC/Documents/GitHub/BRUTUS-TOKEN/contracts/BRST POOL/TRC20-2.0/Token-TRC20.sol",
    "compiler": {
        "name": "solc",
        "version": "0.8.17+commit.8df45f5f"
    },
    "functionHashes": {
        "addBlackList(address)": "0ecb93c0",
        "allowance(address,address)": "dd62ed3e",
        "approve(address,uint256)": "095ea7b3",
        "balanceOf(address)": "70a08231",
        "decimals()": "313ce567",
        "decreaseAllowance(address,uint256)": "a457c2d7",
        "destroyBlackFunds(address)": "f3bdc228",
        "increaseAllowance(address,uint256)": "39509351",
        "isBlackListed(address)": "e47d6060",
        "issue(uint256)": "cc872b66",
        "name()": "06fdde03",
        "owner()": "8da5cb5b",
        "redeem(uint256)": "db006a75",
        "removeBlackList(address)": "e4997dc5",
        "symbol()": "95d89b41",
        "totalSupply()": "18160ddd",
        "transfer(address,uint256)": "a9059cbb",
        "transferFrom(address,address,uint256)": "23b872dd",
        "transferOwnership(address)": "f2fde38b"
    },
    "gasEstimates": {
        "creation": {
            "codeDepositCost": "770400",
            "executionCost": "infinite",
            "totalCost": "infinite"
        },
        "external": {
            "addBlackList(address)": "27975",
            "allowance(address,address)": "infinite",
            "approve(address,uint256)": "24644",
            "balanceOf(address)": "2626",
            "decimals()": "2358",
            "decreaseAllowance(address,uint256)": "infinite",
            "destroyBlackFunds(address)": "infinite",
            "increaseAllowance(address,uint256)": "infinite",
            "isBlackListed(address)": "2575",
            "issue(uint256)": "infinite",
            "name()": "infinite",
            "owner()": "2448",
            "redeem(uint256)": "infinite",
            "removeBlackList(address)": "27955",
            "symbol()": "infinite",
            "totalSupply()": "2371",
            "transfer(address,uint256)": "infinite",
            "transferFrom(address,address,uint256)": "infinite",
            "transferOwnership(address)": "30488"
        }
    }
}