{
    "contractName": "Lottery",
    "abi": [
        {
            "inputs": [],
            "stateMutability": "nonpayable",
            "type": "constructor"
        },
        {
            "stateMutability": "payable",
            "type": "fallback"
        },
        {
            "inputs": [],
            "name": "_premio",
            "outputs": [
                {
                    "internalType": "uint256",
                    "name": "prix",
                    "type": "uint256"
                }
            ],
            "stateMutability": "view",
            "type": "function"
        },
        {
            "inputs": [],
            "name": "adminProxy",
            "outputs": [
                {
                    "internalType": "address",
                    "name": "",
                    "type": "address"
                }
            ],
            "stateMutability": "view",
            "type": "function"
        },
        {
            "inputs": [
                {
                    "internalType": "address",
                    "name": "_user",
                    "type": "address"
                }
            ],
            "name": "allValueNFTs",
            "outputs": [
                {
                    "internalType": "uint256",
                    "name": "tron",
                    "type": "uint256"
                }
            ],
            "stateMutability": "view",
            "type": "function"
        },
        {
            "inputs": [],
            "name": "beneficio",
            "outputs": [
                {
                    "internalType": "uint256",
                    "name": "",
                    "type": "uint256"
                }
            ],
            "stateMutability": "view",
            "type": "function"
        },
        {
            "inputs": [
                {
                    "internalType": "address",
                    "name": "_user",
                    "type": "address"
                },
                {
                    "internalType": "uint256",
                    "name": "_cantidad",
                    "type": "uint256"
                }
            ],
            "name": "buyLoteria",
            "outputs": [],
            "stateMutability": "payable",
            "type": "function"
        },
        {
            "inputs": [
                {
                    "internalType": "uint256",
                    "name": "_beneficio",
                    "type": "uint256"
                },
                {
                    "internalType": "uint256",
                    "name": "_precicion",
                    "type": "uint256"
                }
            ],
            "name": "changeBeneficioTeam",
            "outputs": [],
            "stateMutability": "nonpayable",
            "type": "function"
        },
        {
            "inputs": [
                {
                    "internalType": "address",
                    "name": "_wallet",
                    "type": "address"
                }
            ],
            "name": "changeWalletTeam",
            "outputs": [],
            "stateMutability": "nonpayable",
            "type": "function"
        },
        {
            "inputs": [],
            "name": "contractPool",
            "outputs": [
                {
                    "internalType": "address",
                    "name": "",
                    "type": "address"
                }
            ],
            "stateMutability": "view",
            "type": "function"
        },
        {
            "inputs": [],
            "name": "iniciado",
            "outputs": [
                {
                    "internalType": "bool",
                    "name": "",
                    "type": "bool"
                }
            ],
            "stateMutability": "view",
            "type": "function"
        },
        {
            "inputs": [],
            "name": "inicializar",
            "outputs": [],
            "stateMutability": "nonpayable",
            "type": "function"
        },
        {
            "inputs": [],
            "name": "lastWiner",
            "outputs": [
                {
                    "internalType": "uint256",
                    "name": "",
                    "type": "uint256"
                }
            ],
            "stateMutability": "view",
            "type": "function"
        },
        {
            "inputs": [],
            "name": "paso",
            "outputs": [
                {
                    "internalType": "uint256",
                    "name": "",
                    "type": "uint256"
                }
            ],
            "stateMutability": "view",
            "type": "function"
        },
        {
            "inputs": [],
            "name": "periodo",
            "outputs": [
                {
                    "internalType": "uint256",
                    "name": "",
                    "type": "uint256"
                }
            ],
            "stateMutability": "view",
            "type": "function"
        },
        {
            "inputs": [],
            "name": "precicion",
            "outputs": [
                {
                    "internalType": "uint256",
                    "name": "",
                    "type": "uint256"
                }
            ],
            "stateMutability": "view",
            "type": "function"
        },
        {
            "inputs": [],
            "name": "precio",
            "outputs": [
                {
                    "internalType": "uint256",
                    "name": "",
                    "type": "uint256"
                }
            ],
            "stateMutability": "view",
            "type": "function"
        },
        {
            "inputs": [],
            "name": "premio",
            "outputs": [
                {
                    "internalType": "uint256",
                    "name": "prix",
                    "type": "uint256"
                }
            ],
            "stateMutability": "view",
            "type": "function"
        },
        {
            "inputs": [],
            "name": "premioTeam",
            "outputs": [
                {
                    "internalType": "uint256",
                    "name": "prix",
                    "type": "uint256"
                }
            ],
            "stateMutability": "view",
            "type": "function"
        },
        {
            "inputs": [],
            "name": "proximaRonda",
            "outputs": [
                {
                    "internalType": "uint256",
                    "name": "",
                    "type": "uint256"
                }
            ],
            "stateMutability": "view",
            "type": "function"
        },
        {
            "inputs": [
                {
                    "internalType": "address",
                    "name": "_user",
                    "type": "address"
                }
            ],
            "name": "reclamarPremio",
            "outputs": [],
            "stateMutability": "nonpayable",
            "type": "function"
        },
        {
            "inputs": [
                {
                    "internalType": "uint256",
                    "name": "_nft",
                    "type": "uint256"
                }
            ],
            "name": "reclamarValueNFT",
            "outputs": [],
            "stateMutability": "nonpayable",
            "type": "function"
        },
        {
            "inputs": [
                {
                    "internalType": "uint256",
                    "name": "_tokenId",
                    "type": "uint256"
                }
            ],
            "name": "retiroTRC20",
            "outputs": [],
            "stateMutability": "nonpayable",
            "type": "function"
        },
        {
            "inputs": [
                {
                    "internalType": "uint256",
                    "name": "_value",
                    "type": "uint256"
                },
                {
                    "internalType": "address",
                    "name": "_TRC20",
                    "type": "address"
                }
            ],
            "name": "retiroTRC20",
            "outputs": [],
            "stateMutability": "nonpayable",
            "type": "function"
        },
        {
            "inputs": [],
            "name": "retiroToTeam",
            "outputs": [],
            "stateMutability": "nonpayable",
            "type": "function"
        },
        {
            "inputs": [
                {
                    "internalType": "uint256",
                    "name": "_valorTrx",
                    "type": "uint256"
                }
            ],
            "name": "solicitarRetiroPool",
            "outputs": [
                {
                    "internalType": "bool",
                    "name": "insta",
                    "type": "bool"
                },
                {
                    "internalType": "uint256",
                    "name": "id",
                    "type": "uint256"
                }
            ],
            "stateMutability": "nonpayable",
            "type": "function"
        },
        {
            "inputs": [],
            "name": "sorteo",
            "outputs": [
                {
                    "internalType": "uint256",
                    "name": "myNumber",
                    "type": "uint256"
                }
            ],
            "stateMutability": "nonpayable",
            "type": "function"
        },
        {
            "inputs": [
                {
                    "internalType": "uint256",
                    "name": "_id",
                    "type": "uint256"
                },
                {
                    "internalType": "bool",
                    "name": "_all",
                    "type": "bool"
                }
            ],
            "name": "terminarRetiroPool",
            "outputs": [
                {
                    "internalType": "bool",
                    "name": "ret",
                    "type": "bool"
                }
            ],
            "stateMutability": "nonpayable",
            "type": "function"
        },
        {
            "inputs": [
                {
                    "internalType": "uint256",
                    "name": "_valueTRX",
                    "type": "uint256"
                }
            ],
            "name": "toBRST",
            "outputs": [
                {
                    "internalType": "uint256",
                    "name": "brst",
                    "type": "uint256"
                }
            ],
            "stateMutability": "view",
            "type": "function"
        },
        {
            "inputs": [
                {
                    "internalType": "uint256",
                    "name": "_valueBRST",
                    "type": "uint256"
                }
            ],
            "name": "toTRX",
            "outputs": [
                {
                    "internalType": "uint256",
                    "name": "rtrx",
                    "type": "uint256"
                }
            ],
            "stateMutability": "view",
            "type": "function"
        },
        {
            "inputs": [],
            "name": "toTeam",
            "outputs": [
                {
                    "internalType": "uint256",
                    "name": "",
                    "type": "uint256"
                }
            ],
            "stateMutability": "view",
            "type": "function"
        },
        {
            "inputs": [],
            "name": "tokenBRST",
            "outputs": [
                {
                    "internalType": "address",
                    "name": "",
                    "type": "address"
                }
            ],
            "stateMutability": "view",
            "type": "function"
        },
        {
            "inputs": [],
            "name": "tokenTRC721",
            "outputs": [
                {
                    "internalType": "address",
                    "name": "",
                    "type": "address"
                }
            ],
            "stateMutability": "view",
            "type": "function"
        },
        {
            "inputs": [],
            "name": "trxPooled",
            "outputs": [
                {
                    "internalType": "uint256",
                    "name": "",
                    "type": "uint256"
                }
            ],
            "stateMutability": "view",
            "type": "function"
        },
        {
            "inputs": [
                {
                    "internalType": "address",
                    "name": "_addressPOOL",
                    "type": "address"
                }
            ],
            "name": "update_addressPOOL",
            "outputs": [],
            "stateMutability": "nonpayable",
            "type": "function"
        },
        {
            "inputs": [
                {
                    "internalType": "uint256",
                    "name": "_precio",
                    "type": "uint256"
                }
            ],
            "name": "update_precio",
            "outputs": [],
            "stateMutability": "nonpayable",
            "type": "function"
        },
        {
            "inputs": [
                {
                    "internalType": "uint256",
                    "name": "_periodo",
                    "type": "uint256"
                },
                {
                    "internalType": "uint256",
                    "name": "_proxRonda",
                    "type": "uint256"
                }
            ],
            "name": "update_tiempo",
            "outputs": [],
            "stateMutability": "nonpayable",
            "type": "function"
        },
        {
            "inputs": [
                {
                    "internalType": "address",
                    "name": "_tokenBRST",
                    "type": "address"
                }
            ],
            "name": "update_tokenTRC20",
            "outputs": [],
            "stateMutability": "nonpayable",
            "type": "function"
        },
        {
            "inputs": [
                {
                    "internalType": "address",
                    "name": "_tokenTRC721",
                    "type": "address"
                }
            ],
            "name": "update_tokenTRC721",
            "outputs": [],
            "stateMutability": "nonpayable",
            "type": "function"
        },
        {
            "inputs": [
                {
                    "internalType": "uint256",
                    "name": "_nft",
                    "type": "uint256"
                }
            ],
            "name": "valueNFT",
            "outputs": [
                {
                    "internalType": "uint256",
                    "name": "tron",
                    "type": "uint256"
                }
            ],
            "stateMutability": "view",
            "type": "function"
        },
        {
            "inputs": [],
            "name": "verRetirosP",
            "outputs": [
                {
                    "internalType": "uint256[]",
                    "name": "",
                    "type": "uint256[]"
                }
            ],
            "stateMutability": "view",
            "type": "function"
        },
        {
            "inputs": [],
            "name": "walletTeam",
            "outputs": [
                {
                    "internalType": "address",
                    "name": "",
                    "type": "address"
                }
            ],
            "stateMutability": "view",
            "type": "function"
        },
        {
            "stateMutability": "payable",
            "type": "receive"
        }
    ],
    "bytecode": "60806040526012805460ff1916600117905534801561001c575f80fd5b50611cf88061002a5f395ff3fe608060405260043610610225575f3560e01c80639a8665c311610121578063da00d71d116100a4578063f482b73c1161006b578063f482b73c1461061a578063f6901d2f1461062f578063f91987561461064e578063fad49bb61461066d578063fe07d3e21461068257005b8063da00d71d146105a0578063da2181b1146105bf578063dcbe327e146105d2578063dee07735146105e6578063ee800c651461060557005b8063a7d6dbf7116100e8578063a7d6dbf714610510578063ac846dd21461052f578063c52f4f341461054e578063cdd5e08914610562578063d092c4d91461058157005b80639a8665c3146104945780639e66e0f3146104a85780639fe10cff146104bd578063a663c4c5146104dc578063a6747af8146104fb57005b8063688ba636116101a95780638192f162116101705780638192f1621461040257806382575ca61461042357806383bd852814610437578063943b367b1461046057806395a6e26c1461047557005b8063688ba6361461037c57806369bd6dbd1461039b5780636d3ea6ce146103af578063713e25c8146103ce578063722b5b99146103ed57005b806334733a77116101ed57806334733a77146102f7578063361d97df1461031657806345865ecb1461033557806350237f721461034957806362daa4b61461035d57005b8062d861a71461022e578063054b46c51461026057806305bda6b1146102965780630a35a858146102ab5780630bad823b146102c057005b3661022c57005b005b348015610239575f80fd5b5061024d6102483660046119a5565b6106ad565b6040519081526020015b60405180910390f35b34801561026b575f80fd5b5061027f61027a3660046119a5565b6107a5565b604080519215158352602083019190915201610257565b3480156102a1575f80fd5b5061024d60025481565b3480156102b6575f80fd5b5061024d60065481565b3480156102cb575f80fd5b50600d546102df906001600160a01b031681565b6040516001600160a01b039091168152602001610257565b348015610302575f80fd5b5061022c6103113660046119d3565b610830565b348015610321575f80fd5b5061022c6103303660046119a5565b6108de565b348015610340575f80fd5b5061024d6108eb565b348015610354575f80fd5b5061024d610d6d565b348015610368575f80fd5b5061024d6103773660046119d3565b610daa565b348015610387575f80fd5b506007546102df906001600160a01b031681565b3480156103a6575f80fd5b5061024d610ed9565b3480156103ba575f80fd5b50600c546102df906001600160a01b031681565b3480156103d9575f80fd5b5061022c6103e83660046119ee565b610f91565b3480156103f8575f80fd5b5061024d60045481565b34801561040d575f80fd5b50610416610fa4565b6040516102579190611a0e565b34801561042e575f80fd5b5061024d611011565b348015610442575f80fd5b506012546104509060ff1681565b6040519015158152602001610257565b34801561046b575f80fd5b5061024d60085481565b348015610480575f80fd5b5061022c61048f3660046119ee565b611035565b34801561049f575f80fd5b5061022c611045565b3480156104b3575f80fd5b5061024d60015481565b3480156104c8575f80fd5b5061022c6104d73660046119d3565b61109f565b3480156104e7575f80fd5b5061024d6104f63660046119a5565b6110d3565b348015610506575f80fd5b5061024d60055481565b34801561051b575f80fd5b5061022c61052a3660046119d3565b611194565b34801561053a575f80fd5b5061022c6105493660046119a5565b6111c8565b348015610559575f80fd5b506102df611238565b34801561056d575f80fd5b5061022c61057c3660046119d3565b61129d565b34801561058c575f80fd5b5061022c61059b366004611a51565b6112c7565b3480156105ab575f80fd5b506104506105ba366004611a8c565b611342565b61022c6105cd366004611aaf565b611436565b3480156105dd575f80fd5b5061022c611593565b3480156105f1575f80fd5b50600b546102df906001600160a01b031681565b348015610610575f80fd5b5061024d60095481565b348015610625575f80fd5b5061024d60035481565b34801561063a575f80fd5b5061022c6106493660046119a5565b61167f565b348015610659575f80fd5b5061022c6106683660046119d3565b611750565b348015610678575f80fd5b5061024d600a5481565b34801561068d575f80fd5b5061024d61069c3660046119a5565b5f9081526011602052604090205490565b5f61079f600e5f9054906101000a90046001600160a01b03166001600160a01b031663313ce5676040518163ffffffff1660e01b8152600401602060405180830381865afa158015610701573d5f803e3d5ffd5b505050506040513d601f19601f820116820180604052508101906107259190611ad9565b60105460408051631993a5c160e21b81529051610799926001600160a01b03169163664e97049160048083019260209291908290030181865afa15801561076e573d5f803e3d5ffd5b505050506040513d601f19601f820116820180604052508101906107929190611ad9565b8590611784565b90611807565b92915050565b5f806107af61186a565b6010546001600160a01b03166375b2a5466107c9856110d3565b6040518263ffffffff1660e01b81526004016107e791815260200190565b60408051808303815f875af1158015610802573d5f803e3d5ffd5b505050506040513d601f19601f820116820180604052508101906108269190611af0565b9094909350915050565b5f61083a82610daa565b90505f8111801561085757506008546108539082611b30565b4710155b61085f575f80fd5b6040516001600160a01b0383169082156108fc029083905f818181858888f19350505050158015610892573d5f803e3d5ffd5b50600854156108da576007546008546040516001600160a01b039092169181156108fc0291905f818181858888f193505050501580156108d4573d5f803e3d5ffd5b505f6008555b5050565b6108e661186a565b600155565b5f806108f5610d6d565b600e54600d54604051636eb1769f60e11b81523060048201526001600160a01b039182166024820152929350633b9aca009291169063dd62ed3e90604401602060405180830381865afa15801561094e573d5f803e3d5ffd5b505050506040513d601f19601f820116820180604052508101906109729190611ad9565b116109ef57600e54600d5460405163095ea7b360e01b81526001600160a01b0391821660048201525f19602482015291169063095ea7b3906044016020604051808303815f875af11580156109c9573d5f803e3d5ffd5b505050506040513d601f19601f820116820180604052508101906109ed9190611b43565b505b42600954106109fc575f80fd5b6009545f03610a1a57600a54610a129042611b30565b600955610a2e565b600a54600954610a2a9190611b30565b6009555b60035415610cf257600354600454604080516020810192909252429082015243406060820152610a7b919060800160408051601f1981840301815291905280516020909101205f54611890565b91508015610cec575f610a8c610ed9565b9050610aa2610a99611011565b600854906118eb565b60085547811115610c0a576010545f906001600160a01b03166375b2a546610ac9846110d3565b6040518263ffffffff1660e01b8152600401610ae791815260200190565b60408051808303815f875af1158015610b02573d5f803e3d5ffd5b505050506040513d601f19601f82011682018060405250810190610b269190611af0565b509050808015610b365750824710155b15610be157600f546040516331a9108f60e11b8152600481018690526001600160a01b0390911690636352211e90602401602060405180830381865afa158015610b82573d5f803e3d5ffd5b505050506040513d601f19601f82011682018060405250810190610ba69190611b5e565b6001600160a01b03166108fc8490811502906040515f60405180830381858888f19350505050158015610bdb573d5f803e3d5ffd5b50610c04565b5f8481526011602052604081208054859290610bfe908490611b30565b90915550505b50610cea565b600f546040516331a9108f60e11b8152600481018590526001600160a01b0390911690636352211e90602401602060405180830381865afa158015610c51573d5f803e3d5ffd5b505050506040513d601f19601f82011682018060405250810190610c759190611b5e565b6001600160a01b03166108fc8390811502906040515f60405180830381858888f19350505050158015610caa573d5f803e3d5ffd5b506007546008546040516001600160a01b039092169181156108fc0291905f818181858888f19350505050158015610ce4573d5f803e3d5ffd5b505f6008555b505b60048290555b600f5f9054906101000a90046001600160a01b03166001600160a01b03166318160ddd6040518163ffffffff1660e01b8152600401602060405180830381865afa158015610d42573d5f803e3d5ffd5b505050506040513d601f19601f82011682018060405250810190610d669190611ad9565b6003555090565b5f80610d77610ed9565b1115610da757610da4600654610799600554600654610d969190611b79565b610d9e610ed9565b90611784565b90505b90565b600f546040516370a0823160e01b81526001600160a01b0383811660048301525f9283929116906370a0823190602401602060405180830381865afa158015610df5573d5f803e3d5ffd5b505050506040513d601f19601f82011682018060405250810190610e199190611ad9565b90505f5b81811015610ed257600f54604051632f745c5960e01b81526001600160a01b03868116600483015260248201849052610ebe926011925f9290911690632f745c5990604401602060405180830381865afa158015610e7d573d5f803e3d5ffd5b505050506040513d601f19601f82011682018060405250810190610ea19190611ad9565b81526020019081526020015f2054846118eb90919063ffffffff16565b925080610eca81611b8c565b915050610e1d565b5050919050565b600e546040516370a0823160e01b81523060048201525f918291610f49916001600160a01b0316906370a0823190602401602060405180830381865afa158015610f25573d5f803e3d5ffd5b505050506040513d601f19601f820116820180604052508101906102489190611ad9565b9050610f626008546002546118eb90919063ffffffff16565b811115610f8d57610f8a600854610f846002548461194990919063ffffffff16565b90611949565b91505b5090565b610f9961186a565b600591909155600655565b6010546040516388a4a98160e01b81523060048201526060916001600160a01b0316906388a4a981906024015f60405180830381865afa158015610fea573d5f803e3d5ffd5b505050506040513d5f823e601f3d908101601f19168201604052610da49190810190611bb8565b5f8061101b610ed9565b1115610da757610da4600654610799600554610d9e610ed9565b61103d61186a565b600955600a55565b6007546001600160a01b0316331461105f5761105f61186a565b6007546008546040516001600160a01b039092169181156108fc0291905f818181858888f19350505050158015611098573d5f803e3d5ffd5b505f600855565b6110a761186a565b600b80546001600160a01b039092166001600160a01b03199283168117909155600e8054909216179055565b5f61079f60105f9054906101000a90046001600160a01b03166001600160a01b031663664e97046040518163ffffffff1660e01b8152600401602060405180830381865afa158015611127573d5f803e3d5ffd5b505050506040513d601f19601f8201168201806040525081019061114b9190611ad9565b600e546040805163313ce56760e01b81529051610799926001600160a01b03169163313ce5679160048083019260209291908290030181865afa15801561076e573d5f803e3d5ffd5b61119c61186a565b600d80546001600160a01b039092166001600160a01b0319928316811790915560108054909216179055565b6111d061186a565b600f546040516323b872dd60e01b8152306004820152336024820152604481018390526001600160a01b03909116906323b872dd906064015f604051808303815f87803b15801561121f575f80fd5b505af1158015611231573d5f803e3d5ffd5b5050505050565b5f80309050806001600160a01b031663f851a4406040518163ffffffff1660e01b8152600401602060405180830381865afa158015611279573d5f803e3d5ffd5b505050506040513d601f19601f82011682018060405250810190610f8a9190611b5e565b6112a561186a565b600780546001600160a01b0319166001600160a01b0392909216919091179055565b6112cf61186a565b60405163a9059cbb60e01b8152336004820152602481018390526001600160a01b0382169063a9059cbb906044016020604051808303815f875af1158015611319573d5f803e3d5ffd5b505050506040513d601f19601f8201168201806040525081019061133d9190611b43565b505050565b5f61134b61186a565b81156113c35760105460405163783dec1560e01b81523060048201526001600160a01b039091169063783dec15906024016020604051808303815f875af1158015611398573d5f803e3d5ffd5b505050506040513d601f19601f820116820180604052508101906113bc9190611b43565b905061079f565b60105460405163e8b1298f60e01b8152600481018590526001600160a01b039091169063e8b1298f906024016020604051808303815f875af115801561140b573d5f803e3d5ffd5b505050506040513d601f19601f8201168201806040525081019061142f9190611b43565b9392505050565b6009545f0361145057600a5461144c9042611b30565b6009555b5f6001548261145f9190611c71565b905080341461146c575f80fd5b60105f9054906101000a90046001600160a01b03166001600160a01b0316634cf088d9346040518263ffffffff1660e01b815260040160206040518083038185885af11580156114be573d5f803e3d5ffd5b50505050506040513d601f19601f820116820180604052508101906114e39190611ad9565b506002546114f190346118eb565b6002555f5b8281101561157e57600f546040516303f8e6eb60e31b81526001600160a01b03868116600483015290911690631fc73758906024016020604051808303815f875af1158015611547573d5f803e3d5ffd5b505050506040513d601f19601f8201168201806040525081019061156b9190611b43565b508061157681611b8c565b9150506114f6565b505f5461158c906001611b30565b5f55505050565b61159b61186a565b60125460ff16156115aa575f80fd5b6012805460ff191660019081179091556305f5e100905560146005556064600655600780546001600160a01b03199081167351a2ae8110057556c9fa4dc18964aca5f6d4794517909155601e600a55600b8054821673d36c2506ef27fa376612ecba208926ba0261a4ad908117909155600c8054831673922de0b0fd795bb6cd34b8a38ea0ba6954e93af6908117909155600d80548416734ddf1924dcd5a3b7b56977a423d360ca5c033c96908117909155600e80548516909317909255600f80548416909117905560108054909216179055565b5f8181526011602052604090205480158015906116a857506008546116a49082611b30565b4710155b6116b0575f80fd5b600f546040516331a9108f60e11b8152600481018490526001600160a01b0390911690636352211e90602401602060405180830381865afa1580156116f7573d5f803e3d5ffd5b505050506040513d601f19601f8201168201806040525081019061171b9190611b5e565b6001600160a01b03166108fc8290811502906040515f60405180830381858888f19350505050158015610892573d5f803e3d5ffd5b61175861186a565b600c80546001600160a01b039092166001600160a01b03199283168117909155600f8054909216179055565b5f825f0361179357505f61079f565b5f61179e8385611c71565b9050826117ab8583611c9c565b1461142f5760405162461bcd60e51b815260206004820152602160248201527f536166654d6174683a206d756c7469706c69636174696f6e206f766572666c6f6044820152607760f81b60648201526084015b60405180910390fd5b5f8082116118575760405162461bcd60e51b815260206004820152601a60248201527f536166654d6174683a206469766973696f6e206279207a65726f00000000000060448201526064016117fe565b5f6118628385611c9c565b949350505050565b611872611238565b6001600160a01b0316336001600160a01b03161461188e575f80fd5b565b604080514260208201526bffffffffffffffffffffffff193360601b169181019190915260548101839052607481018290525f908490609401604051602081830303815290604052805190602001205f1c6118629190611caf565b5f806118f78385611b30565b90508381101561142f5760405162461bcd60e51b815260206004820152601b60248201527f536166654d6174683a206164646974696f6e206f766572666c6f77000000000060448201526064016117fe565b5f8282111561199a5760405162461bcd60e51b815260206004820152601e60248201527f536166654d6174683a207375627472616374696f6e206f766572666c6f77000060448201526064016117fe565b5f6118628385611b79565b5f602082840312156119b5575f80fd5b5035919050565b6001600160a01b03811681146119d0575f80fd5b50565b5f602082840312156119e3575f80fd5b813561142f816119bc565b5f80604083850312156119ff575f80fd5b50508035926020909101359150565b602080825282518282018190525f9190848201906040850190845b81811015611a4557835183529284019291840191600101611a29565b50909695505050505050565b5f8060408385031215611a62575f80fd5b823591506020830135611a74816119bc565b809150509250929050565b80151581146119d0575f80fd5b5f8060408385031215611a9d575f80fd5b823591506020830135611a7481611a7f565b5f8060408385031215611ac0575f80fd5b8235611acb816119bc565b946020939093013593505050565b5f60208284031215611ae9575f80fd5b5051919050565b5f8060408385031215611b01575f80fd5b8251611b0c81611a7f565b6020939093015192949293505050565b634e487b7160e01b5f52601160045260245ffd5b8082018082111561079f5761079f611b1c565b5f60208284031215611b53575f80fd5b815161142f81611a7f565b5f60208284031215611b6e575f80fd5b815161142f816119bc565b8181038181111561079f5761079f611b1c565b5f60018201611b9d57611b9d611b1c565b5060010190565b634e487b7160e01b5f52604160045260245ffd5b5f6020808385031215611bc9575f80fd5b825167ffffffffffffffff80821115611be0575f80fd5b818501915085601f830112611bf3575f80fd5b815181811115611c0557611c05611ba4565b8060051b604051601f19603f83011681018181108582111715611c2a57611c2a611ba4565b604052918252848201925083810185019188831115611c47575f80fd5b938501935b82851015611c6557845184529385019392850192611c4c565b98975050505050505050565b808202811582820484141761079f5761079f611b1c565b634e487b7160e01b5f52601260045260245ffd5b5f82611caa57611caa611c88565b500490565b5f82611cbd57611cbd611c88565b50069056fea2646970667358221220ab1a67262f2768296d55e8d2a604bb56943c090bd81c643d83985b6e7b01ed6964736f6c63430008140033",
    "sourcePath": "c:/Users/STC/Documents/GitHub/BRUTUS-TOKEN/contracts/Loteria-TRX/lottery.sol",
    "compiler": {
        "name": "solc",
        "version": "0.8.20+commit.a1b79de6"
    },
    "functionHashes": {
        "_premio()": "69bd6dbd",
        "adminProxy()": "c52f4f34",
        "allValueNFTs(address)": "62daa4b6",
        "beneficio()": "a6747af8",
        "buyLoteria(address,uint256)": "da2181b1",
        "changeBeneficioTeam(uint256,uint256)": "713e25c8",
        "changeWalletTeam(address)": "cdd5e089",
        "contractPool()": "0bad823b",
        "iniciado()": "83bd8528",
        "inicializar()": "dcbe327e",
        "lastWiner()": "722b5b99",
        "paso()": "f482b73c",
        "periodo()": "fad49bb6",
        "precicion()": "0a35a858",
        "precio()": "9e66e0f3",
        "premio()": "50237f72",
        "premioTeam()": "82575ca6",
        "proximaRonda()": "ee800c65",
        "reclamarPremio(address)": "34733a77",
        "reclamarValueNFT(uint256)": "f6901d2f",
        "retiroTRC20(uint256)": "ac846dd2",
        "retiroTRC20(uint256,address)": "d092c4d9",
        "retiroToTeam()": "9a8665c3",
        "solicitarRetiroPool(uint256)": "054b46c5",
        "sorteo()": "45865ecb",
        "terminarRetiroPool(uint256,bool)": "da00d71d",
        "toBRST(uint256)": "a663c4c5",
        "toTRX(uint256)": "00d861a7",
        "toTeam()": "943b367b",
        "tokenBRST()": "dee07735",
        "tokenTRC721()": "6d3ea6ce",
        "trxPooled()": "05bda6b1",
        "update_addressPOOL(address)": "a7d6dbf7",
        "update_precio(uint256)": "361d97df",
        "update_tiempo(uint256,uint256)": "95a6e26c",
        "update_tokenTRC20(address)": "9fe10cff",
        "update_tokenTRC721(address)": "f9198756",
        "valueNFT(uint256)": "fe07d3e2",
        "verRetirosP()": "8192f162",
        "walletTeam()": "688ba636"
    },
    "gasEstimates": {
        "creation": {
            "codeDepositCost": "1483200",
            "executionCost": "25770",
            "totalCost": "1508970"
        },
        "external": {
            "": "229",
            "_premio()": "infinite",
            "adminProxy()": "infinite",
            "allValueNFTs(address)": "infinite",
            "beneficio()": "2417",
            "buyLoteria(address,uint256)": "infinite",
            "changeBeneficioTeam(uint256,uint256)": "infinite",
            "changeWalletTeam(address)": "infinite",
            "contractPool()": "2471",
            "iniciado()": "2398",
            "inicializar()": "infinite",
            "lastWiner()": "2417",
            "paso()": "2327",
            "periodo()": "2393",
            "precicion()": "2396",
            "precio()": "2351",
            "premio()": "infinite",
            "premioTeam()": "infinite",
            "proximaRonda()": "2416",
            "reclamarPremio(address)": "infinite",
            "reclamarValueNFT(uint256)": "infinite",
            "retiroTRC20(uint256)": "infinite",
            "retiroTRC20(uint256,address)": "infinite",
            "retiroToTeam()": "infinite",
            "solicitarRetiroPool(uint256)": "infinite",
            "sorteo()": "infinite",
            "terminarRetiroPool(uint256,bool)": "infinite",
            "toBRST(uint256)": "infinite",
            "toTRX(uint256)": "infinite",
            "toTeam()": "2394",
            "tokenBRST()": "2447",
            "tokenTRC721()": "2426",
            "trxPooled()": "2374",
            "update_addressPOOL(address)": "infinite",
            "update_precio(uint256)": "infinite",
            "update_tiempo(uint256,uint256)": "infinite",
            "update_tokenTRC20(address)": "infinite",
            "update_tokenTRC721(address)": "infinite",
            "valueNFT(uint256)": "2556",
            "verRetirosP()": "infinite",
            "walletTeam()": "2382"
        },
        "internal": {
            "onlyOwner()": "infinite"
        }
    }
}