{
    "contractName": "Lottery",
    "abi": [
        {
            "anonymous": false,
            "inputs": [
                {
                    "indexed": true,
                    "internalType": "address",
                    "name": "previousOwner",
                    "type": "address"
                },
                {
                    "indexed": true,
                    "internalType": "address",
                    "name": "newOwner",
                    "type": "address"
                }
            ],
            "name": "OwnershipTransferred",
            "type": "event"
        },
        {
            "stateMutability": "payable",
            "type": "fallback"
        },
        {
            "inputs": [],
            "name": "administradores",
            "outputs": [
                {
                    "internalType": "uint256",
                    "name": "",
                    "type": "uint256"
                }
            ],
            "stateMutability": "view",
            "type": "function"
        },
        {
            "inputs": [],
            "name": "aumentarPool",
            "outputs": [],
            "stateMutability": "payable",
            "type": "function"
        },
        {
            "inputs": [
                {
                    "internalType": "address",
                    "name": "_user",
                    "type": "address"
                },
                {
                    "internalType": "uint256",
                    "name": "_cantidad",
                    "type": "uint256"
                }
            ],
            "name": "buyLoteria",
            "outputs": [],
            "stateMutability": "payable",
            "type": "function"
        },
        {
            "inputs": [],
            "name": "colaborador",
            "outputs": [
                {
                    "internalType": "uint256",
                    "name": "",
                    "type": "uint256"
                }
            ],
            "stateMutability": "view",
            "type": "function"
        },
        {
            "inputs": [],
            "name": "contractPool",
            "outputs": [
                {
                    "internalType": "address",
                    "name": "",
                    "type": "address"
                }
            ],
            "stateMutability": "view",
            "type": "function"
        },
        {
            "inputs": [],
            "name": "lastWiner",
            "outputs": [
                {
                    "internalType": "uint256",
                    "name": "",
                    "type": "uint256"
                }
            ],
            "stateMutability": "view",
            "type": "function"
        },
        {
            "inputs": [],
            "name": "owner",
            "outputs": [
                {
                    "internalType": "address payable",
                    "name": "",
                    "type": "address"
                }
            ],
            "stateMutability": "view",
            "type": "function"
        },
        {
            "inputs": [],
            "name": "paso",
            "outputs": [
                {
                    "internalType": "uint256",
                    "name": "",
                    "type": "uint256"
                }
            ],
            "stateMutability": "view",
            "type": "function"
        },
        {
            "inputs": [],
            "name": "periodo",
            "outputs": [
                {
                    "internalType": "uint256",
                    "name": "",
                    "type": "uint256"
                }
            ],
            "stateMutability": "view",
            "type": "function"
        },
        {
            "inputs": [],
            "name": "precio",
            "outputs": [
                {
                    "internalType": "uint256",
                    "name": "",
                    "type": "uint256"
                }
            ],
            "stateMutability": "view",
            "type": "function"
        },
        {
            "inputs": [],
            "name": "premio",
            "outputs": [
                {
                    "internalType": "uint256",
                    "name": "",
                    "type": "uint256"
                }
            ],
            "stateMutability": "view",
            "type": "function"
        },
        {
            "inputs": [],
            "name": "proximaRonda",
            "outputs": [
                {
                    "internalType": "uint256",
                    "name": "",
                    "type": "uint256"
                }
            ],
            "stateMutability": "view",
            "type": "function"
        },
        {
            "inputs": [
                {
                    "internalType": "uint256",
                    "name": "_nft",
                    "type": "uint256"
                }
            ],
            "name": "reclamarValueNFT",
            "outputs": [],
            "stateMutability": "nonpayable",
            "type": "function"
        },
        {
            "inputs": [
                {
                    "internalType": "uint256",
                    "name": "_tokenId",
                    "type": "uint256"
                }
            ],
            "name": "retiroTRC20",
            "outputs": [],
            "stateMutability": "nonpayable",
            "type": "function"
        },
        {
            "inputs": [
                {
                    "internalType": "uint256",
                    "name": "_value",
                    "type": "uint256"
                },
                {
                    "internalType": "address",
                    "name": "_TRC20",
                    "type": "address"
                }
            ],
            "name": "retiroTRC20",
            "outputs": [],
            "stateMutability": "nonpayable",
            "type": "function"
        },
        {
            "inputs": [
                {
                    "internalType": "uint256",
                    "name": "_valor",
                    "type": "uint256"
                }
            ],
            "name": "solicitarTRXBRST",
            "outputs": [],
            "stateMutability": "nonpayable",
            "type": "function"
        },
        {
            "inputs": [],
            "name": "sorteo",
            "outputs": [
                {
                    "internalType": "uint256",
                    "name": "myNumber",
                    "type": "uint256"
                }
            ],
            "stateMutability": "nonpayable",
            "type": "function"
        },
        {
            "inputs": [
                {
                    "internalType": "uint256",
                    "name": "_id",
                    "type": "uint256"
                }
            ],
            "name": "terminarRetiroTRXBRST",
            "outputs": [],
            "stateMutability": "nonpayable",
            "type": "function"
        },
        {
            "inputs": [
                {
                    "internalType": "uint256",
                    "name": "_value",
                    "type": "uint256"
                }
            ],
            "name": "toBRST",
            "outputs": [
                {
                    "internalType": "uint256",
                    "name": "",
                    "type": "uint256"
                }
            ],
            "stateMutability": "view",
            "type": "function"
        },
        {
            "inputs": [],
            "name": "tokenBRST",
            "outputs": [
                {
                    "internalType": "address",
                    "name": "",
                    "type": "address"
                }
            ],
            "stateMutability": "view",
            "type": "function"
        },
        {
            "inputs": [],
            "name": "tokenTRC721",
            "outputs": [
                {
                    "internalType": "address",
                    "name": "",
                    "type": "address"
                }
            ],
            "stateMutability": "view",
            "type": "function"
        },
        {
            "inputs": [
                {
                    "internalType": "address payable",
                    "name": "newOwner",
                    "type": "address"
                }
            ],
            "name": "transferOwnership",
            "outputs": [],
            "stateMutability": "nonpayable",
            "type": "function"
        },
        {
            "inputs": [],
            "name": "trxPooled",
            "outputs": [
                {
                    "internalType": "uint256",
                    "name": "",
                    "type": "uint256"
                }
            ],
            "stateMutability": "view",
            "type": "function"
        },
        {
            "inputs": [],
            "name": "umbral",
            "outputs": [
                {
                    "internalType": "uint256",
                    "name": "",
                    "type": "uint256"
                }
            ],
            "stateMutability": "view",
            "type": "function"
        },
        {
            "inputs": [
                {
                    "internalType": "address",
                    "name": "_addressPOOL",
                    "type": "address"
                }
            ],
            "name": "update_addressPOOL",
            "outputs": [],
            "stateMutability": "nonpayable",
            "type": "function"
        },
        {
            "inputs": [
                {
                    "internalType": "uint256",
                    "name": "_precio",
                    "type": "uint256"
                }
            ],
            "name": "update_precio",
            "outputs": [],
            "stateMutability": "nonpayable",
            "type": "function"
        },
        {
            "inputs": [
                {
                    "internalType": "uint256",
                    "name": "_periodo",
                    "type": "uint256"
                },
                {
                    "internalType": "uint256",
                    "name": "_proxRonda",
                    "type": "uint256"
                }
            ],
            "name": "update_tiempo",
            "outputs": [],
            "stateMutability": "nonpayable",
            "type": "function"
        },
        {
            "inputs": [
                {
                    "internalType": "address",
                    "name": "_tokenBRST",
                    "type": "address"
                }
            ],
            "name": "update_tokenTRC20",
            "outputs": [],
            "stateMutability": "nonpayable",
            "type": "function"
        },
        {
            "inputs": [
                {
                    "internalType": "address",
                    "name": "_tokenTRC721",
                    "type": "address"
                }
            ],
            "name": "update_tokenTRC721",
            "outputs": [],
            "stateMutability": "nonpayable",
            "type": "function"
        },
        {
            "inputs": [
                {
                    "internalType": "uint256",
                    "name": "_nft",
                    "type": "uint256"
                }
            ],
            "name": "valueNFT",
            "outputs": [
                {
                    "internalType": "uint256",
                    "name": "tron",
                    "type": "uint256"
                }
            ],
            "stateMutability": "view",
            "type": "function"
        },
        {
            "stateMutability": "payable",
            "type": "receive"
        }
    ],
    "bytecode": "608060405260008080556305f5e100600255620f424060035560016007819055600855600955601e600a55600b805473d36c2506ef27fa376612ecba208926ba0261a4ad6001600160a01b03199182168117909255600c805473922de0b0fd795bb6cd34b8a38ea0ba6954e93af69083168117909155600d805473b5ea6649ddb66cc296a7ee0e07d5b526dbaf01f89084168117909155600e80548416909417909355600f8054831690911790556010805490911690911790553480156100c557600080fd5b50600180546001600160a01b0319163317905561154c806100e76000396000f3fe6080604052600436106101b95760003560e01c80639fe10cff116100eb578063ec18af701161008f578063f6901d2f11610061578063f6901d2f146104a2578063f9198756146104c2578063fad49bb6146104e2578063fe07d3e2146104f857005b8063ec18af7014610436578063ee800c6514610456578063f2fde38b1461046c578063f482b73c1461048c57005b8063ac846dd2116100c8578063ac846dd2146103c3578063d092c4d9146103e3578063da2181b114610403578063dee077351461041657005b80639fe10cff14610363578063a663c4c514610383578063a7d6dbf7146103a357005b806350237f721161015d5780637d68baae1161012f5780637d68baae146103055780638da5cb5b1461030d57806395a6e26c1461032d5780639e66e0f31461034d57005b806350237f72146102a45780636d3ea6ce146102b95780636f19ed72146102d9578063722b5b99146102ef57005b80630bad823b116101965780630bad823b14610221578063125dffad14610259578063361d97df1461026f57806345865ecb1461028f57005b8063055d04c3146101c257806305bda6b1146101eb578063082018731461020157005b366101c057005b005b3480156101ce57600080fd5b506101d860075481565b6040519081526020015b60405180910390f35b3480156101f757600080fd5b506101d860045481565b34801561020d57600080fd5b506101c061021c366004611348565b610525565b34801561022d57600080fd5b50600d54610241906001600160a01b031681565b6040516001600160a01b0390911681526020016101e2565b34801561026557600080fd5b506101d860035481565b34801561027b57600080fd5b506101c061028a366004611348565b61059e565b34801561029b57600080fd5b506101d86105ba565b3480156102b057600080fd5b506101d86109a4565b3480156102c557600080fd5b50600c54610241906001600160a01b031681565b3480156102e557600080fd5b506101d860085481565b3480156102fb57600080fd5b506101d860065481565b6101c0610abf565b34801561031957600080fd5b50600154610241906001600160a01b031681565b34801561033957600080fd5b506101c0610348366004611361565b610b4c565b34801561035957600080fd5b506101d860025481565b34801561036f57600080fd5b506101c061037e36600461139b565b610b6b565b34801561038f57600080fd5b506101d861039e366004611348565b610bae565b3480156103af57600080fd5b506101c06103be36600461139b565b610c3e565b3480156103cf57600080fd5b506101c06103de366004611348565b610c81565b3480156103ef57600080fd5b506101c06103fe3660046113b8565b610cd5565b6101c06104113660046113e8565b610d62565b34801561042257600080fd5b50600b54610241906001600160a01b031681565b34801561044257600080fd5b506101c0610451366004611348565b610ebd565b34801561046257600080fd5b506101d860095481565b34801561047857600080fd5b506101c061048736600461139b565b610f8e565b34801561049857600080fd5b506101d860055481565b3480156104ae57600080fd5b506101c06104bd366004611348565b611014565b3480156104ce57600080fd5b506101c06104dd36600461139b565b6110e0565b3480156104ee57600080fd5b506101d8600a5481565b34801561050457600080fd5b506101d8610513366004611348565b60009081526011602052604090205490565b6001546001600160a01b0316331461053c57600080fd5b60105460405163e8b1298f60e01b8152600481018390526001600160a01b039091169063e8b1298f906024015b600060405180830381600087803b15801561058357600080fd5b505af1158015610597573d6000803e3d6000fd5b5050505050565b6001546001600160a01b031633146105b557600080fd5b600255565b6000806105c56109a4565b600e54600d54604051636eb1769f60e11b81523060048201526001600160a01b039182166024820152929350633b9aca009291169063dd62ed3e90604401602060405180830381865afa158015610620573d6000803e3d6000fd5b505050506040513d601f19601f820116820180604052508101906106449190611414565b116106c557600e54600d5460405163095ea7b360e01b81526001600160a01b039182166004820152600019602482015291169063095ea7b3906044016020604051808303816000875af115801561069f573d6000803e3d6000fd5b505050506040513d601f19601f820116820180604052508101906106c3919061142d565b505b42600954106106d357600080fd5b6009546000036106f257600a546106ea9042611465565b600955610706565b600a546009546107029190611465565b6009555b600554156109265760055460065460408051426020820152908101919091524340606082015261075291906080016040516020818303038152906040528051906020012060001c611123565b9150801561092057478111156108795760105460408051631993a5c160e21b815290516001600160a01b03909216916375b2a546916107ee91849163664e97049160048083019260209291908290030181865afa1580156107b7573d6000803e3d6000fd5b505050506040513d601f19601f820116820180604052508101906107db9190611414565b6107e885620f4240611189565b90611210565b6040518263ffffffff1660e01b815260040161080c91815260200190565b6020604051808303816000875af115801561082b573d6000803e3d6000fd5b505050506040513d601f19601f8201168201806040525081019061084f9190611414565b506000828152601160205260408120805483929061086e908490611465565b909155506109209050565b600f546040516331a9108f60e11b8152600481018490526001600160a01b0390911690636352211e90602401602060405180830381865afa1580156108c2573d6000803e3d6000fd5b505050506040513d601f19601f820116820180604052508101906108e69190611478565b6001600160a01b03166108fc829081150290604051600060405180830381858888f1935050505015801561091e573d6000803e3d6000fd5b505b60068290555b600f60009054906101000a90046001600160a01b03166001600160a01b03166318160ddd6040518163ffffffff1660e01b8152600401602060405180830381865afa158015610979573d6000803e3d6000fd5b505050506040513d601f19601f8201168201806040525081019061099d9190611414565b6005555090565b6000806000610a9c620f42406107e8601060009054906101000a90046001600160a01b03166001600160a01b031663664e97046040518163ffffffff1660e01b8152600401602060405180830381865afa158015610a06573d6000803e3d6000fd5b505050506040513d601f19601f82011682018060405250810190610a2a9190611414565b600e546040516370a0823160e01b81523060048201526001600160a01b03909116906370a0823190602401602060405180830381865afa158015610a72573d6000803e3d6000fd5b505050506040513d601f19601f82011682018060405250810190610a969190611414565b90611189565b9050600454811115610ab957600454610ab6908290611275565b91505b50919050565b601060009054906101000a90046001600160a01b03166001600160a01b0316634cf088d9346040518263ffffffff1660e01b815260040160206040518083038185885af1158015610b14573d6000803e3d6000fd5b50505050506040513d601f19601f82011682018060405250810190610b399190611414565b50600454610b4790346112d3565b600455565b6001546001600160a01b03163314610b6357600080fd5b600955600a55565b6001546001600160a01b03163314610b8257600080fd5b600b80546001600160a01b039092166001600160a01b03199283168117909155600e8054909216179055565b6000610c38620f42406107e8601060009054906101000a90046001600160a01b03166001600160a01b031663664e97046040518163ffffffff1660e01b8152600401602060405180830381865afa158015610c0d573d6000803e3d6000fd5b505050506040513d601f19601f82011682018060405250810190610c319190611414565b8590611189565b92915050565b6001546001600160a01b03163314610c5557600080fd5b600d80546001600160a01b039092166001600160a01b0319928316811790915560108054909216179055565b6001546001600160a01b03163314610c9857600080fd5b600f546040516323b872dd60e01b8152306004820152336024820152604481018390526001600160a01b03909116906323b872dd90606401610569565b6001546001600160a01b03163314610cec57600080fd5b60405163a9059cbb60e01b8152336004820152602481018390526001600160a01b0382169063a9059cbb906044016020604051808303816000875af1158015610d39573d6000803e3d6000fd5b505050506040513d601f19601f82011682018060405250810190610d5d919061142d565b505050565b600954600003610d7d57600a54610d799042611465565b6009555b600060025482610d8d9190611495565b9050803414610d9b57600080fd5b601060009054906101000a90046001600160a01b03166001600160a01b0316634cf088d9346040518263ffffffff1660e01b815260040160206040518083038185885af1158015610df0573d6000803e3d6000fd5b50505050506040513d601f19601f82011682018060405250810190610e159190611414565b50600454610e2390346112d3565b60045560005b82811015610eb457600f546040516303f8e6eb60e31b81526001600160a01b03868116600483015290911690631fc73758906024016020604051808303816000875af1158015610e7d573d6000803e3d6000fd5b505050506040513d601f19601f82011682018060405250810190610ea1919061142d565b5080610eac816114ac565b915050610e29565b50610d5d611332565b6001546001600160a01b03163314610ed457600080fd5b60105460408051631993a5c160e21b815290516001600160a01b03909216916375b2a54691610f2991849163664e97049160048083019260209291908290030181865afa1580156107b7573d6000803e3d6000fd5b6040518263ffffffff1660e01b8152600401610f4791815260200190565b6020604051808303816000875af1158015610f66573d6000803e3d6000fd5b505050506040513d601f19601f82011682018060405250810190610f8a9190611414565b5050565b6001546001600160a01b03163314610fa557600080fd5b6001600160a01b038116610fb857600080fd5b6001546040516001600160a01b038084169216907f8be0079c531659141344cd1fd0a4f28419497f9722a3daafe3b4186f6b6457e090600090a3600180546001600160a01b0319166001600160a01b0392909216919091179055565b60008181526011602052604090205480158015906110325750804710155b61103b57600080fd5b600f546040516331a9108f60e11b8152600481018490526001600160a01b0390911690636352211e90602401602060405180830381865afa158015611084573d6000803e3d6000fd5b505050506040513d601f19601f820116820180604052508101906110a89190611478565b6001600160a01b03166108fc829081150290604051600060405180830381858888f19350505050158015610d5d573d6000803e3d6000fd5b6001546001600160a01b031633146110f757600080fd5b600c80546001600160a01b039092166001600160a01b03199283168117909155600f8054909216179055565b60008054604080514260208201526bffffffffffffffffffffffff193360601b169181019190915260548101849052607481019190915283906094016040516020818303038152906040528051906020012060001c61118291906114db565b9392505050565b60008260000361119b57506000610c38565b60006111a78385611495565b9050826111b485836114ef565b146111825760405162461bcd60e51b815260206004820152602160248201527f536166654d6174683a206d756c7469706c69636174696f6e206f766572666c6f6044820152607760f81b60648201526084015b60405180910390fd5b60008082116112615760405162461bcd60e51b815260206004820152601a60248201527f536166654d6174683a206469766973696f6e206279207a65726f0000000000006044820152606401611207565b600061126d83856114ef565b949350505050565b6000828211156112c75760405162461bcd60e51b815260206004820152601e60248201527f536166654d6174683a207375627472616374696f6e206f766572666c6f7700006044820152606401611207565b600061126d8385611503565b6000806112e08385611465565b9050838110156111825760405162461bcd60e51b815260206004820152601b60248201527f536166654d6174683a206164646974696f6e206f766572666c6f7700000000006044820152606401611207565b600080549080611341836114ac565b9190505550565b60006020828403121561135a57600080fd5b5035919050565b6000806040838503121561137457600080fd5b50508035926020909101359150565b6001600160a01b038116811461139857600080fd5b50565b6000602082840312156113ad57600080fd5b813561118281611383565b600080604083850312156113cb57600080fd5b8235915060208301356113dd81611383565b809150509250929050565b600080604083850312156113fb57600080fd5b823561140681611383565b946020939093013593505050565b60006020828403121561142657600080fd5b5051919050565b60006020828403121561143f57600080fd5b8151801515811461118257600080fd5b634e487b7160e01b600052601160045260246000fd5b80820180821115610c3857610c3861144f565b60006020828403121561148a57600080fd5b815161118281611383565b8082028115828204841417610c3857610c3861144f565b6000600182016114be576114be61144f565b5060010190565b634e487b7160e01b600052601260045260246000fd5b6000826114ea576114ea6114c5565b500690565b6000826114fe576114fe6114c5565b500490565b81810381811115610c3857610c3861144f56fea264697066735822122035fe90adb065b48b52702cd08d95b976fa777c9c31115cb8de0ebda5c1f9636e64736f6c63430008110033",
    "sourcePath": "c:/Users/STC/Documents/GitHub/BRUTUS-TOKEN/contracts/Loteria-TRX/loteria-v2.sol",
    "compiler": {
        "name": "solc",
        "version": "0.8.17+commit.8df45f5f"
    },
    "functionHashes": {
        "administradores()": "055d04c3",
        "aumentarPool()": "7d68baae",
        "buyLoteria(address,uint256)": "da2181b1",
        "colaborador()": "6f19ed72",
        "contractPool()": "0bad823b",
        "lastWiner()": "722b5b99",
        "owner()": "8da5cb5b",
        "paso()": "f482b73c",
        "periodo()": "fad49bb6",
        "precio()": "9e66e0f3",
        "premio()": "50237f72",
        "proximaRonda()": "ee800c65",
        "reclamarValueNFT(uint256)": "f6901d2f",
        "retiroTRC20(uint256)": "ac846dd2",
        "retiroTRC20(uint256,address)": "d092c4d9",
        "solicitarTRXBRST(uint256)": "ec18af70",
        "sorteo()": "45865ecb",
        "terminarRetiroTRXBRST(uint256)": "08201873",
        "toBRST(uint256)": "a663c4c5",
        "tokenBRST()": "dee07735",
        "tokenTRC721()": "6d3ea6ce",
        "transferOwnership(address)": "f2fde38b",
        "trxPooled()": "05bda6b1",
        "umbral()": "125dffad",
        "update_addressPOOL(address)": "a7d6dbf7",
        "update_precio(uint256)": "361d97df",
        "update_tiempo(uint256,uint256)": "95a6e26c",
        "update_tokenTRC20(address)": "9fe10cff",
        "update_tokenTRC721(address)": "f9198756",
        "valueNFT(uint256)": "fe07d3e2"
    },
    "gasEstimates": {
        "creation": {
            "codeDepositCost": "1090400",
            "executionCost": "291300",
            "totalCost": "1381700"
        },
        "external": {
            "": "186",
            "administradores()": "2331",
            "aumentarPool()": "infinite",
            "buyLoteria(address,uint256)": "infinite",
            "colaborador()": "2374",
            "contractPool()": "2383",
            "lastWiner()": "2396",
            "owner()": "2404",
            "paso()": "2395",
            "periodo()": "2372",
            "precio()": "2395",
            "premio()": "infinite",
            "proximaRonda()": "2351",
            "reclamarValueNFT(uint256)": "infinite",
            "retiroTRC20(uint256)": "infinite",
            "retiroTRC20(uint256,address)": "infinite",
            "solicitarTRXBRST(uint256)": "infinite",
            "sorteo()": "infinite",
            "terminarRetiroTRXBRST(uint256)": "infinite",
            "toBRST(uint256)": "infinite",
            "tokenBRST()": "2448",
            "tokenTRC721()": "2405",
            "transferOwnership(address)": "30483",
            "trxPooled()": "2353",
            "umbral()": "2352",
            "update_addressPOOL(address)": "51016",
            "update_precio(uint256)": "24554",
            "update_tiempo(uint256,uint256)": "46679",
            "update_tokenTRC20(address)": "50972",
            "update_tokenTRC721(address)": "50992",
            "valueNFT(uint256)": "2537"
        }
    }
}