{
    "contractName": "Lottery",
    "abi": [
        {
            "anonymous": false,
            "inputs": [
                {
                    "indexed": true,
                    "internalType": "address",
                    "name": "previousOwner",
                    "type": "address"
                },
                {
                    "indexed": true,
                    "internalType": "address",
                    "name": "newOwner",
                    "type": "address"
                }
            ],
            "name": "OwnershipTransferred",
            "type": "event"
        },
        {
            "stateMutability": "payable",
            "type": "fallback"
        },
        {
            "inputs": [
                {
                    "internalType": "address",
                    "name": "_user",
                    "type": "address"
                }
            ],
            "name": "allValueNFTs",
            "outputs": [
                {
                    "internalType": "uint256",
                    "name": "tron",
                    "type": "uint256"
                }
            ],
            "stateMutability": "view",
            "type": "function"
        },
        {
            "inputs": [],
            "name": "beneficio",
            "outputs": [
                {
                    "internalType": "uint256",
                    "name": "",
                    "type": "uint256"
                }
            ],
            "stateMutability": "view",
            "type": "function"
        },
        {
            "inputs": [
                {
                    "internalType": "address",
                    "name": "_user",
                    "type": "address"
                },
                {
                    "internalType": "uint256",
                    "name": "_cantidad",
                    "type": "uint256"
                }
            ],
            "name": "buyLoteria",
            "outputs": [],
            "stateMutability": "payable",
            "type": "function"
        },
        {
            "inputs": [
                {
                    "internalType": "uint256",
                    "name": "_beneficio",
                    "type": "uint256"
                },
                {
                    "internalType": "uint256",
                    "name": "_precicion",
                    "type": "uint256"
                }
            ],
            "name": "changeBeneficioTeam",
            "outputs": [],
            "stateMutability": "nonpayable",
            "type": "function"
        },
        {
            "inputs": [
                {
                    "internalType": "address",
                    "name": "_wallet",
                    "type": "address"
                }
            ],
            "name": "changeWalletTeam",
            "outputs": [],
            "stateMutability": "nonpayable",
            "type": "function"
        },
        {
            "inputs": [],
            "name": "contractPool",
            "outputs": [
                {
                    "internalType": "address",
                    "name": "",
                    "type": "address"
                }
            ],
            "stateMutability": "view",
            "type": "function"
        },
        {
            "inputs": [],
            "name": "lastWiner",
            "outputs": [
                {
                    "internalType": "uint256",
                    "name": "",
                    "type": "uint256"
                }
            ],
            "stateMutability": "view",
            "type": "function"
        },
        {
            "inputs": [],
            "name": "owner",
            "outputs": [
                {
                    "internalType": "address payable",
                    "name": "",
                    "type": "address"
                }
            ],
            "stateMutability": "view",
            "type": "function"
        },
        {
            "inputs": [],
            "name": "paso",
            "outputs": [
                {
                    "internalType": "uint256",
                    "name": "",
                    "type": "uint256"
                }
            ],
            "stateMutability": "view",
            "type": "function"
        },
        {
            "inputs": [],
            "name": "periodo",
            "outputs": [
                {
                    "internalType": "uint256",
                    "name": "",
                    "type": "uint256"
                }
            ],
            "stateMutability": "view",
            "type": "function"
        },
        {
            "inputs": [],
            "name": "precicion",
            "outputs": [
                {
                    "internalType": "uint256",
                    "name": "",
                    "type": "uint256"
                }
            ],
            "stateMutability": "view",
            "type": "function"
        },
        {
            "inputs": [],
            "name": "precio",
            "outputs": [
                {
                    "internalType": "uint256",
                    "name": "",
                    "type": "uint256"
                }
            ],
            "stateMutability": "view",
            "type": "function"
        },
        {
            "inputs": [],
            "name": "premio",
            "outputs": [
                {
                    "internalType": "uint256",
                    "name": "",
                    "type": "uint256"
                }
            ],
            "stateMutability": "view",
            "type": "function"
        },
        {
            "inputs": [],
            "name": "premioTeam",
            "outputs": [
                {
                    "internalType": "uint256",
                    "name": "",
                    "type": "uint256"
                }
            ],
            "stateMutability": "view",
            "type": "function"
        },
        {
            "inputs": [],
            "name": "proximaRonda",
            "outputs": [
                {
                    "internalType": "uint256",
                    "name": "",
                    "type": "uint256"
                }
            ],
            "stateMutability": "view",
            "type": "function"
        },
        {
            "inputs": [
                {
                    "internalType": "address",
                    "name": "_user",
                    "type": "address"
                }
            ],
            "name": "reclamarPremio",
            "outputs": [],
            "stateMutability": "nonpayable",
            "type": "function"
        },
        {
            "inputs": [
                {
                    "internalType": "uint256",
                    "name": "_nft",
                    "type": "uint256"
                }
            ],
            "name": "reclamarValueNFT",
            "outputs": [],
            "stateMutability": "nonpayable",
            "type": "function"
        },
        {
            "inputs": [
                {
                    "internalType": "uint256",
                    "name": "_tokenId",
                    "type": "uint256"
                }
            ],
            "name": "retiroTRC20",
            "outputs": [],
            "stateMutability": "nonpayable",
            "type": "function"
        },
        {
            "inputs": [
                {
                    "internalType": "uint256",
                    "name": "_value",
                    "type": "uint256"
                },
                {
                    "internalType": "address",
                    "name": "_TRC20",
                    "type": "address"
                }
            ],
            "name": "retiroTRC20",
            "outputs": [],
            "stateMutability": "nonpayable",
            "type": "function"
        },
        {
            "inputs": [
                {
                    "internalType": "uint256",
                    "name": "_valor",
                    "type": "uint256"
                }
            ],
            "name": "solicitarTRXBRST",
            "outputs": [],
            "stateMutability": "nonpayable",
            "type": "function"
        },
        {
            "inputs": [],
            "name": "sorteo",
            "outputs": [
                {
                    "internalType": "uint256",
                    "name": "myNumber",
                    "type": "uint256"
                }
            ],
            "stateMutability": "nonpayable",
            "type": "function"
        },
        {
            "inputs": [
                {
                    "internalType": "uint256",
                    "name": "_id",
                    "type": "uint256"
                }
            ],
            "name": "terminarRetiroTRXBRST",
            "outputs": [],
            "stateMutability": "nonpayable",
            "type": "function"
        },
        {
            "inputs": [
                {
                    "internalType": "uint256",
                    "name": "_value",
                    "type": "uint256"
                }
            ],
            "name": "toBRST",
            "outputs": [
                {
                    "internalType": "uint256",
                    "name": "",
                    "type": "uint256"
                }
            ],
            "stateMutability": "view",
            "type": "function"
        },
        {
            "inputs": [],
            "name": "toTeam",
            "outputs": [
                {
                    "internalType": "uint256",
                    "name": "",
                    "type": "uint256"
                }
            ],
            "stateMutability": "view",
            "type": "function"
        },
        {
            "inputs": [],
            "name": "tokenBRST",
            "outputs": [
                {
                    "internalType": "address",
                    "name": "",
                    "type": "address"
                }
            ],
            "stateMutability": "view",
            "type": "function"
        },
        {
            "inputs": [],
            "name": "tokenTRC721",
            "outputs": [
                {
                    "internalType": "address",
                    "name": "",
                    "type": "address"
                }
            ],
            "stateMutability": "view",
            "type": "function"
        },
        {
            "inputs": [
                {
                    "internalType": "address payable",
                    "name": "newOwner",
                    "type": "address"
                }
            ],
            "name": "transferOwnership",
            "outputs": [],
            "stateMutability": "nonpayable",
            "type": "function"
        },
        {
            "inputs": [],
            "name": "trxPooled",
            "outputs": [
                {
                    "internalType": "uint256",
                    "name": "",
                    "type": "uint256"
                }
            ],
            "stateMutability": "view",
            "type": "function"
        },
        {
            "inputs": [
                {
                    "internalType": "address",
                    "name": "_addressPOOL",
                    "type": "address"
                }
            ],
            "name": "update_addressPOOL",
            "outputs": [],
            "stateMutability": "nonpayable",
            "type": "function"
        },
        {
            "inputs": [
                {
                    "internalType": "uint256",
                    "name": "_precio",
                    "type": "uint256"
                }
            ],
            "name": "update_precio",
            "outputs": [],
            "stateMutability": "nonpayable",
            "type": "function"
        },
        {
            "inputs": [
                {
                    "internalType": "uint256",
                    "name": "_periodo",
                    "type": "uint256"
                },
                {
                    "internalType": "uint256",
                    "name": "_proxRonda",
                    "type": "uint256"
                }
            ],
            "name": "update_tiempo",
            "outputs": [],
            "stateMutability": "nonpayable",
            "type": "function"
        },
        {
            "inputs": [
                {
                    "internalType": "address",
                    "name": "_tokenBRST",
                    "type": "address"
                }
            ],
            "name": "update_tokenTRC20",
            "outputs": [],
            "stateMutability": "nonpayable",
            "type": "function"
        },
        {
            "inputs": [
                {
                    "internalType": "address",
                    "name": "_tokenTRC721",
                    "type": "address"
                }
            ],
            "name": "update_tokenTRC721",
            "outputs": [],
            "stateMutability": "nonpayable",
            "type": "function"
        },
        {
            "inputs": [
                {
                    "internalType": "uint256",
                    "name": "_nft",
                    "type": "uint256"
                }
            ],
            "name": "valueNFT",
            "outputs": [
                {
                    "internalType": "uint256",
                    "name": "tron",
                    "type": "uint256"
                }
            ],
            "stateMutability": "view",
            "type": "function"
        },
        {
            "inputs": [],
            "name": "walletTeam",
            "outputs": [
                {
                    "internalType": "address",
                    "name": "",
                    "type": "address"
                }
            ],
            "stateMutability": "view",
            "type": "function"
        },
        {
            "stateMutability": "payable",
            "type": "receive"
        }
    ],
    "bytecode": "60806040526305f5e10060025560146006556064600755600880546001600160a01b03199081167351a2ae8110057556c9fa4dc18964aca5f6d47945179091555f600a55601e600b55600c8054821673d36c2506ef27fa376612ecba208926ba0261a4ad908117909155600d8054831673922de0b0fd795bb6cd34b8a38ea0ba6954e93af6908117909155600e8054841673b5ea6649ddb66cc296a7ee0e07d5b526dbaf01f8908117909155600f805485169093179092556010805484169091179055601180549092161790553480156100d7575f80fd5b505f80546001600160a01b03191633179055611823806100f65f395ff3fe6080604052600436106101ef575f3560e01c80639e66e0f31161010b578063dee0773511610099578063f482b73c1161006b578063f482b73c14610551578063f6901d2f14610566578063f919875614610585578063fad49bb6146105a4578063fe07d3e2146105b957005b8063dee07735146104df578063ec18af70146104fe578063ee800c651461051d578063f2fde38b1461053257005b8063a7d6dbf7116100dd578063a7d6dbf714610450578063ac846dd21461046f578063cdd5e0891461048e578063d092c4d9146104ad578063da2181b1146104cc57005b80639e66e0f3146103e85780639fe10cff146103fd578063a663c4c51461041c578063a6747af81461043b57005b806362daa4b611610188578063722b5b991161015a578063722b5b991461036d57806382575ca6146103825780638da5cb5b14610396578063943b367b146103b457806395a6e26c146103c957005b806362daa4b6146102f1578063688ba636146103105780636d3ea6ce1461032f578063713e25c81461034e57005b806334733a77116101c157806334733a771461028b578063361d97df146102aa57806345865ecb146102c957806350237f72146102dd57005b806305bda6b1146101f857806308201873146102205780630a35a8581461023f5780630bad823b1461025457005b366101f657005b005b348015610203575f80fd5b5061020d60035481565b6040519081526020015b60405180910390f35b34801561022b575f80fd5b506101f661023a366004611638565b6105e4565b34801561024a575f80fd5b5061020d60075481565b34801561025f575f80fd5b50600e54610273906001600160a01b031681565b6040516001600160a01b039091168152602001610217565b348015610296575f80fd5b506101f66102a5366004611666565b610656565b3480156102b5575f80fd5b506101f66102c4366004611638565b610704565b3480156102d4575f80fd5b5061020d61071e565b3480156102e8575f80fd5b5061020d610b57565b3480156102fc575f80fd5b5061020d61030b366004611666565b610b91565b34801561031b575f80fd5b50600854610273906001600160a01b031681565b34801561033a575f80fd5b50600d54610273906001600160a01b031681565b348015610359575f80fd5b506101f6610368366004611681565b610cc0565b348015610378575f80fd5b5061020d60055481565b34801561038d575f80fd5b5061020d610ce0565b3480156103a1575f80fd5b505f54610273906001600160a01b031681565b3480156103bf575f80fd5b5061020d60095481565b3480156103d4575f80fd5b506101f66103e3366004611681565b610d05565b3480156103f3575f80fd5b5061020d60025481565b348015610408575f80fd5b506101f6610417366004611666565b610d22565b348015610427575f80fd5b5061020d610436366004611638565b610d63565b348015610446575f80fd5b5061020d60065481565b34801561045b575f80fd5b506101f661046a366004611666565b610def565b34801561047a575f80fd5b506101f6610489366004611638565b610e30565b348015610499575f80fd5b506101f66104a8366004611666565b610e82565b3480156104b8575f80fd5b506101f66104c73660046116a1565b610eb9565b6101f66104da3660046116cf565b610f41565b3480156104ea575f80fd5b50600c54610273906001600160a01b031681565b348015610509575f80fd5b506101f6610518366004611638565b61109f565b348015610528575f80fd5b5061020d600a5481565b34801561053d575f80fd5b506101f661054c366004611666565b611196565b34801561055c575f80fd5b5061020d60045481565b348015610571575f80fd5b506101f6610580366004611638565b611216565b348015610590575f80fd5b506101f661059f366004611666565b6112e7565b3480156105af575f80fd5b5061020d600b5481565b3480156105c4575f80fd5b5061020d6105d3366004611638565b5f9081526012602052604090205490565b5f546001600160a01b031633146105f9575f80fd5b60115460405163e8b1298f60e01b8152600481018390526001600160a01b039091169063e8b1298f906024015b5f604051808303815f87803b15801561063d575f80fd5b505af115801561064f573d5f803e3d5ffd5b5050505050565b5f61066082610b91565b90505f8111801561067d5750600954610679908261170d565b4710155b610685575f80fd5b6040516001600160a01b0383169082156108fc029083905f818181858888f193505050501580156106b8573d5f803e3d5ffd5b5060095415610700576008546009546040516001600160a01b039092169181156108fc0291905f818181858888f193505050501580156106fa573d5f803e3d5ffd5b505f6009555b5050565b5f546001600160a01b03163314610719575f80fd5b600255565b5f80610728610b57565b600f54600e54604051636eb1769f60e11b81523060048201526001600160a01b039182166024820152929350633b9aca009291169063dd62ed3e90604401602060405180830381865afa158015610781573d5f803e3d5ffd5b505050506040513d601f19601f820116820180604052508101906107a59190611720565b1161082257600f54600e5460405163095ea7b360e01b81526001600160a01b0391821660048201525f19602482015291169063095ea7b3906044016020604051808303815f875af11580156107fc573d5f803e3d5ffd5b505050506040513d601f19601f820116820180604052508101906108209190611737565b505b42600a541061082f575f80fd5b600a545f0361084d57600b54610845904261170d565b600a55610861565b600b54600a5461085d919061170d565b600a555b60045415610adc576004546005546040805160208101929092524290820152434060608201526108af919060800160408051601f198184030181529190528051602090910120600154611328565b91508015610ad6576108cb6108c2610ce0565b6009549061138b565b600955476108d76113f5565b11156109f65760115460408051631993a5c160e21b815290516001600160a01b03909216916375b2a5469161096f91849163664e97049160048083019260209291908290030181865afa158015610930573d5f803e3d5ffd5b505050506040513d601f19601f820116820180604052508101906109549190611720565b610969620f42406109636113f5565b90611503565b90611581565b6040518263ffffffff1660e01b815260040161098d91815260200190565b6020604051808303815f875af11580156109a9573d5f803e3d5ffd5b505050506040513d601f19601f820116820180604052508101906109cd9190611720565b505f82815260126020526040812080548392906109eb90849061170d565b90915550610ad69050565b6010546040516331a9108f60e11b8152600481018490526001600160a01b0390911690636352211e90602401602060405180830381865afa158015610a3d573d5f803e3d5ffd5b505050506040513d601f19601f82011682018060405250810190610a619190611756565b6001600160a01b03166108fc8290811502906040515f60405180830381858888f19350505050158015610a96573d5f803e3d5ffd5b506008546009546040516001600160a01b039092169181156108fc0291905f818181858888f19350505050158015610ad0573d5f803e3d5ffd5b505f6009555b60058290555b60105f9054906101000a90046001600160a01b03166001600160a01b03166318160ddd6040518163ffffffff1660e01b8152600401602060405180830381865afa158015610b2c573d5f803e3d5ffd5b505050506040513d601f19601f82011682018060405250810190610b509190611720565b6004555090565b5f805f610b626113f5565b1115610b8c57610b89600754610969600654600754610b819190611771565b6109636113f5565b90505b919050565b6010546040516370a0823160e01b81526001600160a01b0383811660048301525f9283929116906370a0823190602401602060405180830381865afa158015610bdc573d5f803e3d5ffd5b505050506040513d601f19601f82011682018060405250810190610c009190611720565b90505f5b81811015610cb957601054604051632f745c5960e01b81526001600160a01b03868116600483015260248201849052610ca5926012925f9290911690632f745c5990604401602060405180830381865afa158015610c64573d5f803e3d5ffd5b505050506040513d601f19601f82011682018060405250810190610c889190611720565b81526020019081526020015f20548461138b90919063ffffffff16565b925080610cb181611784565b915050610c04565b5050919050565b5f546001600160a01b03163314610cd5575f80fd5b600691909155600755565b5f805f610ceb6113f5565b1115610b8c57610b896007546109696006546109636113f5565b5f546001600160a01b03163314610d1a575f80fd5b600a55600b55565b5f546001600160a01b03163314610d37575f80fd5b600c80546001600160a01b039092166001600160a01b03199283168117909155600f8054909216179055565b5f610de9620f424061096960115f9054906101000a90046001600160a01b03166001600160a01b031663664e97046040518163ffffffff1660e01b8152600401602060405180830381865afa158015610dbe573d5f803e3d5ffd5b505050506040513d601f19601f82011682018060405250810190610de29190611720565b8590611503565b92915050565b5f546001600160a01b03163314610e04575f80fd5b600e80546001600160a01b039092166001600160a01b0319928316811790915560118054909216179055565b5f546001600160a01b03163314610e45575f80fd5b6010546040516323b872dd60e01b8152306004820152336024820152604481018390526001600160a01b03909116906323b872dd90606401610626565b5f546001600160a01b03163314610e97575f80fd5b600880546001600160a01b0319166001600160a01b0392909216919091179055565b5f546001600160a01b03163314610ece575f80fd5b60405163a9059cbb60e01b8152336004820152602481018390526001600160a01b0382169063a9059cbb906044016020604051808303815f875af1158015610f18573d5f803e3d5ffd5b505050506040513d601f19601f82011682018060405250810190610f3c9190611737565b505050565b600a545f03610f5b57600b54610f57904261170d565b600a555b5f60025482610f6a919061179c565b9050803414610f77575f80fd5b60115f9054906101000a90046001600160a01b03166001600160a01b0316634cf088d9346040518263ffffffff1660e01b815260040160206040518083038185885af1158015610fc9573d5f803e3d5ffd5b50505050506040513d601f19601f82011682018060405250810190610fee9190611720565b50600354610ffc903461138b565b6003555f5b82811015611089576010546040516303f8e6eb60e31b81526001600160a01b03868116600483015290911690631fc73758906024016020604051808303815f875af1158015611052573d5f803e3d5ffd5b505050506040513d601f19601f820116820180604052508101906110769190611737565b508061108181611784565b915050611001565b50600180546110979161170d565b600155505050565b5f546001600160a01b031633146110b4575f80fd5b60115460408051631993a5c160e21b815290516001600160a01b03909216916375b2a5469161113891849163664e97049160048083019260209291908290030181865afa158015611107573d5f803e3d5ffd5b505050506040513d601f19601f8201168201806040525081019061112b9190611720565b61096985620f4240611503565b6040518263ffffffff1660e01b815260040161115691815260200190565b6020604051808303815f875af1158015611172573d5f803e3d5ffd5b505050506040513d601f19601f820116820180604052508101906107009190611720565b5f546001600160a01b031633146111ab575f80fd5b6001600160a01b0381166111bd575f80fd5b5f80546040516001600160a01b03808516939216917f8be0079c531659141344cd1fd0a4f28419497f9722a3daafe3b4186f6b6457e091a35f80546001600160a01b0319166001600160a01b0392909216919091179055565b5f81815260126020526040902054801580159061123f575060095461123b908261170d565b4710155b611247575f80fd5b6010546040516331a9108f60e11b8152600481018490526001600160a01b0390911690636352211e90602401602060405180830381865afa15801561128e573d5f803e3d5ffd5b505050506040513d601f19601f820116820180604052508101906112b29190611756565b6001600160a01b03166108fc8290811502906040515f60405180830381858888f193505050501580156106b8573d5f803e3d5ffd5b5f546001600160a01b031633146112fc575f80fd5b600d80546001600160a01b039092166001600160a01b0319928316811790915560108054909216179055565b604080514260208201526bffffffffffffffffffffffff193360601b169181019190915260548101839052607481018290525f908490609401604051602081830303815290604052805190602001205f1c61138391906117c7565b949350505050565b5f80611397838561170d565b9050838110156113ee5760405162461bcd60e51b815260206004820152601b60248201527f536166654d6174683a206164646974696f6e206f766572666c6f77000000000060448201526064015b60405180910390fd5b9392505050565b5f805f6114e0620f424061096960115f9054906101000a90046001600160a01b03166001600160a01b031663664e97046040518163ffffffff1660e01b8152600401602060405180830381865afa158015611452573d5f803e3d5ffd5b505050506040513d601f19601f820116820180604052508101906114769190611720565b600f546040516370a0823160e01b81523060048201526001600160a01b03909116906370a0823190602401602060405180830381865afa1580156114bc573d5f803e3d5ffd5b505050506040513d601f19601f820116820180604052508101906109639190611720565b90506003548111156114fd576003546114fa9082906115dc565b91505b50919050565b5f825f0361151257505f610de9565b5f61151d838561179c565b90508261152a85836117da565b146113ee5760405162461bcd60e51b815260206004820152602160248201527f536166654d6174683a206d756c7469706c69636174696f6e206f766572666c6f6044820152607760f81b60648201526084016113e5565b5f8082116115d15760405162461bcd60e51b815260206004820152601a60248201527f536166654d6174683a206469766973696f6e206279207a65726f00000000000060448201526064016113e5565b5f61138383856117da565b5f8282111561162d5760405162461bcd60e51b815260206004820152601e60248201527f536166654d6174683a207375627472616374696f6e206f766572666c6f77000060448201526064016113e5565b5f6113838385611771565b5f60208284031215611648575f80fd5b5035919050565b6001600160a01b0381168114611663575f80fd5b50565b5f60208284031215611676575f80fd5b81356113ee8161164f565b5f8060408385031215611692575f80fd5b50508035926020909101359150565b5f80604083850312156116b2575f80fd5b8235915060208301356116c48161164f565b809150509250929050565b5f80604083850312156116e0575f80fd5b82356116eb8161164f565b946020939093013593505050565b634e487b7160e01b5f52601160045260245ffd5b80820180821115610de957610de96116f9565b5f60208284031215611730575f80fd5b5051919050565b5f60208284031215611747575f80fd5b815180151581146113ee575f80fd5b5f60208284031215611766575f80fd5b81516113ee8161164f565b81810381811115610de957610de96116f9565b5f60018201611795576117956116f9565b5060010190565b8082028115828204841417610de957610de96116f9565b634e487b7160e01b5f52601260045260245ffd5b5f826117d5576117d56117b3565b500690565b5f826117e8576117e86117b3565b50049056fea264697066735822122023f41ba998f1e014b67b58ea7e3fe01a2ca20781684d199b8f7cced49c1bad0964736f6c63430008140033",
    "sourcePath": "c:/Users/STC/Documents/GitHub/BRUTUS-TOKEN/contracts/Loteria-TRX/lottery.sol",
    "compiler": {
        "name": "solc",
        "version": "0.8.20+commit.a1b79de6"
    },
    "functionHashes": {
        "allValueNFTs(address)": "62daa4b6",
        "beneficio()": "a6747af8",
        "buyLoteria(address,uint256)": "da2181b1",
        "changeBeneficioTeam(uint256,uint256)": "713e25c8",
        "changeWalletTeam(address)": "cdd5e089",
        "contractPool()": "0bad823b",
        "lastWiner()": "722b5b99",
        "owner()": "8da5cb5b",
        "paso()": "f482b73c",
        "periodo()": "fad49bb6",
        "precicion()": "0a35a858",
        "precio()": "9e66e0f3",
        "premio()": "50237f72",
        "premioTeam()": "82575ca6",
        "proximaRonda()": "ee800c65",
        "reclamarPremio(address)": "34733a77",
        "reclamarValueNFT(uint256)": "f6901d2f",
        "retiroTRC20(uint256)": "ac846dd2",
        "retiroTRC20(uint256,address)": "d092c4d9",
        "solicitarTRXBRST(uint256)": "ec18af70",
        "sorteo()": "45865ecb",
        "terminarRetiroTRXBRST(uint256)": "08201873",
        "toBRST(uint256)": "a663c4c5",
        "toTeam()": "943b367b",
        "tokenBRST()": "dee07735",
        "tokenTRC721()": "6d3ea6ce",
        "transferOwnership(address)": "f2fde38b",
        "trxPooled()": "05bda6b1",
        "update_addressPOOL(address)": "a7d6dbf7",
        "update_precio(uint256)": "361d97df",
        "update_tiempo(uint256,uint256)": "95a6e26c",
        "update_tokenTRC20(address)": "9fe10cff",
        "update_tokenTRC721(address)": "f9198756",
        "valueNFT(uint256)": "fe07d3e2",
        "walletTeam()": "688ba636"
    },
    "gasEstimates": {
        "creation": {
            "codeDepositCost": "1235800",
            "executionCost": "288556",
            "totalCost": "1524356"
        },
        "external": {
            "": "207",
            "allValueNFTs(address)": "infinite",
            "beneficio()": "2395",
            "buyLoteria(address,uint256)": "infinite",
            "changeBeneficioTeam(uint256,uint256)": "46708",
            "changeWalletTeam(address)": "26791",
            "contractPool()": "2449",
            "lastWiner()": "2328",
            "owner()": "2424",
            "paso()": "2327",
            "periodo()": "2393",
            "precicion()": "2374",
            "precio()": "2329",
            "premio()": "infinite",
            "premioTeam()": "infinite",
            "proximaRonda()": "2372",
            "reclamarPremio(address)": "infinite",
            "reclamarValueNFT(uint256)": "infinite",
            "retiroTRC20(uint256)": "infinite",
            "retiroTRC20(uint256,address)": "infinite",
            "solicitarTRXBRST(uint256)": "infinite",
            "sorteo()": "infinite",
            "terminarRetiroTRXBRST(uint256)": "infinite",
            "toBRST(uint256)": "infinite",
            "toTeam()": "2394",
            "tokenBRST()": "2381",
            "tokenTRC721()": "2426",
            "transferOwnership(address)": "30500",
            "trxPooled()": "2330",
            "update_addressPOOL(address)": "50968",
            "update_precio(uint256)": "24529",
            "update_tiempo(uint256,uint256)": "46720",
            "update_tokenTRC20(address)": "50991",
            "update_tokenTRC721(address)": "51011",
            "valueNFT(uint256)": "2556",
            "walletTeam()": "2404"
        },
        "internal": {
            "_premio()": "infinite"
        }
    }
}