{
    "contractName": "Lottery",
    "abi": [
        {
            "inputs": [],
            "stateMutability": "nonpayable",
            "type": "constructor"
        },
        {
            "stateMutability": "payable",
            "type": "fallback"
        },
        {
            "inputs": [],
            "name": "adminProxy",
            "outputs": [
                {
                    "internalType": "address",
                    "name": "",
                    "type": "address"
                }
            ],
            "stateMutability": "view",
            "type": "function"
        },
        {
            "inputs": [
                {
                    "internalType": "address",
                    "name": "_user",
                    "type": "address"
                }
            ],
            "name": "allValueNFTs",
            "outputs": [
                {
                    "internalType": "uint256",
                    "name": "tron",
                    "type": "uint256"
                }
            ],
            "stateMutability": "view",
            "type": "function"
        },
        {
            "inputs": [],
            "name": "beneficio",
            "outputs": [
                {
                    "internalType": "uint256",
                    "name": "",
                    "type": "uint256"
                }
            ],
            "stateMutability": "view",
            "type": "function"
        },
        {
            "inputs": [
                {
                    "internalType": "address",
                    "name": "_user",
                    "type": "address"
                },
                {
                    "internalType": "uint256",
                    "name": "_cantidad",
                    "type": "uint256"
                }
            ],
            "name": "buyLoteria",
            "outputs": [],
            "stateMutability": "payable",
            "type": "function"
        },
        {
            "inputs": [
                {
                    "internalType": "uint256",
                    "name": "_beneficio",
                    "type": "uint256"
                },
                {
                    "internalType": "uint256",
                    "name": "_precicion",
                    "type": "uint256"
                }
            ],
            "name": "changeBeneficioTeam",
            "outputs": [],
            "stateMutability": "nonpayable",
            "type": "function"
        },
        {
            "inputs": [
                {
                    "internalType": "address",
                    "name": "_wallet",
                    "type": "address"
                }
            ],
            "name": "changeWalletTeam",
            "outputs": [],
            "stateMutability": "nonpayable",
            "type": "function"
        },
        {
            "inputs": [],
            "name": "contractPool",
            "outputs": [
                {
                    "internalType": "address",
                    "name": "",
                    "type": "address"
                }
            ],
            "stateMutability": "view",
            "type": "function"
        },
        {
            "inputs": [],
            "name": "iniciado",
            "outputs": [
                {
                    "internalType": "bool",
                    "name": "",
                    "type": "bool"
                }
            ],
            "stateMutability": "view",
            "type": "function"
        },
        {
            "inputs": [],
            "name": "inicializar",
            "outputs": [],
            "stateMutability": "nonpayable",
            "type": "function"
        },
        {
            "inputs": [],
            "name": "lastWiner",
            "outputs": [
                {
                    "internalType": "uint256",
                    "name": "",
                    "type": "uint256"
                }
            ],
            "stateMutability": "view",
            "type": "function"
        },
        {
            "inputs": [],
            "name": "paso",
            "outputs": [
                {
                    "internalType": "uint256",
                    "name": "",
                    "type": "uint256"
                }
            ],
            "stateMutability": "view",
            "type": "function"
        },
        {
            "inputs": [],
            "name": "periodo",
            "outputs": [
                {
                    "internalType": "uint256",
                    "name": "",
                    "type": "uint256"
                }
            ],
            "stateMutability": "view",
            "type": "function"
        },
        {
            "inputs": [],
            "name": "precicion",
            "outputs": [
                {
                    "internalType": "uint256",
                    "name": "",
                    "type": "uint256"
                }
            ],
            "stateMutability": "view",
            "type": "function"
        },
        {
            "inputs": [],
            "name": "precio",
            "outputs": [
                {
                    "internalType": "uint256",
                    "name": "",
                    "type": "uint256"
                }
            ],
            "stateMutability": "view",
            "type": "function"
        },
        {
            "inputs": [],
            "name": "premio",
            "outputs": [
                {
                    "internalType": "uint256",
                    "name": "prix",
                    "type": "uint256"
                }
            ],
            "stateMutability": "view",
            "type": "function"
        },
        {
            "inputs": [],
            "name": "premioTeam",
            "outputs": [
                {
                    "internalType": "uint256",
                    "name": "prix",
                    "type": "uint256"
                }
            ],
            "stateMutability": "view",
            "type": "function"
        },
        {
            "inputs": [],
            "name": "proximaRonda",
            "outputs": [
                {
                    "internalType": "uint256",
                    "name": "",
                    "type": "uint256"
                }
            ],
            "stateMutability": "view",
            "type": "function"
        },
        {
            "inputs": [
                {
                    "internalType": "address",
                    "name": "_user",
                    "type": "address"
                }
            ],
            "name": "reclamarPremio",
            "outputs": [],
            "stateMutability": "nonpayable",
            "type": "function"
        },
        {
            "inputs": [
                {
                    "internalType": "uint256",
                    "name": "_nft",
                    "type": "uint256"
                }
            ],
            "name": "reclamarValueNFT",
            "outputs": [],
            "stateMutability": "nonpayable",
            "type": "function"
        },
        {
            "inputs": [
                {
                    "internalType": "uint256",
                    "name": "_tokenId",
                    "type": "uint256"
                }
            ],
            "name": "retiroTRC20",
            "outputs": [],
            "stateMutability": "nonpayable",
            "type": "function"
        },
        {
            "inputs": [
                {
                    "internalType": "uint256",
                    "name": "_value",
                    "type": "uint256"
                },
                {
                    "internalType": "address",
                    "name": "_TRC20",
                    "type": "address"
                }
            ],
            "name": "retiroTRC20",
            "outputs": [],
            "stateMutability": "nonpayable",
            "type": "function"
        },
        {
            "inputs": [],
            "name": "retiroToTeam",
            "outputs": [],
            "stateMutability": "nonpayable",
            "type": "function"
        },
        {
            "inputs": [
                {
                    "internalType": "uint256",
                    "name": "_valor",
                    "type": "uint256"
                }
            ],
            "name": "solicitarRetiroPool",
            "outputs": [],
            "stateMutability": "nonpayable",
            "type": "function"
        },
        {
            "inputs": [],
            "name": "sorteo",
            "outputs": [
                {
                    "internalType": "uint256",
                    "name": "myNumber",
                    "type": "uint256"
                }
            ],
            "stateMutability": "nonpayable",
            "type": "function"
        },
        {
            "inputs": [
                {
                    "internalType": "uint256",
                    "name": "_id",
                    "type": "uint256"
                },
                {
                    "internalType": "bool",
                    "name": "_all",
                    "type": "bool"
                }
            ],
            "name": "terminarRetiroPool",
            "outputs": [
                {
                    "internalType": "bool[]",
                    "name": "ret",
                    "type": "bool[]"
                }
            ],
            "stateMutability": "nonpayable",
            "type": "function"
        },
        {
            "inputs": [
                {
                    "internalType": "uint256",
                    "name": "_value",
                    "type": "uint256"
                }
            ],
            "name": "toBRST",
            "outputs": [
                {
                    "internalType": "uint256",
                    "name": "",
                    "type": "uint256"
                }
            ],
            "stateMutability": "view",
            "type": "function"
        },
        {
            "inputs": [],
            "name": "toTeam",
            "outputs": [
                {
                    "internalType": "uint256",
                    "name": "",
                    "type": "uint256"
                }
            ],
            "stateMutability": "view",
            "type": "function"
        },
        {
            "inputs": [],
            "name": "tokenBRST",
            "outputs": [
                {
                    "internalType": "address",
                    "name": "",
                    "type": "address"
                }
            ],
            "stateMutability": "view",
            "type": "function"
        },
        {
            "inputs": [],
            "name": "tokenTRC721",
            "outputs": [
                {
                    "internalType": "address",
                    "name": "",
                    "type": "address"
                }
            ],
            "stateMutability": "view",
            "type": "function"
        },
        {
            "inputs": [],
            "name": "trxPooled",
            "outputs": [
                {
                    "internalType": "uint256",
                    "name": "",
                    "type": "uint256"
                }
            ],
            "stateMutability": "view",
            "type": "function"
        },
        {
            "inputs": [
                {
                    "internalType": "address",
                    "name": "_addressPOOL",
                    "type": "address"
                }
            ],
            "name": "update_addressPOOL",
            "outputs": [],
            "stateMutability": "nonpayable",
            "type": "function"
        },
        {
            "inputs": [
                {
                    "internalType": "uint256",
                    "name": "_precio",
                    "type": "uint256"
                }
            ],
            "name": "update_precio",
            "outputs": [],
            "stateMutability": "nonpayable",
            "type": "function"
        },
        {
            "inputs": [
                {
                    "internalType": "uint256",
                    "name": "_periodo",
                    "type": "uint256"
                },
                {
                    "internalType": "uint256",
                    "name": "_proxRonda",
                    "type": "uint256"
                }
            ],
            "name": "update_tiempo",
            "outputs": [],
            "stateMutability": "nonpayable",
            "type": "function"
        },
        {
            "inputs": [
                {
                    "internalType": "address",
                    "name": "_tokenBRST",
                    "type": "address"
                }
            ],
            "name": "update_tokenTRC20",
            "outputs": [],
            "stateMutability": "nonpayable",
            "type": "function"
        },
        {
            "inputs": [
                {
                    "internalType": "address",
                    "name": "_tokenTRC721",
                    "type": "address"
                }
            ],
            "name": "update_tokenTRC721",
            "outputs": [],
            "stateMutability": "nonpayable",
            "type": "function"
        },
        {
            "inputs": [
                {
                    "internalType": "uint256",
                    "name": "_nft",
                    "type": "uint256"
                }
            ],
            "name": "valueNFT",
            "outputs": [
                {
                    "internalType": "uint256",
                    "name": "tron",
                    "type": "uint256"
                }
            ],
            "stateMutability": "view",
            "type": "function"
        },
        {
            "inputs": [],
            "name": "verRetirosP",
            "outputs": [
                {
                    "internalType": "uint256[]",
                    "name": "",
                    "type": "uint256[]"
                }
            ],
            "stateMutability": "view",
            "type": "function"
        },
        {
            "inputs": [],
            "name": "walletTeam",
            "outputs": [
                {
                    "internalType": "address",
                    "name": "",
                    "type": "address"
                }
            ],
            "stateMutability": "view",
            "type": "function"
        },
        {
            "stateMutability": "payable",
            "type": "receive"
        }
    ],
    "bytecode": "60806040526012805460ff1916600117905534801561001c575f80fd5b50611d798061002a5f395ff3fe608060405260043610610210575f3560e01c80639e66e0f311610116578063da00d71d116100a4578063f482b73c1161006b578063f482b73c14610689578063f6901d2f1461069e578063f9198756146106bd578063fad49bb6146106dc578063fe07d3e2146106f157005b8063da00d71d14610541578063da2181b11461056d578063dcbe327e14610580578063dee0773514610655578063ee800c651461067457005b8063a7d6dbf7116100e8578063a7d6dbf7146104b1578063ac846dd2146104d0578063c52f4f34146104ef578063cdd5e08914610503578063d092c4d91461052257005b80639e66e0f3146104495780639fe10cff1461045e578063a663c4c51461047d578063a6747af81461049c57005b8063688ba6361161019e57806382575ca61161016557806382575ca6146103c457806383bd8528146103d8578063943b367b1461040157806395a6e26c146104165780639a8665c31461043557005b8063688ba636146103315780636d3ea6ce14610350578063713e25c81461036f578063722b5b991461038e5780638192f162146103a357005b806334733a77116101e257806334733a77146102ac578063361d97df146102cb57806345865ecb146102ea57806350237f72146102fe57806362daa4b61461031257005b8063054b46c51461021957806305bda6b1146102385780630a35a858146102605780630bad823b1461027557005b3661021757005b005b348015610224575f80fd5b50610217610233366004611aa6565b61071c565b348015610243575f80fd5b5061024d60025481565b6040519081526020015b60405180910390f35b34801561026b575f80fd5b5061024d60065481565b348015610280575f80fd5b50600d54610294906001600160a01b031681565b6040516001600160a01b039091168152602001610257565b3480156102b7575f80fd5b506102176102c6366004611ad4565b610810565b3480156102d6575f80fd5b506102176102e5366004611aa6565b6108be565b3480156102f5575f80fd5b5061024d6108cb565b348015610309575f80fd5b5061024d610de5565b34801561031d575f80fd5b5061024d61032c366004611ad4565b610e1c565b34801561033c575f80fd5b50600754610294906001600160a01b031681565b34801561035b575f80fd5b50600c54610294906001600160a01b031681565b34801561037a575f80fd5b50610217610389366004611aef565b610f4b565b348015610399575f80fd5b5061024d60045481565b3480156103ae575f80fd5b506103b7610f5e565b6040516102579190611b0f565b3480156103cf575f80fd5b5061024d610fb4565b3480156103e3575f80fd5b506012546103f19060ff1681565b6040519015158152602001610257565b34801561040c575f80fd5b5061024d60085481565b348015610421575f80fd5b50610217610430366004611aef565b610fd8565b348015610440575f80fd5b50610217610fe8565b348015610454575f80fd5b5061024d60015481565b348015610469575f80fd5b50610217610478366004611ad4565b611042565b348015610488575f80fd5b5061024d610497366004611aa6565b611076565b3480156104a7575f80fd5b5061024d60055481565b3480156104bc575f80fd5b506102176104cb366004611ad4565b611102565b3480156104db575f80fd5b506102176104ea366004611aa6565b611136565b3480156104fa575f80fd5b506102946111a6565b34801561050e575f80fd5b5061021761051d366004611ad4565b611211565b34801561052d575f80fd5b5061021761053c366004611b52565b61123b565b34801561054c575f80fd5b5061056061055b366004611b8d565b6112b1565b6040516102579190611bb0565b61021761057b366004611be9565b611383565b34801561058b575f80fd5b506102176305f5e10060015560146005556064600655600780546001600160a01b03199081167351a2ae8110057556c9fa4dc18964aca5f6d4794517909155601e600a55600b8054821673d36c2506ef27fa376612ecba208926ba0261a4ad908117909155600c8054831673922de0b0fd795bb6cd34b8a38ea0ba6954e93af6908117909155600d8054841673b5ea6649ddb66cc296a7ee0e07d5b526dbaf01f8908117909155600e80548516909317909255600f80548416909117905560108054909216179055565b348015610660575f80fd5b50600b54610294906001600160a01b031681565b34801561067f575f80fd5b5061024d60095481565b348015610694575f80fd5b5061024d60035481565b3480156106a9575f80fd5b506102176106b8366004611aa6565b6114e0565b3480156106c8575f80fd5b506102176106d7366004611ad4565b6115b1565b3480156106e7575f80fd5b5061024d600a5481565b3480156106fc575f80fd5b5061024d61070b366004611aa6565b5f9081526011602052604090205490565b6107246115e5565b60105460408051631993a5c160e21b815290516001600160a01b03909216916375b2a546916107ae91849163664e97049160048083019260209291908290030181865afa158015610777573d5f803e3d5ffd5b505050506040513d601f19601f8201168201806040525081019061079b9190611c13565b6107a885620f424061160b565b90611695565b6040518263ffffffff1660e01b81526004016107cc91815260200190565b60408051808303815f875af11580156107e7573d5f803e3d5ffd5b505050506040513d601f19601f8201168201806040525081019061080b9190611c2a565b505050565b5f61081a82610e1c565b90505f8111801561083757506008546108339082611c6a565b4710155b61083f575f80fd5b6040516001600160a01b0383169082156108fc029083905f818181858888f19350505050158015610872573d5f803e3d5ffd5b50600854156108ba576007546008546040516001600160a01b039092169181156108fc0291905f818181858888f193505050501580156108b4573d5f803e3d5ffd5b505f6008555b5050565b6108c66115e5565b600155565b5f806108d5610de5565b600e54600d54604051636eb1769f60e11b81523060048201526001600160a01b039182166024820152929350633b9aca009291169063dd62ed3e90604401602060405180830381865afa15801561092e573d5f803e3d5ffd5b505050506040513d601f19601f820116820180604052508101906109529190611c13565b116109cf57600e54600d5460405163095ea7b360e01b81526001600160a01b0391821660048201525f19602482015291169063095ea7b3906044016020604051808303815f875af11580156109a9573d5f803e3d5ffd5b505050506040513d601f19601f820116820180604052508101906109cd9190611c7d565b505b42600954106109dc575f80fd5b6009545f036109fa57600a546109f29042611c6a565b600955610a0e565b600a54600954610a0a9190611c6a565b6009555b60035415610d6a57600354600454604080516020810192909252429082015243406060820152610a5b919060800160408051601f1981840301815291905280516020909101205f546116f8565b91508015610d6457610a77610a6e610fb4565b60085490611753565b60085547610a836117b1565b1115610c845760105460408051631993a5c160e21b815290515f9283926001600160a01b03909116916375b2a54691610b1991849163664e97049160048083019260209291908290030181865afa158015610ae0573d5f803e3d5ffd5b505050506040513d601f19601f82011682018060405250810190610b049190611c13565b6107a8620f4240610b136117b1565b9061160b565b6040518263ffffffff1660e01b8152600401610b3791815260200190565b60408051808303815f875af1158015610b52573d5f803e3d5ffd5b505050506040513d601f19601f82011682018060405250810190610b769190611c2a565b915091508115610c2657600f546040516331a9108f60e11b8152600481018690526001600160a01b0390911690636352211e90602401602060405180830381865afa158015610bc7573d5f803e3d5ffd5b505050506040513d601f19601f82011682018060405250810190610beb9190611c98565b6001600160a01b03166108fc8490811502906040515f60405180830381858888f19350505050158015610c20573d5f803e3d5ffd5b50610c7d565b5f8481526011602052604081208054859290610c43908490611c6a565b9091555050601380546001810182555f919091527f66de8ffda797e3de9c05e8fc57b3bf0ec28a930d40b0d285d93c06501cf6a090018190555b5050610d64565b600f546040516331a9108f60e11b8152600481018490526001600160a01b0390911690636352211e90602401602060405180830381865afa158015610ccb573d5f803e3d5ffd5b505050506040513d601f19601f82011682018060405250810190610cef9190611c98565b6001600160a01b03166108fc8290811502906040515f60405180830381858888f19350505050158015610d24573d5f803e3d5ffd5b506007546008546040516001600160a01b039092169181156108fc0291905f818181858888f19350505050158015610d5e573d5f803e3d5ffd5b505f6008555b60048290555b600f5f9054906101000a90046001600160a01b03166001600160a01b03166318160ddd6040518163ffffffff1660e01b8152600401602060405180830381865afa158015610dba573d5f803e3d5ffd5b505050506040513d601f19601f82011682018060405250810190610dde9190611c13565b6003555090565b5f80610def6117b1565b1115610e1957610e166006546107a8600554600654610e0e9190611cb3565b610b136117b1565b90505b90565b600f546040516370a0823160e01b81526001600160a01b0383811660048301525f9283929116906370a0823190602401602060405180830381865afa158015610e67573d5f803e3d5ffd5b505050506040513d601f19601f82011682018060405250810190610e8b9190611c13565b90505f5b81811015610f4457600f54604051632f745c5960e01b81526001600160a01b03868116600483015260248201849052610f30926011925f9290911690632f745c5990604401602060405180830381865afa158015610eef573d5f803e3d5ffd5b505050506040513d601f19601f82011682018060405250810190610f139190611c13565b81526020019081526020015f20548461175390919063ffffffff16565b925080610f3c81611cc6565b915050610e8f565b5050919050565b610f536115e5565b600591909155600655565b60606013805480602002602001604051908101604052809291908181526020018280548015610faa57602002820191905f5260205f20905b815481526020019060010190808311610f96575b5050505050905090565b5f80610fbe6117b1565b1115610e1957610e166006546107a8600554610b136117b1565b610fe06115e5565b600955600a55565b6007546001600160a01b03163314611002576110026115e5565b6007546008546040516001600160a01b039092169181156108fc0291905f818181858888f1935050505015801561103b573d5f803e3d5ffd5b505f600855565b61104a6115e5565b600b80546001600160a01b039092166001600160a01b03199283168117909155600e8054909216179055565b5f6110fc620f42406107a860105f9054906101000a90046001600160a01b03166001600160a01b031663664e97046040518163ffffffff1660e01b8152600401602060405180830381865afa1580156110d1573d5f803e3d5ffd5b505050506040513d601f19601f820116820180604052508101906110f59190611c13565b859061160b565b92915050565b61110a6115e5565b600d80546001600160a01b039092166001600160a01b0319928316811790915560108054909216179055565b61113e6115e5565b600f546040516323b872dd60e01b8152306004820152336024820152604481018390526001600160a01b03909116906323b872dd906064015f604051808303815f87803b15801561118d575f80fd5b505af115801561119f573d5f803e3d5ffd5b5050505050565b5f80309050806001600160a01b031663f851a4406040518163ffffffff1660e01b8152600401602060405180830381865afa1580156111e7573d5f803e3d5ffd5b505050506040513d601f19601f8201168201806040525081019061120b9190611c98565b91505090565b6112196115e5565b600780546001600160a01b0319166001600160a01b0392909216919091179055565b6112436115e5565b60405163a9059cbb60e01b8152336004820152602481018390526001600160a01b0382169063a9059cbb906044016020604051808303815f875af115801561128d573d5f803e3d5ffd5b505050506040513d601f19601f8201168201806040525081019061080b9190611c7d565b60606112bb6115e5565b81156112d0576112c96118bf565b90506110fc565b60408051600180825281830190925290602080830190803683370190505060105460405163e8b1298f60e01b8152600481018690529192506001600160a01b03169063e8b1298f906024016020604051808303815f875af1158015611337573d5f803e3d5ffd5b505050506040513d601f19601f8201168201806040525081019061135b9190611c7d565b815f8151811061136d5761136d611cde565b9115156020928302919091019091015292915050565b6009545f0361139d57600a546113999042611c6a565b6009555b5f600154826113ac9190611cf2565b90508034146113b9575f80fd5b60105f9054906101000a90046001600160a01b03166001600160a01b0316634cf088d9346040518263ffffffff1660e01b815260040160206040518083038185885af115801561140b573d5f803e3d5ffd5b50505050506040513d601f19601f820116820180604052508101906114309190611c13565b5060025461143e9034611753565b6002555f5b828110156114cb57600f546040516303f8e6eb60e31b81526001600160a01b03868116600483015290911690631fc73758906024016020604051808303815f875af1158015611494573d5f803e3d5ffd5b505050506040513d601f19601f820116820180604052508101906114b89190611c7d565b50806114c381611cc6565b915050611443565b505f546114d9906001611c6a565b5f55505050565b5f81815260116020526040902054801580159061150957506008546115059082611c6a565b4710155b611511575f80fd5b600f546040516331a9108f60e11b8152600481018490526001600160a01b0390911690636352211e90602401602060405180830381865afa158015611558573d5f803e3d5ffd5b505050506040513d601f19601f8201168201806040525081019061157c9190611c98565b6001600160a01b03166108fc8290811502906040515f60405180830381858888f19350505050158015610872573d5f803e3d5ffd5b6115b96115e5565b600c80546001600160a01b039092166001600160a01b03199283168117909155600f8054909216179055565b6115ed6111a6565b6001600160a01b0316336001600160a01b031614611609575f80fd5b565b5f825f0361161a57505f6110fc565b5f6116258385611cf2565b9050826116328583611d1d565b1461168e5760405162461bcd60e51b815260206004820152602160248201527f536166654d6174683a206d756c7469706c69636174696f6e206f766572666c6f6044820152607760f81b60648201526084015b60405180910390fd5b9392505050565b5f8082116116e55760405162461bcd60e51b815260206004820152601a60248201527f536166654d6174683a206469766973696f6e206279207a65726f0000000000006044820152606401611685565b5f6116f08385611d1d565b949350505050565b604080514260208201526bffffffffffffffffffffffff193360601b169181019190915260548101839052607481018290525f908490609401604051602081830303815290604052805190602001205f1c6116f09190611d30565b5f8061175f8385611c6a565b90508381101561168e5760405162461bcd60e51b815260206004820152601b60248201527f536166654d6174683a206164646974696f6e206f766572666c6f7700000000006044820152606401611685565b5f805f61189c620f42406107a860105f9054906101000a90046001600160a01b03166001600160a01b031663664e97046040518163ffffffff1660e01b8152600401602060405180830381865afa15801561180e573d5f803e3d5ffd5b505050506040513d601f19601f820116820180604052508101906118329190611c13565b600e546040516370a0823160e01b81523060048201526001600160a01b03909116906370a0823190602401602060405180830381865afa158015611878573d5f803e3d5ffd5b505050506040513d601f19601f82011682018060405250810190610b139190611c13565b90506002548111156118b9576002546118b6908290611a4a565b91505b50919050565b60605f5b601354811015611a4657601054601380546001600160a01b0390921691630edd11f49190849081106118f7576118f7611cde565b905f5260205f2001546040518263ffffffff1660e01b815260040161191e91815260200190565b602060405180830381865afa158015611939573d5f803e3d5ffd5b505050506040513d601f19601f8201168201806040525081019061195d9190611c7d565b611a345760408051600180825281830190925290602080830190803683375050601054601380549395506001600160a01b039091169263e8b1298f9250849081106119aa576119aa611cde565b905f5260205f2001546040518263ffffffff1660e01b81526004016119d191815260200190565b6020604051808303815f875af11580156119ed573d5f803e3d5ffd5b505050506040513d601f19601f82011682018060405250810190611a119190611c7d565b828281518110611a2357611a23611cde565b911515602092830291909101909101525b80611a3e81611cc6565b9150506118c3565b5090565b5f82821115611a9b5760405162461bcd60e51b815260206004820152601e60248201527f536166654d6174683a207375627472616374696f6e206f766572666c6f7700006044820152606401611685565b5f6116f08385611cb3565b5f60208284031215611ab6575f80fd5b5035919050565b6001600160a01b0381168114611ad1575f80fd5b50565b5f60208284031215611ae4575f80fd5b813561168e81611abd565b5f8060408385031215611b00575f80fd5b50508035926020909101359150565b602080825282518282018190525f9190848201906040850190845b81811015611b4657835183529284019291840191600101611b2a565b50909695505050505050565b5f8060408385031215611b63575f80fd5b823591506020830135611b7581611abd565b809150509250929050565b8015158114611ad1575f80fd5b5f8060408385031215611b9e575f80fd5b823591506020830135611b7581611b80565b602080825282518282018190525f9190848201906040850190845b81811015611b46578351151583529284019291840191600101611bcb565b5f8060408385031215611bfa575f80fd5b8235611c0581611abd565b946020939093013593505050565b5f60208284031215611c23575f80fd5b5051919050565b5f8060408385031215611c3b575f80fd5b8251611c4681611b80565b6020939093015192949293505050565b634e487b7160e01b5f52601160045260245ffd5b808201808211156110fc576110fc611c56565b5f60208284031215611c8d575f80fd5b815161168e81611b80565b5f60208284031215611ca8575f80fd5b815161168e81611abd565b818103818111156110fc576110fc611c56565b5f60018201611cd757611cd7611c56565b5060010190565b634e487b7160e01b5f52603260045260245ffd5b80820281158282048414176110fc576110fc611c56565b634e487b7160e01b5f52601260045260245ffd5b5f82611d2b57611d2b611d09565b500490565b5f82611d3e57611d3e611d09565b50069056fea2646970667358221220956087c12c9e0a234c40b5e8459b0aa48c102a10357fbce221544217fd98ba7b64736f6c63430008140033",
    "sourcePath": "c:/Users/STC/Documents/GitHub/BRUTUS-TOKEN/contracts/Loteria-TRX/lottery.sol",
    "compiler": {
        "name": "solc",
        "version": "0.8.20+commit.a1b79de6"
    },
    "functionHashes": {
        "adminProxy()": "c52f4f34",
        "allValueNFTs(address)": "62daa4b6",
        "beneficio()": "a6747af8",
        "buyLoteria(address,uint256)": "da2181b1",
        "changeBeneficioTeam(uint256,uint256)": "713e25c8",
        "changeWalletTeam(address)": "cdd5e089",
        "contractPool()": "0bad823b",
        "iniciado()": "83bd8528",
        "inicializar()": "dcbe327e",
        "lastWiner()": "722b5b99",
        "paso()": "f482b73c",
        "periodo()": "fad49bb6",
        "precicion()": "0a35a858",
        "precio()": "9e66e0f3",
        "premio()": "50237f72",
        "premioTeam()": "82575ca6",
        "proximaRonda()": "ee800c65",
        "reclamarPremio(address)": "34733a77",
        "reclamarValueNFT(uint256)": "f6901d2f",
        "retiroTRC20(uint256)": "ac846dd2",
        "retiroTRC20(uint256,address)": "d092c4d9",
        "retiroToTeam()": "9a8665c3",
        "solicitarRetiroPool(uint256)": "054b46c5",
        "sorteo()": "45865ecb",
        "terminarRetiroPool(uint256,bool)": "da00d71d",
        "toBRST(uint256)": "a663c4c5",
        "toTeam()": "943b367b",
        "tokenBRST()": "dee07735",
        "tokenTRC721()": "6d3ea6ce",
        "trxPooled()": "05bda6b1",
        "update_addressPOOL(address)": "a7d6dbf7",
        "update_precio(uint256)": "361d97df",
        "update_tiempo(uint256,uint256)": "95a6e26c",
        "update_tokenTRC20(address)": "9fe10cff",
        "update_tokenTRC721(address)": "f9198756",
        "valueNFT(uint256)": "fe07d3e2",
        "verRetirosP()": "8192f162",
        "walletTeam()": "688ba636"
    },
    "gasEstimates": {
        "creation": {
            "codeDepositCost": "1509000",
            "executionCost": "25797",
            "totalCost": "1534797"
        },
        "external": {
            "": "207",
            "adminProxy()": "infinite",
            "allValueNFTs(address)": "infinite",
            "beneficio()": "2395",
            "buyLoteria(address,uint256)": "infinite",
            "changeBeneficioTeam(uint256,uint256)": "infinite",
            "changeWalletTeam(address)": "infinite",
            "contractPool()": "2449",
            "iniciado()": "2376",
            "inicializar()": "258251",
            "lastWiner()": "2395",
            "paso()": "2327",
            "periodo()": "2393",
            "precicion()": "2374",
            "precio()": "2329",
            "premio()": "infinite",
            "premioTeam()": "infinite",
            "proximaRonda()": "2416",
            "reclamarPremio(address)": "infinite",
            "reclamarValueNFT(uint256)": "infinite",
            "retiroTRC20(uint256)": "infinite",
            "retiroTRC20(uint256,address)": "infinite",
            "retiroToTeam()": "infinite",
            "solicitarRetiroPool(uint256)": "infinite",
            "sorteo()": "infinite",
            "terminarRetiroPool(uint256,bool)": "infinite",
            "toBRST(uint256)": "infinite",
            "toTeam()": "2372",
            "tokenBRST()": "2447",
            "tokenTRC721()": "2404",
            "trxPooled()": "2352",
            "update_addressPOOL(address)": "infinite",
            "update_precio(uint256)": "infinite",
            "update_tiempo(uint256,uint256)": "infinite",
            "update_tokenTRC20(address)": "infinite",
            "update_tokenTRC721(address)": "infinite",
            "valueNFT(uint256)": "2556",
            "verRetirosP()": "infinite",
            "walletTeam()": "2382"
        },
        "internal": {
            "_premio()": "infinite",
            "onlyOwner()": "infinite",
            "terminarAllRetirosP()": "infinite"
        }
    }
}