{
    "contractName": "PoolBRSTv4",
    "abi": [
        {
            "inputs": [
                {
                    "internalType": "uint256",
                    "name": "_cantidadTRX",
                    "type": "uint256"
                }
            ],
            "stateMutability": "nonpayable",
            "type": "constructor"
        },
        {
            "anonymous": false,
            "inputs": [
                {
                    "indexed": true,
                    "internalType": "address",
                    "name": "previousOwner",
                    "type": "address"
                },
                {
                    "indexed": true,
                    "internalType": "address",
                    "name": "newOwner",
                    "type": "address"
                }
            ],
            "name": "OwnershipTransferred",
            "type": "event"
        },
        {
            "stateMutability": "payable",
            "type": "fallback"
        },
        {
            "inputs": [
                {
                    "internalType": "address",
                    "name": "_tokenTRC20",
                    "type": "address"
                }
            ],
            "name": "ChangeToken",
            "outputs": [
                {
                    "internalType": "bool",
                    "name": "",
                    "type": "bool"
                }
            ],
            "stateMutability": "nonpayable",
            "type": "function"
        },
        {
            "inputs": [
                {
                    "internalType": "address",
                    "name": "_tokenTRC20",
                    "type": "address"
                }
            ],
            "name": "ChangeTokenOTRO",
            "outputs": [
                {
                    "internalType": "bool",
                    "name": "",
                    "type": "bool"
                }
            ],
            "stateMutability": "nonpayable",
            "type": "function"
        },
        {
            "inputs": [],
            "name": "MIN_DEPOSIT",
            "outputs": [
                {
                    "internalType": "uint256",
                    "name": "",
                    "type": "uint256"
                }
            ],
            "stateMutability": "view",
            "type": "function"
        },
        {
            "inputs": [],
            "name": "NoValido",
            "outputs": [
                {
                    "internalType": "address",
                    "name": "",
                    "type": "address"
                }
            ],
            "stateMutability": "view",
            "type": "function"
        },
        {
            "inputs": [],
            "name": "RATE",
            "outputs": [
                {
                    "internalType": "uint256",
                    "name": "",
                    "type": "uint256"
                }
            ],
            "stateMutability": "view",
            "type": "function"
        },
        {
            "inputs": [],
            "name": "TIEMPO",
            "outputs": [
                {
                    "internalType": "uint256",
                    "name": "",
                    "type": "uint256"
                }
            ],
            "stateMutability": "view",
            "type": "function"
        },
        {
            "inputs": [],
            "name": "TRON_BALANCE",
            "outputs": [
                {
                    "internalType": "uint256",
                    "name": "",
                    "type": "uint256"
                }
            ],
            "stateMutability": "view",
            "type": "function"
        },
        {
            "inputs": [],
            "name": "TRON_GANANCIAS",
            "outputs": [
                {
                    "internalType": "uint256",
                    "name": "",
                    "type": "uint256"
                }
            ],
            "stateMutability": "view",
            "type": "function"
        },
        {
            "inputs": [],
            "name": "TRON_PAY_BALANCE",
            "outputs": [
                {
                    "internalType": "uint256",
                    "name": "",
                    "type": "uint256"
                }
            ],
            "stateMutability": "view",
            "type": "function"
        },
        {
            "inputs": [],
            "name": "TRON_SOLICITADO",
            "outputs": [
                {
                    "internalType": "uint256",
                    "name": "",
                    "type": "uint256"
                }
            ],
            "stateMutability": "view",
            "type": "function"
        },
        {
            "inputs": [],
            "name": "TRON_TOTAL_BALANCE",
            "outputs": [
                {
                    "internalType": "uint256",
                    "name": "",
                    "type": "uint256"
                }
            ],
            "stateMutability": "view",
            "type": "function"
        },
        {
            "inputs": [],
            "name": "TRON_WALLET_BALANCE",
            "outputs": [
                {
                    "internalType": "uint256",
                    "name": "",
                    "type": "uint256"
                }
            ],
            "stateMutability": "view",
            "type": "function"
        },
        {
            "inputs": [
                {
                    "internalType": "uint256[]",
                    "name": "oldArray",
                    "type": "uint256[]"
                }
            ],
            "name": "actualizarArray",
            "outputs": [
                {
                    "internalType": "uint256[]",
                    "name": "",
                    "type": "uint256[]"
                }
            ],
            "stateMutability": "pure",
            "type": "function"
        },
        {
            "inputs": [
                {
                    "internalType": "uint256",
                    "name": "_value",
                    "type": "uint256"
                }
            ],
            "name": "asignarGanacia",
            "outputs": [
                {
                    "internalType": "uint256",
                    "name": "",
                    "type": "uint256"
                }
            ],
            "stateMutability": "nonpayable",
            "type": "function"
        },
        {
            "inputs": [
                {
                    "internalType": "uint256",
                    "name": "_value",
                    "type": "uint256"
                }
            ],
            "name": "asignarPerdida",
            "outputs": [
                {
                    "internalType": "uint256",
                    "name": "",
                    "type": "uint256"
                }
            ],
            "stateMutability": "nonpayable",
            "type": "function"
        },
        {
            "inputs": [
                {
                    "internalType": "uint256",
                    "name": "_index",
                    "type": "uint256"
                }
            ],
            "name": "completarSolicitud",
            "outputs": [
                {
                    "internalType": "bool",
                    "name": "",
                    "type": "bool"
                }
            ],
            "stateMutability": "payable",
            "type": "function"
        },
        {
            "inputs": [
                {
                    "internalType": "uint256",
                    "name": "_value",
                    "type": "uint256"
                }
            ],
            "name": "crearBRTS",
            "outputs": [
                {
                    "internalType": "bool",
                    "name": "",
                    "type": "bool"
                }
            ],
            "stateMutability": "nonpayable",
            "type": "function"
        },
        {
            "inputs": [],
            "name": "dias_de_pago",
            "outputs": [
                {
                    "internalType": "uint256",
                    "name": "",
                    "type": "uint256"
                }
            ],
            "stateMutability": "view",
            "type": "function"
        },
        {
            "inputs": [
                {
                    "internalType": "uint256",
                    "name": "_value",
                    "type": "uint256"
                }
            ],
            "name": "gananciaDirecta",
            "outputs": [
                {
                    "internalType": "uint256",
                    "name": "",
                    "type": "uint256"
                }
            ],
            "stateMutability": "nonpayable",
            "type": "function"
        },
        {
            "inputs": [],
            "name": "index",
            "outputs": [
                {
                    "internalType": "uint256",
                    "name": "",
                    "type": "uint256"
                }
            ],
            "stateMutability": "view",
            "type": "function"
        },
        {
            "inputs": [
                {
                    "internalType": "address",
                    "name": "_user",
                    "type": "address"
                }
            ],
            "name": "largoSolicitudes",
            "outputs": [
                {
                    "internalType": "uint256",
                    "name": "",
                    "type": "uint256"
                }
            ],
            "stateMutability": "view",
            "type": "function"
        },
        {
            "inputs": [
                {
                    "internalType": "address",
                    "name": "_newowner",
                    "type": "address"
                }
            ],
            "name": "newOwnerBRTS",
            "outputs": [
                {
                    "internalType": "bool",
                    "name": "",
                    "type": "bool"
                }
            ],
            "stateMutability": "nonpayable",
            "type": "function"
        },
        {
            "inputs": [],
            "name": "owner",
            "outputs": [
                {
                    "internalType": "address",
                    "name": "",
                    "type": "address"
                }
            ],
            "stateMutability": "view",
            "type": "function"
        },
        {
            "inputs": [],
            "name": "pagarGanacias",
            "outputs": [
                {
                    "internalType": "uint256",
                    "name": "",
                    "type": "uint256"
                }
            ],
            "stateMutability": "nonpayable",
            "type": "function"
        },
        {
            "inputs": [
                {
                    "internalType": "uint256",
                    "name": "_value",
                    "type": "uint256"
                }
            ],
            "name": "quemarBRTS",
            "outputs": [
                {
                    "internalType": "bool",
                    "name": "",
                    "type": "bool"
                },
                {
                    "internalType": "uint256",
                    "name": "",
                    "type": "uint256"
                }
            ],
            "stateMutability": "nonpayable",
            "type": "function"
        },
        {
            "inputs": [],
            "name": "redimBRTS01",
            "outputs": [
                {
                    "internalType": "uint256",
                    "name": "",
                    "type": "uint256"
                }
            ],
            "stateMutability": "nonpayable",
            "type": "function"
        },
        {
            "inputs": [
                {
                    "internalType": "uint256",
                    "name": "_value",
                    "type": "uint256"
                }
            ],
            "name": "redimBRTS02",
            "outputs": [
                {
                    "internalType": "uint256",
                    "name": "",
                    "type": "uint256"
                }
            ],
            "stateMutability": "nonpayable",
            "type": "function"
        },
        {
            "inputs": [],
            "name": "redimOTRO01",
            "outputs": [
                {
                    "internalType": "uint256",
                    "name": "",
                    "type": "uint256"
                }
            ],
            "stateMutability": "nonpayable",
            "type": "function"
        },
        {
            "inputs": [
                {
                    "internalType": "uint256",
                    "name": "_value",
                    "type": "uint256"
                }
            ],
            "name": "redimTRX",
            "outputs": [
                {
                    "internalType": "uint256",
                    "name": "",
                    "type": "uint256"
                }
            ],
            "stateMutability": "nonpayable",
            "type": "function"
        },
        {
            "inputs": [],
            "name": "redimTRX",
            "outputs": [
                {
                    "internalType": "uint256",
                    "name": "",
                    "type": "uint256"
                }
            ],
            "stateMutability": "nonpayable",
            "type": "function"
        },
        {
            "inputs": [
                {
                    "internalType": "uint256",
                    "name": "_value",
                    "type": "uint256"
                }
            ],
            "name": "restarGanacia",
            "outputs": [
                {
                    "internalType": "uint256",
                    "name": "",
                    "type": "uint256"
                }
            ],
            "stateMutability": "nonpayable",
            "type": "function"
        },
        {
            "inputs": [
                {
                    "internalType": "uint256",
                    "name": "_id",
                    "type": "uint256"
                }
            ],
            "name": "retirar",
            "outputs": [],
            "stateMutability": "nonpayable",
            "type": "function"
        },
        {
            "inputs": [
                {
                    "internalType": "uint256",
                    "name": "_dias",
                    "type": "uint256"
                }
            ],
            "name": "setDias",
            "outputs": [
                {
                    "internalType": "bool",
                    "name": "",
                    "type": "bool"
                }
            ],
            "stateMutability": "nonpayable",
            "type": "function"
        },
        {
            "inputs": [
                {
                    "internalType": "uint256",
                    "name": "_unidades",
                    "type": "uint256"
                }
            ],
            "name": "setUnidadesTiempo",
            "outputs": [
                {
                    "internalType": "bool",
                    "name": "",
                    "type": "bool"
                }
            ],
            "stateMutability": "nonpayable",
            "type": "function"
        },
        {
            "inputs": [
                {
                    "internalType": "uint256",
                    "name": "",
                    "type": "uint256"
                }
            ],
            "name": "solicitudInterna",
            "outputs": [
                {
                    "internalType": "uint256",
                    "name": "",
                    "type": "uint256"
                }
            ],
            "stateMutability": "view",
            "type": "function"
        },
        {
            "inputs": [
                {
                    "internalType": "uint256",
                    "name": "_value",
                    "type": "uint256"
                }
            ],
            "name": "solicitudRetiro",
            "outputs": [
                {
                    "internalType": "uint256",
                    "name": "",
                    "type": "uint256"
                }
            ],
            "stateMutability": "nonpayable",
            "type": "function"
        },
        {
            "inputs": [
                {
                    "internalType": "uint256",
                    "name": "",
                    "type": "uint256"
                }
            ],
            "name": "solicitudesEnProgreso",
            "outputs": [
                {
                    "internalType": "address",
                    "name": "",
                    "type": "address"
                }
            ],
            "stateMutability": "view",
            "type": "function"
        },
        {
            "inputs": [],
            "name": "solicitudesPendientesGlobales",
            "outputs": [
                {
                    "internalType": "uint256[]",
                    "name": "",
                    "type": "uint256[]"
                }
            ],
            "stateMutability": "view",
            "type": "function"
        },
        {
            "inputs": [],
            "name": "staking",
            "outputs": [
                {
                    "internalType": "uint256",
                    "name": "",
                    "type": "uint256"
                }
            ],
            "stateMutability": "payable",
            "type": "function"
        },
        {
            "inputs": [
                {
                    "internalType": "address",
                    "name": "_user",
                    "type": "address"
                }
            ],
            "name": "todasSolicitudes",
            "outputs": [
                {
                    "internalType": "uint256[]",
                    "name": "id",
                    "type": "uint256[]"
                },
                {
                    "internalType": "uint256[]",
                    "name": "tiempo",
                    "type": "uint256[]"
                },
                {
                    "internalType": "uint256[]",
                    "name": "trxx",
                    "type": "uint256[]"
                },
                {
                    "internalType": "uint256[]",
                    "name": "brst",
                    "type": "uint256[]"
                },
                {
                    "internalType": "bool[]",
                    "name": "completado",
                    "type": "bool[]"
                },
                {
                    "internalType": "address[]",
                    "name": "partner",
                    "type": "address[]"
                }
            ],
            "stateMutability": "view",
            "type": "function"
        },
        {
            "inputs": [
                {
                    "internalType": "address",
                    "name": "newOwner",
                    "type": "address"
                }
            ],
            "name": "transferOwnership",
            "outputs": [],
            "stateMutability": "nonpayable",
            "type": "function"
        },
        {
            "inputs": [],
            "name": "unidades_tiempo",
            "outputs": [
                {
                    "internalType": "uint256",
                    "name": "",
                    "type": "uint256"
                }
            ],
            "stateMutability": "view",
            "type": "function"
        },
        {
            "inputs": [
                {
                    "internalType": "uint256",
                    "name": "_id",
                    "type": "uint256"
                }
            ],
            "name": "verSolicitudPendiente",
            "outputs": [
                {
                    "internalType": "bool",
                    "name": "",
                    "type": "bool"
                },
                {
                    "internalType": "uint256",
                    "name": "",
                    "type": "uint256"
                },
                {
                    "internalType": "uint256",
                    "name": "",
                    "type": "uint256"
                },
                {
                    "internalType": "uint256",
                    "name": "",
                    "type": "uint256"
                },
                {
                    "internalType": "address",
                    "name": "",
                    "type": "address"
                }
            ],
            "stateMutability": "view",
            "type": "function"
        },
        {
            "stateMutability": "payable",
            "type": "receive"
        }
    ],
    "bytecode": "60806040526001805473389ccc30de1d311738dffd3f60d4fd6188970f456001600160a01b03199182168117909255600280548216909217909155620f4240600355600060048190556005819055600780556201518060085560098054909216909155600d5534801561007157600080fd5b506040516200278d3803806200278d833981016040819052610092916100ac565b600080546001600160a01b031916331790556006556100c5565b6000602082840312156100be57600080fd5b5051919050565b6126b880620000d56000396000f3fe6080604052600436106102485760003560e01c806396ba536311610138578063dd1335d0116100b0578063e3ef38f211610077578063e3ef38f2146106df578063e8b1298f146106ff578063f2fde38b1461071f578063f4903cf71461073f578063f8cb324c14610754578063fcd728f51461076757005b8063dd1335d014610650578063ddd9e69014610666578063dfc0423c14610686578063e1e158a5146106b3578063e345ea12146106c957005b8063b0698a1b116100ff578063b0698a1b146105c7578063b6013f5a146105e7578063b8fc1ca8146105fd578063c7c277a914610612578063cdb8bb2a14610625578063d9595d891461063a57005b806396ba5363146105275780639bd5cc2214610547578063a439745014610567578063a923c10914610587578063ace17da7146105a757005b806360f05ea7116101cb57806375b2a5461161019257806375b2a5461461043c57806379fe4f961461045c578063875b11481461049557806388a4a981146104b55780638ca8ec86146104e75780638da5cb5b1461050757005b806360f05ea71461038f578063641a3e99146103af57806365a54e4f146103c4578063664e970414610412578063678eca191461042757005b8063383f23a01161020f578063383f23a0146103275780633c8d584814610347578063438490611461035d5780634cf088d9146103725780634d03c44f1461037a57005b80630263c794146102515780631e4b5ba1146102875780632986c0e5146102aa5780632a07d8f3146102c05780633204a0a7146102f757005b3661024f57005b005b34801561025d57600080fd5b5061027161026c36600461227d565b6107ba565b60405161027e9190612376565b60405180910390f35b34801561029357600080fd5b5061029c61086c565b60405190815260200161027e565b3480156102b657600080fd5b5061029c600d5481565b3480156102cc57600080fd5b506102e06102db366004612390565b610973565b60408051921515835260208301919091520161027e565b34801561030357600080fd5b50610317610312366004612390565b610b67565b604051901515815260200161027e565b34801561033357600080fd5b5061029c610342366004612390565b610b88565b34801561035357600080fd5b5061029c60065481565b34801561036957600080fd5b5061029c610bbd565b61029c610bdb565b34801561038657600080fd5b50610271610d68565b34801561039b57600080fd5b5061029c6103aa366004612390565b610e3e565b3480156103bb57600080fd5b5061029c610e68565b3480156103d057600080fd5b506103fa6103df366004612390565b600b602052600090815260409020546001600160a01b031681565b6040516001600160a01b03909116815260200161027e565b34801561041e57600080fd5b5061029c610e83565b34801561043357600080fd5b5061029c610f87565b34801561044857600080fd5b5061029c610457366004612390565b610fc4565b34801561046857600080fd5b5061029c6104773660046123a9565b6001600160a01b03166000908152600a602052604090206003015490565b3480156104a157600080fd5b5061029c6104b0366004612390565b6112fe565b3480156104c157600080fd5b506104d56104d03660046123a9565b611363565b60405161027e9695949392919061240b565b3480156104f357600080fd5b5061029c610502366004612390565b6115d9565b34801561051357600080fd5b506000546103fa906001600160a01b031681565b34801561053357600080fd5b506103176105423660046123a9565b6116e1565b34801561055357600080fd5b5061029c610562366004612390565b61171e565b34801561057357600080fd5b50610317610582366004612390565b611748565b34801561059357600080fd5b506103176105a23660046123a9565b611840565b3480156105b357600080fd5b506103176105c2366004612390565b61187b565b3480156105d357600080fd5b506103176105e23660046123a9565b61189c565b3480156105f357600080fd5b5061029c60085481565b34801561060957600080fd5b5061029c61191b565b34801561061e57600080fd5b504761029c565b34801561063157600080fd5b5061029c6119dd565b34801561064657600080fd5b5061029c60075481565b34801561065c57600080fd5b5061029c60055481565b34801561067257600080fd5b5061029c610681366004612390565b611a43565b34801561069257600080fd5b5061029c6106a1366004612390565b600c6020526000908152604090205481565b3480156106bf57600080fd5b5061029c60035481565b3480156106d557600080fd5b5061029c60045481565b3480156106eb57600080fd5b506009546103fa906001600160a01b031681565b34801561070b57600080fd5b5061024f61071a366004612390565b611a6d565b34801561072b57600080fd5b5061024f61073a3660046123a9565b611c6d565b34801561074b57600080fd5b5061029c611cf2565b610317610762366004612390565b611d0b565b34801561077357600080fd5b50610787610782366004612390565b611fb9565b60408051951515865260208601949094529284019190915260608301526001600160a01b0316608082015260a00161027e565b60606000825160016107cc91906124c9565b67ffffffffffffffff8111156107e4576107e4612267565b60405190808252806020026020018201604052801561080d578160200160208202803683370190505b50905060005b83518110156108655783818151811061082e5761082e6124dc565b6020026020010151828281518110610848576108486124dc565b60209081029190910101528061085d816124f2565b915050610813565b5092915050565b600080546001600160a01b0316331461088457600080fd5b6002546040516370a0823160e01b81523060048201526000916001600160a01b0316906370a0823190602401602060405180830381865afa1580156108cd573d6000803e3d6000fd5b505050506040513d601f19601f820116820180604052508101906108f1919061250b565b60025460005460405163a9059cbb60e01b81526001600160a01b03918216600482015260248101849052929350169063a9059cbb906044015b6020604051808303816000875af1158015610949573d6000803e3d6000fd5b505050506040513d601f19601f8201168201806040525081019061096d9190612524565b50905090565b6000805481906001600160a01b0316331461098d57600080fd5b600154604051636eb1769f60e11b815233600482015230602482015284916001600160a01b03169063dd62ed3e90604401602060405180830381865afa1580156109db573d6000803e3d6000fd5b505050506040513d601f19601f820116820180604052508101906109ff919061250b565b1080610a7457506001546040516370a0823160e01b815233600482015284916001600160a01b0316906370a0823190602401602060405180830381865afa158015610a4e573d6000803e3d6000fd5b505050506040513d601f19601f82011682018060405250810190610a72919061250b565b105b80610af757506001546040516323b872dd60e01b8152336004820152306024820152604481018590526001600160a01b03909116906323b872dd906064016020604051808303816000875af1158015610ad1573d6000803e3d6000fd5b505050506040513d601f19601f82011682018060405250810190610af59190612524565b155b15610b0157600080fd5b60015460405163db006a7560e01b8152600481018590526001600160a01b039091169063db006a7590602401600060405180830381600087803b158015610b4757600080fd5b505af1158015610b5b573d6000803e3d6000fd5b50600196945050505050565b600080546001600160a01b03163314610b7f57600080fd5b50600855600190565b600080546001600160a01b03163314610ba057600080fd5b8160066000828254610bb29190612546565b909155509192915050565b6000610bd660085460075461211390919063ffffffff16565b905090565b6000600354341015610bec57600080fd5b6000805460405134926001600160a01b039092169183156108fc02918491818181858888f19350505050158015610c27573d6000803e3d6000fd5b50610cba610c33610e83565b6001546040805163313ce56760e01b81529051610cb4926001600160a01b03169163313ce5679160048083019260209291908290030181865afa158015610c7e573d6000803e3d6000fd5b505050506040513d601f19601f82011682018060405250810190610ca2919061250b565b610cad90600a61263d565b8490612113565b906121a3565b90503460066000828254610cce91906124c9565b909155505060015460405163664395b360e11b8152600481018390526001600160a01b039091169063cc872b6690602401600060405180830381600087803b158015610d1957600080fd5b505af1158015610d2d573d6000803e3d6000fd5b505060015460405163a9059cbb60e01b8152336004820152602481018590526001600160a01b03909116925063a9059cbb915060440161092a565b60608060008080805b600d54811015610e34576000818152600b60209081526040808320546001600160a01b0316808452600a8352818420858552600c90935292205460018201805493965091945090918110610dc757610dc76124dc565b90600052602060002090602091828204019190069054906101000a900460ff16610e2257610df4856107ba565b945080858581518110610e0957610e096124dc565b602090810291909101015283610e1e816124f2565b9450505b80610e2c816124f2565b915050610d71565b5092949350505050565b600080546001600160a01b03163314610e5657600080fd5b8160066000828254610bb291906124c9565b6000610bd6600454610e7d600654610e7d4790565b90612208565b6000610bd6600160009054906101000a90046001600160a01b03166001600160a01b03166318160ddd6040518163ffffffff1660e01b8152600401602060405180830381865afa158015610edb573d6000803e3d6000fd5b505050506040513d601f19601f82011682018060405250810190610eff919061250b565b6001546040805163313ce56760e01b81529051610cb4926001600160a01b03169163313ce5679160048083019260209291908290030181865afa158015610f4a573d6000803e3d6000fd5b505050506040513d601f19601f82011682018060405250810190610f6e919061250b565b610f7990600a61263d565b610f81611cf2565b90612113565b600080546001600160a01b03163314610f9f57600080fd5b60045460066000828254610fb391906124c9565b909155505060006004555060065490565b600154604051636eb1769f60e11b815233600482015230602482015260009183916001600160a01b039091169063dd62ed3e90604401602060405180830381865afa158015611017573d6000803e3d6000fd5b505050506040513d601f19601f8201168201806040525081019061103b919061250b565b10806110b057506001546040516370a0823160e01b815233600482015283916001600160a01b0316906370a0823190602401602060405180830381865afa15801561108a573d6000803e3d6000fd5b505050506040513d601f19601f820116820180604052508101906110ae919061250b565b105b156110ba57600080fd5b6000611153600160009054906101000a90046001600160a01b03166001600160a01b031663313ce5676040518163ffffffff1660e01b8152600401602060405180830381865afa158015611112573d6000803e3d6000fd5b505050506040513d601f19601f82011682018060405250810190611136919061250b565b61114190600a61263d565b610cb461114c610e83565b8690612113565b6001546040516323b872dd60e01b8152336004820152306024820152604481018690529192506001600160a01b0316906323b872dd906064016020604051808303816000875af11580156111ab573d6000803e3d6000fd5b505050506040513d601f19601f820116820180604052508101906111cf9190612524565b6111d857600080fd5b336000908152600a602090815260408220600d548154600180820184558386528486209091019190915580820180548083018255908552838520848204018054601f9092166101000a60ff0219909116905560028201805480830182559085528385204291015560038201805480830182559085528385200185905560048201805480830182559085528385200187905560058083018054928301815585529284200180546001600160a01b03191690558154909284929161129b9084906124c9565b9091555050600d546000908152600b6020526040902080546001600160a01b0319163317905580546112cf90600190612546565b600d80546000908152600c60205260408120929092558054916112f1836124f2565b9091555091949350505050565b600080546001600160a01b0316331461131657600080fd5b8147101561132357600080fd5b600080546040516001600160a01b039091169184156108fc02918591818181858888f1935050505015801561135c573d6000803e3d6000fd5b5090919050565b6060806060806060806000600a6000896001600160a01b03166001600160a01b031681526020019081526020016000209050806000018160020182600301836004018460010185600501858054806020026020016040519081016040528092919081815260200182805480156113f857602002820191906000526020600020905b8154815260200190600101908083116113e4575b505050505095508480548060200260200160405190810160405280929190818152602001828054801561144a57602002820191906000526020600020905b815481526020019060010190808311611436575b505050505094508380548060200260200160405190810160405280929190818152602001828054801561149c57602002820191906000526020600020905b815481526020019060010190808311611488575b50505050509350828054806020026020016040519081016040528092919081815260200182805480156114ee57602002820191906000526020600020905b8154815260200190600101908083116114da575b505050505092508180548060200260200160405190810160405280929190818152602001828054801561156057602002820191906000526020600020906000905b825461010083900a900460ff16151581526020600192830181810494850194909303909202910180841161152f5790505b50505050509150808054806020026020016040519081016040528092919081815260200182805480156115bc57602002820191906000526020600020905b81546001600160a01b0316815260019091019060200180831161159e575b505050505090509650965096509650965096505091939550919395565b600080546001600160a01b031633146115f157600080fd5b6001546040516370a0823160e01b815230600482015283916001600160a01b0316906370a0823190602401602060405180830381865afa158015611639573d6000803e3d6000fd5b505050506040513d601f19601f8201168201806040525081019061165d919061250b565b101561166857600080fd5b60015460005460405163a9059cbb60e01b81526001600160a01b0391821660048201526024810185905291169063a9059cbb906044016020604051808303816000875af11580156116bd573d6000803e3d6000fd5b505050506040513d601f19601f8201168201806040525081019061135c9190612524565b600080546001600160a01b031633146116f957600080fd5b50600280546001600160a01b0383166001600160a01b03199091161790556001919050565b600080546001600160a01b0316331461173657600080fd5b8160046000828254610bb291906124c9565b600080546001600160a01b0316331461176057600080fd5b60015460405163664395b360e11b8152600481018490526001600160a01b039091169063cc872b6690602401600060405180830381600087803b1580156117a657600080fd5b505af11580156117ba573d6000803e3d6000fd5b505060015460005460405163a9059cbb60e01b81526001600160a01b039182166004820152602481018790529116925063a9059cbb91506044016020604051808303816000875af1158015611813573d6000803e3d6000fd5b505050506040513d601f19601f820116820180604052508101906118379190612524565b50600192915050565b600080546001600160a01b0316331461185857600080fd5b50600180546001600160a01b0383166001600160a01b0319909116178155919050565b600080546001600160a01b0316331461189357600080fd5b50600755600190565b600080546001600160a01b031633146118b457600080fd5b60015460405163f2fde38b60e01b81526001600160a01b0384811660048301529091169063f2fde38b90602401600060405180830381600087803b1580156118fb57600080fd5b505af115801561190f573d6000803e3d6000fd5b50600195945050505050565b600080546001600160a01b0316331461193357600080fd5b6001546040516370a0823160e01b81523060048201526000916001600160a01b0316906370a0823190602401602060405180830381865afa15801561197c573d6000803e3d6000fd5b505050506040513d601f19601f820116820180604052508101906119a0919061250b565b60015460005460405163a9059cbb60e01b81526001600160a01b03918216600482015260248101849052929350169063a9059cbb9060440161092a565b600080546001600160a01b031633146119f557600080fd5b47600003611a0257600080fd5b600080546040516001600160a01b03909116914780156108fc02929091818181858888f19350505050158015611a3c573d6000803e3d6000fd5b5047905090565b600080546001600160a01b03163314611a5b57600080fd5b8160046000828254610bb29190612546565b336000908152600a60205260409020600381015482101580611ac65750611ac3611a95610bbd565b826002018481548110611aaa57611aaa6124dc565b906000526020600020015461220890919063ffffffff16565b42105b80611b025750806001018281548110611ae157611ae16124dc565b90600052602060002090602091828204019190069054906101000a900460ff165b15611b0c57600080fd5b6000816003018381548110611b2357611b236124dc565b9060005260206000200154905080611b384790565b1015611b4357600080fd5b604051339082156108fc029083906000818181858888f19350505050158015611b70573d6000803e3d6000fd5b506001546004830180546001600160a01b039092169163db006a75919086908110611b9d57611b9d6124dc565b90600052602060002001546040518263ffffffff1660e01b8152600401611bc691815260200190565b600060405180830381600087803b158015611be057600080fd5b505af1158015611bf4573d6000803e3d6000fd5b505050506001826001018481548110611c0f57611c0f6124dc565b90600052602060002090602091828204019190066101000a81548160ff0219169083151502179055508060066000828254611c4a9190612546565b925050819055508060056000828254611c639190612546565b9091555050505050565b6000546001600160a01b03163314611c8457600080fd5b6001600160a01b038116611c9757600080fd5b600080546040516001600160a01b03808516939216917f8be0079c531659141344cd1fd0a4f28419497f9722a3daafe3b4186f6b6457e091a3600080546001600160a01b0319166001600160a01b0392909216919091179055565b6000610bd660045460065461220890919063ffffffff16565b6000818152600b6020908152604080832054600c8352818420546001600160a01b03909116808552600a90935290832060018101805483908110611d5157611d516124dc565b90600052602060002090602091828204019190069054906101000a900460ff1615611d7b57600080fd5b336001600160a01b03841614611e1457806003018281548110611da057611da06124dc565b90600052602060002001543414611db657600080fd5b826001600160a01b03166108fc826003018481548110611dd857611dd86124dc565b90600052602060002001549081150290604051600060405180830381858888f19350505050158015611e0e573d6000803e3d6000fd5b50611e4b565b6040516001600160a01b038416903480156108fc02916000818181858888f19350505050158015611e49573d6000803e3d6000fd5b505b6001546004820180546001600160a01b039092169163a9059cbb91339186908110611e7857611e786124dc565b6000918252602090912001546040516001600160e01b031960e085901b1681526001600160a01b03909216600483015260248201526044016020604051808303816000875af1158015611ecf573d6000803e3d6000fd5b505050506040513d601f19601f82011682018060405250810190611ef39190612524565b5033816005018381548110611f0a57611f0a6124dc565b9060005260206000200160006101000a8154816001600160a01b0302191690836001600160a01b031602179055506001816001018381548110611f4f57611f4f6124dc565b90600052602060002090602091828204019190066101000a81548160ff021916908315150217905550806003018281548110611f8d57611f8d6124dc565b906000526020600020015460056000828254611fa99190612546565b9091555060019695505050505050565b6000818152600b60209081526040808320546001600160a01b0316808452600a8352818420858552600c90935290832054600183018054859485948594859491938110612008576120086124dc565b90600052602060002090602091828204019190069054906101000a900460ff1681600201600c60008b81526020019081526020016000205481548110612050576120506124dc565b906000526020600020015482600301600c60008c81526020019081526020016000205481548110612083576120836124dc565b906000526020600020015483600401600c60008d815260200190815260200160002054815481106120b6576120b66124dc565b906000526020600020015484600501600c60008e815260200190815260200160002054815481106120e9576120e96124dc565b600091825260209091200154939c929b5090995097506001600160a01b0390911695509350505050565b6000826000036121255750600061219d565b60006121318385612649565b90508261213e8583612660565b1461219a5760405162461bcd60e51b815260206004820152602160248201527f536166654d6174683a206d756c7469706c69636174696f6e206f766572666c6f6044820152607760f81b60648201526084015b60405180910390fd5b90505b92915050565b60008082116121f45760405162461bcd60e51b815260206004820152601a60248201527f536166654d6174683a206469766973696f6e206279207a65726f0000000000006044820152606401612191565b60006122008385612660565b949350505050565b60008061221583856124c9565b90508381101561219a5760405162461bcd60e51b815260206004820152601b60248201527f536166654d6174683a206164646974696f6e206f766572666c6f7700000000006044820152606401612191565b634e487b7160e01b600052604160045260246000fd5b6000602080838503121561229057600080fd5b823567ffffffffffffffff808211156122a857600080fd5b818501915085601f8301126122bc57600080fd5b8135818111156122ce576122ce612267565b8060051b604051601f19603f830116810181811085821117156122f3576122f3612267565b60405291825284820192508381018501918883111561231157600080fd5b938501935b8285101561232f57843584529385019392850192612316565b98975050505050505050565b600081518084526020808501945080840160005b8381101561236b5781518752958201959082019060010161234f565b509495945050505050565b602081526000612389602083018461233b565b9392505050565b6000602082840312156123a257600080fd5b5035919050565b6000602082840312156123bb57600080fd5b81356001600160a01b038116811461219a57600080fd5b600081518084526020808501945080840160005b8381101561236b5781516001600160a01b0316875295820195908201906001016123e6565b60c08152600061241e60c083018961233b565b602083820381850152612431828a61233b565b91508382036040850152612445828961233b565b91508382036060850152612459828861233b565b8481036080860152865180825282880193509082019060005b81811015612490578451151583529383019391830191600101612472565b505084810360a08601526124a481876123d2565b9b9a5050505050505050505050565b634e487b7160e01b600052601160045260246000fd5b8082018082111561219d5761219d6124b3565b634e487b7160e01b600052603260045260246000fd5b600060018201612504576125046124b3565b5060010190565b60006020828403121561251d57600080fd5b5051919050565b60006020828403121561253657600080fd5b8151801515811461219a57600080fd5b8181038181111561219d5761219d6124b3565b600181815b8085111561259457816000190482111561257a5761257a6124b3565b8085161561258757918102915b93841c939080029061255e565b509250929050565b6000826125ab5750600161219d565b816125b85750600061219d565b81600181146125ce57600281146125d8576125f4565b600191505061219d565b60ff8411156125e9576125e96124b3565b50506001821b61219d565b5060208310610133831016604e8410600b8410161715612617575081810a61219d565b6126218383612559565b8060001904821115612635576126356124b3565b029392505050565b6000612389838361259c565b808202811582820484141761219d5761219d6124b3565b60008261267d57634e487b7160e01b600052601260045260246000fd5b50049056fea2646970667358221220efdb9b1035f40c7a2070458792c55bc936ca2ae2226eff7bd76bc83d5b96349e64736f6c63430008110033",
    "sourcePath": "c:/Users/STC/Documents/GitHub/BRUTUS-TOKEN/contracts/BRST POOL/Pool-V3/Pool-BRST-v4.sol",
    "compiler": {
        "name": "solc",
        "version": "0.8.17+commit.8df45f5f"
    },
    "functionHashes": {
        "ChangeToken(address)": "a923c109",
        "ChangeTokenOTRO(address)": "96ba5363",
        "MIN_DEPOSIT()": "e1e158a5",
        "NoValido()": "e3ef38f2",
        "RATE()": "664e9704",
        "TIEMPO()": "43849061",
        "TRON_BALANCE()": "f4903cf7",
        "TRON_GANANCIAS()": "e345ea12",
        "TRON_PAY_BALANCE()": "c7c277a9",
        "TRON_SOLICITADO()": "dd1335d0",
        "TRON_TOTAL_BALANCE()": "641a3e99",
        "TRON_WALLET_BALANCE()": "3c8d5848",
        "actualizarArray(uint256[])": "0263c794",
        "asignarGanacia(uint256)": "9bd5cc22",
        "asignarPerdida(uint256)": "383f23a0",
        "completarSolicitud(uint256)": "f8cb324c",
        "crearBRTS(uint256)": "a4397450",
        "dias_de_pago()": "d9595d89",
        "gananciaDirecta(uint256)": "60f05ea7",
        "index()": "2986c0e5",
        "largoSolicitudes(address)": "79fe4f96",
        "newOwnerBRTS(address)": "b0698a1b",
        "owner()": "8da5cb5b",
        "pagarGanacias()": "678eca19",
        "quemarBRTS(uint256)": "2a07d8f3",
        "redimBRTS01()": "b8fc1ca8",
        "redimBRTS02(uint256)": "8ca8ec86",
        "redimOTRO01()": "1e4b5ba1",
        "redimTRX()": "cdb8bb2a",
        "redimTRX(uint256)": "875b1148",
        "restarGanacia(uint256)": "ddd9e690",
        "retirar(uint256)": "e8b1298f",
        "setDias(uint256)": "ace17da7",
        "setUnidadesTiempo(uint256)": "3204a0a7",
        "solicitudInterna(uint256)": "dfc0423c",
        "solicitudRetiro(uint256)": "75b2a546",
        "solicitudesEnProgreso(uint256)": "65a54e4f",
        "solicitudesPendientesGlobales()": "4d03c44f",
        "staking()": "4cf088d9",
        "todasSolicitudes(address)": "88a4a981",
        "transferOwnership(address)": "f2fde38b",
        "unidades_tiempo()": "b6013f5a",
        "verSolicitudPendiente(uint256)": "fcd728f5"
    },
    "gasEstimates": {
        "creation": {
            "codeDepositCost": "1982400",
            "executionCost": "infinite",
            "totalCost": "infinite"
        },
        "external": {
            "": "230",
            "ChangeToken(address)": "26859",
            "ChangeTokenOTRO(address)": "26796",
            "MIN_DEPOSIT()": "2406",
            "NoValido()": "2381",
            "RATE()": "infinite",
            "TIEMPO()": "infinite",
            "TRON_BALANCE()": "infinite",
            "TRON_GANANCIAS()": "2428",
            "TRON_PAY_BALANCE()": "305",
            "TRON_SOLICITADO()": "2340",
            "TRON_TOTAL_BALANCE()": "infinite",
            "TRON_WALLET_BALANCE()": "2363",
            "actualizarArray(uint256[])": "infinite",
            "asignarGanacia(uint256)": "26800",
            "asignarPerdida(uint256)": "26778",
            "completarSolicitud(uint256)": "infinite",
            "crearBRTS(uint256)": "infinite",
            "dias_de_pago()": "2450",
            "gananciaDirecta(uint256)": "26778",
            "index()": "2386",
            "largoSolicitudes(address)": "2579",
            "newOwnerBRTS(address)": "infinite",
            "owner()": "2492",
            "pagarGanacias()": "35992",
            "quemarBRTS(uint256)": "infinite",
            "redimBRTS01()": "infinite",
            "redimBRTS02(uint256)": "infinite",
            "redimOTRO01()": "infinite",
            "redimTRX()": "infinite",
            "redimTRX(uint256)": "infinite",
            "restarGanacia(uint256)": "26799",
            "retirar(uint256)": "infinite",
            "setDias(uint256)": "24672",
            "setUnidadesTiempo(uint256)": "24673",
            "solicitudInterna(uint256)": "2527",
            "solicitudRetiro(uint256)": "infinite",
            "solicitudesEnProgreso(uint256)": "2567",
            "solicitudesPendientesGlobales()": "infinite",
            "staking()": "infinite",
            "todasSolicitudes(address)": "infinite",
            "transferOwnership(address)": "30457",
            "unidades_tiempo()": "2362",
            "verSolicitudPendiente(uint256)": "36889"
        }
    }
}