{
    "contractName": "SimpleSwapV3",
    "abi": [
        {
            "inputs": [],
            "stateMutability": "nonpayable",
            "type": "constructor"
        },
        {
            "stateMutability": "payable",
            "type": "fallback"
        },
        {
            "inputs": [
                {
                    "internalType": "address",
                    "name": "_tokenTRC20",
                    "type": "address"
                }
            ],
            "name": "ChangeToken_1",
            "outputs": [],
            "stateMutability": "nonpayable",
            "type": "function"
        },
        {
            "inputs": [
                {
                    "internalType": "address",
                    "name": "_tokenTRC20",
                    "type": "address"
                }
            ],
            "name": "ChangeToken_2",
            "outputs": [],
            "stateMutability": "nonpayable",
            "type": "function"
        },
        {
            "inputs": [],
            "name": "RATE",
            "outputs": [
                {
                    "internalType": "uint256",
                    "name": "",
                    "type": "uint256"
                }
            ],
            "stateMutability": "view",
            "type": "function"
        },
        {
            "inputs": [
                {
                    "internalType": "address",
                    "name": "_spender",
                    "type": "address"
                }
            ],
            "name": "allowToken_1",
            "outputs": [],
            "stateMutability": "nonpayable",
            "type": "function"
        },
        {
            "inputs": [
                {
                    "internalType": "address",
                    "name": "_spender",
                    "type": "address"
                }
            ],
            "name": "allowToken_2",
            "outputs": [],
            "stateMutability": "nonpayable",
            "type": "function"
        },
        {
            "inputs": [],
            "name": "balance_token_1",
            "outputs": [
                {
                    "internalType": "uint256",
                    "name": "",
                    "type": "uint256"
                }
            ],
            "stateMutability": "view",
            "type": "function"
        },
        {
            "inputs": [],
            "name": "balance_token_2",
            "outputs": [
                {
                    "internalType": "uint256",
                    "name": "",
                    "type": "uint256"
                }
            ],
            "stateMutability": "view",
            "type": "function"
        },
        {
            "inputs": [
                {
                    "internalType": "address",
                    "name": "_tokenTRC20",
                    "type": "address"
                }
            ],
            "name": "changeTokenOTRO",
            "outputs": [],
            "stateMutability": "nonpayable",
            "type": "function"
        },
        {
            "inputs": [],
            "name": "descuentoRapido",
            "outputs": [
                {
                    "internalType": "uint256",
                    "name": "",
                    "type": "uint256"
                }
            ],
            "stateMutability": "view",
            "type": "function"
        },
        {
            "inputs": [],
            "name": "iniciado",
            "outputs": [
                {
                    "internalType": "bool",
                    "name": "",
                    "type": "bool"
                }
            ],
            "stateMutability": "view",
            "type": "function"
        },
        {
            "inputs": [],
            "name": "inicializar",
            "outputs": [],
            "stateMutability": "nonpayable",
            "type": "function"
        },
        {
            "inputs": [],
            "name": "owner",
            "outputs": [
                {
                    "internalType": "address",
                    "name": "",
                    "type": "address"
                }
            ],
            "stateMutability": "view",
            "type": "function"
        },
        {
            "inputs": [],
            "name": "precision",
            "outputs": [
                {
                    "internalType": "uint256",
                    "name": "",
                    "type": "uint256"
                }
            ],
            "stateMutability": "view",
            "type": "function"
        },
        {
            "inputs": [],
            "name": "redimOTRO",
            "outputs": [
                {
                    "internalType": "uint256",
                    "name": "valor",
                    "type": "uint256"
                }
            ],
            "stateMutability": "nonpayable",
            "type": "function"
        },
        {
            "inputs": [
                {
                    "internalType": "uint256",
                    "name": "_value",
                    "type": "uint256"
                },
                {
                    "internalType": "address",
                    "name": "_to",
                    "type": "address"
                }
            ],
            "name": "redimTRX",
            "outputs": [],
            "stateMutability": "nonpayable",
            "type": "function"
        },
        {
            "inputs": [
                {
                    "internalType": "uint256",
                    "name": "_value",
                    "type": "uint256"
                }
            ],
            "name": "redimToken_1",
            "outputs": [
                {
                    "internalType": "uint256",
                    "name": "",
                    "type": "uint256"
                }
            ],
            "stateMutability": "nonpayable",
            "type": "function"
        },
        {
            "inputs": [
                {
                    "internalType": "uint256",
                    "name": "_value",
                    "type": "uint256"
                }
            ],
            "name": "redimToken_2",
            "outputs": [
                {
                    "internalType": "uint256",
                    "name": "",
                    "type": "uint256"
                }
            ],
            "stateMutability": "nonpayable",
            "type": "function"
        },
        {
            "inputs": [
                {
                    "internalType": "uint256",
                    "name": "_value_t1",
                    "type": "uint256"
                }
            ],
            "name": "sell_token_1",
            "outputs": [],
            "stateMutability": "nonpayable",
            "type": "function"
        },
        {
            "inputs": [
                {
                    "internalType": "uint256",
                    "name": "_value_t2",
                    "type": "uint256"
                }
            ],
            "name": "sell_token_2",
            "outputs": [],
            "stateMutability": "nonpayable",
            "type": "function"
        },
        {
            "inputs": [
                {
                    "internalType": "uint256",
                    "name": "_descuento",
                    "type": "uint256"
                },
                {
                    "internalType": "uint256",
                    "name": "_precision",
                    "type": "uint256"
                }
            ],
            "name": "setSalidaRapida",
            "outputs": [],
            "stateMutability": "nonpayable",
            "type": "function"
        },
        {
            "inputs": [],
            "name": "timeWhitelist",
            "outputs": [
                {
                    "internalType": "uint256",
                    "name": "",
                    "type": "uint256"
                }
            ],
            "stateMutability": "view",
            "type": "function"
        },
        {
            "inputs": [
                {
                    "internalType": "address",
                    "name": "_newAdmin",
                    "type": "address"
                }
            ],
            "name": "transferOwnership",
            "outputs": [],
            "stateMutability": "nonpayable",
            "type": "function"
        },
        {
            "inputs": [
                {
                    "internalType": "address",
                    "name": "",
                    "type": "address"
                }
            ],
            "name": "whiteList",
            "outputs": [
                {
                    "internalType": "bool",
                    "name": "",
                    "type": "bool"
                }
            ],
            "stateMutability": "view",
            "type": "function"
        },
        {
            "inputs": [
                {
                    "internalType": "address",
                    "name": "",
                    "type": "address"
                }
            ],
            "name": "whiteListRetiro",
            "outputs": [
                {
                    "internalType": "uint256",
                    "name": "",
                    "type": "uint256"
                }
            ],
            "stateMutability": "view",
            "type": "function"
        },
        {
            "inputs": [
                {
                    "internalType": "address",
                    "name": "_user",
                    "type": "address"
                }
            ],
            "name": "whiteList_add",
            "outputs": [],
            "stateMutability": "nonpayable",
            "type": "function"
        },
        {
            "inputs": [
                {
                    "internalType": "address",
                    "name": "_user",
                    "type": "address"
                }
            ],
            "name": "whiteList_remove",
            "outputs": [],
            "stateMutability": "nonpayable",
            "type": "function"
        },
        {
            "inputs": [
                {
                    "internalType": "uint256",
                    "name": "_time",
                    "type": "uint256"
                }
            ],
            "name": "whiteList_time",
            "outputs": [],
            "stateMutability": "nonpayable",
            "type": "function"
        },
        {
            "stateMutability": "payable",
            "type": "receive"
        }
    ],
    "bytecode": "6080806040523461002357600160ff196009541617600955610f6390816100288239f35b5f80fdfe6080604081815260048036101561001e575b505050361561001c57005b005b5f92833560e01c9081630502039614610ca657508063182f8993146109f15780631ae238fd146109dc578063219ec6a1146109b6578063224b178e14610994578063246c5bf314610947578063372c12b11461090957806344dff8f1146108b857806345056cf21461087857806346a5c4cf1461085d5780634fac54fd14610825578063586bb235146107bd57806365e805591461073957806366090198146106a4578063664e9704146106805780636ec17c7a1461063d5780638175db65146105da57806383bd8528146105b65780638929cbc5146105115780638b1a1495146104a25780638da5cb5b146104745780639c45a51f1461033f578063b0ca6b0c146102ff578063d3b5dc3b146102e0578063d7b6e5b2146102bd578063dcbe327e146101d25763f2fde38b03610011578291346101ce5760203660031901126101ce5761016a610cc2565b91610173610d92565b303b156101c95781516308f2839760e41b81526001600160a01b0390931690830152828260248183305af19081156101c057506101ad5750f35b6101b690610cd8565b6101bd5780f35b80fd5b513d84823e3d90fd5b505050fd5b5050fd5b50346102b957826003193601126102b9576101eb610d92565b6009549160ff83166102b5576001918260ff19809516176009556001600160601b0360a01b908181541690556005548573389ccc30de1d311738dffd3f60d4fd6188970f45918284821617600555838254168255168181848754161717855582600254161717600255600654908573a9b422370400a5a628ba17317b293e35b36b423692838382161760065516906003541617176003556005600755606460085562015180600c55818060a01b036102a1610d22565b168452600a60205283209182541617905580f35b8380fd5b8280fd5b5050346102dc57816003193601126102dc576020906007549051908152f35b5080fd5b5050346102dc57816003193601126102dc576020906008549051908152f35b5050346102dc5760203660031901126102dc5761031a610cc2565b610322610d92565b6001600160a01b03168252600a6020528120805460ff1916905580f35b5090346102b957602092836003193601126101bd5782359261035f610d92565b60015483516370a0823160e01b815230838201526001600160a01b0390911691908681602481865afa90811561046a579086918591610435575b50106102b95784839287926103e5956103b0610d22565b885163a9059cbb60e01b81526001600160a01b0390911692810192835260208301949094529295869384929091839160400190565b03925af190811561042a57506103fd575b5051908152f35b61041c90843d8611610423575b6104148183610d00565b810190610e10565b505f6103f6565b503d61040a565b8351903d90823e3d90fd5b809250888092503d8311610463575b61044e8183610d00565b8101031261045f578590515f610399565b5f80fd5b503d610444565b85513d86823e3d90fd5b5050346102dc57816003193601126102dc57602090610491610d22565b90516001600160a01b039091168152f35b5090346102b957602092836003193601126101bd578235926104c2610d92565b815483516370a0823160e01b815230838201526001600160a01b0390911691908681602481865afa90811561046a5790869185916104355750106102b95784839287926103e5956103b0610d22565b5091346101bd57806003193601126101bd5761052b610d92565b60018060a01b0360025416918051916370a0823160e01b835230858401526020948584602481885afa9384156105ac579086918395610577575b509380956103e59495846103b0610d22565b828193929596503d83116105a5575b6105908183610d00565b8101031261045f5751929185906103e5610565565b503d610586565b83513d84823e3d90fd5b5050346102dc57816003193601126102dc5760209060ff6009541690519015158152f35b50346102b957816003193601126102b957356024356001600160a01b0381169081900361045f57839161060b610d92565b8047106102b957828092918192828215610634575bf11561062a575080f35b51903d90823e3d90fd5b506108fc610620565b5050346102dc5760203660031901126102dc57610658610cc2565b610660610d92565b6001600160a01b03168252600a6020528120805460ff1916600117905580f35b5050346102dc57816003193601126102dc5760209061069d610dab565b9051908152f35b509190346102dc57816003193601126102dc5760015481516370a0823160e01b81523094810194909452602090849060249082906001600160a01b03165afa91821561072e57916106fa575b6020925051908152f35b90506020823d8211610726575b8161071460209383610d00565b8101031261045f5760209151906106f0565b3d9150610707565b9051903d90823e3d90fd5b5090346102b95760203660031901126102b9576020610756610cc2565b61075e610d92565b600154835163095ea7b360e01b81526001600160a01b03928316958101959095525f196024860152849160449183918891165af19081156101c057506107a2575080f35b6107b99060203d8111610423576104148183610d00565b5080f35b5090346102b95760203660031901126102b95760206107da610cc2565b6107e2610d92565b8454835163095ea7b360e01b81526001600160a01b03928316958101959095525f196024860152849160449183918891165af19081156101c057506107a2575080f35b5050346102dc5760203660031901126102dc5760209181906001600160a01b0361084d610cc2565b168152600b845220549051908152f35b5050346102dc57816003193601126102dc5751478152602090f35b83346101bd5760203660031901126101bd57610892610cc2565b61089a610d92565b60018060a01b03166001600160601b0360a01b600254161760025580f35b83346101bd5760203660031901126101bd576108d2610cc2565b6108da610d92565b60018060a01b031660055490826001600160601b0360a01b928284821617600555161790600154161760015580f35b5050346102dc5760203660031901126102dc5760209160ff9082906001600160a01b03610934610cc2565b168152600a855220541690519015158152f35b8382346102dc5760203660031901126102dc57610962610cc2565b61096a610d92565b60018060a01b03168282546001600160601b0360a01b938385831617905516179082541617815580f35b8382346102dc5760203660031901126102dc576109af610d92565b35600c5580f35b5090346102b9573660031901126102dc576109cf610d92565b3560075560243560085580f35b83346101bd5760203660031901126101bd5780f35b5090346102b9576020806003193601126102b557823590610a19610a13610dab565b83610e46565b600154845163313ce56760e01b81526001600160a01b03939291839082908990829088165afa908115610b89578891610c75575b50604d8111610c625790610a6491600a0a90610ed5565b90338752600a815260ff858820541680610c45575b15610bbd57338752600b815242858820555b814710610b93578681846001541660648851809481936323b872dd60e01b8352338d8401523060248401528a60448401525af1908115610b89578891610b6c575b5015610b3657509085808080809695818115610b2d575b3390f1156105ac576003541693843b156102b957602490838551968794859363f14faf6f60e01b85528401525af19081156101c05750610b21575080f35b610b2a90610cd8565b80f35b506108fc610ae3565b8560649186519162461bcd60e51b83528201526011602482015270151bdad95b880c881b9bc81cd95b991959607a1b6044820152fd5b610b839150823d8411610423576104148183610d00565b5f610acc565b86513d8a823e3d90fd5b8560649186519162461bcd60e51b835282015260056024820152644e4154203160d81b6044820152fd5b9060085490600754828111610c0257820390828211610bef57610be99291610be491610e46565b610ed5565b90610a8b565b634e487b7160e01b895260118852602489fd5b865162461bcd60e51b8152808901859052601e60248201527f536166654d6174683a207375627472616374696f6e206f766572666c6f7700006044820152606490fd5b50600b815284872054600c548101809111610c6257421015610a79565b634e487b7160e01b885260118752602488fd5b90508281813d8311610c9f575b610c8c8183610d00565b81010312610c9b57515f610a4d565b8780fd5b503d610c82565b8490346102dc57816003193601126102dc57602090600c548152f35b600435906001600160a01b038216820361045f57565b67ffffffffffffffff8111610cec57604052565b634e487b7160e01b5f52604160045260245ffd5b90601f8019910116810190811067ffffffffffffffff821117610cec57604052565b6040516303e1469160e61b8152602081600481305afa908115610d87575f91610d49575090565b6020813d8211610d7f575b81610d6160209383610d00565b810103126102dc5751906001600160a01b03821682036101bd575090565b3d9150610d54565b6040513d5f823e3d90fd5b6001600160a01b03610da2610d22565b16330361045f57565b600354604051631993a5c160e21b815290602090829060049082906001600160a01b03165afa908115610d87575f91610de2575090565b906020823d8211610e08575b81610dfb60209383610d00565b810103126101bd57505190565b3d9150610dee565b9081602091031261045f5751801515810361045f5790565b8115610e32570490565b634e487b7160e01b5f52601260045260245ffd5b908115610ecf57808202918083048203610ebb57610e649083610e28565b03610e6c5790565b60405162461bcd60e51b815260206004820152602160248201527f536166654d6174683a206d756c7469706c69636174696f6e206f766572666c6f6044820152607760f81b6064820152608490fd5b634e487b7160e01b5f52601160045260245ffd5b50505f90565b908015610ee857610ee591610e28565b90565b60405162461bcd60e51b815260206004820152601a60248201527f536166654d6174683a206469766973696f6e206279207a65726f0000000000006044820152606490fdfea2646970667358221220762b749fd9c4b6860b9bedf90cebc31aa272a1cd83cd79c296a6506581d650d764736f6c63430008140033",
    "sourcePath": "c:/Users/Steven/Documents/GitHub/BRUTUS-TOKEN/contracts/BRST POOL/Swap_proxy/simpleSwapV3.0.sol",
    "compiler": {
        "name": "solc",
        "version": "0.8.20+commit.a1b79de6"
    },
    "functionHashes": {
        "ChangeToken_1(address)": "246c5bf3",
        "ChangeToken_2(address)": "44dff8f1",
        "RATE()": "664e9704",
        "allowToken_1(address)": "586bb235",
        "allowToken_2(address)": "65e80559",
        "balance_token_1()": "46a5c4cf",
        "balance_token_2()": "66090198",
        "changeTokenOTRO(address)": "45056cf2",
        "descuentoRapido()": "d7b6e5b2",
        "iniciado()": "83bd8528",
        "inicializar()": "dcbe327e",
        "owner()": "8da5cb5b",
        "precision()": "d3b5dc3b",
        "redimOTRO()": "8929cbc5",
        "redimTRX(uint256,address)": "8175db65",
        "redimToken_1(uint256)": "8b1a1495",
        "redimToken_2(uint256)": "9c45a51f",
        "sell_token_1(uint256)": "1ae238fd",
        "sell_token_2(uint256)": "182f8993",
        "setSalidaRapida(uint256,uint256)": "219ec6a1",
        "timeWhitelist()": "05020396",
        "transferOwnership(address)": "f2fde38b",
        "whiteList(address)": "372c12b1",
        "whiteListRetiro(address)": "4fac54fd",
        "whiteList_add(address)": "6ec17c7a",
        "whiteList_remove(address)": "b0ca6b0c",
        "whiteList_time(uint256)": "224b178e"
    },
    "gasEstimates": {
        "creation": {
            "codeDepositCost": "787800",
            "executionCost": "25054",
            "totalCost": "812854"
        },
        "external": {
            "": "691",
            "ChangeToken_1(address)": "infinite",
            "ChangeToken_2(address)": "infinite",
            "RATE()": "infinite",
            "allowToken_1(address)": "infinite",
            "allowToken_2(address)": "infinite",
            "balance_token_1()": "370",
            "balance_token_2()": "infinite",
            "changeTokenOTRO(address)": "infinite",
            "descuentoRapido()": "2804",
            "iniciado()": "2662",
            "inicializar()": "infinite",
            "owner()": "infinite",
            "precision()": "2782",
            "redimOTRO()": "infinite",
            "redimTRX(uint256,address)": "infinite",
            "redimToken_1(uint256)": "infinite",
            "redimToken_2(uint256)": "infinite",
            "sell_token_1(uint256)": "193",
            "sell_token_2(uint256)": "infinite",
            "setSalidaRapida(uint256,uint256)": "infinite",
            "timeWhitelist()": "2267",
            "transferOwnership(address)": "infinite",
            "whiteList(address)": "2574",
            "whiteListRetiro(address)": "2647",
            "whiteList_add(address)": "infinite",
            "whiteList_remove(address)": "infinite",
            "whiteList_time(uint256)": "infinite"
        },
        "internal": {
            "onlyOwner()": "infinite"
        }
    }
}