{
    "contractName": "SimpleSwapV2",
    "abi": [
        {
            "inputs": [],
            "stateMutability": "nonpayable",
            "type": "constructor"
        },
        {
            "stateMutability": "payable",
            "type": "fallback"
        },
        {
            "inputs": [
                {
                    "internalType": "address",
                    "name": "_tokenTRC20",
                    "type": "address"
                }
            ],
            "name": "ChangeToken_1",
            "outputs": [],
            "stateMutability": "nonpayable",
            "type": "function"
        },
        {
            "inputs": [
                {
                    "internalType": "address",
                    "name": "_tokenTRC20",
                    "type": "address"
                }
            ],
            "name": "ChangeToken_2",
            "outputs": [],
            "stateMutability": "nonpayable",
            "type": "function"
        },
        {
            "inputs": [],
            "name": "RATE",
            "outputs": [
                {
                    "internalType": "uint256",
                    "name": "",
                    "type": "uint256"
                }
            ],
            "stateMutability": "view",
            "type": "function"
        },
        {
            "inputs": [
                {
                    "internalType": "address",
                    "name": "_spender",
                    "type": "address"
                }
            ],
            "name": "allowToken_1",
            "outputs": [],
            "stateMutability": "nonpayable",
            "type": "function"
        },
        {
            "inputs": [
                {
                    "internalType": "address",
                    "name": "_spender",
                    "type": "address"
                }
            ],
            "name": "allowToken_2",
            "outputs": [],
            "stateMutability": "nonpayable",
            "type": "function"
        },
        {
            "inputs": [],
            "name": "balance_token_1",
            "outputs": [
                {
                    "internalType": "uint256",
                    "name": "",
                    "type": "uint256"
                }
            ],
            "stateMutability": "view",
            "type": "function"
        },
        {
            "inputs": [],
            "name": "balance_token_2",
            "outputs": [
                {
                    "internalType": "uint256",
                    "name": "",
                    "type": "uint256"
                }
            ],
            "stateMutability": "view",
            "type": "function"
        },
        {
            "inputs": [
                {
                    "internalType": "address",
                    "name": "_tokenTRC20",
                    "type": "address"
                }
            ],
            "name": "changeTokenOTRO",
            "outputs": [],
            "stateMutability": "nonpayable",
            "type": "function"
        },
        {
            "inputs": [],
            "name": "descuentoRapido",
            "outputs": [
                {
                    "internalType": "uint256",
                    "name": "",
                    "type": "uint256"
                }
            ],
            "stateMutability": "view",
            "type": "function"
        },
        {
            "inputs": [],
            "name": "iniciado",
            "outputs": [
                {
                    "internalType": "bool",
                    "name": "",
                    "type": "bool"
                }
            ],
            "stateMutability": "view",
            "type": "function"
        },
        {
            "inputs": [],
            "name": "inicializar",
            "outputs": [],
            "stateMutability": "nonpayable",
            "type": "function"
        },
        {
            "inputs": [],
            "name": "owner",
            "outputs": [
                {
                    "internalType": "address",
                    "name": "",
                    "type": "address"
                }
            ],
            "stateMutability": "view",
            "type": "function"
        },
        {
            "inputs": [],
            "name": "precision",
            "outputs": [
                {
                    "internalType": "uint256",
                    "name": "",
                    "type": "uint256"
                }
            ],
            "stateMutability": "view",
            "type": "function"
        },
        {
            "inputs": [],
            "name": "redimOTRO",
            "outputs": [
                {
                    "internalType": "uint256",
                    "name": "valor",
                    "type": "uint256"
                }
            ],
            "stateMutability": "nonpayable",
            "type": "function"
        },
        {
            "inputs": [
                {
                    "internalType": "uint256",
                    "name": "_value",
                    "type": "uint256"
                },
                {
                    "internalType": "address",
                    "name": "_to",
                    "type": "address"
                }
            ],
            "name": "redimTRX",
            "outputs": [],
            "stateMutability": "nonpayable",
            "type": "function"
        },
        {
            "inputs": [
                {
                    "internalType": "uint256",
                    "name": "_value",
                    "type": "uint256"
                }
            ],
            "name": "redimToken_1",
            "outputs": [
                {
                    "internalType": "uint256",
                    "name": "",
                    "type": "uint256"
                }
            ],
            "stateMutability": "nonpayable",
            "type": "function"
        },
        {
            "inputs": [
                {
                    "internalType": "uint256",
                    "name": "_value",
                    "type": "uint256"
                }
            ],
            "name": "redimToken_2",
            "outputs": [
                {
                    "internalType": "uint256",
                    "name": "",
                    "type": "uint256"
                }
            ],
            "stateMutability": "nonpayable",
            "type": "function"
        },
        {
            "inputs": [
                {
                    "internalType": "uint256",
                    "name": "_value_t1",
                    "type": "uint256"
                }
            ],
            "name": "sell_token_1",
            "outputs": [],
            "stateMutability": "nonpayable",
            "type": "function"
        },
        {
            "inputs": [
                {
                    "internalType": "uint256",
                    "name": "_value_t2",
                    "type": "uint256"
                }
            ],
            "name": "sell_token_2",
            "outputs": [],
            "stateMutability": "nonpayable",
            "type": "function"
        },
        {
            "inputs": [
                {
                    "internalType": "uint256",
                    "name": "_descuento",
                    "type": "uint256"
                },
                {
                    "internalType": "uint256",
                    "name": "_precision",
                    "type": "uint256"
                }
            ],
            "name": "setSalidaRapida",
            "outputs": [],
            "stateMutability": "nonpayable",
            "type": "function"
        },
        {
            "inputs": [
                {
                    "internalType": "address",
                    "name": "_newAdmin",
                    "type": "address"
                }
            ],
            "name": "transferOwnership",
            "outputs": [],
            "stateMutability": "nonpayable",
            "type": "function"
        },
        {
            "stateMutability": "payable",
            "type": "receive"
        }
    ],
    "bytecode": "60806040526009805460ff1916600117905534801561001c575f80fd5b50610ffe8061002a5f395ff3fe608060405260043610610121575f3560e01c8063664e9704116100a45780638da5cb5b1161006b5780638da5cb5b146102e45780639c45a51f14610310578063d3b5dc3b1461032f578063d7b6e5b214610344578063dcbe327e14610359578063f2fde38b1461036d57005b8063664e9704146102555780638175db651461026957806383bd8528146102885780638929cbc5146102b15780638b1a1495146102c557005b806345056cf2116100e857806345056cf2146101c357806346a5c4cf146101e2578063586bb2351461020357806365e8055914610222578063660901981461024157005b8063182f89931461012a5780631ae238fd14610149578063219ec6a114610166578063246c5bf31461018557806344dff8f1146101a457005b3661012857005b005b348015610135575f80fd5b50610128610144366004610d94565b61038c565b348015610154575f80fd5b50610128610163366004610d94565b50565b348015610171575f80fd5b50610128610180366004610dab565b6105d5565b348015610190575f80fd5b5061012861019f366004610ddf565b6105e8565b3480156101af575f80fd5b506101286101be366004610ddf565b61061b565b3480156101ce575f80fd5b506101286101dd366004610ddf565b61064f565b3480156101ed575f80fd5b50475b6040519081526020015b60405180910390f35b34801561020e575f80fd5b5061012861021d366004610ddf565b610679565b34801561022d575f80fd5b5061012861023c366004610ddf565b6106f9565b34801561024c575f80fd5b506101f061073a565b348015610260575f80fd5b506101f06107a9565b348015610274575f80fd5b50610128610283366004610dfa565b6107f0565b348015610293575f80fd5b506009546102a19060ff1681565b60405190151581526020016101fa565b3480156102bc575f80fd5b506101f061083c565b3480156102d0575f80fd5b506101f06102df366004610d94565b61093d565b3480156102ef575f80fd5b506102f8610a46565b6040516001600160a01b0390911681526020016101fa565b34801561031b575f80fd5b506101f061032a366004610d94565b610ab1565b34801561033a575f80fd5b506101f060085481565b34801561034f575f80fd5b506101f060075481565b348015610364575f80fd5b50610128610b47565b348015610378575f80fd5b50610128610387366004610ddf565b610bf2565b5f61042760015f9054906101000a90046001600160a01b03166001600160a01b031663313ce5676040518163ffffffff1660e01b8152600401602060405180830381865afa1580156103e0573d5f803e3d5ffd5b505050506040513d601f19601f820116820180604052508101906104049190610e28565b61040f90600a610f33565b61042161041a6107a9565b8590610c28565b90610caf565b90508047106104655760405162461bcd60e51b81526020600482015260056024820152644e4154203160d81b60448201526064015b60405180910390fd5b6001546040516323b872dd60e01b8152336004820152306024820152604481018490526001600160a01b03909116906323b872dd906064016020604051808303815f875af11580156104b9573d5f803e3d5ffd5b505050506040513d601f19601f820116820180604052508101906104dd9190610f45565b61051d5760405162461bcd60e51b8152602060048201526011602482015270151bdad95b880c881b9bc81cd95b991959607a1b604482015260640161045c565b336001600160a01b03166108fc61055160085461042161054a600754600854610d1290919063ffffffff16565b8690610c28565b6040518115909202915f818181858888f19350505050158015610576573d5f803e3d5ffd5b5060035460405163f14faf6f60e01b8152600481018490526001600160a01b039091169063f14faf6f906024015b5f604051808303815f87803b1580156105bb575f80fd5b505af11580156105cd573d5f803e3d5ffd5b505050505050565b6105dd610d6e565b600791909155600855565b6105f0610d6e565b600480546001600160a01b039092166001600160a01b031992831681179091555f8054909216179055565b610623610d6e565b600580546001600160a01b039092166001600160a01b0319928316811790915560018054909216179055565b610657610d6e565b600280546001600160a01b0319166001600160a01b0392909216919091179055565b610681610d6e565b5f5460405163095ea7b360e01b81526001600160a01b0383811660048301525f1960248301529091169063095ea7b3906044015b6020604051808303815f875af11580156106d1573d5f803e3d5ffd5b505050506040513d601f19601f820116820180604052508101906106f59190610f45565b5050565b610701610d6e565b60015460405163095ea7b360e01b81526001600160a01b0383811660048301525f1960248301529091169063095ea7b3906044016106b5565b6001546040516370a0823160e01b81523060048201525f916001600160a01b0316906370a0823190602401602060405180830381865afa158015610780573d5f803e3d5ffd5b505050506040513d601f19601f820116820180604052508101906107a49190610e28565b905090565b60035460408051631993a5c160e21b815290515f926001600160a01b03169163664e97049160048083019260209291908290030181865afa158015610780573d5f803e3d5ffd5b6107f8610d6e565b81471015610804575f80fd5b6040516001600160a01b0382169083156108fc029084905f818181858888f19350505050158015610837573d5f803e3d5ffd5b505050565b5f610845610d6e565b6002546040516370a0823160e01b81523060048201526001600160a01b03909116906370a0823190602401602060405180830381865afa15801561088b573d5f803e3d5ffd5b505050506040513d601f19601f820116820180604052508101906108af9190610e28565b6002549091506001600160a01b031663a9059cbb6108cb610a46565b6040516001600160e01b031960e084901b1681526001600160a01b039091166004820152602481018490526044016020604051808303815f875af1158015610915573d5f803e3d5ffd5b505050506040513d601f19601f820116820180604052508101906109399190610f45565b5090565b5f610946610d6e565b5f546040516370a0823160e01b815230600482015283916001600160a01b0316906370a0823190602401602060405180830381865afa15801561098b573d5f803e3d5ffd5b505050506040513d601f19601f820116820180604052508101906109af9190610e28565b10156109b9575f80fd5b5f546001600160a01b031663a9059cbb6109d1610a46565b6040516001600160e01b031960e084901b1681526001600160a01b039091166004820152602481018590526044016020604051808303815f875af1158015610a1b573d5f803e3d5ffd5b505050506040513d601f19601f82011682018060405250810190610a3f9190610f45565b5090919050565b5f80309050806001600160a01b031663f851a4406040518163ffffffff1660e01b8152600401602060405180830381865afa158015610a87573d5f803e3d5ffd5b505050506040513d601f19601f82011682018060405250810190610aab9190610f64565b91505090565b5f610aba610d6e565b6001546040516370a0823160e01b815230600482015283916001600160a01b0316906370a0823190602401602060405180830381865afa158015610b00573d5f803e3d5ffd5b505050506040513d601f19601f82011682018060405250810190610b249190610e28565b1015610b2e575f80fd5b6001546001600160a01b031663a9059cbb6109d1610a46565b610b4f610d6e565b60095460ff1615610b5e575f80fd5b6009805460ff19166001908117909155600480546001600160a01b031990811690915560058054821673389ccc30de1d311738dffd3f60d4fd6188970f4590811782555f80548416905583548316811790935560028054831690931790925560068054821673a9b422370400a5a628ba17317b293e35b36b4236908117909155600380549092161790556007556064600855565b610bfa610d6e565b6040516308f2839760e41b81526001600160a01b038216600482015230908190638f283970906024016105a4565b5f825f03610c3757505f610ca9565b5f610c428385610f7f565b905082610c4f8583610f96565b14610ca65760405162461bcd60e51b815260206004820152602160248201527f536166654d6174683a206d756c7469706c69636174696f6e206f766572666c6f6044820152607760f81b606482015260840161045c565b90505b92915050565b5f808211610cff5760405162461bcd60e51b815260206004820152601a60248201527f536166654d6174683a206469766973696f6e206279207a65726f000000000000604482015260640161045c565b5f610d0a8385610f96565b949350505050565b5f82821115610d635760405162461bcd60e51b815260206004820152601e60248201527f536166654d6174683a207375627472616374696f6e206f766572666c6f770000604482015260640161045c565b5f610d0a8385610fb5565b610d76610a46565b6001600160a01b0316336001600160a01b031614610d92575f80fd5b565b5f60208284031215610da4575f80fd5b5035919050565b5f8060408385031215610dbc575f80fd5b50508035926020909101359150565b6001600160a01b0381168114610163575f80fd5b5f60208284031215610def575f80fd5b8135610ca681610dcb565b5f8060408385031215610e0b575f80fd5b823591506020830135610e1d81610dcb565b809150509250929050565b5f60208284031215610e38575f80fd5b5051919050565b634e487b7160e01b5f52601160045260245ffd5b600181815b80851115610e8d57815f1904821115610e7357610e73610e3f565b80851615610e8057918102915b93841c9390800290610e58565b509250929050565b5f82610ea357506001610ca9565b81610eaf57505f610ca9565b8160018114610ec55760028114610ecf57610eeb565b6001915050610ca9565b60ff841115610ee057610ee0610e3f565b50506001821b610ca9565b5060208310610133831016604e8410600b8410161715610f0e575081810a610ca9565b610f188383610e53565b805f1904821115610f2b57610f2b610e3f565b029392505050565b5f610f3e8383610e95565b9392505050565b5f60208284031215610f55575f80fd5b81518015158114610ca6575f80fd5b5f60208284031215610f74575f80fd5b8151610ca681610dcb565b8082028115828204841417610ca957610ca9610e3f565b5f82610fb057634e487b7160e01b5f52601260045260245ffd5b500490565b81810381811115610ca957610ca9610e3f56fea264697066735822122068ff33c067871e7e2a0bff1698723e1b17b8571068ec10edd6f83a2c38b4207c64736f6c63430008140033",
    "sourcePath": "c:/Users/Steven/Documents/GitHub/BRUTUS-TOKEN/contracts/Swap_proxy/simpleSwapV2.0.sol",
    "compiler": {
        "name": "solc",
        "version": "0.8.20+commit.a1b79de6"
    },
    "functionHashes": {
        "ChangeToken_1(address)": "246c5bf3",
        "ChangeToken_2(address)": "44dff8f1",
        "RATE()": "664e9704",
        "allowToken_1(address)": "586bb235",
        "allowToken_2(address)": "65e80559",
        "balance_token_1()": "46a5c4cf",
        "balance_token_2()": "66090198",
        "changeTokenOTRO(address)": "45056cf2",
        "descuentoRapido()": "d7b6e5b2",
        "iniciado()": "83bd8528",
        "inicializar()": "dcbe327e",
        "owner()": "8da5cb5b",
        "precision()": "d3b5dc3b",
        "redimOTRO()": "8929cbc5",
        "redimTRX(uint256,address)": "8175db65",
        "redimToken_1(uint256)": "8b1a1495",
        "redimToken_2(uint256)": "9c45a51f",
        "sell_token_1(uint256)": "1ae238fd",
        "sell_token_2(uint256)": "182f8993",
        "setSalidaRapida(uint256,uint256)": "219ec6a1",
        "transferOwnership(address)": "f2fde38b"
    },
    "gasEstimates": {
        "creation": {
            "codeDepositCost": "818800",
            "executionCost": "25073",
            "totalCost": "843873"
        },
        "external": {
            "": "206",
            "ChangeToken_1(address)": "infinite",
            "ChangeToken_2(address)": "infinite",
            "RATE()": "infinite",
            "allowToken_1(address)": "infinite",
            "allowToken_2(address)": "infinite",
            "balance_token_1()": "216",
            "balance_token_2()": "infinite",
            "changeTokenOTRO(address)": "infinite",
            "descuentoRapido()": "2371",
            "iniciado()": "2376",
            "inicializar()": "infinite",
            "owner()": "infinite",
            "precision()": "2349",
            "redimOTRO()": "infinite",
            "redimTRX(uint256,address)": "infinite",
            "redimToken_1(uint256)": "infinite",
            "redimToken_2(uint256)": "infinite",
            "sell_token_1(uint256)": "255",
            "sell_token_2(uint256)": "infinite",
            "setSalidaRapida(uint256,uint256)": "infinite",
            "transferOwnership(address)": "infinite"
        },
        "internal": {
            "onlyOwner()": "infinite"
        }
    }
}