{
    "contractName": "Main",
    "abi": [
        {
            "anonymous": false,
            "inputs": [
                {
                    "indexed": true,
                    "internalType": "address",
                    "name": "_user",
                    "type": "address"
                }
            ],
            "name": "AddedBlackList",
            "type": "event"
        },
        {
            "anonymous": false,
            "inputs": [
                {
                    "indexed": true,
                    "internalType": "address",
                    "name": "_user",
                    "type": "address"
                }
            ],
            "name": "RemovedBlackList",
            "type": "event"
        },
        {
            "inputs": [
                {
                    "internalType": "address",
                    "name": "_evilUser",
                    "type": "address"
                }
            ],
            "name": "addBlackList",
            "outputs": [],
            "stateMutability": "nonpayable",
            "type": "function"
        },
        {
            "inputs": [],
            "name": "adminProxy",
            "outputs": [
                {
                    "internalType": "address",
                    "name": "",
                    "type": "address"
                }
            ],
            "stateMutability": "view",
            "type": "function"
        },
        {
            "inputs": [],
            "name": "iniciado",
            "outputs": [
                {
                    "internalType": "bool",
                    "name": "",
                    "type": "bool"
                }
            ],
            "stateMutability": "view",
            "type": "function"
        },
        {
            "inputs": [
                {
                    "internalType": "string",
                    "name": "__name",
                    "type": "string"
                },
                {
                    "internalType": "string",
                    "name": "__symbol",
                    "type": "string"
                },
                {
                    "internalType": "uint8",
                    "name": "__decimals",
                    "type": "uint8"
                }
            ],
            "name": "inicializar",
            "outputs": [],
            "stateMutability": "nonpayable",
            "type": "function"
        },
        {
            "inputs": [
                {
                    "internalType": "address",
                    "name": "",
                    "type": "address"
                }
            ],
            "name": "isBlackListed",
            "outputs": [
                {
                    "internalType": "bool",
                    "name": "",
                    "type": "bool"
                }
            ],
            "stateMutability": "view",
            "type": "function"
        },
        {
            "inputs": [
                {
                    "internalType": "address",
                    "name": "_clearedUser",
                    "type": "address"
                }
            ],
            "name": "removeBlackList",
            "outputs": [],
            "stateMutability": "nonpayable",
            "type": "function"
        },
        {
            "inputs": [
                {
                    "internalType": "string",
                    "name": "name",
                    "type": "string"
                }
            ],
            "name": "updateName",
            "outputs": [],
            "stateMutability": "nonpayable",
            "type": "function"
        }
    ],
    "bytecode": "60806040525f80546001600160a01b031916301790556007805461ff00191661010017905534801561002f575f80fd5b506106758061003d5f395ff3fe608060405234801561000f575f80fd5b506004361061007a575f3560e01c80638ddabfd6116100585780638ddabfd6146100cd578063c52f4f34146100e0578063e47d606014610100578063e4997dc514610122575f80fd5b80630ecb93c01461007e57806383bd85281461009357806384da92a7146100ba575b5f80fd5b61009161008c366004610371565b610135565b005b6007546100a590610100900460ff1681565b60405190151581526020015b60405180910390f35b6100916100c8366004610430565b61018b565b6100916100db36600461046a565b61019b565b6100e8610201565b6040516001600160a01b0390911681526020016100b1565b6100a561010e366004610371565b60016020525f908152604090205460ff1681565b610091610130366004610371565b61027a565b61013d6102ca565b6001600160a01b0381165f818152600160208190526040808320805460ff1916909217909155517f42e160154868087d6bfdc0ca23d96a1c1cfa32f1b72ba9ba27b69b98a0d819dc9190a250565b60056101978282610568565b5050565b600754610100900460ff16156101af575f80fd5b5f80546001600160a01b031916301790556007805461ff00191661010017905560056101db8482610568565b5060066101e88382610568565b506007805460ff191660ff929092169190911790555050565b5f805f9054906101000a90046001600160a01b03166001600160a01b031663f851a4406040518163ffffffff1660e01b8152600401602060405180830381865afa158015610251573d5f803e3d5ffd5b505050506040513d601f19601f820116820180604052508101906102759190610624565b905090565b6102826102ca565b6001600160a01b0381165f81815260016020526040808220805460ff19169055517fd7e9ec6e6ecd65492dce6bf513cd6867560d49544421d0783ddf06e76c24470c9190a250565b5f8054906101000a90046001600160a01b03166001600160a01b031663f851a4406040518163ffffffff1660e01b8152600401602060405180830381865afa158015610318573d5f803e3d5ffd5b505050506040513d601f19601f8201168201806040525081019061033c9190610624565b6001600160a01b0316336001600160a01b031614610358575f80fd5b565b6001600160a01b038116811461036e575f80fd5b50565b5f60208284031215610381575f80fd5b813561038c8161035a565b9392505050565b634e487b7160e01b5f52604160045260245ffd5b5f82601f8301126103b6575f80fd5b813567ffffffffffffffff808211156103d1576103d1610393565b604051601f8301601f19908116603f011681019082821181831017156103f9576103f9610393565b81604052838152866020858801011115610411575f80fd5b836020870160208301375f602085830101528094505050505092915050565b5f60208284031215610440575f80fd5b813567ffffffffffffffff811115610456575f80fd5b610462848285016103a7565b949350505050565b5f805f6060848603121561047c575f80fd5b833567ffffffffffffffff80821115610493575f80fd5b61049f878388016103a7565b945060208601359150808211156104b4575f80fd5b506104c1868287016103a7565b925050604084013560ff811681146104d7575f80fd5b809150509250925092565b600181811c908216806104f657607f821691505b60208210810361051457634e487b7160e01b5f52602260045260245ffd5b50919050565b601f821115610563575f81815260208120601f850160051c810160208610156105405750805b601f850160051c820191505b8181101561055f5782815560010161054c565b5050505b505050565b815167ffffffffffffffff81111561058257610582610393565b6105968161059084546104e2565b8461051a565b602080601f8311600181146105c9575f84156105b25750858301515b5f19600386901b1c1916600185901b17855561055f565b5f85815260208120601f198616915b828110156105f7578886015182559484019460019091019084016105d8565b508582101561061457878501515f19600388901b60f8161c191681555b5050505050600190811b01905550565b5f60208284031215610634575f80fd5b815161038c8161035a56fea2646970667358221220529276c500f81840c2c60f309ae899a8e3536260a4476a69ffca88dd379168e664736f6c63430008140033",
    "sourcePath": "c:/Users/STC/Documents/GitHub/BRUTUS-TOKEN/contracts/TRC20-3.0_proxy/Token-TRC20.sol",
    "compiler": {
        "name": "solc",
        "version": "0.8.20+commit.a1b79de6"
    },
    "functionHashes": {
        "addBlackList(address)": "0ecb93c0",
        "adminProxy()": "c52f4f34",
        "iniciado()": "83bd8528",
        "inicializar(string,string,uint8)": "8ddabfd6",
        "isBlackListed(address)": "e47d6060",
        "removeBlackList(address)": "e4997dc5",
        "updateName(string)": "84da92a7"
    },
    "gasEstimates": {
        "creation": {
            "codeDepositCost": "330600",
            "executionCost": "48824",
            "totalCost": "379424"
        },
        "external": {
            "addBlackList(address)": "infinite",
            "adminProxy()": "infinite",
            "iniciado()": "2332",
            "inicializar(string,string,uint8)": "infinite",
            "isBlackListed(address)": "2555",
            "removeBlackList(address)": "infinite",
            "updateName(string)": "infinite"
        }
    }
}